{
	"swap/NFTSwap.sol": {
		"NFTSwap": {
			"abi": [
				{
					"inputs": [],
					"stateMutability": "nonpayable",
					"type": "constructor"
				},
				{
					"anonymous": false,
					"inputs": [
						{
							"indexed": true,
							"internalType": "address",
							"name": "buyer",
							"type": "address"
						},
						{
							"indexed": true,
							"internalType": "address",
							"name": "nftAddr",
							"type": "address"
						},
						{
							"indexed": true,
							"internalType": "uint256",
							"name": "tokenId",
							"type": "uint256"
						},
						{
							"indexed": false,
							"internalType": "uint256",
							"name": "price",
							"type": "uint256"
						}
					],
					"name": "Buy",
					"type": "event"
				},
				{
					"anonymous": false,
					"inputs": [
						{
							"indexed": true,
							"internalType": "address",
							"name": "seller",
							"type": "address"
						},
						{
							"indexed": true,
							"internalType": "address",
							"name": "nftAddr",
							"type": "address"
						},
						{
							"indexed": true,
							"internalType": "uint256",
							"name": "tokenId",
							"type": "uint256"
						},
						{
							"indexed": false,
							"internalType": "uint256",
							"name": "price",
							"type": "uint256"
						}
					],
					"name": "List",
					"type": "event"
				},
				{
					"anonymous": false,
					"inputs": [
						{
							"indexed": true,
							"internalType": "address",
							"name": "seller",
							"type": "address"
						},
						{
							"indexed": true,
							"internalType": "address",
							"name": "nftAddr",
							"type": "address"
						},
						{
							"indexed": true,
							"internalType": "uint256",
							"name": "tokenId",
							"type": "uint256"
						}
					],
					"name": "Revoke",
					"type": "event"
				},
				{
					"anonymous": false,
					"inputs": [
						{
							"indexed": true,
							"internalType": "address",
							"name": "seller",
							"type": "address"
						},
						{
							"indexed": true,
							"internalType": "address",
							"name": "nftAddr",
							"type": "address"
						},
						{
							"indexed": true,
							"internalType": "uint256",
							"name": "tokenId",
							"type": "uint256"
						},
						{
							"indexed": false,
							"internalType": "uint256",
							"name": "newPrice",
							"type": "uint256"
						}
					],
					"name": "Update",
					"type": "event"
				},
				{
					"stateMutability": "payable",
					"type": "fallback"
				},
				{
					"inputs": [
						{
							"internalType": "address",
							"name": "_nftAddr",
							"type": "address"
						},
						{
							"internalType": "uint256",
							"name": "_tokenId",
							"type": "uint256"
						}
					],
					"name": "buy",
					"outputs": [],
					"stateMutability": "payable",
					"type": "function"
				},
				{
					"inputs": [
						{
							"internalType": "address",
							"name": "_nftAddr",
							"type": "address"
						},
						{
							"internalType": "uint256",
							"name": "_tokenId",
							"type": "uint256"
						},
						{
							"internalType": "uint256",
							"name": "_price",
							"type": "uint256"
						}
					],
					"name": "list",
					"outputs": [],
					"stateMutability": "nonpayable",
					"type": "function"
				},
				{
					"inputs": [
						{
							"internalType": "address",
							"name": "operator",
							"type": "address"
						},
						{
							"internalType": "address",
							"name": "from",
							"type": "address"
						},
						{
							"internalType": "uint256",
							"name": "tokenId",
							"type": "uint256"
						},
						{
							"internalType": "bytes",
							"name": "data",
							"type": "bytes"
						}
					],
					"name": "onERC721Received",
					"outputs": [
						{
							"internalType": "bytes4",
							"name": "",
							"type": "bytes4"
						}
					],
					"stateMutability": "nonpayable",
					"type": "function"
				},
				{
					"inputs": [
						{
							"internalType": "address",
							"name": "_nftAddr",
							"type": "address"
						},
						{
							"internalType": "uint256",
							"name": "_tokenId",
							"type": "uint256"
						}
					],
					"name": "revoke",
					"outputs": [],
					"stateMutability": "nonpayable",
					"type": "function"
				},
				{
					"inputs": [
						{
							"internalType": "address",
							"name": "_nftAddr",
							"type": "address"
						},
						{
							"internalType": "uint256",
							"name": "_tokenId",
							"type": "uint256"
						},
						{
							"internalType": "uint256",
							"name": "_newPrice",
							"type": "uint256"
						}
					],
					"name": "update",
					"outputs": [],
					"stateMutability": "nonpayable",
					"type": "function"
				},
				{
					"stateMutability": "payable",
					"type": "receive"
				}
			],
			"devdoc": {
				"kind": "dev",
				"methods": {
					"onERC721Received(address,address,uint256,bytes)": {
						"details": "The ERC721 smart contract calls this function on the recipient after a `safeTransfer`. This function MUST return the function selector, otherwise the caller will revert the transaction. The selector to be returned can be obtained as `this.onERC721Received.selector`. This function MAY throw to revert and reject the transfer. Note: the ERC721 contract address is always the message sender.",
						"params": {
							"data": "Additional data with no specified format",
							"from": "The address which previously owned the token",
							"operator": "The address which called `safeTransferFrom` function",
							"tokenId": "The NFT identifier which is being transferred"
						},
						"returns": {
							"_0": "`bytes4(keccak256(\"onERC721Received(address,address,uint256,bytes)\"))`"
						}
					}
				},
				"version": 1
			},
			"evm": {
				"assembly": "    /* \"swap/NFTSwap.sol\":147:3538  contract NFTSwap is IERC721Receiver{... */\n  mstore(0x40, 0x80)\n    /* \"swap/NFTSwap.sol\":600:630  constructor() {... */\n  callvalue\n  dup1\n  iszero\n  tag_1\n  jumpi\n  0x00\n  dup1\n  revert\ntag_1:\n  pop\n    /* \"swap/NFTSwap.sol\":147:3538  contract NFTSwap is IERC721Receiver{... */\n  dataSize(sub_0)\n  dup1\n  dataOffset(sub_0)\n  0x00\n  codecopy\n  0x00\n  return\nstop\n\nsub_0: assembly {\n        /* \"swap/NFTSwap.sol\":147:3538  contract NFTSwap is IERC721Receiver{... */\n      mstore(0x40, 0x80)\n      jumpi(tag_1, lt(calldatasize, 0x04))\n      shr(0xe0, calldataload(0x00))\n      dup1\n      0x150b7a02\n      eq\n      tag_3\n      jumpi\n      dup1\n      0xcce7ec13\n      eq\n      tag_4\n      jumpi\n      dup1\n      0xd09b6d43\n      eq\n      tag_5\n      jumpi\n      dup1\n      0xdda342bb\n      eq\n      tag_6\n      jumpi\n      dup1\n      0xeac449d9\n      eq\n      tag_7\n      jumpi\n      jump(tag_2)\n    tag_1:\n      jumpi(tag_2, calldatasize)\n      stop\n    tag_2:\n      stop\n        /* \"swap/NFTSwap.sol\":404:594  function onERC721Received(address operator, address from,uint tokenId,bytes calldata data) external override returns (bytes4){... */\n    tag_3:\n      callvalue\n      dup1\n      iszero\n      tag_12\n      jumpi\n      0x00\n      dup1\n      revert\n    tag_12:\n      pop\n      tag_13\n      0x04\n      dup1\n      calldatasize\n      sub\n      dup2\n      add\n      swap1\n      tag_14\n      swap2\n      swap1\n      tag_15\n      jump\t// in\n    tag_14:\n      tag_16\n      jump\t// in\n    tag_13:\n      mload(0x40)\n      tag_17\n      swap2\n      swap1\n      tag_18\n      jump\t// in\n    tag_17:\n      mload(0x40)\n      dup1\n      swap2\n      sub\n      swap1\n      return\n        /* \"swap/NFTSwap.sol\":2874:3536  function buy(address _nftAddr, uint256  _tokenId) public payable{... */\n    tag_4:\n      tag_19\n      0x04\n      dup1\n      calldatasize\n      sub\n      dup2\n      add\n      swap1\n      tag_20\n      swap2\n      swap1\n      tag_21\n      jump\t// in\n    tag_20:\n      tag_22\n      jump\t// in\n    tag_19:\n      stop\n        /* \"swap/NFTSwap.sol\":2382:2868  function update(address _nftAddr, uint256 _tokenId, uint256 _newPrice) public{... */\n    tag_5:\n      callvalue\n      dup1\n      iszero\n      tag_23\n      jumpi\n      0x00\n      dup1\n      revert\n    tag_23:\n      pop\n      tag_24\n      0x04\n      dup1\n      calldatasize\n      sub\n      dup2\n      add\n      swap1\n      tag_25\n      swap2\n      swap1\n      tag_26\n      jump\t// in\n    tag_25:\n      tag_27\n      jump\t// in\n    tag_24:\n      stop\n        /* \"swap/NFTSwap.sol\":1336:1828  function list(address _nftAddr, uint256 _tokenId, uint256  _price) public{... */\n    tag_6:\n      callvalue\n      dup1\n      iszero\n      tag_28\n      jumpi\n      0x00\n      dup1\n      revert\n    tag_28:\n      pop\n      tag_29\n      0x04\n      dup1\n      calldatasize\n      sub\n      dup2\n      add\n      swap1\n      tag_30\n      swap2\n      swap1\n      tag_26\n      jump\t// in\n    tag_30:\n      tag_31\n      jump\t// in\n    tag_29:\n      stop\n        /* \"swap/NFTSwap.sol\":1870:2376  function revoke(address _nftAddr, uint256 _tokenId) public{... */\n    tag_7:\n      callvalue\n      dup1\n      iszero\n      tag_32\n      jumpi\n      0x00\n      dup1\n      revert\n    tag_32:\n      pop\n      tag_33\n      0x04\n      dup1\n      calldatasize\n      sub\n      dup2\n      add\n      swap1\n      tag_34\n      swap2\n      swap1\n      tag_21\n      jump\t// in\n    tag_34:\n      tag_35\n      jump\t// in\n    tag_33:\n      stop\n        /* \"swap/NFTSwap.sol\":404:594  function onERC721Received(address operator, address from,uint tokenId,bytes calldata data) external override returns (bytes4){... */\n    tag_16:\n        /* \"swap/NFTSwap.sol\":522:528  bytes4 */\n      0x00\n        /* \"swap/NFTSwap.sol\":546:587  IERC721Receiver.onERC721Received.selector */\n      shl(0xe0, 0x150b7a02)\n        /* \"swap/NFTSwap.sol\":539:587  return IERC721Receiver.onERC721Received.selector */\n      swap1\n      pop\n        /* \"swap/NFTSwap.sol\":404:594  function onERC721Received(address operator, address from,uint tokenId,bytes calldata data) external override returns (bytes4){... */\n      swap6\n      swap5\n      pop\n      pop\n      pop\n      pop\n      pop\n      jump\t// out\n        /* \"swap/NFTSwap.sol\":2874:3536  function buy(address _nftAddr, uint256  _tokenId) public payable{... */\n    tag_22:\n        /* \"swap/NFTSwap.sol\":2948:2968  Order storage _order */\n      0x00\n        /* \"swap/NFTSwap.sol\":2971:2978  nftList */\n      dup1\n        /* \"swap/NFTSwap.sol\":2971:2988  nftList[_nftAddr] */\n      0x00\n        /* \"swap/NFTSwap.sol\":2979:2987  _nftAddr */\n      dup5\n        /* \"swap/NFTSwap.sol\":2971:2988  nftList[_nftAddr] */\n      0xffffffffffffffffffffffffffffffffffffffff\n      and\n      0xffffffffffffffffffffffffffffffffffffffff\n      and\n      dup2\n      mstore\n      0x20\n      add\n      swap1\n      dup2\n      mstore\n      0x20\n      add\n      0x00\n      keccak256\n        /* \"swap/NFTSwap.sol\":2971:2998  nftList[_nftAddr][_tokenId] */\n      0x00\n        /* \"swap/NFTSwap.sol\":2989:2997  _tokenId */\n      dup4\n        /* \"swap/NFTSwap.sol\":2971:2998  nftList[_nftAddr][_tokenId] */\n      dup2\n      mstore\n      0x20\n      add\n      swap1\n      dup2\n      mstore\n      0x20\n      add\n      0x00\n      keccak256\n        /* \"swap/NFTSwap.sol\":2948:2998  Order storage _order = nftList[_nftAddr][_tokenId] */\n      swap1\n      pop\n        /* \"swap/NFTSwap.sol\":3031:3032  0 */\n      0x00\n        /* \"swap/NFTSwap.sol\":3016:3022  _order */\n      dup2\n        /* \"swap/NFTSwap.sol\":3016:3028  _order.price */\n      0x01\n      add\n      sload\n        /* \"swap/NFTSwap.sol\":3016:3032  _order.price > 0 */\n      gt\n        /* \"swap/NFTSwap.sol\":3008:3050  require(_order.price > 0, \"invalid price\") */\n      tag_38\n      jumpi\n      mload(0x40)\n      0x08c379a000000000000000000000000000000000000000000000000000000000\n      dup2\n      mstore\n      0x04\n      add\n      tag_39\n      swap1\n      tag_40\n      jump\t// in\n    tag_39:\n      mload(0x40)\n      dup1\n      swap2\n      sub\n      swap1\n      revert\n    tag_38:\n        /* \"swap/NFTSwap.sol\":3081:3087  _order */\n      dup1\n        /* \"swap/NFTSwap.sol\":3081:3093  _order.price */\n      0x01\n      add\n      sload\n        /* \"swap/NFTSwap.sol\":3068:3077  msg.value */\n      callvalue\n        /* \"swap/NFTSwap.sol\":3068:3093  msg.value >= _order.price */\n      lt\n      iszero\n        /* \"swap/NFTSwap.sol\":3060:3116  require(msg.value >= _order.price, \"insufficient price\") */\n      tag_41\n      jumpi\n      mload(0x40)\n      0x08c379a000000000000000000000000000000000000000000000000000000000\n      dup2\n      mstore\n      0x04\n      add\n      tag_42\n      swap1\n      tag_43\n      jump\t// in\n    tag_42:\n      mload(0x40)\n      dup1\n      swap2\n      sub\n      swap1\n      revert\n    tag_41:\n        /* \"swap/NFTSwap.sol\":3126:3138  IERC721 _nft */\n      0x00\n        /* \"swap/NFTSwap.sol\":3149:3157  _nftAddr */\n      dup4\n        /* \"swap/NFTSwap.sol\":3126:3158  IERC721 _nft = IERC721(_nftAddr) */\n      swap1\n      pop\n        /* \"swap/NFTSwap.sol\":3210:3214  this */\n      address\n        /* \"swap/NFTSwap.sol\":3176:3215  _nft.ownerOf(_tokenId) == address(this) */\n      0xffffffffffffffffffffffffffffffffffffffff\n      and\n        /* \"swap/NFTSwap.sol\":3176:3180  _nft */\n      dup2\n        /* \"swap/NFTSwap.sol\":3176:3188  _nft.ownerOf */\n      0xffffffffffffffffffffffffffffffffffffffff\n      and\n      0x6352211e\n        /* \"swap/NFTSwap.sol\":3189:3197  _tokenId */\n      dup6\n        /* \"swap/NFTSwap.sol\":3176:3198  _nft.ownerOf(_tokenId) */\n      mload(0x40)\n      dup3\n      0xffffffff\n      and\n      0xe0\n      shl\n      dup2\n      mstore\n      0x04\n      add\n      tag_44\n      swap2\n      swap1\n      tag_45\n      jump\t// in\n    tag_44:\n      0x20\n      mload(0x40)\n      dup1\n      dup4\n      sub\n      dup2\n      dup7\n      dup1\n      extcodesize\n      iszero\n      dup1\n      iszero\n      tag_46\n      jumpi\n      0x00\n      dup1\n      revert\n    tag_46:\n      pop\n      gas\n      staticcall\n      iszero\n      dup1\n      iszero\n      tag_48\n      jumpi\n      returndatasize\n      0x00\n      dup1\n      returndatacopy\n      revert(0x00, returndatasize)\n    tag_48:\n      pop\n      pop\n      pop\n      pop\n      mload(0x40)\n      returndatasize\n      not(0x1f)\n      0x1f\n      dup3\n      add\n      and\n      dup3\n      add\n      dup1\n      0x40\n      mstore\n      pop\n      dup2\n      add\n      swap1\n      tag_49\n      swap2\n      swap1\n      tag_50\n      jump\t// in\n    tag_49:\n        /* \"swap/NFTSwap.sol\":3176:3215  _nft.ownerOf(_tokenId) == address(this) */\n      0xffffffffffffffffffffffffffffffffffffffff\n      and\n      eq\n        /* \"swap/NFTSwap.sol\":3168:3235  require(_nft.ownerOf(_tokenId) == address(this), \"wrong parameter\") */\n      tag_51\n      jumpi\n      mload(0x40)\n      0x08c379a000000000000000000000000000000000000000000000000000000000\n      dup2\n      mstore\n      0x04\n      add\n      tag_52\n      swap1\n      tag_53\n      jump\t// in\n    tag_52:\n      mload(0x40)\n      dup1\n      swap2\n      sub\n      swap1\n      revert\n    tag_51:\n        /* \"swap/NFTSwap.sol\":3245:3249  _nft */\n      dup1\n        /* \"swap/NFTSwap.sol\":3245:3266  _nft.safeTransferFrom */\n      0xffffffffffffffffffffffffffffffffffffffff\n      and\n      0x42842e0e\n        /* \"swap/NFTSwap.sol\":3275:3279  this */\n      address\n        /* \"swap/NFTSwap.sol\":3282:3292  msg.sender */\n      caller\n        /* \"swap/NFTSwap.sol\":3294:3302  _tokenId */\n      dup7\n        /* \"swap/NFTSwap.sol\":3245:3303  _nft.safeTransferFrom(address(this), msg.sender, _tokenId) */\n      mload(0x40)\n      dup5\n      0xffffffff\n      and\n      0xe0\n      shl\n      dup2\n      mstore\n      0x04\n      add\n      tag_54\n      swap4\n      swap3\n      swap2\n      swap1\n      tag_55\n      jump\t// in\n    tag_54:\n      0x00\n      mload(0x40)\n      dup1\n      dup4\n      sub\n      dup2\n      0x00\n      dup8\n      dup1\n      extcodesize\n      iszero\n      dup1\n      iszero\n      tag_56\n      jumpi\n      0x00\n      dup1\n      revert\n    tag_56:\n      pop\n      gas\n      call\n      iszero\n      dup1\n      iszero\n      tag_58\n      jumpi\n      returndatasize\n      0x00\n      dup1\n      returndatacopy\n      revert(0x00, returndatasize)\n    tag_58:\n      pop\n      pop\n      pop\n      pop\n        /* \"swap/NFTSwap.sol\":3321:3331  msg.sender */\n      caller\n        /* \"swap/NFTSwap.sol\":3313:3341  payable(msg.sender).transfer */\n      0xffffffffffffffffffffffffffffffffffffffff\n      and\n        /* \"swap/NFTSwap.sol\":3313:3367  payable(msg.sender).transfer(msg.value - _order.price) */\n      0x08fc\n        /* \"swap/NFTSwap.sol\":3354:3360  _order */\n      dup4\n        /* \"swap/NFTSwap.sol\":3354:3366  _order.price */\n      0x01\n      add\n      sload\n        /* \"swap/NFTSwap.sol\":3342:3351  msg.value */\n      callvalue\n        /* \"swap/NFTSwap.sol\":3342:3366  msg.value - _order.price */\n      tag_59\n      swap2\n      swap1\n      tag_60\n      jump\t// in\n    tag_59:\n        /* \"swap/NFTSwap.sol\":3313:3367  payable(msg.sender).transfer(msg.value - _order.price) */\n      swap1\n      dup2\n      iszero\n      mul\n      swap1\n      mload(0x40)\n      0x00\n      mload(0x40)\n      dup1\n      dup4\n      sub\n      dup2\n      dup6\n      dup9\n      dup9\n      call\n      swap4\n      pop\n      pop\n      pop\n      pop\n      iszero\n      dup1\n      iszero\n      tag_62\n      jumpi\n      returndatasize\n      0x00\n      dup1\n      returndatacopy\n      revert(0x00, returndatasize)\n    tag_62:\n      pop\n        /* \"swap/NFTSwap.sol\":3385:3391  _order */\n      dup2\n        /* \"swap/NFTSwap.sol\":3385:3397  _order.owner */\n      0x00\n      add\n      0x00\n      swap1\n      sload\n      swap1\n      0x0100\n      exp\n      swap1\n      div\n      0xffffffffffffffffffffffffffffffffffffffff\n      and\n        /* \"swap/NFTSwap.sol\":3377:3407  payable(_order.owner).transfer */\n      0xffffffffffffffffffffffffffffffffffffffff\n      and\n        /* \"swap/NFTSwap.sol\":3377:3421  payable(_order.owner).transfer(_order.price) */\n      0x08fc\n        /* \"swap/NFTSwap.sol\":3408:3414  _order */\n      dup4\n        /* \"swap/NFTSwap.sol\":3408:3420  _order.price */\n      0x01\n      add\n      sload\n        /* \"swap/NFTSwap.sol\":3377:3421  payable(_order.owner).transfer(_order.price) */\n      swap1\n      dup2\n      iszero\n      mul\n      swap1\n      mload(0x40)\n      0x00\n      mload(0x40)\n      dup1\n      dup4\n      sub\n      dup2\n      dup6\n      dup9\n      dup9\n      call\n      swap4\n      pop\n      pop\n      pop\n      pop\n      iszero\n      dup1\n      iszero\n      tag_64\n      jumpi\n      returndatasize\n      0x00\n      dup1\n      returndatacopy\n      revert(0x00, returndatasize)\n    tag_64:\n      pop\n        /* \"swap/NFTSwap.sol\":3438:3445  nftList */\n      0x00\n        /* \"swap/NFTSwap.sol\":3438:3455  nftList[_nftAddr] */\n      dup1\n        /* \"swap/NFTSwap.sol\":3446:3454  _nftAddr */\n      dup6\n        /* \"swap/NFTSwap.sol\":3438:3455  nftList[_nftAddr] */\n      0xffffffffffffffffffffffffffffffffffffffff\n      and\n      0xffffffffffffffffffffffffffffffffffffffff\n      and\n      dup2\n      mstore\n      0x20\n      add\n      swap1\n      dup2\n      mstore\n      0x20\n      add\n      0x00\n      keccak256\n        /* \"swap/NFTSwap.sol\":3438:3465  nftList[_nftAddr][_tokenId] */\n      0x00\n        /* \"swap/NFTSwap.sol\":3456:3464  _tokenId */\n      dup5\n        /* \"swap/NFTSwap.sol\":3438:3465  nftList[_nftAddr][_tokenId] */\n      dup2\n      mstore\n      0x20\n      add\n      swap1\n      dup2\n      mstore\n      0x20\n      add\n      0x00\n      keccak256\n      0x00\n        /* \"swap/NFTSwap.sol\":3431:3465  delete nftList[_nftAddr][_tokenId] */\n      dup1\n      dup3\n      add\n      exp(0x0100, 0x00)\n      dup2\n      sload\n      swap1\n      0xffffffffffffffffffffffffffffffffffffffff\n      mul\n      not\n      and\n      swap1\n      sstore\n      0x01\n      dup3\n      add\n      0x00\n      swap1\n      sstore\n      pop\n      pop\n        /* \"swap/NFTSwap.sol\":3506:3514  _tokenId */\n      dup3\n        /* \"swap/NFTSwap.sol\":3496:3504  _nftAddr */\n      dup5\n        /* \"swap/NFTSwap.sol\":3480:3529  Buy(msg.sender, _nftAddr, _tokenId, _order.price) */\n      0xffffffffffffffffffffffffffffffffffffffff\n      and\n        /* \"swap/NFTSwap.sol\":3484:3494  msg.sender */\n      caller\n        /* \"swap/NFTSwap.sol\":3480:3529  Buy(msg.sender, _nftAddr, _tokenId, _order.price) */\n      0xffffffffffffffffffffffffffffffffffffffff\n      and\n      0x89f5adc174562e07c9c9b1cae7109bbecb21cf9d1b2847e550042b8653c54a0e\n        /* \"swap/NFTSwap.sol\":3516:3522  _order */\n      dup6\n        /* \"swap/NFTSwap.sol\":3516:3528  _order.price */\n      0x01\n      add\n      sload\n        /* \"swap/NFTSwap.sol\":3480:3529  Buy(msg.sender, _nftAddr, _tokenId, _order.price) */\n      mload(0x40)\n      tag_65\n      swap2\n      swap1\n      tag_45\n      jump\t// in\n    tag_65:\n      mload(0x40)\n      dup1\n      swap2\n      sub\n      swap1\n      log4\n        /* \"swap/NFTSwap.sol\":2938:3536  {... */\n      pop\n      pop\n        /* \"swap/NFTSwap.sol\":2874:3536  function buy(address _nftAddr, uint256  _tokenId) public payable{... */\n      pop\n      pop\n      jump\t// out\n        /* \"swap/NFTSwap.sol\":2382:2868  function update(address _nftAddr, uint256 _tokenId, uint256 _newPrice) public{... */\n    tag_27:\n        /* \"swap/NFTSwap.sol\":2489:2490  0 */\n      0x00\n        /* \"swap/NFTSwap.sol\":2477:2486  _newPrice */\n      dup2\n        /* \"swap/NFTSwap.sol\":2477:2490  _newPrice > 0 */\n      gt\n        /* \"swap/NFTSwap.sol\":2469:2508  require(_newPrice > 0, \"invalid price\") */\n      tag_67\n      jumpi\n      mload(0x40)\n      0x08c379a000000000000000000000000000000000000000000000000000000000\n      dup2\n      mstore\n      0x04\n      add\n      tag_68\n      swap1\n      tag_40\n      jump\t// in\n    tag_68:\n      mload(0x40)\n      dup1\n      swap2\n      sub\n      swap1\n      revert\n    tag_67:\n        /* \"swap/NFTSwap.sol\":2518:2538  Order storage _order */\n      0x00\n        /* \"swap/NFTSwap.sol\":2541:2548  nftList */\n      dup1\n        /* \"swap/NFTSwap.sol\":2541:2558  nftList[_nftAddr] */\n      0x00\n        /* \"swap/NFTSwap.sol\":2549:2557  _nftAddr */\n      dup6\n        /* \"swap/NFTSwap.sol\":2541:2558  nftList[_nftAddr] */\n      0xffffffffffffffffffffffffffffffffffffffff\n      and\n      0xffffffffffffffffffffffffffffffffffffffff\n      and\n      dup2\n      mstore\n      0x20\n      add\n      swap1\n      dup2\n      mstore\n      0x20\n      add\n      0x00\n      keccak256\n        /* \"swap/NFTSwap.sol\":2541:2568  nftList[_nftAddr][_tokenId] */\n      0x00\n        /* \"swap/NFTSwap.sol\":2559:2567  _tokenId */\n      dup5\n        /* \"swap/NFTSwap.sol\":2541:2568  nftList[_nftAddr][_tokenId] */\n      dup2\n      mstore\n      0x20\n      add\n      swap1\n      dup2\n      mstore\n      0x20\n      add\n      0x00\n      keccak256\n        /* \"swap/NFTSwap.sol\":2518:2568  Order storage _order = nftList[_nftAddr][_tokenId] */\n      swap1\n      pop\n        /* \"swap/NFTSwap.sol\":2602:2612  msg.sender */\n      caller\n        /* \"swap/NFTSwap.sol\":2586:2612  _order.owner == msg.sender */\n      0xffffffffffffffffffffffffffffffffffffffff\n      and\n        /* \"swap/NFTSwap.sol\":2586:2592  _order */\n      dup2\n        /* \"swap/NFTSwap.sol\":2586:2598  _order.owner */\n      0x00\n      add\n      0x00\n      swap1\n      sload\n      swap1\n      0x0100\n      exp\n      swap1\n      div\n      0xffffffffffffffffffffffffffffffffffffffff\n      and\n        /* \"swap/NFTSwap.sol\":2586:2612  _order.owner == msg.sender */\n      0xffffffffffffffffffffffffffffffffffffffff\n      and\n      eq\n        /* \"swap/NFTSwap.sol\":2578:2643  require(_order.owner == msg.sender, \"you do not have permission\") */\n      tag_69\n      jumpi\n      mload(0x40)\n      0x08c379a000000000000000000000000000000000000000000000000000000000\n      dup2\n      mstore\n      0x04\n      add\n      tag_70\n      swap1\n      tag_71\n      jump\t// in\n    tag_70:\n      mload(0x40)\n      dup1\n      swap2\n      sub\n      swap1\n      revert\n    tag_69:\n        /* \"swap/NFTSwap.sol\":2653:2665  IERC721 _nft */\n      0x00\n        /* \"swap/NFTSwap.sol\":2676:2684  _nftAddr */\n      dup5\n        /* \"swap/NFTSwap.sol\":2653:2685  IERC721 _nft = IERC721(_nftAddr) */\n      swap1\n      pop\n        /* \"swap/NFTSwap.sol\":2738:2742  this */\n      address\n        /* \"swap/NFTSwap.sol\":2703:2743  _nft.ownerOf(_tokenId) ==  address(this) */\n      0xffffffffffffffffffffffffffffffffffffffff\n      and\n        /* \"swap/NFTSwap.sol\":2703:2707  _nft */\n      dup2\n        /* \"swap/NFTSwap.sol\":2703:2715  _nft.ownerOf */\n      0xffffffffffffffffffffffffffffffffffffffff\n      and\n      0x6352211e\n        /* \"swap/NFTSwap.sol\":2716:2724  _tokenId */\n      dup7\n        /* \"swap/NFTSwap.sol\":2703:2725  _nft.ownerOf(_tokenId) */\n      mload(0x40)\n      dup3\n      0xffffffff\n      and\n      0xe0\n      shl\n      dup2\n      mstore\n      0x04\n      add\n      tag_72\n      swap2\n      swap1\n      tag_45\n      jump\t// in\n    tag_72:\n      0x20\n      mload(0x40)\n      dup1\n      dup4\n      sub\n      dup2\n      dup7\n      dup1\n      extcodesize\n      iszero\n      dup1\n      iszero\n      tag_73\n      jumpi\n      0x00\n      dup1\n      revert\n    tag_73:\n      pop\n      gas\n      staticcall\n      iszero\n      dup1\n      iszero\n      tag_75\n      jumpi\n      returndatasize\n      0x00\n      dup1\n      returndatacopy\n      revert(0x00, returndatasize)\n    tag_75:\n      pop\n      pop\n      pop\n      pop\n      mload(0x40)\n      returndatasize\n      not(0x1f)\n      0x1f\n      dup3\n      add\n      and\n      dup3\n      add\n      dup1\n      0x40\n      mstore\n      pop\n      dup2\n      add\n      swap1\n      tag_76\n      swap2\n      swap1\n      tag_50\n      jump\t// in\n    tag_76:\n        /* \"swap/NFTSwap.sol\":2703:2743  _nft.ownerOf(_tokenId) ==  address(this) */\n      0xffffffffffffffffffffffffffffffffffffffff\n      and\n      eq\n        /* \"swap/NFTSwap.sol\":2695:2763  require(_nft.ownerOf(_tokenId) ==  address(this), \"wrong parameter\") */\n      tag_77\n      jumpi\n      mload(0x40)\n      0x08c379a000000000000000000000000000000000000000000000000000000000\n      dup2\n      mstore\n      0x04\n      add\n      tag_78\n      swap1\n      tag_53\n      jump\t// in\n    tag_78:\n      mload(0x40)\n      dup1\n      swap2\n      sub\n      swap1\n      revert\n    tag_77:\n        /* \"swap/NFTSwap.sol\":2788:2797  _newPrice */\n      dup3\n        /* \"swap/NFTSwap.sol\":2773:2779  _order */\n      dup3\n        /* \"swap/NFTSwap.sol\":2773:2785  _order.price */\n      0x01\n      add\n        /* \"swap/NFTSwap.sol\":2773:2797  _order.price = _newPrice */\n      dup2\n      swap1\n      sstore\n      pop\n        /* \"swap/NFTSwap.sol\":2841:2849  _tokenId */\n      dup4\n        /* \"swap/NFTSwap.sol\":2831:2839  _nftAddr */\n      dup6\n        /* \"swap/NFTSwap.sol\":2812:2861  Update(msg.sender, _nftAddr, _tokenId, _newPrice) */\n      0xffffffffffffffffffffffffffffffffffffffff\n      and\n        /* \"swap/NFTSwap.sol\":2819:2829  msg.sender */\n      caller\n        /* \"swap/NFTSwap.sol\":2812:2861  Update(msg.sender, _nftAddr, _tokenId, _newPrice) */\n      0xffffffffffffffffffffffffffffffffffffffff\n      and\n      0xb7f0ca7cd5b24651672216886135b99ff40342bcf549009a4c6fc74f059fb9a0\n        /* \"swap/NFTSwap.sol\":2851:2860  _newPrice */\n      dup7\n        /* \"swap/NFTSwap.sol\":2812:2861  Update(msg.sender, _nftAddr, _tokenId, _newPrice) */\n      mload(0x40)\n      tag_79\n      swap2\n      swap1\n      tag_45\n      jump\t// in\n    tag_79:\n      mload(0x40)\n      dup1\n      swap2\n      sub\n      swap1\n      log4\n        /* \"swap/NFTSwap.sol\":2459:2868  {... */\n      pop\n      pop\n        /* \"swap/NFTSwap.sol\":2382:2868  function update(address _nftAddr, uint256 _tokenId, uint256 _newPrice) public{... */\n      pop\n      pop\n      pop\n      jump\t// out\n        /* \"swap/NFTSwap.sol\":1336:1828  function list(address _nftAddr, uint256 _tokenId, uint256  _price) public{... */\n    tag_31:\n        /* \"swap/NFTSwap.sol\":1419:1431  IERC721 _nft */\n      0x00\n        /* \"swap/NFTSwap.sol\":1442:1450  _nftAddr */\n      dup4\n        /* \"swap/NFTSwap.sol\":1419:1451  IERC721 _nft = IERC721(_nftAddr) */\n      swap1\n      pop\n        /* \"swap/NFTSwap.sol\":1507:1511  this */\n      address\n        /* \"swap/NFTSwap.sol\":1469:1512  _nft.getApproved(_tokenId) == address(this) */\n      0xffffffffffffffffffffffffffffffffffffffff\n      and\n        /* \"swap/NFTSwap.sol\":1469:1473  _nft */\n      dup2\n        /* \"swap/NFTSwap.sol\":1469:1485  _nft.getApproved */\n      0xffffffffffffffffffffffffffffffffffffffff\n      and\n      0x081812fc\n        /* \"swap/NFTSwap.sol\":1486:1494  _tokenId */\n      dup6\n        /* \"swap/NFTSwap.sol\":1469:1495  _nft.getApproved(_tokenId) */\n      mload(0x40)\n      dup3\n      0xffffffff\n      and\n      0xe0\n      shl\n      dup2\n      mstore\n      0x04\n      add\n      tag_81\n      swap2\n      swap1\n      tag_45\n      jump\t// in\n    tag_81:\n      0x20\n      mload(0x40)\n      dup1\n      dup4\n      sub\n      dup2\n      dup7\n      dup1\n      extcodesize\n      iszero\n      dup1\n      iszero\n      tag_82\n      jumpi\n      0x00\n      dup1\n      revert\n    tag_82:\n      pop\n      gas\n      staticcall\n      iszero\n      dup1\n      iszero\n      tag_84\n      jumpi\n      returndatasize\n      0x00\n      dup1\n      returndatacopy\n      revert(0x00, returndatasize)\n    tag_84:\n      pop\n      pop\n      pop\n      pop\n      mload(0x40)\n      returndatasize\n      not(0x1f)\n      0x1f\n      dup3\n      add\n      and\n      dup3\n      add\n      dup1\n      0x40\n      mstore\n      pop\n      dup2\n      add\n      swap1\n      tag_85\n      swap2\n      swap1\n      tag_50\n      jump\t// in\n    tag_85:\n        /* \"swap/NFTSwap.sol\":1469:1512  _nft.getApproved(_tokenId) == address(this) */\n      0xffffffffffffffffffffffffffffffffffffffff\n      and\n      eq\n        /* \"swap/NFTSwap.sol\":1461:1539  require(_nft.getApproved(_tokenId) == address(this), \"approve contract first\") */\n      tag_86\n      jumpi\n      mload(0x40)\n      0x08c379a000000000000000000000000000000000000000000000000000000000\n      dup2\n      mstore\n      0x04\n      add\n      tag_87\n      swap1\n      tag_88\n      jump\t// in\n    tag_87:\n      mload(0x40)\n      dup1\n      swap2\n      sub\n      swap1\n      revert\n    tag_86:\n        /* \"swap/NFTSwap.sol\":1566:1567  0 */\n      0x00\n        /* \"swap/NFTSwap.sol\":1557:1563  _price */\n      dup3\n        /* \"swap/NFTSwap.sol\":1557:1567  _price > 0 */\n      gt\n        /* \"swap/NFTSwap.sol\":1549:1568  require(_price > 0) */\n      tag_89\n      jumpi\n      0x00\n      dup1\n      revert\n    tag_89:\n        /* \"swap/NFTSwap.sol\":1578:1598  Order storage _order */\n      0x00\n        /* \"swap/NFTSwap.sol\":1601:1608  nftList */\n      dup1\n        /* \"swap/NFTSwap.sol\":1601:1618  nftList[_nftAddr] */\n      0x00\n        /* \"swap/NFTSwap.sol\":1609:1617  _nftAddr */\n      dup7\n        /* \"swap/NFTSwap.sol\":1601:1618  nftList[_nftAddr] */\n      0xffffffffffffffffffffffffffffffffffffffff\n      and\n      0xffffffffffffffffffffffffffffffffffffffff\n      and\n      dup2\n      mstore\n      0x20\n      add\n      swap1\n      dup2\n      mstore\n      0x20\n      add\n      0x00\n      keccak256\n        /* \"swap/NFTSwap.sol\":1601:1628  nftList[_nftAddr][_tokenId] */\n      0x00\n        /* \"swap/NFTSwap.sol\":1619:1627  _tokenId */\n      dup6\n        /* \"swap/NFTSwap.sol\":1601:1628  nftList[_nftAddr][_tokenId] */\n      dup2\n      mstore\n      0x20\n      add\n      swap1\n      dup2\n      mstore\n      0x20\n      add\n      0x00\n      keccak256\n        /* \"swap/NFTSwap.sol\":1578:1628  Order storage _order = nftList[_nftAddr][_tokenId] */\n      swap1\n      pop\n        /* \"swap/NFTSwap.sol\":1653:1663  msg.sender */\n      caller\n        /* \"swap/NFTSwap.sol\":1638:1644  _order */\n      dup2\n        /* \"swap/NFTSwap.sol\":1638:1650  _order.owner */\n      0x00\n      add\n      0x00\n        /* \"swap/NFTSwap.sol\":1638:1663  _order.owner = msg.sender */\n      0x0100\n      exp\n      dup2\n      sload\n      dup2\n      0xffffffffffffffffffffffffffffffffffffffff\n      mul\n      not\n      and\n      swap1\n      dup4\n      0xffffffffffffffffffffffffffffffffffffffff\n      and\n      mul\n      or\n      swap1\n      sstore\n      pop\n        /* \"swap/NFTSwap.sol\":1688:1694  _price */\n      dup3\n        /* \"swap/NFTSwap.sol\":1673:1679  _order */\n      dup2\n        /* \"swap/NFTSwap.sol\":1673:1685  _order.price */\n      0x01\n      add\n        /* \"swap/NFTSwap.sol\":1673:1694  _order.price = _price */\n      dup2\n      swap1\n      sstore\n      pop\n        /* \"swap/NFTSwap.sol\":1704:1708  _nft */\n      dup2\n        /* \"swap/NFTSwap.sol\":1704:1725  _nft.safeTransferFrom */\n      0xffffffffffffffffffffffffffffffffffffffff\n      and\n      0x42842e0e\n        /* \"swap/NFTSwap.sol\":1726:1736  msg.sender */\n      caller\n        /* \"swap/NFTSwap.sol\":1746:1750  this */\n      address\n        /* \"swap/NFTSwap.sol\":1753:1761  _tokenId */\n      dup8\n        /* \"swap/NFTSwap.sol\":1704:1762  _nft.safeTransferFrom(msg.sender, address(this), _tokenId) */\n      mload(0x40)\n      dup5\n      0xffffffff\n      and\n      0xe0\n      shl\n      dup2\n      mstore\n      0x04\n      add\n      tag_90\n      swap4\n      swap3\n      swap2\n      swap1\n      tag_55\n      jump\t// in\n    tag_90:\n      0x00\n      mload(0x40)\n      dup1\n      dup4\n      sub\n      dup2\n      0x00\n      dup8\n      dup1\n      extcodesize\n      iszero\n      dup1\n      iszero\n      tag_91\n      jumpi\n      0x00\n      dup1\n      revert\n    tag_91:\n      pop\n      gas\n      call\n      iszero\n      dup1\n      iszero\n      tag_93\n      jumpi\n      returndatasize\n      0x00\n      dup1\n      returndatacopy\n      revert(0x00, returndatasize)\n    tag_93:\n      pop\n      pop\n      pop\n      pop\n        /* \"swap/NFTSwap.sol\":1804:1812  _tokenId */\n      dup4\n        /* \"swap/NFTSwap.sol\":1794:1802  _nftAddr */\n      dup6\n        /* \"swap/NFTSwap.sol\":1777:1821  List(msg.sender, _nftAddr, _tokenId, _price) */\n      0xffffffffffffffffffffffffffffffffffffffff\n      and\n        /* \"swap/NFTSwap.sol\":1782:1792  msg.sender */\n      caller\n        /* \"swap/NFTSwap.sol\":1777:1821  List(msg.sender, _nftAddr, _tokenId, _price) */\n      0xffffffffffffffffffffffffffffffffffffffff\n      and\n      0xedbdf022944a3291f4b30148903a84720506f48e10478ec5812e5caf30e1fab0\n        /* \"swap/NFTSwap.sol\":1814:1820  _price */\n      dup7\n        /* \"swap/NFTSwap.sol\":1777:1821  List(msg.sender, _nftAddr, _tokenId, _price) */\n      mload(0x40)\n      tag_94\n      swap2\n      swap1\n      tag_45\n      jump\t// in\n    tag_94:\n      mload(0x40)\n      dup1\n      swap2\n      sub\n      swap1\n      log4\n        /* \"swap/NFTSwap.sol\":1409:1828  {... */\n      pop\n      pop\n        /* \"swap/NFTSwap.sol\":1336:1828  function list(address _nftAddr, uint256 _tokenId, uint256  _price) public{... */\n      pop\n      pop\n      pop\n      jump\t// out\n        /* \"swap/NFTSwap.sol\":1870:2376  function revoke(address _nftAddr, uint256 _tokenId) public{... */\n    tag_35:\n        /* \"swap/NFTSwap.sol\":1938:1958  Order storage _order */\n      0x00\n        /* \"swap/NFTSwap.sol\":1961:1968  nftList */\n      dup1\n        /* \"swap/NFTSwap.sol\":1961:1978  nftList[_nftAddr] */\n      0x00\n        /* \"swap/NFTSwap.sol\":1969:1977  _nftAddr */\n      dup5\n        /* \"swap/NFTSwap.sol\":1961:1978  nftList[_nftAddr] */\n      0xffffffffffffffffffffffffffffffffffffffff\n      and\n      0xffffffffffffffffffffffffffffffffffffffff\n      and\n      dup2\n      mstore\n      0x20\n      add\n      swap1\n      dup2\n      mstore\n      0x20\n      add\n      0x00\n      keccak256\n        /* \"swap/NFTSwap.sol\":1961:1988  nftList[_nftAddr][_tokenId] */\n      0x00\n        /* \"swap/NFTSwap.sol\":1979:1987  _tokenId */\n      dup4\n        /* \"swap/NFTSwap.sol\":1961:1988  nftList[_nftAddr][_tokenId] */\n      dup2\n      mstore\n      0x20\n      add\n      swap1\n      dup2\n      mstore\n      0x20\n      add\n      0x00\n      keccak256\n        /* \"swap/NFTSwap.sol\":1938:1988  Order storage _order = nftList[_nftAddr][_tokenId] */\n      swap1\n      pop\n        /* \"swap/NFTSwap.sol\":2020:2026  _order */\n      dup1\n        /* \"swap/NFTSwap.sol\":2020:2032  _order.owner */\n      0x00\n      add\n      0x00\n      swap1\n      sload\n      swap1\n      0x0100\n      exp\n      swap1\n      div\n      0xffffffffffffffffffffffffffffffffffffffff\n      and\n        /* \"swap/NFTSwap.sol\":2006:2032  msg.sender == _order.owner */\n      0xffffffffffffffffffffffffffffffffffffffff\n      and\n        /* \"swap/NFTSwap.sol\":2006:2016  msg.sender */\n      caller\n        /* \"swap/NFTSwap.sol\":2006:2032  msg.sender == _order.owner */\n      0xffffffffffffffffffffffffffffffffffffffff\n      and\n      eq\n        /* \"swap/NFTSwap.sol\":1998:2085  require(msg.sender == _order.owner, \"You are not the owner.You do not have permission\") */\n      tag_96\n      jumpi\n      mload(0x40)\n      0x08c379a000000000000000000000000000000000000000000000000000000000\n      dup2\n      mstore\n      0x04\n      add\n      tag_97\n      swap1\n      tag_98\n      jump\t// in\n    tag_97:\n      mload(0x40)\n      dup1\n      swap2\n      sub\n      swap1\n      revert\n    tag_96:\n        /* \"swap/NFTSwap.sol\":2095:2107  IERC721 _nft */\n      0x00\n        /* \"swap/NFTSwap.sol\":2118:2126  _nftAddr */\n      dup4\n        /* \"swap/NFTSwap.sol\":2095:2127  IERC721 _nft = IERC721(_nftAddr) */\n      swap1\n      pop\n        /* \"swap/NFTSwap.sol\":2179:2183  this */\n      address\n        /* \"swap/NFTSwap.sol\":2145:2184  _nft.ownerOf(_tokenId) == address(this) */\n      0xffffffffffffffffffffffffffffffffffffffff\n      and\n        /* \"swap/NFTSwap.sol\":2145:2149  _nft */\n      dup2\n        /* \"swap/NFTSwap.sol\":2145:2157  _nft.ownerOf */\n      0xffffffffffffffffffffffffffffffffffffffff\n      and\n      0x6352211e\n        /* \"swap/NFTSwap.sol\":2158:2166  _tokenId */\n      dup6\n        /* \"swap/NFTSwap.sol\":2145:2167  _nft.ownerOf(_tokenId) */\n      mload(0x40)\n      dup3\n      0xffffffff\n      and\n      0xe0\n      shl\n      dup2\n      mstore\n      0x04\n      add\n      tag_99\n      swap2\n      swap1\n      tag_45\n      jump\t// in\n    tag_99:\n      0x20\n      mload(0x40)\n      dup1\n      dup4\n      sub\n      dup2\n      dup7\n      dup1\n      extcodesize\n      iszero\n      dup1\n      iszero\n      tag_100\n      jumpi\n      0x00\n      dup1\n      revert\n    tag_100:\n      pop\n      gas\n      staticcall\n      iszero\n      dup1\n      iszero\n      tag_102\n      jumpi\n      returndatasize\n      0x00\n      dup1\n      returndatacopy\n      revert(0x00, returndatasize)\n    tag_102:\n      pop\n      pop\n      pop\n      pop\n      mload(0x40)\n      returndatasize\n      not(0x1f)\n      0x1f\n      dup3\n      add\n      and\n      dup3\n      add\n      dup1\n      0x40\n      mstore\n      pop\n      dup2\n      add\n      swap1\n      tag_103\n      swap2\n      swap1\n      tag_50\n      jump\t// in\n    tag_103:\n        /* \"swap/NFTSwap.sol\":2145:2184  _nft.ownerOf(_tokenId) == address(this) */\n      0xffffffffffffffffffffffffffffffffffffffff\n      and\n      eq\n        /* \"swap/NFTSwap.sol\":2137:2204  require(_nft.ownerOf(_tokenId) == address(this), \"wrong arguments\") */\n      tag_104\n      jumpi\n      mload(0x40)\n      0x08c379a000000000000000000000000000000000000000000000000000000000\n      dup2\n      mstore\n      0x04\n      add\n      tag_105\n      swap1\n      tag_106\n      jump\t// in\n    tag_105:\n      mload(0x40)\n      dup1\n      swap2\n      sub\n      swap1\n      revert\n    tag_104:\n        /* \"swap/NFTSwap.sol\":2214:2218  _nft */\n      dup1\n        /* \"swap/NFTSwap.sol\":2214:2235  _nft.safeTransferFrom */\n      0xffffffffffffffffffffffffffffffffffffffff\n      and\n      0x42842e0e\n        /* \"swap/NFTSwap.sol\":2244:2248  this */\n      address\n        /* \"swap/NFTSwap.sol\":2251:2261  msg.sender */\n      caller\n        /* \"swap/NFTSwap.sol\":2263:2271  _tokenId */\n      dup7\n        /* \"swap/NFTSwap.sol\":2214:2272  _nft.safeTransferFrom(address(this), msg.sender, _tokenId) */\n      mload(0x40)\n      dup5\n      0xffffffff\n      and\n      0xe0\n      shl\n      dup2\n      mstore\n      0x04\n      add\n      tag_107\n      swap4\n      swap3\n      swap2\n      swap1\n      tag_55\n      jump\t// in\n    tag_107:\n      0x00\n      mload(0x40)\n      dup1\n      dup4\n      sub\n      dup2\n      0x00\n      dup8\n      dup1\n      extcodesize\n      iszero\n      dup1\n      iszero\n      tag_108\n      jumpi\n      0x00\n      dup1\n      revert\n    tag_108:\n      pop\n      gas\n      call\n      iszero\n      dup1\n      iszero\n      tag_110\n      jumpi\n      returndatasize\n      0x00\n      dup1\n      returndatacopy\n      revert(0x00, returndatasize)\n    tag_110:\n      pop\n      pop\n      pop\n      pop\n        /* \"swap/NFTSwap.sol\":2289:2296  nftList */\n      0x00\n        /* \"swap/NFTSwap.sol\":2289:2306  nftList[_nftAddr] */\n      dup1\n        /* \"swap/NFTSwap.sol\":2297:2305  _nftAddr */\n      dup6\n        /* \"swap/NFTSwap.sol\":2289:2306  nftList[_nftAddr] */\n      0xffffffffffffffffffffffffffffffffffffffff\n      and\n      0xffffffffffffffffffffffffffffffffffffffff\n      and\n      dup2\n      mstore\n      0x20\n      add\n      swap1\n      dup2\n      mstore\n      0x20\n      add\n      0x00\n      keccak256\n        /* \"swap/NFTSwap.sol\":2289:2316  nftList[_nftAddr][_tokenId] */\n      0x00\n        /* \"swap/NFTSwap.sol\":2307:2315  _tokenId */\n      dup5\n        /* \"swap/NFTSwap.sol\":2289:2316  nftList[_nftAddr][_tokenId] */\n      dup2\n      mstore\n      0x20\n      add\n      swap1\n      dup2\n      mstore\n      0x20\n      add\n      0x00\n      keccak256\n      0x00\n        /* \"swap/NFTSwap.sol\":2282:2316  delete nftList[_nftAddr][_tokenId] */\n      dup1\n      dup3\n      add\n      exp(0x0100, 0x00)\n      dup2\n      sload\n      swap1\n      0xffffffffffffffffffffffffffffffffffffffff\n      mul\n      not\n      and\n      swap1\n      sstore\n      0x01\n      dup3\n      add\n      0x00\n      swap1\n      sstore\n      pop\n      pop\n        /* \"swap/NFTSwap.sol\":2360:2368  _tokenId */\n      dup3\n        /* \"swap/NFTSwap.sol\":2350:2358  _nftAddr */\n      dup5\n        /* \"swap/NFTSwap.sol\":2331:2369  Revoke(msg.sender, _nftAddr, _tokenId) */\n      0xffffffffffffffffffffffffffffffffffffffff\n      and\n        /* \"swap/NFTSwap.sol\":2338:2348  msg.sender */\n      caller\n        /* \"swap/NFTSwap.sol\":2331:2369  Revoke(msg.sender, _nftAddr, _tokenId) */\n      0xffffffffffffffffffffffffffffffffffffffff\n      and\n      0xb698e31a2abee5824d0d7bcfd2339aead7f9e9ae413fba50bf554ff3fa470b7b\n      mload(0x40)\n      mload(0x40)\n      dup1\n      swap2\n      sub\n      swap1\n      log4\n        /* \"swap/NFTSwap.sol\":1928:2376  {... */\n      pop\n      pop\n        /* \"swap/NFTSwap.sol\":1870:2376  function revoke(address _nftAddr, uint256 _tokenId) public{... */\n      pop\n      pop\n      jump\t// out\n        /* \"#utility.yul\":7:146   */\n    tag_112:\n        /* \"#utility.yul\":53:58   */\n      0x00\n        /* \"#utility.yul\":91:97   */\n      dup2\n        /* \"#utility.yul\":78:98   */\n      calldataload\n        /* \"#utility.yul\":69:98   */\n      swap1\n      pop\n        /* \"#utility.yul\":107:140   */\n      tag_114\n        /* \"#utility.yul\":134:139   */\n      dup2\n        /* \"#utility.yul\":107:140   */\n      tag_115\n      jump\t// in\n    tag_114:\n        /* \"#utility.yul\":7:146   */\n      swap3\n      swap2\n      pop\n      pop\n      jump\t// out\n        /* \"#utility.yul\":152:295   */\n    tag_116:\n        /* \"#utility.yul\":209:214   */\n      0x00\n        /* \"#utility.yul\":240:246   */\n      dup2\n        /* \"#utility.yul\":234:247   */\n      mload\n        /* \"#utility.yul\":225:247   */\n      swap1\n      pop\n        /* \"#utility.yul\":256:289   */\n      tag_118\n        /* \"#utility.yul\":283:288   */\n      dup2\n        /* \"#utility.yul\":256:289   */\n      tag_115\n      jump\t// in\n    tag_118:\n        /* \"#utility.yul\":152:295   */\n      swap3\n      swap2\n      pop\n      pop\n      jump\t// out\n        /* \"#utility.yul\":314:866   */\n    tag_119:\n        /* \"#utility.yul\":371:379   */\n      0x00\n        /* \"#utility.yul\":381:387   */\n      dup1\n        /* \"#utility.yul\":431:434   */\n      dup4\n        /* \"#utility.yul\":424:428   */\n      0x1f\n        /* \"#utility.yul\":416:422   */\n      dup5\n        /* \"#utility.yul\":412:429   */\n      add\n        /* \"#utility.yul\":408:435   */\n      slt\n        /* \"#utility.yul\":398:520   */\n      tag_121\n      jumpi\n        /* \"#utility.yul\":439:518   */\n      tag_122\n      tag_123\n      jump\t// in\n    tag_122:\n        /* \"#utility.yul\":398:520   */\n    tag_121:\n        /* \"#utility.yul\":552:558   */\n      dup3\n        /* \"#utility.yul\":539:559   */\n      calldataload\n        /* \"#utility.yul\":529:559   */\n      swap1\n      pop\n        /* \"#utility.yul\":582:600   */\n      0xffffffffffffffff\n        /* \"#utility.yul\":574:580   */\n      dup2\n        /* \"#utility.yul\":571:601   */\n      gt\n        /* \"#utility.yul\":568:685   */\n      iszero\n      tag_124\n      jumpi\n        /* \"#utility.yul\":604:683   */\n      tag_125\n      tag_126\n      jump\t// in\n    tag_125:\n        /* \"#utility.yul\":568:685   */\n    tag_124:\n        /* \"#utility.yul\":718:722   */\n      0x20\n        /* \"#utility.yul\":710:716   */\n      dup4\n        /* \"#utility.yul\":706:723   */\n      add\n        /* \"#utility.yul\":694:723   */\n      swap2\n      pop\n        /* \"#utility.yul\":772:775   */\n      dup4\n        /* \"#utility.yul\":764:768   */\n      0x01\n        /* \"#utility.yul\":756:762   */\n      dup3\n        /* \"#utility.yul\":752:769   */\n      mul\n        /* \"#utility.yul\":742:750   */\n      dup4\n        /* \"#utility.yul\":738:770   */\n      add\n        /* \"#utility.yul\":735:776   */\n      gt\n        /* \"#utility.yul\":732:860   */\n      iszero\n      tag_127\n      jumpi\n        /* \"#utility.yul\":779:858   */\n      tag_128\n      tag_129\n      jump\t// in\n    tag_128:\n        /* \"#utility.yul\":732:860   */\n    tag_127:\n        /* \"#utility.yul\":314:866   */\n      swap3\n      pop\n      swap3\n      swap1\n      pop\n      jump\t// out\n        /* \"#utility.yul\":872:1011   */\n    tag_130:\n        /* \"#utility.yul\":918:923   */\n      0x00\n        /* \"#utility.yul\":956:962   */\n      dup2\n        /* \"#utility.yul\":943:963   */\n      calldataload\n        /* \"#utility.yul\":934:963   */\n      swap1\n      pop\n        /* \"#utility.yul\":972:1005   */\n      tag_132\n        /* \"#utility.yul\":999:1004   */\n      dup2\n        /* \"#utility.yul\":972:1005   */\n      tag_133\n      jump\t// in\n    tag_132:\n        /* \"#utility.yul\":872:1011   */\n      swap3\n      swap2\n      pop\n      pop\n      jump\t// out\n        /* \"#utility.yul\":1017:1368   */\n    tag_50:\n        /* \"#utility.yul\":1087:1093   */\n      0x00\n        /* \"#utility.yul\":1136:1138   */\n      0x20\n        /* \"#utility.yul\":1124:1133   */\n      dup3\n        /* \"#utility.yul\":1115:1122   */\n      dup5\n        /* \"#utility.yul\":1111:1134   */\n      sub\n        /* \"#utility.yul\":1107:1139   */\n      slt\n        /* \"#utility.yul\":1104:1223   */\n      iszero\n      tag_135\n      jumpi\n        /* \"#utility.yul\":1142:1221   */\n      tag_136\n      tag_137\n      jump\t// in\n    tag_136:\n        /* \"#utility.yul\":1104:1223   */\n    tag_135:\n        /* \"#utility.yul\":1262:1263   */\n      0x00\n        /* \"#utility.yul\":1287:1351   */\n      tag_138\n        /* \"#utility.yul\":1343:1350   */\n      dup5\n        /* \"#utility.yul\":1334:1340   */\n      dup3\n        /* \"#utility.yul\":1323:1332   */\n      dup6\n        /* \"#utility.yul\":1319:1341   */\n      add\n        /* \"#utility.yul\":1287:1351   */\n      tag_116\n      jump\t// in\n    tag_138:\n        /* \"#utility.yul\":1277:1351   */\n      swap2\n      pop\n        /* \"#utility.yul\":1233:1361   */\n      pop\n        /* \"#utility.yul\":1017:1368   */\n      swap3\n      swap2\n      pop\n      pop\n      jump\t// out\n        /* \"#utility.yul\":1374:2337   */\n    tag_15:\n        /* \"#utility.yul\":1471:1477   */\n      0x00\n        /* \"#utility.yul\":1479:1485   */\n      dup1\n        /* \"#utility.yul\":1487:1493   */\n      0x00\n        /* \"#utility.yul\":1495:1501   */\n      dup1\n        /* \"#utility.yul\":1503:1509   */\n      0x00\n        /* \"#utility.yul\":1552:1555   */\n      0x80\n        /* \"#utility.yul\":1540:1549   */\n      dup7\n        /* \"#utility.yul\":1531:1538   */\n      dup9\n        /* \"#utility.yul\":1527:1550   */\n      sub\n        /* \"#utility.yul\":1523:1556   */\n      slt\n        /* \"#utility.yul\":1520:1640   */\n      iszero\n      tag_140\n      jumpi\n        /* \"#utility.yul\":1559:1638   */\n      tag_141\n      tag_137\n      jump\t// in\n    tag_141:\n        /* \"#utility.yul\":1520:1640   */\n    tag_140:\n        /* \"#utility.yul\":1679:1680   */\n      0x00\n        /* \"#utility.yul\":1704:1757   */\n      tag_142\n        /* \"#utility.yul\":1749:1756   */\n      dup9\n        /* \"#utility.yul\":1740:1746   */\n      dup3\n        /* \"#utility.yul\":1729:1738   */\n      dup10\n        /* \"#utility.yul\":1725:1747   */\n      add\n        /* \"#utility.yul\":1704:1757   */\n      tag_112\n      jump\t// in\n    tag_142:\n        /* \"#utility.yul\":1694:1757   */\n      swap6\n      pop\n        /* \"#utility.yul\":1650:1767   */\n      pop\n        /* \"#utility.yul\":1806:1808   */\n      0x20\n        /* \"#utility.yul\":1832:1885   */\n      tag_143\n        /* \"#utility.yul\":1877:1884   */\n      dup9\n        /* \"#utility.yul\":1868:1874   */\n      dup3\n        /* \"#utility.yul\":1857:1866   */\n      dup10\n        /* \"#utility.yul\":1853:1875   */\n      add\n        /* \"#utility.yul\":1832:1885   */\n      tag_112\n      jump\t// in\n    tag_143:\n        /* \"#utility.yul\":1822:1885   */\n      swap5\n      pop\n        /* \"#utility.yul\":1777:1895   */\n      pop\n        /* \"#utility.yul\":1934:1936   */\n      0x40\n        /* \"#utility.yul\":1960:2013   */\n      tag_144\n        /* \"#utility.yul\":2005:2012   */\n      dup9\n        /* \"#utility.yul\":1996:2002   */\n      dup3\n        /* \"#utility.yul\":1985:1994   */\n      dup10\n        /* \"#utility.yul\":1981:2003   */\n      add\n        /* \"#utility.yul\":1960:2013   */\n      tag_130\n      jump\t// in\n    tag_144:\n        /* \"#utility.yul\":1950:2013   */\n      swap4\n      pop\n        /* \"#utility.yul\":1905:2023   */\n      pop\n        /* \"#utility.yul\":2090:2092   */\n      0x60\n        /* \"#utility.yul\":2079:2088   */\n      dup7\n        /* \"#utility.yul\":2075:2093   */\n      add\n        /* \"#utility.yul\":2062:2094   */\n      calldataload\n        /* \"#utility.yul\":2121:2139   */\n      0xffffffffffffffff\n        /* \"#utility.yul\":2113:2119   */\n      dup2\n        /* \"#utility.yul\":2110:2140   */\n      gt\n        /* \"#utility.yul\":2107:2224   */\n      iszero\n      tag_145\n      jumpi\n        /* \"#utility.yul\":2143:2222   */\n      tag_146\n      tag_147\n      jump\t// in\n    tag_146:\n        /* \"#utility.yul\":2107:2224   */\n    tag_145:\n        /* \"#utility.yul\":2256:2320   */\n      tag_148\n        /* \"#utility.yul\":2312:2319   */\n      dup9\n        /* \"#utility.yul\":2303:2309   */\n      dup3\n        /* \"#utility.yul\":2292:2301   */\n      dup10\n        /* \"#utility.yul\":2288:2310   */\n      add\n        /* \"#utility.yul\":2256:2320   */\n      tag_119\n      jump\t// in\n    tag_148:\n        /* \"#utility.yul\":2238:2320   */\n      swap3\n      pop\n      swap3\n      pop\n        /* \"#utility.yul\":2033:2330   */\n      pop\n        /* \"#utility.yul\":1374:2337   */\n      swap3\n      swap6\n      pop\n      swap3\n      swap6\n      swap1\n      swap4\n      pop\n      jump\t// out\n        /* \"#utility.yul\":2343:2817   */\n    tag_21:\n        /* \"#utility.yul\":2411:2417   */\n      0x00\n        /* \"#utility.yul\":2419:2425   */\n      dup1\n        /* \"#utility.yul\":2468:2470   */\n      0x40\n        /* \"#utility.yul\":2456:2465   */\n      dup4\n        /* \"#utility.yul\":2447:2454   */\n      dup6\n        /* \"#utility.yul\":2443:2466   */\n      sub\n        /* \"#utility.yul\":2439:2471   */\n      slt\n        /* \"#utility.yul\":2436:2555   */\n      iszero\n      tag_150\n      jumpi\n        /* \"#utility.yul\":2474:2553   */\n      tag_151\n      tag_137\n      jump\t// in\n    tag_151:\n        /* \"#utility.yul\":2436:2555   */\n    tag_150:\n        /* \"#utility.yul\":2594:2595   */\n      0x00\n        /* \"#utility.yul\":2619:2672   */\n      tag_152\n        /* \"#utility.yul\":2664:2671   */\n      dup6\n        /* \"#utility.yul\":2655:2661   */\n      dup3\n        /* \"#utility.yul\":2644:2653   */\n      dup7\n        /* \"#utility.yul\":2640:2662   */\n      add\n        /* \"#utility.yul\":2619:2672   */\n      tag_112\n      jump\t// in\n    tag_152:\n        /* \"#utility.yul\":2609:2672   */\n      swap3\n      pop\n        /* \"#utility.yul\":2565:2682   */\n      pop\n        /* \"#utility.yul\":2721:2723   */\n      0x20\n        /* \"#utility.yul\":2747:2800   */\n      tag_153\n        /* \"#utility.yul\":2792:2799   */\n      dup6\n        /* \"#utility.yul\":2783:2789   */\n      dup3\n        /* \"#utility.yul\":2772:2781   */\n      dup7\n        /* \"#utility.yul\":2768:2790   */\n      add\n        /* \"#utility.yul\":2747:2800   */\n      tag_130\n      jump\t// in\n    tag_153:\n        /* \"#utility.yul\":2737:2800   */\n      swap2\n      pop\n        /* \"#utility.yul\":2692:2810   */\n      pop\n        /* \"#utility.yul\":2343:2817   */\n      swap3\n      pop\n      swap3\n      swap1\n      pop\n      jump\t// out\n        /* \"#utility.yul\":2823:3442   */\n    tag_26:\n        /* \"#utility.yul\":2900:2906   */\n      0x00\n        /* \"#utility.yul\":2908:2914   */\n      dup1\n        /* \"#utility.yul\":2916:2922   */\n      0x00\n        /* \"#utility.yul\":2965:2967   */\n      0x60\n        /* \"#utility.yul\":2953:2962   */\n      dup5\n        /* \"#utility.yul\":2944:2951   */\n      dup7\n        /* \"#utility.yul\":2940:2963   */\n      sub\n        /* \"#utility.yul\":2936:2968   */\n      slt\n        /* \"#utility.yul\":2933:3052   */\n      iszero\n      tag_155\n      jumpi\n        /* \"#utility.yul\":2971:3050   */\n      tag_156\n      tag_137\n      jump\t// in\n    tag_156:\n        /* \"#utility.yul\":2933:3052   */\n    tag_155:\n        /* \"#utility.yul\":3091:3092   */\n      0x00\n        /* \"#utility.yul\":3116:3169   */\n      tag_157\n        /* \"#utility.yul\":3161:3168   */\n      dup7\n        /* \"#utility.yul\":3152:3158   */\n      dup3\n        /* \"#utility.yul\":3141:3150   */\n      dup8\n        /* \"#utility.yul\":3137:3159   */\n      add\n        /* \"#utility.yul\":3116:3169   */\n      tag_112\n      jump\t// in\n    tag_157:\n        /* \"#utility.yul\":3106:3169   */\n      swap4\n      pop\n        /* \"#utility.yul\":3062:3179   */\n      pop\n        /* \"#utility.yul\":3218:3220   */\n      0x20\n        /* \"#utility.yul\":3244:3297   */\n      tag_158\n        /* \"#utility.yul\":3289:3296   */\n      dup7\n        /* \"#utility.yul\":3280:3286   */\n      dup3\n        /* \"#utility.yul\":3269:3278   */\n      dup8\n        /* \"#utility.yul\":3265:3287   */\n      add\n        /* \"#utility.yul\":3244:3297   */\n      tag_130\n      jump\t// in\n    tag_158:\n        /* \"#utility.yul\":3234:3297   */\n      swap3\n      pop\n        /* \"#utility.yul\":3189:3307   */\n      pop\n        /* \"#utility.yul\":3346:3348   */\n      0x40\n        /* \"#utility.yul\":3372:3425   */\n      tag_159\n        /* \"#utility.yul\":3417:3424   */\n      dup7\n        /* \"#utility.yul\":3408:3414   */\n      dup3\n        /* \"#utility.yul\":3397:3406   */\n      dup8\n        /* \"#utility.yul\":3393:3415   */\n      add\n        /* \"#utility.yul\":3372:3425   */\n      tag_130\n      jump\t// in\n    tag_159:\n        /* \"#utility.yul\":3362:3425   */\n      swap2\n      pop\n        /* \"#utility.yul\":3317:3435   */\n      pop\n        /* \"#utility.yul\":2823:3442   */\n      swap3\n      pop\n      swap3\n      pop\n      swap3\n      jump\t// out\n        /* \"#utility.yul\":3448:3566   */\n    tag_160:\n        /* \"#utility.yul\":3535:3559   */\n      tag_162\n        /* \"#utility.yul\":3553:3558   */\n      dup2\n        /* \"#utility.yul\":3535:3559   */\n      tag_163\n      jump\t// in\n    tag_162:\n        /* \"#utility.yul\":3530:3533   */\n      dup3\n        /* \"#utility.yul\":3523:3560   */\n      mstore\n        /* \"#utility.yul\":3448:3566   */\n      pop\n      pop\n      jump\t// out\n        /* \"#utility.yul\":3572:3687   */\n    tag_164:\n        /* \"#utility.yul\":3657:3680   */\n      tag_166\n        /* \"#utility.yul\":3674:3679   */\n      dup2\n        /* \"#utility.yul\":3657:3680   */\n      tag_167\n      jump\t// in\n    tag_166:\n        /* \"#utility.yul\":3652:3655   */\n      dup3\n        /* \"#utility.yul\":3645:3681   */\n      mstore\n        /* \"#utility.yul\":3572:3687   */\n      pop\n      pop\n      jump\t// out\n        /* \"#utility.yul\":3693:4059   */\n    tag_168:\n        /* \"#utility.yul\":3835:3838   */\n      0x00\n        /* \"#utility.yul\":3856:3923   */\n      tag_170\n        /* \"#utility.yul\":3920:3922   */\n      0x30\n        /* \"#utility.yul\":3915:3918   */\n      dup4\n        /* \"#utility.yul\":3856:3923   */\n      tag_171\n      jump\t// in\n    tag_170:\n        /* \"#utility.yul\":3849:3923   */\n      swap2\n      pop\n        /* \"#utility.yul\":3932:4025   */\n      tag_172\n        /* \"#utility.yul\":4021:4024   */\n      dup3\n        /* \"#utility.yul\":3932:4025   */\n      tag_173\n      jump\t// in\n    tag_172:\n        /* \"#utility.yul\":4050:4052   */\n      0x40\n        /* \"#utility.yul\":4045:4048   */\n      dup3\n        /* \"#utility.yul\":4041:4053   */\n      add\n        /* \"#utility.yul\":4034:4053   */\n      swap1\n      pop\n        /* \"#utility.yul\":3693:4059   */\n      swap2\n      swap1\n      pop\n      jump\t// out\n        /* \"#utility.yul\":4065:4431   */\n    tag_174:\n        /* \"#utility.yul\":4207:4210   */\n      0x00\n        /* \"#utility.yul\":4228:4295   */\n      tag_176\n        /* \"#utility.yul\":4292:4294   */\n      0x12\n        /* \"#utility.yul\":4287:4290   */\n      dup4\n        /* \"#utility.yul\":4228:4295   */\n      tag_171\n      jump\t// in\n    tag_176:\n        /* \"#utility.yul\":4221:4295   */\n      swap2\n      pop\n        /* \"#utility.yul\":4304:4397   */\n      tag_177\n        /* \"#utility.yul\":4393:4396   */\n      dup3\n        /* \"#utility.yul\":4304:4397   */\n      tag_178\n      jump\t// in\n    tag_177:\n        /* \"#utility.yul\":4422:4424   */\n      0x20\n        /* \"#utility.yul\":4417:4420   */\n      dup3\n        /* \"#utility.yul\":4413:4425   */\n      add\n        /* \"#utility.yul\":4406:4425   */\n      swap1\n      pop\n        /* \"#utility.yul\":4065:4431   */\n      swap2\n      swap1\n      pop\n      jump\t// out\n        /* \"#utility.yul\":4437:4803   */\n    tag_179:\n        /* \"#utility.yul\":4579:4582   */\n      0x00\n        /* \"#utility.yul\":4600:4667   */\n      tag_181\n        /* \"#utility.yul\":4664:4666   */\n      0x0f\n        /* \"#utility.yul\":4659:4662   */\n      dup4\n        /* \"#utility.yul\":4600:4667   */\n      tag_171\n      jump\t// in\n    tag_181:\n        /* \"#utility.yul\":4593:4667   */\n      swap2\n      pop\n        /* \"#utility.yul\":4676:4769   */\n      tag_182\n        /* \"#utility.yul\":4765:4768   */\n      dup3\n        /* \"#utility.yul\":4676:4769   */\n      tag_183\n      jump\t// in\n    tag_182:\n        /* \"#utility.yul\":4794:4796   */\n      0x20\n        /* \"#utility.yul\":4789:4792   */\n      dup3\n        /* \"#utility.yul\":4785:4797   */\n      add\n        /* \"#utility.yul\":4778:4797   */\n      swap1\n      pop\n        /* \"#utility.yul\":4437:4803   */\n      swap2\n      swap1\n      pop\n      jump\t// out\n        /* \"#utility.yul\":4809:5175   */\n    tag_184:\n        /* \"#utility.yul\":4951:4954   */\n      0x00\n        /* \"#utility.yul\":4972:5039   */\n      tag_186\n        /* \"#utility.yul\":5036:5038   */\n      0x0f\n        /* \"#utility.yul\":5031:5034   */\n      dup4\n        /* \"#utility.yul\":4972:5039   */\n      tag_171\n      jump\t// in\n    tag_186:\n        /* \"#utility.yul\":4965:5039   */\n      swap2\n      pop\n        /* \"#utility.yul\":5048:5141   */\n      tag_187\n        /* \"#utility.yul\":5137:5140   */\n      dup3\n        /* \"#utility.yul\":5048:5141   */\n      tag_188\n      jump\t// in\n    tag_187:\n        /* \"#utility.yul\":5166:5168   */\n      0x20\n        /* \"#utility.yul\":5161:5164   */\n      dup3\n        /* \"#utility.yul\":5157:5169   */\n      add\n        /* \"#utility.yul\":5150:5169   */\n      swap1\n      pop\n        /* \"#utility.yul\":4809:5175   */\n      swap2\n      swap1\n      pop\n      jump\t// out\n        /* \"#utility.yul\":5181:5547   */\n    tag_189:\n        /* \"#utility.yul\":5323:5326   */\n      0x00\n        /* \"#utility.yul\":5344:5411   */\n      tag_191\n        /* \"#utility.yul\":5408:5410   */\n      0x0d\n        /* \"#utility.yul\":5403:5406   */\n      dup4\n        /* \"#utility.yul\":5344:5411   */\n      tag_171\n      jump\t// in\n    tag_191:\n        /* \"#utility.yul\":5337:5411   */\n      swap2\n      pop\n        /* \"#utility.yul\":5420:5513   */\n      tag_192\n        /* \"#utility.yul\":5509:5512   */\n      dup3\n        /* \"#utility.yul\":5420:5513   */\n      tag_193\n      jump\t// in\n    tag_192:\n        /* \"#utility.yul\":5538:5540   */\n      0x20\n        /* \"#utility.yul\":5533:5536   */\n      dup3\n        /* \"#utility.yul\":5529:5541   */\n      add\n        /* \"#utility.yul\":5522:5541   */\n      swap1\n      pop\n        /* \"#utility.yul\":5181:5547   */\n      swap2\n      swap1\n      pop\n      jump\t// out\n        /* \"#utility.yul\":5553:5919   */\n    tag_194:\n        /* \"#utility.yul\":5695:5698   */\n      0x00\n        /* \"#utility.yul\":5716:5783   */\n      tag_196\n        /* \"#utility.yul\":5780:5782   */\n      0x16\n        /* \"#utility.yul\":5775:5778   */\n      dup4\n        /* \"#utility.yul\":5716:5783   */\n      tag_171\n      jump\t// in\n    tag_196:\n        /* \"#utility.yul\":5709:5783   */\n      swap2\n      pop\n        /* \"#utility.yul\":5792:5885   */\n      tag_197\n        /* \"#utility.yul\":5881:5884   */\n      dup3\n        /* \"#utility.yul\":5792:5885   */\n      tag_198\n      jump\t// in\n    tag_197:\n        /* \"#utility.yul\":5910:5912   */\n      0x20\n        /* \"#utility.yul\":5905:5908   */\n      dup3\n        /* \"#utility.yul\":5901:5913   */\n      add\n        /* \"#utility.yul\":5894:5913   */\n      swap1\n      pop\n        /* \"#utility.yul\":5553:5919   */\n      swap2\n      swap1\n      pop\n      jump\t// out\n        /* \"#utility.yul\":5925:6291   */\n    tag_199:\n        /* \"#utility.yul\":6067:6070   */\n      0x00\n        /* \"#utility.yul\":6088:6155   */\n      tag_201\n        /* \"#utility.yul\":6152:6154   */\n      0x1a\n        /* \"#utility.yul\":6147:6150   */\n      dup4\n        /* \"#utility.yul\":6088:6155   */\n      tag_171\n      jump\t// in\n    tag_201:\n        /* \"#utility.yul\":6081:6155   */\n      swap2\n      pop\n        /* \"#utility.yul\":6164:6257   */\n      tag_202\n        /* \"#utility.yul\":6253:6256   */\n      dup3\n        /* \"#utility.yul\":6164:6257   */\n      tag_203\n      jump\t// in\n    tag_202:\n        /* \"#utility.yul\":6282:6284   */\n      0x20\n        /* \"#utility.yul\":6277:6280   */\n      dup3\n        /* \"#utility.yul\":6273:6285   */\n      add\n        /* \"#utility.yul\":6266:6285   */\n      swap1\n      pop\n        /* \"#utility.yul\":5925:6291   */\n      swap2\n      swap1\n      pop\n      jump\t// out\n        /* \"#utility.yul\":6297:6415   */\n    tag_204:\n        /* \"#utility.yul\":6384:6408   */\n      tag_206\n        /* \"#utility.yul\":6402:6407   */\n      dup2\n        /* \"#utility.yul\":6384:6408   */\n      tag_207\n      jump\t// in\n    tag_206:\n        /* \"#utility.yul\":6379:6382   */\n      dup3\n        /* \"#utility.yul\":6372:6409   */\n      mstore\n        /* \"#utility.yul\":6297:6415   */\n      pop\n      pop\n      jump\t// out\n        /* \"#utility.yul\":6421:6863   */\n    tag_55:\n        /* \"#utility.yul\":6570:6574   */\n      0x00\n        /* \"#utility.yul\":6608:6610   */\n      0x60\n        /* \"#utility.yul\":6597:6606   */\n      dup3\n        /* \"#utility.yul\":6593:6611   */\n      add\n        /* \"#utility.yul\":6585:6611   */\n      swap1\n      pop\n        /* \"#utility.yul\":6621:6692   */\n      tag_209\n        /* \"#utility.yul\":6689:6690   */\n      0x00\n        /* \"#utility.yul\":6678:6687   */\n      dup4\n        /* \"#utility.yul\":6674:6691   */\n      add\n        /* \"#utility.yul\":6665:6671   */\n      dup7\n        /* \"#utility.yul\":6621:6692   */\n      tag_160\n      jump\t// in\n    tag_209:\n        /* \"#utility.yul\":6702:6774   */\n      tag_210\n        /* \"#utility.yul\":6770:6772   */\n      0x20\n        /* \"#utility.yul\":6759:6768   */\n      dup4\n        /* \"#utility.yul\":6755:6773   */\n      add\n        /* \"#utility.yul\":6746:6752   */\n      dup6\n        /* \"#utility.yul\":6702:6774   */\n      tag_160\n      jump\t// in\n    tag_210:\n        /* \"#utility.yul\":6784:6856   */\n      tag_211\n        /* \"#utility.yul\":6852:6854   */\n      0x40\n        /* \"#utility.yul\":6841:6850   */\n      dup4\n        /* \"#utility.yul\":6837:6855   */\n      add\n        /* \"#utility.yul\":6828:6834   */\n      dup5\n        /* \"#utility.yul\":6784:6856   */\n      tag_204\n      jump\t// in\n    tag_211:\n        /* \"#utility.yul\":6421:6863   */\n      swap5\n      swap4\n      pop\n      pop\n      pop\n      pop\n      jump\t// out\n        /* \"#utility.yul\":6869:7087   */\n    tag_18:\n        /* \"#utility.yul\":6960:6964   */\n      0x00\n        /* \"#utility.yul\":6998:7000   */\n      0x20\n        /* \"#utility.yul\":6987:6996   */\n      dup3\n        /* \"#utility.yul\":6983:7001   */\n      add\n        /* \"#utility.yul\":6975:7001   */\n      swap1\n      pop\n        /* \"#utility.yul\":7011:7080   */\n      tag_213\n        /* \"#utility.yul\":7077:7078   */\n      0x00\n        /* \"#utility.yul\":7066:7075   */\n      dup4\n        /* \"#utility.yul\":7062:7079   */\n      add\n        /* \"#utility.yul\":7053:7059   */\n      dup5\n        /* \"#utility.yul\":7011:7080   */\n      tag_164\n      jump\t// in\n    tag_213:\n        /* \"#utility.yul\":6869:7087   */\n      swap3\n      swap2\n      pop\n      pop\n      jump\t// out\n        /* \"#utility.yul\":7093:7512   */\n    tag_98:\n        /* \"#utility.yul\":7259:7263   */\n      0x00\n        /* \"#utility.yul\":7297:7299   */\n      0x20\n        /* \"#utility.yul\":7286:7295   */\n      dup3\n        /* \"#utility.yul\":7282:7300   */\n      add\n        /* \"#utility.yul\":7274:7300   */\n      swap1\n      pop\n        /* \"#utility.yul\":7346:7355   */\n      dup2\n        /* \"#utility.yul\":7340:7344   */\n      dup2\n        /* \"#utility.yul\":7336:7356   */\n      sub\n        /* \"#utility.yul\":7332:7333   */\n      0x00\n        /* \"#utility.yul\":7321:7330   */\n      dup4\n        /* \"#utility.yul\":7317:7334   */\n      add\n        /* \"#utility.yul\":7310:7357   */\n      mstore\n        /* \"#utility.yul\":7374:7505   */\n      tag_215\n        /* \"#utility.yul\":7500:7504   */\n      dup2\n        /* \"#utility.yul\":7374:7505   */\n      tag_168\n      jump\t// in\n    tag_215:\n        /* \"#utility.yul\":7366:7505   */\n      swap1\n      pop\n        /* \"#utility.yul\":7093:7512   */\n      swap2\n      swap1\n      pop\n      jump\t// out\n        /* \"#utility.yul\":7518:7937   */\n    tag_43:\n        /* \"#utility.yul\":7684:7688   */\n      0x00\n        /* \"#utility.yul\":7722:7724   */\n      0x20\n        /* \"#utility.yul\":7711:7720   */\n      dup3\n        /* \"#utility.yul\":7707:7725   */\n      add\n        /* \"#utility.yul\":7699:7725   */\n      swap1\n      pop\n        /* \"#utility.yul\":7771:7780   */\n      dup2\n        /* \"#utility.yul\":7765:7769   */\n      dup2\n        /* \"#utility.yul\":7761:7781   */\n      sub\n        /* \"#utility.yul\":7757:7758   */\n      0x00\n        /* \"#utility.yul\":7746:7755   */\n      dup4\n        /* \"#utility.yul\":7742:7759   */\n      add\n        /* \"#utility.yul\":7735:7782   */\n      mstore\n        /* \"#utility.yul\":7799:7930   */\n      tag_217\n        /* \"#utility.yul\":7925:7929   */\n      dup2\n        /* \"#utility.yul\":7799:7930   */\n      tag_174\n      jump\t// in\n    tag_217:\n        /* \"#utility.yul\":7791:7930   */\n      swap1\n      pop\n        /* \"#utility.yul\":7518:7937   */\n      swap2\n      swap1\n      pop\n      jump\t// out\n        /* \"#utility.yul\":7943:8362   */\n    tag_53:\n        /* \"#utility.yul\":8109:8113   */\n      0x00\n        /* \"#utility.yul\":8147:8149   */\n      0x20\n        /* \"#utility.yul\":8136:8145   */\n      dup3\n        /* \"#utility.yul\":8132:8150   */\n      add\n        /* \"#utility.yul\":8124:8150   */\n      swap1\n      pop\n        /* \"#utility.yul\":8196:8205   */\n      dup2\n        /* \"#utility.yul\":8190:8194   */\n      dup2\n        /* \"#utility.yul\":8186:8206   */\n      sub\n        /* \"#utility.yul\":8182:8183   */\n      0x00\n        /* \"#utility.yul\":8171:8180   */\n      dup4\n        /* \"#utility.yul\":8167:8184   */\n      add\n        /* \"#utility.yul\":8160:8207   */\n      mstore\n        /* \"#utility.yul\":8224:8355   */\n      tag_219\n        /* \"#utility.yul\":8350:8354   */\n      dup2\n        /* \"#utility.yul\":8224:8355   */\n      tag_179\n      jump\t// in\n    tag_219:\n        /* \"#utility.yul\":8216:8355   */\n      swap1\n      pop\n        /* \"#utility.yul\":7943:8362   */\n      swap2\n      swap1\n      pop\n      jump\t// out\n        /* \"#utility.yul\":8368:8787   */\n    tag_106:\n        /* \"#utility.yul\":8534:8538   */\n      0x00\n        /* \"#utility.yul\":8572:8574   */\n      0x20\n        /* \"#utility.yul\":8561:8570   */\n      dup3\n        /* \"#utility.yul\":8557:8575   */\n      add\n        /* \"#utility.yul\":8549:8575   */\n      swap1\n      pop\n        /* \"#utility.yul\":8621:8630   */\n      dup2\n        /* \"#utility.yul\":8615:8619   */\n      dup2\n        /* \"#utility.yul\":8611:8631   */\n      sub\n        /* \"#utility.yul\":8607:8608   */\n      0x00\n        /* \"#utility.yul\":8596:8605   */\n      dup4\n        /* \"#utility.yul\":8592:8609   */\n      add\n        /* \"#utility.yul\":8585:8632   */\n      mstore\n        /* \"#utility.yul\":8649:8780   */\n      tag_221\n        /* \"#utility.yul\":8775:8779   */\n      dup2\n        /* \"#utility.yul\":8649:8780   */\n      tag_184\n      jump\t// in\n    tag_221:\n        /* \"#utility.yul\":8641:8780   */\n      swap1\n      pop\n        /* \"#utility.yul\":8368:8787   */\n      swap2\n      swap1\n      pop\n      jump\t// out\n        /* \"#utility.yul\":8793:9212   */\n    tag_40:\n        /* \"#utility.yul\":8959:8963   */\n      0x00\n        /* \"#utility.yul\":8997:8999   */\n      0x20\n        /* \"#utility.yul\":8986:8995   */\n      dup3\n        /* \"#utility.yul\":8982:9000   */\n      add\n        /* \"#utility.yul\":8974:9000   */\n      swap1\n      pop\n        /* \"#utility.yul\":9046:9055   */\n      dup2\n        /* \"#utility.yul\":9040:9044   */\n      dup2\n        /* \"#utility.yul\":9036:9056   */\n      sub\n        /* \"#utility.yul\":9032:9033   */\n      0x00\n        /* \"#utility.yul\":9021:9030   */\n      dup4\n        /* \"#utility.yul\":9017:9034   */\n      add\n        /* \"#utility.yul\":9010:9057   */\n      mstore\n        /* \"#utility.yul\":9074:9205   */\n      tag_223\n        /* \"#utility.yul\":9200:9204   */\n      dup2\n        /* \"#utility.yul\":9074:9205   */\n      tag_189\n      jump\t// in\n    tag_223:\n        /* \"#utility.yul\":9066:9205   */\n      swap1\n      pop\n        /* \"#utility.yul\":8793:9212   */\n      swap2\n      swap1\n      pop\n      jump\t// out\n        /* \"#utility.yul\":9218:9637   */\n    tag_88:\n        /* \"#utility.yul\":9384:9388   */\n      0x00\n        /* \"#utility.yul\":9422:9424   */\n      0x20\n        /* \"#utility.yul\":9411:9420   */\n      dup3\n        /* \"#utility.yul\":9407:9425   */\n      add\n        /* \"#utility.yul\":9399:9425   */\n      swap1\n      pop\n        /* \"#utility.yul\":9471:9480   */\n      dup2\n        /* \"#utility.yul\":9465:9469   */\n      dup2\n        /* \"#utility.yul\":9461:9481   */\n      sub\n        /* \"#utility.yul\":9457:9458   */\n      0x00\n        /* \"#utility.yul\":9446:9455   */\n      dup4\n        /* \"#utility.yul\":9442:9459   */\n      add\n        /* \"#utility.yul\":9435:9482   */\n      mstore\n        /* \"#utility.yul\":9499:9630   */\n      tag_225\n        /* \"#utility.yul\":9625:9629   */\n      dup2\n        /* \"#utility.yul\":9499:9630   */\n      tag_194\n      jump\t// in\n    tag_225:\n        /* \"#utility.yul\":9491:9630   */\n      swap1\n      pop\n        /* \"#utility.yul\":9218:9637   */\n      swap2\n      swap1\n      pop\n      jump\t// out\n        /* \"#utility.yul\":9643:10062   */\n    tag_71:\n        /* \"#utility.yul\":9809:9813   */\n      0x00\n        /* \"#utility.yul\":9847:9849   */\n      0x20\n        /* \"#utility.yul\":9836:9845   */\n      dup3\n        /* \"#utility.yul\":9832:9850   */\n      add\n        /* \"#utility.yul\":9824:9850   */\n      swap1\n      pop\n        /* \"#utility.yul\":9896:9905   */\n      dup2\n        /* \"#utility.yul\":9890:9894   */\n      dup2\n        /* \"#utility.yul\":9886:9906   */\n      sub\n        /* \"#utility.yul\":9882:9883   */\n      0x00\n        /* \"#utility.yul\":9871:9880   */\n      dup4\n        /* \"#utility.yul\":9867:9884   */\n      add\n        /* \"#utility.yul\":9860:9907   */\n      mstore\n        /* \"#utility.yul\":9924:10055   */\n      tag_227\n        /* \"#utility.yul\":10050:10054   */\n      dup2\n        /* \"#utility.yul\":9924:10055   */\n      tag_199\n      jump\t// in\n    tag_227:\n        /* \"#utility.yul\":9916:10055   */\n      swap1\n      pop\n        /* \"#utility.yul\":9643:10062   */\n      swap2\n      swap1\n      pop\n      jump\t// out\n        /* \"#utility.yul\":10068:10290   */\n    tag_45:\n        /* \"#utility.yul\":10161:10165   */\n      0x00\n        /* \"#utility.yul\":10199:10201   */\n      0x20\n        /* \"#utility.yul\":10188:10197   */\n      dup3\n        /* \"#utility.yul\":10184:10202   */\n      add\n        /* \"#utility.yul\":10176:10202   */\n      swap1\n      pop\n        /* \"#utility.yul\":10212:10283   */\n      tag_229\n        /* \"#utility.yul\":10280:10281   */\n      0x00\n        /* \"#utility.yul\":10269:10278   */\n      dup4\n        /* \"#utility.yul\":10265:10282   */\n      add\n        /* \"#utility.yul\":10256:10262   */\n      dup5\n        /* \"#utility.yul\":10212:10283   */\n      tag_204\n      jump\t// in\n    tag_229:\n        /* \"#utility.yul\":10068:10290   */\n      swap3\n      swap2\n      pop\n      pop\n      jump\t// out\n        /* \"#utility.yul\":10377:10546   */\n    tag_171:\n        /* \"#utility.yul\":10461:10472   */\n      0x00\n        /* \"#utility.yul\":10495:10501   */\n      dup3\n        /* \"#utility.yul\":10490:10493   */\n      dup3\n        /* \"#utility.yul\":10483:10502   */\n      mstore\n        /* \"#utility.yul\":10535:10539   */\n      0x20\n        /* \"#utility.yul\":10530:10533   */\n      dup3\n        /* \"#utility.yul\":10526:10540   */\n      add\n        /* \"#utility.yul\":10511:10540   */\n      swap1\n      pop\n        /* \"#utility.yul\":10377:10546   */\n      swap3\n      swap2\n      pop\n      pop\n      jump\t// out\n        /* \"#utility.yul\":10552:10743   */\n    tag_60:\n        /* \"#utility.yul\":10592:10596   */\n      0x00\n        /* \"#utility.yul\":10612:10632   */\n      tag_234\n        /* \"#utility.yul\":10630:10631   */\n      dup3\n        /* \"#utility.yul\":10612:10632   */\n      tag_207\n      jump\t// in\n    tag_234:\n        /* \"#utility.yul\":10607:10632   */\n      swap2\n      pop\n        /* \"#utility.yul\":10646:10666   */\n      tag_235\n        /* \"#utility.yul\":10664:10665   */\n      dup4\n        /* \"#utility.yul\":10646:10666   */\n      tag_207\n      jump\t// in\n    tag_235:\n        /* \"#utility.yul\":10641:10666   */\n      swap3\n      pop\n        /* \"#utility.yul\":10685:10686   */\n      dup3\n        /* \"#utility.yul\":10682:10683   */\n      dup3\n        /* \"#utility.yul\":10679:10687   */\n      lt\n        /* \"#utility.yul\":10676:10710   */\n      iszero\n      tag_236\n      jumpi\n        /* \"#utility.yul\":10690:10708   */\n      tag_237\n      tag_238\n      jump\t// in\n    tag_237:\n        /* \"#utility.yul\":10676:10710   */\n    tag_236:\n        /* \"#utility.yul\":10735:10736   */\n      dup3\n        /* \"#utility.yul\":10732:10733   */\n      dup3\n        /* \"#utility.yul\":10728:10737   */\n      sub\n        /* \"#utility.yul\":10720:10737   */\n      swap1\n      pop\n        /* \"#utility.yul\":10552:10743   */\n      swap3\n      swap2\n      pop\n      pop\n      jump\t// out\n        /* \"#utility.yul\":10749:10845   */\n    tag_163:\n        /* \"#utility.yul\":10786:10793   */\n      0x00\n        /* \"#utility.yul\":10815:10839   */\n      tag_240\n        /* \"#utility.yul\":10833:10838   */\n      dup3\n        /* \"#utility.yul\":10815:10839   */\n      tag_241\n      jump\t// in\n    tag_240:\n        /* \"#utility.yul\":10804:10839   */\n      swap1\n      pop\n        /* \"#utility.yul\":10749:10845   */\n      swap2\n      swap1\n      pop\n      jump\t// out\n        /* \"#utility.yul\":10851:11000   */\n    tag_167:\n        /* \"#utility.yul\":10887:10894   */\n      0x00\n        /* \"#utility.yul\":10927:10993   */\n      0xffffffff00000000000000000000000000000000000000000000000000000000\n        /* \"#utility.yul\":10920:10925   */\n      dup3\n        /* \"#utility.yul\":10916:10994   */\n      and\n        /* \"#utility.yul\":10905:10994   */\n      swap1\n      pop\n        /* \"#utility.yul\":10851:11000   */\n      swap2\n      swap1\n      pop\n      jump\t// out\n        /* \"#utility.yul\":11006:11132   */\n    tag_241:\n        /* \"#utility.yul\":11043:11050   */\n      0x00\n        /* \"#utility.yul\":11083:11125   */\n      0xffffffffffffffffffffffffffffffffffffffff\n        /* \"#utility.yul\":11076:11081   */\n      dup3\n        /* \"#utility.yul\":11072:11126   */\n      and\n        /* \"#utility.yul\":11061:11126   */\n      swap1\n      pop\n        /* \"#utility.yul\":11006:11132   */\n      swap2\n      swap1\n      pop\n      jump\t// out\n        /* \"#utility.yul\":11138:11215   */\n    tag_207:\n        /* \"#utility.yul\":11175:11182   */\n      0x00\n        /* \"#utility.yul\":11204:11209   */\n      dup2\n        /* \"#utility.yul\":11193:11209   */\n      swap1\n      pop\n        /* \"#utility.yul\":11138:11215   */\n      swap2\n      swap1\n      pop\n      jump\t// out\n        /* \"#utility.yul\":11221:11401   */\n    tag_238:\n        /* \"#utility.yul\":11269:11346   */\n      0x4e487b7100000000000000000000000000000000000000000000000000000000\n        /* \"#utility.yul\":11266:11267   */\n      0x00\n        /* \"#utility.yul\":11259:11347   */\n      mstore\n        /* \"#utility.yul\":11366:11370   */\n      0x11\n        /* \"#utility.yul\":11363:11364   */\n      0x04\n        /* \"#utility.yul\":11356:11371   */\n      mstore\n        /* \"#utility.yul\":11390:11394   */\n      0x24\n        /* \"#utility.yul\":11387:11388   */\n      0x00\n        /* \"#utility.yul\":11380:11395   */\n      revert\n        /* \"#utility.yul\":11407:11524   */\n    tag_126:\n        /* \"#utility.yul\":11516:11517   */\n      0x00\n        /* \"#utility.yul\":11513:11514   */\n      dup1\n        /* \"#utility.yul\":11506:11518   */\n      revert\n        /* \"#utility.yul\":11530:11647   */\n    tag_123:\n        /* \"#utility.yul\":11639:11640   */\n      0x00\n        /* \"#utility.yul\":11636:11637   */\n      dup1\n        /* \"#utility.yul\":11629:11641   */\n      revert\n        /* \"#utility.yul\":11653:11770   */\n    tag_129:\n        /* \"#utility.yul\":11762:11763   */\n      0x00\n        /* \"#utility.yul\":11759:11760   */\n      dup1\n        /* \"#utility.yul\":11752:11764   */\n      revert\n        /* \"#utility.yul\":11776:11893   */\n    tag_147:\n        /* \"#utility.yul\":11885:11886   */\n      0x00\n        /* \"#utility.yul\":11882:11883   */\n      dup1\n        /* \"#utility.yul\":11875:11887   */\n      revert\n        /* \"#utility.yul\":11899:12016   */\n    tag_137:\n        /* \"#utility.yul\":12008:12009   */\n      0x00\n        /* \"#utility.yul\":12005:12006   */\n      dup1\n        /* \"#utility.yul\":11998:12010   */\n      revert\n        /* \"#utility.yul\":12022:12257   */\n    tag_173:\n        /* \"#utility.yul\":12162:12196   */\n      0x596f7520617265206e6f7420746865206f776e65722e596f7520646f206e6f74\n        /* \"#utility.yul\":12158:12159   */\n      0x00\n        /* \"#utility.yul\":12150:12156   */\n      dup3\n        /* \"#utility.yul\":12146:12160   */\n      add\n        /* \"#utility.yul\":12139:12197   */\n      mstore\n        /* \"#utility.yul\":12231:12249   */\n      0x2068617665207065726d697373696f6e00000000000000000000000000000000\n        /* \"#utility.yul\":12226:12228   */\n      0x20\n        /* \"#utility.yul\":12218:12224   */\n      dup3\n        /* \"#utility.yul\":12214:12229   */\n      add\n        /* \"#utility.yul\":12207:12250   */\n      mstore\n        /* \"#utility.yul\":12022:12257   */\n      pop\n      jump\t// out\n        /* \"#utility.yul\":12263:12431   */\n    tag_178:\n        /* \"#utility.yul\":12403:12423   */\n      0x696e73756666696369656e742070726963650000000000000000000000000000\n        /* \"#utility.yul\":12399:12400   */\n      0x00\n        /* \"#utility.yul\":12391:12397   */\n      dup3\n        /* \"#utility.yul\":12387:12401   */\n      add\n        /* \"#utility.yul\":12380:12424   */\n      mstore\n        /* \"#utility.yul\":12263:12431   */\n      pop\n      jump\t// out\n        /* \"#utility.yul\":12437:12602   */\n    tag_183:\n        /* \"#utility.yul\":12577:12594   */\n      0x77726f6e6720706172616d657465720000000000000000000000000000000000\n        /* \"#utility.yul\":12573:12574   */\n      0x00\n        /* \"#utility.yul\":12565:12571   */\n      dup3\n        /* \"#utility.yul\":12561:12575   */\n      add\n        /* \"#utility.yul\":12554:12595   */\n      mstore\n        /* \"#utility.yul\":12437:12602   */\n      pop\n      jump\t// out\n        /* \"#utility.yul\":12608:12773   */\n    tag_188:\n        /* \"#utility.yul\":12748:12765   */\n      0x77726f6e6720617267756d656e74730000000000000000000000000000000000\n        /* \"#utility.yul\":12744:12745   */\n      0x00\n        /* \"#utility.yul\":12736:12742   */\n      dup3\n        /* \"#utility.yul\":12732:12746   */\n      add\n        /* \"#utility.yul\":12725:12766   */\n      mstore\n        /* \"#utility.yul\":12608:12773   */\n      pop\n      jump\t// out\n        /* \"#utility.yul\":12779:12942   */\n    tag_193:\n        /* \"#utility.yul\":12919:12934   */\n      0x696e76616c696420707269636500000000000000000000000000000000000000\n        /* \"#utility.yul\":12915:12916   */\n      0x00\n        /* \"#utility.yul\":12907:12913   */\n      dup3\n        /* \"#utility.yul\":12903:12917   */\n      add\n        /* \"#utility.yul\":12896:12935   */\n      mstore\n        /* \"#utility.yul\":12779:12942   */\n      pop\n      jump\t// out\n        /* \"#utility.yul\":12948:13120   */\n    tag_198:\n        /* \"#utility.yul\":13088:13112   */\n      0x617070726f766520636f6e747261637420666972737400000000000000000000\n        /* \"#utility.yul\":13084:13085   */\n      0x00\n        /* \"#utility.yul\":13076:13082   */\n      dup3\n        /* \"#utility.yul\":13072:13086   */\n      add\n        /* \"#utility.yul\":13065:13113   */\n      mstore\n        /* \"#utility.yul\":12948:13120   */\n      pop\n      jump\t// out\n        /* \"#utility.yul\":13126:13302   */\n    tag_203:\n        /* \"#utility.yul\":13266:13294   */\n      0x796f7520646f206e6f742068617665207065726d697373696f6e000000000000\n        /* \"#utility.yul\":13262:13263   */\n      0x00\n        /* \"#utility.yul\":13254:13260   */\n      dup3\n        /* \"#utility.yul\":13250:13264   */\n      add\n        /* \"#utility.yul\":13243:13295   */\n      mstore\n        /* \"#utility.yul\":13126:13302   */\n      pop\n      jump\t// out\n        /* \"#utility.yul\":13308:13430   */\n    tag_115:\n        /* \"#utility.yul\":13381:13405   */\n      tag_259\n        /* \"#utility.yul\":13399:13404   */\n      dup2\n        /* \"#utility.yul\":13381:13405   */\n      tag_163\n      jump\t// in\n    tag_259:\n        /* \"#utility.yul\":13374:13379   */\n      dup2\n        /* \"#utility.yul\":13371:13406   */\n      eq\n        /* \"#utility.yul\":13361:13424   */\n      tag_260\n      jumpi\n        /* \"#utility.yul\":13420:13421   */\n      0x00\n        /* \"#utility.yul\":13417:13418   */\n      dup1\n        /* \"#utility.yul\":13410:13422   */\n      revert\n        /* \"#utility.yul\":13361:13424   */\n    tag_260:\n        /* \"#utility.yul\":13308:13430   */\n      pop\n      jump\t// out\n        /* \"#utility.yul\":13436:13558   */\n    tag_133:\n        /* \"#utility.yul\":13509:13533   */\n      tag_262\n        /* \"#utility.yul\":13527:13532   */\n      dup2\n        /* \"#utility.yul\":13509:13533   */\n      tag_207\n      jump\t// in\n    tag_262:\n        /* \"#utility.yul\":13502:13507   */\n      dup2\n        /* \"#utility.yul\":13499:13534   */\n      eq\n        /* \"#utility.yul\":13489:13552   */\n      tag_263\n      jumpi\n        /* \"#utility.yul\":13548:13549   */\n      0x00\n        /* \"#utility.yul\":13545:13546   */\n      dup1\n        /* \"#utility.yul\":13538:13550   */\n      revert\n        /* \"#utility.yul\":13489:13552   */\n    tag_263:\n        /* \"#utility.yul\":13436:13558   */\n      pop\n      jump\t// out\n\n    auxdata: 0xa26469706673582212202be0cdc6fe3aa08d44b5e946229424da1185ddf64a445d0c60935a55c94acc4464736f6c63430008070033\n}\n",
				"bytecode": {
					"linkReferences": {},
					"object": "608060405234801561001057600080fd5b50611478806100206000396000f3fe60806040526004361061004e5760003560e01c8063150b7a0214610057578063cce7ec1314610094578063d09b6d43146100b0578063dda342bb146100d9578063eac449d91461010257610055565b3661005557005b005b34801561006357600080fd5b5061007e60048036038101906100799190610e50565b61012b565b60405161008b91906110c4565b60405180910390f35b6100ae60048036038101906100a99190610ed8565b610140565b005b3480156100bc57600080fd5b506100d760048036038101906100d29190610f18565b610541565b005b3480156100e557600080fd5b5061010060048036038101906100fb9190610f18565b6107da565b005b34801561010e57600080fd5b5061012960048036038101906101249190610ed8565b610a5d565b005b600063150b7a0260e01b905095945050505050565b60008060008473ffffffffffffffffffffffffffffffffffffffff1673ffffffffffffffffffffffffffffffffffffffff1681526020019081526020016000206000838152602001908152602001600020905060008160010154116101da576040517f08c379a00000000000000000000000000000000000000000000000000000000081526004016101d19061115f565b60405180910390fd5b8060010154341015610221576040517f08c379a0000000000000000000000000000000000000000000000000000000008152600401610218906110ff565b60405180910390fd5b60008390503073ffffffffffffffffffffffffffffffffffffffff168173ffffffffffffffffffffffffffffffffffffffff16636352211e856040518263ffffffff1660e01b815260040161027691906111bf565b60206040518083038186803b15801561028e57600080fd5b505afa1580156102a2573d6000803e3d6000fd5b505050506040513d601f19601f820116820180604052508101906102c69190610e23565b73ffffffffffffffffffffffffffffffffffffffff161461031c576040517f08c379a00000000000000000000000000000000000000000000000000000000081526004016103139061111f565b60405180910390fd5b8073ffffffffffffffffffffffffffffffffffffffff166342842e0e3033866040518463ffffffff1660e01b81526004016103599392919061108d565b600060405180830381600087803b15801561037357600080fd5b505af1158015610387573d6000803e3d6000fd5b505050503373ffffffffffffffffffffffffffffffffffffffff166108fc8360010154346103b591906111eb565b9081150290604051600060405180830381858888f193505050501580156103e0573d6000803e3d6000fd5b508160000160009054906101000a900473ffffffffffffffffffffffffffffffffffffffff1673ffffffffffffffffffffffffffffffffffffffff166108fc83600101549081150290604051600060405180830381858888f1935050505015801561044f573d6000803e3d6000fd5b506000808573ffffffffffffffffffffffffffffffffffffffff1673ffffffffffffffffffffffffffffffffffffffff1681526020019081526020016000206000848152602001908152602001600020600080820160006101000a81549073ffffffffffffffffffffffffffffffffffffffff021916905560018201600090555050828473ffffffffffffffffffffffffffffffffffffffff163373ffffffffffffffffffffffffffffffffffffffff167f89f5adc174562e07c9c9b1cae7109bbecb21cf9d1b2847e550042b8653c54a0e856001015460405161053391906111bf565b60405180910390a450505050565b60008111610584576040517f08c379a000000000000000000000000000000000000000000000000000000000815260040161057b9061115f565b60405180910390fd5b60008060008573ffffffffffffffffffffffffffffffffffffffff1673ffffffffffffffffffffffffffffffffffffffff168152602001908152602001600020600084815260200190815260200160002090503373ffffffffffffffffffffffffffffffffffffffff168160000160009054906101000a900473ffffffffffffffffffffffffffffffffffffffff1673ffffffffffffffffffffffffffffffffffffffff1614610669576040517f08c379a00000000000000000000000000000000000000000000000000000000081526004016106609061119f565b60405180910390fd5b60008490503073ffffffffffffffffffffffffffffffffffffffff168173ffffffffffffffffffffffffffffffffffffffff16636352211e866040518263ffffffff1660e01b81526004016106be91906111bf565b60206040518083038186803b1580156106d657600080fd5b505afa1580156106ea573d6000803e3d6000fd5b505050506040513d601f19601f8201168201806040525081019061070e9190610e23565b73ffffffffffffffffffffffffffffffffffffffff1614610764576040517f08c379a000000000000000000000000000000000000000000000000000000000815260040161075b9061111f565b60405180910390fd5b828260010181905550838573ffffffffffffffffffffffffffffffffffffffff163373ffffffffffffffffffffffffffffffffffffffff167fb7f0ca7cd5b24651672216886135b99ff40342bcf549009a4c6fc74f059fb9a0866040516107cb91906111bf565b60405180910390a45050505050565b60008390503073ffffffffffffffffffffffffffffffffffffffff168173ffffffffffffffffffffffffffffffffffffffff1663081812fc856040518263ffffffff1660e01b815260040161082f91906111bf565b60206040518083038186803b15801561084757600080fd5b505afa15801561085b573d6000803e3d6000fd5b505050506040513d601f19601f8201168201806040525081019061087f9190610e23565b73ffffffffffffffffffffffffffffffffffffffff16146108d5576040517f08c379a00000000000000000000000000000000000000000000000000000000081526004016108cc9061117f565b60405180910390fd5b600082116108e257600080fd5b60008060008673ffffffffffffffffffffffffffffffffffffffff1673ffffffffffffffffffffffffffffffffffffffff16815260200190815260200160002060008581526020019081526020016000209050338160000160006101000a81548173ffffffffffffffffffffffffffffffffffffffff021916908373ffffffffffffffffffffffffffffffffffffffff1602179055508281600101819055508173ffffffffffffffffffffffffffffffffffffffff166342842e0e3330876040518463ffffffff1660e01b81526004016109be9392919061108d565b600060405180830381600087803b1580156109d857600080fd5b505af11580156109ec573d6000803e3d6000fd5b50505050838573ffffffffffffffffffffffffffffffffffffffff163373ffffffffffffffffffffffffffffffffffffffff167fedbdf022944a3291f4b30148903a84720506f48e10478ec5812e5caf30e1fab086604051610a4e91906111bf565b60405180910390a45050505050565b60008060008473ffffffffffffffffffffffffffffffffffffffff1673ffffffffffffffffffffffffffffffffffffffff168152602001908152602001600020600083815260200190815260200160002090508060000160009054906101000a900473ffffffffffffffffffffffffffffffffffffffff1673ffffffffffffffffffffffffffffffffffffffff163373ffffffffffffffffffffffffffffffffffffffff1614610b42576040517f08c379a0000000000000000000000000000000000000000000000000000000008152600401610b39906110df565b60405180910390fd5b60008390503073ffffffffffffffffffffffffffffffffffffffff168173ffffffffffffffffffffffffffffffffffffffff16636352211e856040518263ffffffff1660e01b8152600401610b9791906111bf565b60206040518083038186803b158015610baf57600080fd5b505afa158015610bc3573d6000803e3d6000fd5b505050506040513d601f19601f82011682018060405250810190610be79190610e23565b73ffffffffffffffffffffffffffffffffffffffff1614610c3d576040517f08c379a0000000000000000000000000000000000000000000000000000000008152600401610c349061113f565b60405180910390fd5b8073ffffffffffffffffffffffffffffffffffffffff166342842e0e3033866040518463ffffffff1660e01b8152600401610c7a9392919061108d565b600060405180830381600087803b158015610c9457600080fd5b505af1158015610ca8573d6000803e3d6000fd5b505050506000808573ffffffffffffffffffffffffffffffffffffffff1673ffffffffffffffffffffffffffffffffffffffff1681526020019081526020016000206000848152602001908152602001600020600080820160006101000a81549073ffffffffffffffffffffffffffffffffffffffff021916905560018201600090555050828473ffffffffffffffffffffffffffffffffffffffff163373ffffffffffffffffffffffffffffffffffffffff167fb698e31a2abee5824d0d7bcfd2339aead7f9e9ae413fba50bf554ff3fa470b7b60405160405180910390a450505050565b600081359050610d9d81611414565b92915050565b600081519050610db281611414565b92915050565b60008083601f840112610dce57610dcd6112bb565b5b8235905067ffffffffffffffff811115610deb57610dea6112b6565b5b602083019150836001820283011115610e0757610e066112c0565b5b9250929050565b600081359050610e1d8161142b565b92915050565b600060208284031215610e3957610e386112ca565b5b6000610e4784828501610da3565b91505092915050565b600080600080600060808688031215610e6c57610e6b6112ca565b5b6000610e7a88828901610d8e565b9550506020610e8b88828901610d8e565b9450506040610e9c88828901610e0e565b935050606086013567ffffffffffffffff811115610ebd57610ebc6112c5565b5b610ec988828901610db8565b92509250509295509295909350565b60008060408385031215610eef57610eee6112ca565b5b6000610efd85828601610d8e565b9250506020610f0e85828601610e0e565b9150509250929050565b600080600060608486031215610f3157610f306112ca565b5b6000610f3f86828701610d8e565b9350506020610f5086828701610e0e565b9250506040610f6186828701610e0e565b9150509250925092565b610f748161121f565b82525050565b610f8381611231565b82525050565b6000610f966030836111da565b9150610fa1826112cf565b604082019050919050565b6000610fb96012836111da565b9150610fc48261131e565b602082019050919050565b6000610fdc600f836111da565b9150610fe782611347565b602082019050919050565b6000610fff600f836111da565b915061100a82611370565b602082019050919050565b6000611022600d836111da565b915061102d82611399565b602082019050919050565b60006110456016836111da565b9150611050826113c2565b602082019050919050565b6000611068601a836111da565b9150611073826113eb565b602082019050919050565b6110878161127d565b82525050565b60006060820190506110a26000830186610f6b565b6110af6020830185610f6b565b6110bc604083018461107e565b949350505050565b60006020820190506110d96000830184610f7a565b92915050565b600060208201905081810360008301526110f881610f89565b9050919050565b6000602082019050818103600083015261111881610fac565b9050919050565b6000602082019050818103600083015261113881610fcf565b9050919050565b6000602082019050818103600083015261115881610ff2565b9050919050565b6000602082019050818103600083015261117881611015565b9050919050565b6000602082019050818103600083015261119881611038565b9050919050565b600060208201905081810360008301526111b88161105b565b9050919050565b60006020820190506111d4600083018461107e565b92915050565b600082825260208201905092915050565b60006111f68261127d565b91506112018361127d565b92508282101561121457611213611287565b5b828203905092915050565b600061122a8261125d565b9050919050565b60007fffffffff0000000000000000000000000000000000000000000000000000000082169050919050565b600073ffffffffffffffffffffffffffffffffffffffff82169050919050565b6000819050919050565b7f4e487b7100000000000000000000000000000000000000000000000000000000600052601160045260246000fd5b600080fd5b600080fd5b600080fd5b600080fd5b600080fd5b7f596f7520617265206e6f7420746865206f776e65722e596f7520646f206e6f7460008201527f2068617665207065726d697373696f6e00000000000000000000000000000000602082015250565b7f696e73756666696369656e742070726963650000000000000000000000000000600082015250565b7f77726f6e6720706172616d657465720000000000000000000000000000000000600082015250565b7f77726f6e6720617267756d656e74730000000000000000000000000000000000600082015250565b7f696e76616c696420707269636500000000000000000000000000000000000000600082015250565b7f617070726f766520636f6e747261637420666972737400000000000000000000600082015250565b7f796f7520646f206e6f742068617665207065726d697373696f6e000000000000600082015250565b61141d8161121f565b811461142857600080fd5b50565b6114348161127d565b811461143f57600080fd5b5056fea26469706673582212202be0cdc6fe3aa08d44b5e946229424da1185ddf64a445d0c60935a55c94acc4464736f6c63430008070033",
					"opcodes": "PUSH1 0x80 PUSH1 0x40 MSTORE CALLVALUE DUP1 ISZERO PUSH2 0x10 JUMPI PUSH1 0x0 DUP1 REVERT JUMPDEST POP PUSH2 0x1478 DUP1 PUSH2 0x20 PUSH1 0x0 CODECOPY PUSH1 0x0 RETURN INVALID PUSH1 0x80 PUSH1 0x40 MSTORE PUSH1 0x4 CALLDATASIZE LT PUSH2 0x4E JUMPI PUSH1 0x0 CALLDATALOAD PUSH1 0xE0 SHR DUP1 PUSH4 0x150B7A02 EQ PUSH2 0x57 JUMPI DUP1 PUSH4 0xCCE7EC13 EQ PUSH2 0x94 JUMPI DUP1 PUSH4 0xD09B6D43 EQ PUSH2 0xB0 JUMPI DUP1 PUSH4 0xDDA342BB EQ PUSH2 0xD9 JUMPI DUP1 PUSH4 0xEAC449D9 EQ PUSH2 0x102 JUMPI PUSH2 0x55 JUMP JUMPDEST CALLDATASIZE PUSH2 0x55 JUMPI STOP JUMPDEST STOP JUMPDEST CALLVALUE DUP1 ISZERO PUSH2 0x63 JUMPI PUSH1 0x0 DUP1 REVERT JUMPDEST POP PUSH2 0x7E PUSH1 0x4 DUP1 CALLDATASIZE SUB DUP2 ADD SWAP1 PUSH2 0x79 SWAP2 SWAP1 PUSH2 0xE50 JUMP JUMPDEST PUSH2 0x12B JUMP JUMPDEST PUSH1 0x40 MLOAD PUSH2 0x8B SWAP2 SWAP1 PUSH2 0x10C4 JUMP JUMPDEST PUSH1 0x40 MLOAD DUP1 SWAP2 SUB SWAP1 RETURN JUMPDEST PUSH2 0xAE PUSH1 0x4 DUP1 CALLDATASIZE SUB DUP2 ADD SWAP1 PUSH2 0xA9 SWAP2 SWAP1 PUSH2 0xED8 JUMP JUMPDEST PUSH2 0x140 JUMP JUMPDEST STOP JUMPDEST CALLVALUE DUP1 ISZERO PUSH2 0xBC JUMPI PUSH1 0x0 DUP1 REVERT JUMPDEST POP PUSH2 0xD7 PUSH1 0x4 DUP1 CALLDATASIZE SUB DUP2 ADD SWAP1 PUSH2 0xD2 SWAP2 SWAP1 PUSH2 0xF18 JUMP JUMPDEST PUSH2 0x541 JUMP JUMPDEST STOP JUMPDEST CALLVALUE DUP1 ISZERO PUSH2 0xE5 JUMPI PUSH1 0x0 DUP1 REVERT JUMPDEST POP PUSH2 0x100 PUSH1 0x4 DUP1 CALLDATASIZE SUB DUP2 ADD SWAP1 PUSH2 0xFB SWAP2 SWAP1 PUSH2 0xF18 JUMP JUMPDEST PUSH2 0x7DA JUMP JUMPDEST STOP JUMPDEST CALLVALUE DUP1 ISZERO PUSH2 0x10E JUMPI PUSH1 0x0 DUP1 REVERT JUMPDEST POP PUSH2 0x129 PUSH1 0x4 DUP1 CALLDATASIZE SUB DUP2 ADD SWAP1 PUSH2 0x124 SWAP2 SWAP1 PUSH2 0xED8 JUMP JUMPDEST PUSH2 0xA5D JUMP JUMPDEST STOP JUMPDEST PUSH1 0x0 PUSH4 0x150B7A02 PUSH1 0xE0 SHL SWAP1 POP SWAP6 SWAP5 POP POP POP POP POP JUMP JUMPDEST PUSH1 0x0 DUP1 PUSH1 0x0 DUP5 PUSH20 0xFFFFFFFFFFFFFFFFFFFFFFFFFFFFFFFFFFFFFFFF AND PUSH20 0xFFFFFFFFFFFFFFFFFFFFFFFFFFFFFFFFFFFFFFFF AND DUP2 MSTORE PUSH1 0x20 ADD SWAP1 DUP2 MSTORE PUSH1 0x20 ADD PUSH1 0x0 KECCAK256 PUSH1 0x0 DUP4 DUP2 MSTORE PUSH1 0x20 ADD SWAP1 DUP2 MSTORE PUSH1 0x20 ADD PUSH1 0x0 KECCAK256 SWAP1 POP PUSH1 0x0 DUP2 PUSH1 0x1 ADD SLOAD GT PUSH2 0x1DA JUMPI PUSH1 0x40 MLOAD PUSH32 0x8C379A000000000000000000000000000000000000000000000000000000000 DUP2 MSTORE PUSH1 0x4 ADD PUSH2 0x1D1 SWAP1 PUSH2 0x115F JUMP JUMPDEST PUSH1 0x40 MLOAD DUP1 SWAP2 SUB SWAP1 REVERT JUMPDEST DUP1 PUSH1 0x1 ADD SLOAD CALLVALUE LT ISZERO PUSH2 0x221 JUMPI PUSH1 0x40 MLOAD PUSH32 0x8C379A000000000000000000000000000000000000000000000000000000000 DUP2 MSTORE PUSH1 0x4 ADD PUSH2 0x218 SWAP1 PUSH2 0x10FF JUMP JUMPDEST PUSH1 0x40 MLOAD DUP1 SWAP2 SUB SWAP1 REVERT JUMPDEST PUSH1 0x0 DUP4 SWAP1 POP ADDRESS PUSH20 0xFFFFFFFFFFFFFFFFFFFFFFFFFFFFFFFFFFFFFFFF AND DUP2 PUSH20 0xFFFFFFFFFFFFFFFFFFFFFFFFFFFFFFFFFFFFFFFF AND PUSH4 0x6352211E DUP6 PUSH1 0x40 MLOAD DUP3 PUSH4 0xFFFFFFFF AND PUSH1 0xE0 SHL DUP2 MSTORE PUSH1 0x4 ADD PUSH2 0x276 SWAP2 SWAP1 PUSH2 0x11BF JUMP JUMPDEST PUSH1 0x20 PUSH1 0x40 MLOAD DUP1 DUP4 SUB DUP2 DUP7 DUP1 EXTCODESIZE ISZERO DUP1 ISZERO PUSH2 0x28E JUMPI PUSH1 0x0 DUP1 REVERT JUMPDEST POP GAS STATICCALL ISZERO DUP1 ISZERO PUSH2 0x2A2 JUMPI RETURNDATASIZE PUSH1 0x0 DUP1 RETURNDATACOPY RETURNDATASIZE PUSH1 0x0 REVERT JUMPDEST POP POP POP POP PUSH1 0x40 MLOAD RETURNDATASIZE PUSH1 0x1F NOT PUSH1 0x1F DUP3 ADD AND DUP3 ADD DUP1 PUSH1 0x40 MSTORE POP DUP2 ADD SWAP1 PUSH2 0x2C6 SWAP2 SWAP1 PUSH2 0xE23 JUMP JUMPDEST PUSH20 0xFFFFFFFFFFFFFFFFFFFFFFFFFFFFFFFFFFFFFFFF AND EQ PUSH2 0x31C JUMPI PUSH1 0x40 MLOAD PUSH32 0x8C379A000000000000000000000000000000000000000000000000000000000 DUP2 MSTORE PUSH1 0x4 ADD PUSH2 0x313 SWAP1 PUSH2 0x111F JUMP JUMPDEST PUSH1 0x40 MLOAD DUP1 SWAP2 SUB SWAP1 REVERT JUMPDEST DUP1 PUSH20 0xFFFFFFFFFFFFFFFFFFFFFFFFFFFFFFFFFFFFFFFF AND PUSH4 0x42842E0E ADDRESS CALLER DUP7 PUSH1 0x40 MLOAD DUP5 PUSH4 0xFFFFFFFF AND PUSH1 0xE0 SHL DUP2 MSTORE PUSH1 0x4 ADD PUSH2 0x359 SWAP4 SWAP3 SWAP2 SWAP1 PUSH2 0x108D JUMP JUMPDEST PUSH1 0x0 PUSH1 0x40 MLOAD DUP1 DUP4 SUB DUP2 PUSH1 0x0 DUP8 DUP1 EXTCODESIZE ISZERO DUP1 ISZERO PUSH2 0x373 JUMPI PUSH1 0x0 DUP1 REVERT JUMPDEST POP GAS CALL ISZERO DUP1 ISZERO PUSH2 0x387 JUMPI RETURNDATASIZE PUSH1 0x0 DUP1 RETURNDATACOPY RETURNDATASIZE PUSH1 0x0 REVERT JUMPDEST POP POP POP POP CALLER PUSH20 0xFFFFFFFFFFFFFFFFFFFFFFFFFFFFFFFFFFFFFFFF AND PUSH2 0x8FC DUP4 PUSH1 0x1 ADD SLOAD CALLVALUE PUSH2 0x3B5 SWAP2 SWAP1 PUSH2 0x11EB JUMP JUMPDEST SWAP1 DUP2 ISZERO MUL SWAP1 PUSH1 0x40 MLOAD PUSH1 0x0 PUSH1 0x40 MLOAD DUP1 DUP4 SUB DUP2 DUP6 DUP9 DUP9 CALL SWAP4 POP POP POP POP ISZERO DUP1 ISZERO PUSH2 0x3E0 JUMPI RETURNDATASIZE PUSH1 0x0 DUP1 RETURNDATACOPY RETURNDATASIZE PUSH1 0x0 REVERT JUMPDEST POP DUP2 PUSH1 0x0 ADD PUSH1 0x0 SWAP1 SLOAD SWAP1 PUSH2 0x100 EXP SWAP1 DIV PUSH20 0xFFFFFFFFFFFFFFFFFFFFFFFFFFFFFFFFFFFFFFFF AND PUSH20 0xFFFFFFFFFFFFFFFFFFFFFFFFFFFFFFFFFFFFFFFF AND PUSH2 0x8FC DUP4 PUSH1 0x1 ADD SLOAD SWAP1 DUP2 ISZERO MUL SWAP1 PUSH1 0x40 MLOAD PUSH1 0x0 PUSH1 0x40 MLOAD DUP1 DUP4 SUB DUP2 DUP6 DUP9 DUP9 CALL SWAP4 POP POP POP POP ISZERO DUP1 ISZERO PUSH2 0x44F JUMPI RETURNDATASIZE PUSH1 0x0 DUP1 RETURNDATACOPY RETURNDATASIZE PUSH1 0x0 REVERT JUMPDEST POP PUSH1 0x0 DUP1 DUP6 PUSH20 0xFFFFFFFFFFFFFFFFFFFFFFFFFFFFFFFFFFFFFFFF AND PUSH20 0xFFFFFFFFFFFFFFFFFFFFFFFFFFFFFFFFFFFFFFFF AND DUP2 MSTORE PUSH1 0x20 ADD SWAP1 DUP2 MSTORE PUSH1 0x20 ADD PUSH1 0x0 KECCAK256 PUSH1 0x0 DUP5 DUP2 MSTORE PUSH1 0x20 ADD SWAP1 DUP2 MSTORE PUSH1 0x20 ADD PUSH1 0x0 KECCAK256 PUSH1 0x0 DUP1 DUP3 ADD PUSH1 0x0 PUSH2 0x100 EXP DUP2 SLOAD SWAP1 PUSH20 0xFFFFFFFFFFFFFFFFFFFFFFFFFFFFFFFFFFFFFFFF MUL NOT AND SWAP1 SSTORE PUSH1 0x1 DUP3 ADD PUSH1 0x0 SWAP1 SSTORE POP POP DUP3 DUP5 PUSH20 0xFFFFFFFFFFFFFFFFFFFFFFFFFFFFFFFFFFFFFFFF AND CALLER PUSH20 0xFFFFFFFFFFFFFFFFFFFFFFFFFFFFFFFFFFFFFFFF AND PUSH32 0x89F5ADC174562E07C9C9B1CAE7109BBECB21CF9D1B2847E550042B8653C54A0E DUP6 PUSH1 0x1 ADD SLOAD PUSH1 0x40 MLOAD PUSH2 0x533 SWAP2 SWAP1 PUSH2 0x11BF JUMP JUMPDEST PUSH1 0x40 MLOAD DUP1 SWAP2 SUB SWAP1 LOG4 POP POP POP POP JUMP JUMPDEST PUSH1 0x0 DUP2 GT PUSH2 0x584 JUMPI PUSH1 0x40 MLOAD PUSH32 0x8C379A000000000000000000000000000000000000000000000000000000000 DUP2 MSTORE PUSH1 0x4 ADD PUSH2 0x57B SWAP1 PUSH2 0x115F JUMP JUMPDEST PUSH1 0x40 MLOAD DUP1 SWAP2 SUB SWAP1 REVERT JUMPDEST PUSH1 0x0 DUP1 PUSH1 0x0 DUP6 PUSH20 0xFFFFFFFFFFFFFFFFFFFFFFFFFFFFFFFFFFFFFFFF AND PUSH20 0xFFFFFFFFFFFFFFFFFFFFFFFFFFFFFFFFFFFFFFFF AND DUP2 MSTORE PUSH1 0x20 ADD SWAP1 DUP2 MSTORE PUSH1 0x20 ADD PUSH1 0x0 KECCAK256 PUSH1 0x0 DUP5 DUP2 MSTORE PUSH1 0x20 ADD SWAP1 DUP2 MSTORE PUSH1 0x20 ADD PUSH1 0x0 KECCAK256 SWAP1 POP CALLER PUSH20 0xFFFFFFFFFFFFFFFFFFFFFFFFFFFFFFFFFFFFFFFF AND DUP2 PUSH1 0x0 ADD PUSH1 0x0 SWAP1 SLOAD SWAP1 PUSH2 0x100 EXP SWAP1 DIV PUSH20 0xFFFFFFFFFFFFFFFFFFFFFFFFFFFFFFFFFFFFFFFF AND PUSH20 0xFFFFFFFFFFFFFFFFFFFFFFFFFFFFFFFFFFFFFFFF AND EQ PUSH2 0x669 JUMPI PUSH1 0x40 MLOAD PUSH32 0x8C379A000000000000000000000000000000000000000000000000000000000 DUP2 MSTORE PUSH1 0x4 ADD PUSH2 0x660 SWAP1 PUSH2 0x119F JUMP JUMPDEST PUSH1 0x40 MLOAD DUP1 SWAP2 SUB SWAP1 REVERT JUMPDEST PUSH1 0x0 DUP5 SWAP1 POP ADDRESS PUSH20 0xFFFFFFFFFFFFFFFFFFFFFFFFFFFFFFFFFFFFFFFF AND DUP2 PUSH20 0xFFFFFFFFFFFFFFFFFFFFFFFFFFFFFFFFFFFFFFFF AND PUSH4 0x6352211E DUP7 PUSH1 0x40 MLOAD DUP3 PUSH4 0xFFFFFFFF AND PUSH1 0xE0 SHL DUP2 MSTORE PUSH1 0x4 ADD PUSH2 0x6BE SWAP2 SWAP1 PUSH2 0x11BF JUMP JUMPDEST PUSH1 0x20 PUSH1 0x40 MLOAD DUP1 DUP4 SUB DUP2 DUP7 DUP1 EXTCODESIZE ISZERO DUP1 ISZERO PUSH2 0x6D6 JUMPI PUSH1 0x0 DUP1 REVERT JUMPDEST POP GAS STATICCALL ISZERO DUP1 ISZERO PUSH2 0x6EA JUMPI RETURNDATASIZE PUSH1 0x0 DUP1 RETURNDATACOPY RETURNDATASIZE PUSH1 0x0 REVERT JUMPDEST POP POP POP POP PUSH1 0x40 MLOAD RETURNDATASIZE PUSH1 0x1F NOT PUSH1 0x1F DUP3 ADD AND DUP3 ADD DUP1 PUSH1 0x40 MSTORE POP DUP2 ADD SWAP1 PUSH2 0x70E SWAP2 SWAP1 PUSH2 0xE23 JUMP JUMPDEST PUSH20 0xFFFFFFFFFFFFFFFFFFFFFFFFFFFFFFFFFFFFFFFF AND EQ PUSH2 0x764 JUMPI PUSH1 0x40 MLOAD PUSH32 0x8C379A000000000000000000000000000000000000000000000000000000000 DUP2 MSTORE PUSH1 0x4 ADD PUSH2 0x75B SWAP1 PUSH2 0x111F JUMP JUMPDEST PUSH1 0x40 MLOAD DUP1 SWAP2 SUB SWAP1 REVERT JUMPDEST DUP3 DUP3 PUSH1 0x1 ADD DUP2 SWAP1 SSTORE POP DUP4 DUP6 PUSH20 0xFFFFFFFFFFFFFFFFFFFFFFFFFFFFFFFFFFFFFFFF AND CALLER PUSH20 0xFFFFFFFFFFFFFFFFFFFFFFFFFFFFFFFFFFFFFFFF AND PUSH32 0xB7F0CA7CD5B24651672216886135B99FF40342BCF549009A4C6FC74F059FB9A0 DUP7 PUSH1 0x40 MLOAD PUSH2 0x7CB SWAP2 SWAP1 PUSH2 0x11BF JUMP JUMPDEST PUSH1 0x40 MLOAD DUP1 SWAP2 SUB SWAP1 LOG4 POP POP POP POP POP JUMP JUMPDEST PUSH1 0x0 DUP4 SWAP1 POP ADDRESS PUSH20 0xFFFFFFFFFFFFFFFFFFFFFFFFFFFFFFFFFFFFFFFF AND DUP2 PUSH20 0xFFFFFFFFFFFFFFFFFFFFFFFFFFFFFFFFFFFFFFFF AND PUSH4 0x81812FC DUP6 PUSH1 0x40 MLOAD DUP3 PUSH4 0xFFFFFFFF AND PUSH1 0xE0 SHL DUP2 MSTORE PUSH1 0x4 ADD PUSH2 0x82F SWAP2 SWAP1 PUSH2 0x11BF JUMP JUMPDEST PUSH1 0x20 PUSH1 0x40 MLOAD DUP1 DUP4 SUB DUP2 DUP7 DUP1 EXTCODESIZE ISZERO DUP1 ISZERO PUSH2 0x847 JUMPI PUSH1 0x0 DUP1 REVERT JUMPDEST POP GAS STATICCALL ISZERO DUP1 ISZERO PUSH2 0x85B JUMPI RETURNDATASIZE PUSH1 0x0 DUP1 RETURNDATACOPY RETURNDATASIZE PUSH1 0x0 REVERT JUMPDEST POP POP POP POP PUSH1 0x40 MLOAD RETURNDATASIZE PUSH1 0x1F NOT PUSH1 0x1F DUP3 ADD AND DUP3 ADD DUP1 PUSH1 0x40 MSTORE POP DUP2 ADD SWAP1 PUSH2 0x87F SWAP2 SWAP1 PUSH2 0xE23 JUMP JUMPDEST PUSH20 0xFFFFFFFFFFFFFFFFFFFFFFFFFFFFFFFFFFFFFFFF AND EQ PUSH2 0x8D5 JUMPI PUSH1 0x40 MLOAD PUSH32 0x8C379A000000000000000000000000000000000000000000000000000000000 DUP2 MSTORE PUSH1 0x4 ADD PUSH2 0x8CC SWAP1 PUSH2 0x117F JUMP JUMPDEST PUSH1 0x40 MLOAD DUP1 SWAP2 SUB SWAP1 REVERT JUMPDEST PUSH1 0x0 DUP3 GT PUSH2 0x8E2 JUMPI PUSH1 0x0 DUP1 REVERT JUMPDEST PUSH1 0x0 DUP1 PUSH1 0x0 DUP7 PUSH20 0xFFFFFFFFFFFFFFFFFFFFFFFFFFFFFFFFFFFFFFFF AND PUSH20 0xFFFFFFFFFFFFFFFFFFFFFFFFFFFFFFFFFFFFFFFF AND DUP2 MSTORE PUSH1 0x20 ADD SWAP1 DUP2 MSTORE PUSH1 0x20 ADD PUSH1 0x0 KECCAK256 PUSH1 0x0 DUP6 DUP2 MSTORE PUSH1 0x20 ADD SWAP1 DUP2 MSTORE PUSH1 0x20 ADD PUSH1 0x0 KECCAK256 SWAP1 POP CALLER DUP2 PUSH1 0x0 ADD PUSH1 0x0 PUSH2 0x100 EXP DUP2 SLOAD DUP2 PUSH20 0xFFFFFFFFFFFFFFFFFFFFFFFFFFFFFFFFFFFFFFFF MUL NOT AND SWAP1 DUP4 PUSH20 0xFFFFFFFFFFFFFFFFFFFFFFFFFFFFFFFFFFFFFFFF AND MUL OR SWAP1 SSTORE POP DUP3 DUP2 PUSH1 0x1 ADD DUP2 SWAP1 SSTORE POP DUP2 PUSH20 0xFFFFFFFFFFFFFFFFFFFFFFFFFFFFFFFFFFFFFFFF AND PUSH4 0x42842E0E CALLER ADDRESS DUP8 PUSH1 0x40 MLOAD DUP5 PUSH4 0xFFFFFFFF AND PUSH1 0xE0 SHL DUP2 MSTORE PUSH1 0x4 ADD PUSH2 0x9BE SWAP4 SWAP3 SWAP2 SWAP1 PUSH2 0x108D JUMP JUMPDEST PUSH1 0x0 PUSH1 0x40 MLOAD DUP1 DUP4 SUB DUP2 PUSH1 0x0 DUP8 DUP1 EXTCODESIZE ISZERO DUP1 ISZERO PUSH2 0x9D8 JUMPI PUSH1 0x0 DUP1 REVERT JUMPDEST POP GAS CALL ISZERO DUP1 ISZERO PUSH2 0x9EC JUMPI RETURNDATASIZE PUSH1 0x0 DUP1 RETURNDATACOPY RETURNDATASIZE PUSH1 0x0 REVERT JUMPDEST POP POP POP POP DUP4 DUP6 PUSH20 0xFFFFFFFFFFFFFFFFFFFFFFFFFFFFFFFFFFFFFFFF AND CALLER PUSH20 0xFFFFFFFFFFFFFFFFFFFFFFFFFFFFFFFFFFFFFFFF AND PUSH32 0xEDBDF022944A3291F4B30148903A84720506F48E10478EC5812E5CAF30E1FAB0 DUP7 PUSH1 0x40 MLOAD PUSH2 0xA4E SWAP2 SWAP1 PUSH2 0x11BF JUMP JUMPDEST PUSH1 0x40 MLOAD DUP1 SWAP2 SUB SWAP1 LOG4 POP POP POP POP POP JUMP JUMPDEST PUSH1 0x0 DUP1 PUSH1 0x0 DUP5 PUSH20 0xFFFFFFFFFFFFFFFFFFFFFFFFFFFFFFFFFFFFFFFF AND PUSH20 0xFFFFFFFFFFFFFFFFFFFFFFFFFFFFFFFFFFFFFFFF AND DUP2 MSTORE PUSH1 0x20 ADD SWAP1 DUP2 MSTORE PUSH1 0x20 ADD PUSH1 0x0 KECCAK256 PUSH1 0x0 DUP4 DUP2 MSTORE PUSH1 0x20 ADD SWAP1 DUP2 MSTORE PUSH1 0x20 ADD PUSH1 0x0 KECCAK256 SWAP1 POP DUP1 PUSH1 0x0 ADD PUSH1 0x0 SWAP1 SLOAD SWAP1 PUSH2 0x100 EXP SWAP1 DIV PUSH20 0xFFFFFFFFFFFFFFFFFFFFFFFFFFFFFFFFFFFFFFFF AND PUSH20 0xFFFFFFFFFFFFFFFFFFFFFFFFFFFFFFFFFFFFFFFF AND CALLER PUSH20 0xFFFFFFFFFFFFFFFFFFFFFFFFFFFFFFFFFFFFFFFF AND EQ PUSH2 0xB42 JUMPI PUSH1 0x40 MLOAD PUSH32 0x8C379A000000000000000000000000000000000000000000000000000000000 DUP2 MSTORE PUSH1 0x4 ADD PUSH2 0xB39 SWAP1 PUSH2 0x10DF JUMP JUMPDEST PUSH1 0x40 MLOAD DUP1 SWAP2 SUB SWAP1 REVERT JUMPDEST PUSH1 0x0 DUP4 SWAP1 POP ADDRESS PUSH20 0xFFFFFFFFFFFFFFFFFFFFFFFFFFFFFFFFFFFFFFFF AND DUP2 PUSH20 0xFFFFFFFFFFFFFFFFFFFFFFFFFFFFFFFFFFFFFFFF AND PUSH4 0x6352211E DUP6 PUSH1 0x40 MLOAD DUP3 PUSH4 0xFFFFFFFF AND PUSH1 0xE0 SHL DUP2 MSTORE PUSH1 0x4 ADD PUSH2 0xB97 SWAP2 SWAP1 PUSH2 0x11BF JUMP JUMPDEST PUSH1 0x20 PUSH1 0x40 MLOAD DUP1 DUP4 SUB DUP2 DUP7 DUP1 EXTCODESIZE ISZERO DUP1 ISZERO PUSH2 0xBAF JUMPI PUSH1 0x0 DUP1 REVERT JUMPDEST POP GAS STATICCALL ISZERO DUP1 ISZERO PUSH2 0xBC3 JUMPI RETURNDATASIZE PUSH1 0x0 DUP1 RETURNDATACOPY RETURNDATASIZE PUSH1 0x0 REVERT JUMPDEST POP POP POP POP PUSH1 0x40 MLOAD RETURNDATASIZE PUSH1 0x1F NOT PUSH1 0x1F DUP3 ADD AND DUP3 ADD DUP1 PUSH1 0x40 MSTORE POP DUP2 ADD SWAP1 PUSH2 0xBE7 SWAP2 SWAP1 PUSH2 0xE23 JUMP JUMPDEST PUSH20 0xFFFFFFFFFFFFFFFFFFFFFFFFFFFFFFFFFFFFFFFF AND EQ PUSH2 0xC3D JUMPI PUSH1 0x40 MLOAD PUSH32 0x8C379A000000000000000000000000000000000000000000000000000000000 DUP2 MSTORE PUSH1 0x4 ADD PUSH2 0xC34 SWAP1 PUSH2 0x113F JUMP JUMPDEST PUSH1 0x40 MLOAD DUP1 SWAP2 SUB SWAP1 REVERT JUMPDEST DUP1 PUSH20 0xFFFFFFFFFFFFFFFFFFFFFFFFFFFFFFFFFFFFFFFF AND PUSH4 0x42842E0E ADDRESS CALLER DUP7 PUSH1 0x40 MLOAD DUP5 PUSH4 0xFFFFFFFF AND PUSH1 0xE0 SHL DUP2 MSTORE PUSH1 0x4 ADD PUSH2 0xC7A SWAP4 SWAP3 SWAP2 SWAP1 PUSH2 0x108D JUMP JUMPDEST PUSH1 0x0 PUSH1 0x40 MLOAD DUP1 DUP4 SUB DUP2 PUSH1 0x0 DUP8 DUP1 EXTCODESIZE ISZERO DUP1 ISZERO PUSH2 0xC94 JUMPI PUSH1 0x0 DUP1 REVERT JUMPDEST POP GAS CALL ISZERO DUP1 ISZERO PUSH2 0xCA8 JUMPI RETURNDATASIZE PUSH1 0x0 DUP1 RETURNDATACOPY RETURNDATASIZE PUSH1 0x0 REVERT JUMPDEST POP POP POP POP PUSH1 0x0 DUP1 DUP6 PUSH20 0xFFFFFFFFFFFFFFFFFFFFFFFFFFFFFFFFFFFFFFFF AND PUSH20 0xFFFFFFFFFFFFFFFFFFFFFFFFFFFFFFFFFFFFFFFF AND DUP2 MSTORE PUSH1 0x20 ADD SWAP1 DUP2 MSTORE PUSH1 0x20 ADD PUSH1 0x0 KECCAK256 PUSH1 0x0 DUP5 DUP2 MSTORE PUSH1 0x20 ADD SWAP1 DUP2 MSTORE PUSH1 0x20 ADD PUSH1 0x0 KECCAK256 PUSH1 0x0 DUP1 DUP3 ADD PUSH1 0x0 PUSH2 0x100 EXP DUP2 SLOAD SWAP1 PUSH20 0xFFFFFFFFFFFFFFFFFFFFFFFFFFFFFFFFFFFFFFFF MUL NOT AND SWAP1 SSTORE PUSH1 0x1 DUP3 ADD PUSH1 0x0 SWAP1 SSTORE POP POP DUP3 DUP5 PUSH20 0xFFFFFFFFFFFFFFFFFFFFFFFFFFFFFFFFFFFFFFFF AND CALLER PUSH20 0xFFFFFFFFFFFFFFFFFFFFFFFFFFFFFFFFFFFFFFFF AND PUSH32 0xB698E31A2ABEE5824D0D7BCFD2339AEAD7F9E9AE413FBA50BF554FF3FA470B7B PUSH1 0x40 MLOAD PUSH1 0x40 MLOAD DUP1 SWAP2 SUB SWAP1 LOG4 POP POP POP POP JUMP JUMPDEST PUSH1 0x0 DUP2 CALLDATALOAD SWAP1 POP PUSH2 0xD9D DUP2 PUSH2 0x1414 JUMP JUMPDEST SWAP3 SWAP2 POP POP JUMP JUMPDEST PUSH1 0x0 DUP2 MLOAD SWAP1 POP PUSH2 0xDB2 DUP2 PUSH2 0x1414 JUMP JUMPDEST SWAP3 SWAP2 POP POP JUMP JUMPDEST PUSH1 0x0 DUP1 DUP4 PUSH1 0x1F DUP5 ADD SLT PUSH2 0xDCE JUMPI PUSH2 0xDCD PUSH2 0x12BB JUMP JUMPDEST JUMPDEST DUP3 CALLDATALOAD SWAP1 POP PUSH8 0xFFFFFFFFFFFFFFFF DUP2 GT ISZERO PUSH2 0xDEB JUMPI PUSH2 0xDEA PUSH2 0x12B6 JUMP JUMPDEST JUMPDEST PUSH1 0x20 DUP4 ADD SWAP2 POP DUP4 PUSH1 0x1 DUP3 MUL DUP4 ADD GT ISZERO PUSH2 0xE07 JUMPI PUSH2 0xE06 PUSH2 0x12C0 JUMP JUMPDEST JUMPDEST SWAP3 POP SWAP3 SWAP1 POP JUMP JUMPDEST PUSH1 0x0 DUP2 CALLDATALOAD SWAP1 POP PUSH2 0xE1D DUP2 PUSH2 0x142B JUMP JUMPDEST SWAP3 SWAP2 POP POP JUMP JUMPDEST PUSH1 0x0 PUSH1 0x20 DUP3 DUP5 SUB SLT ISZERO PUSH2 0xE39 JUMPI PUSH2 0xE38 PUSH2 0x12CA JUMP JUMPDEST JUMPDEST PUSH1 0x0 PUSH2 0xE47 DUP5 DUP3 DUP6 ADD PUSH2 0xDA3 JUMP JUMPDEST SWAP2 POP POP SWAP3 SWAP2 POP POP JUMP JUMPDEST PUSH1 0x0 DUP1 PUSH1 0x0 DUP1 PUSH1 0x0 PUSH1 0x80 DUP7 DUP9 SUB SLT ISZERO PUSH2 0xE6C JUMPI PUSH2 0xE6B PUSH2 0x12CA JUMP JUMPDEST JUMPDEST PUSH1 0x0 PUSH2 0xE7A DUP9 DUP3 DUP10 ADD PUSH2 0xD8E JUMP JUMPDEST SWAP6 POP POP PUSH1 0x20 PUSH2 0xE8B DUP9 DUP3 DUP10 ADD PUSH2 0xD8E JUMP JUMPDEST SWAP5 POP POP PUSH1 0x40 PUSH2 0xE9C DUP9 DUP3 DUP10 ADD PUSH2 0xE0E JUMP JUMPDEST SWAP4 POP POP PUSH1 0x60 DUP7 ADD CALLDATALOAD PUSH8 0xFFFFFFFFFFFFFFFF DUP2 GT ISZERO PUSH2 0xEBD JUMPI PUSH2 0xEBC PUSH2 0x12C5 JUMP JUMPDEST JUMPDEST PUSH2 0xEC9 DUP9 DUP3 DUP10 ADD PUSH2 0xDB8 JUMP JUMPDEST SWAP3 POP SWAP3 POP POP SWAP3 SWAP6 POP SWAP3 SWAP6 SWAP1 SWAP4 POP JUMP JUMPDEST PUSH1 0x0 DUP1 PUSH1 0x40 DUP4 DUP6 SUB SLT ISZERO PUSH2 0xEEF JUMPI PUSH2 0xEEE PUSH2 0x12CA JUMP JUMPDEST JUMPDEST PUSH1 0x0 PUSH2 0xEFD DUP6 DUP3 DUP7 ADD PUSH2 0xD8E JUMP JUMPDEST SWAP3 POP POP PUSH1 0x20 PUSH2 0xF0E DUP6 DUP3 DUP7 ADD PUSH2 0xE0E JUMP JUMPDEST SWAP2 POP POP SWAP3 POP SWAP3 SWAP1 POP JUMP JUMPDEST PUSH1 0x0 DUP1 PUSH1 0x0 PUSH1 0x60 DUP5 DUP7 SUB SLT ISZERO PUSH2 0xF31 JUMPI PUSH2 0xF30 PUSH2 0x12CA JUMP JUMPDEST JUMPDEST PUSH1 0x0 PUSH2 0xF3F DUP7 DUP3 DUP8 ADD PUSH2 0xD8E JUMP JUMPDEST SWAP4 POP POP PUSH1 0x20 PUSH2 0xF50 DUP7 DUP3 DUP8 ADD PUSH2 0xE0E JUMP JUMPDEST SWAP3 POP POP PUSH1 0x40 PUSH2 0xF61 DUP7 DUP3 DUP8 ADD PUSH2 0xE0E JUMP JUMPDEST SWAP2 POP POP SWAP3 POP SWAP3 POP SWAP3 JUMP JUMPDEST PUSH2 0xF74 DUP2 PUSH2 0x121F JUMP JUMPDEST DUP3 MSTORE POP POP JUMP JUMPDEST PUSH2 0xF83 DUP2 PUSH2 0x1231 JUMP JUMPDEST DUP3 MSTORE POP POP JUMP JUMPDEST PUSH1 0x0 PUSH2 0xF96 PUSH1 0x30 DUP4 PUSH2 0x11DA JUMP JUMPDEST SWAP2 POP PUSH2 0xFA1 DUP3 PUSH2 0x12CF JUMP JUMPDEST PUSH1 0x40 DUP3 ADD SWAP1 POP SWAP2 SWAP1 POP JUMP JUMPDEST PUSH1 0x0 PUSH2 0xFB9 PUSH1 0x12 DUP4 PUSH2 0x11DA JUMP JUMPDEST SWAP2 POP PUSH2 0xFC4 DUP3 PUSH2 0x131E JUMP JUMPDEST PUSH1 0x20 DUP3 ADD SWAP1 POP SWAP2 SWAP1 POP JUMP JUMPDEST PUSH1 0x0 PUSH2 0xFDC PUSH1 0xF DUP4 PUSH2 0x11DA JUMP JUMPDEST SWAP2 POP PUSH2 0xFE7 DUP3 PUSH2 0x1347 JUMP JUMPDEST PUSH1 0x20 DUP3 ADD SWAP1 POP SWAP2 SWAP1 POP JUMP JUMPDEST PUSH1 0x0 PUSH2 0xFFF PUSH1 0xF DUP4 PUSH2 0x11DA JUMP JUMPDEST SWAP2 POP PUSH2 0x100A DUP3 PUSH2 0x1370 JUMP JUMPDEST PUSH1 0x20 DUP3 ADD SWAP1 POP SWAP2 SWAP1 POP JUMP JUMPDEST PUSH1 0x0 PUSH2 0x1022 PUSH1 0xD DUP4 PUSH2 0x11DA JUMP JUMPDEST SWAP2 POP PUSH2 0x102D DUP3 PUSH2 0x1399 JUMP JUMPDEST PUSH1 0x20 DUP3 ADD SWAP1 POP SWAP2 SWAP1 POP JUMP JUMPDEST PUSH1 0x0 PUSH2 0x1045 PUSH1 0x16 DUP4 PUSH2 0x11DA JUMP JUMPDEST SWAP2 POP PUSH2 0x1050 DUP3 PUSH2 0x13C2 JUMP JUMPDEST PUSH1 0x20 DUP3 ADD SWAP1 POP SWAP2 SWAP1 POP JUMP JUMPDEST PUSH1 0x0 PUSH2 0x1068 PUSH1 0x1A DUP4 PUSH2 0x11DA JUMP JUMPDEST SWAP2 POP PUSH2 0x1073 DUP3 PUSH2 0x13EB JUMP JUMPDEST PUSH1 0x20 DUP3 ADD SWAP1 POP SWAP2 SWAP1 POP JUMP JUMPDEST PUSH2 0x1087 DUP2 PUSH2 0x127D JUMP JUMPDEST DUP3 MSTORE POP POP JUMP JUMPDEST PUSH1 0x0 PUSH1 0x60 DUP3 ADD SWAP1 POP PUSH2 0x10A2 PUSH1 0x0 DUP4 ADD DUP7 PUSH2 0xF6B JUMP JUMPDEST PUSH2 0x10AF PUSH1 0x20 DUP4 ADD DUP6 PUSH2 0xF6B JUMP JUMPDEST PUSH2 0x10BC PUSH1 0x40 DUP4 ADD DUP5 PUSH2 0x107E JUMP JUMPDEST SWAP5 SWAP4 POP POP POP POP JUMP JUMPDEST PUSH1 0x0 PUSH1 0x20 DUP3 ADD SWAP1 POP PUSH2 0x10D9 PUSH1 0x0 DUP4 ADD DUP5 PUSH2 0xF7A JUMP JUMPDEST SWAP3 SWAP2 POP POP JUMP JUMPDEST PUSH1 0x0 PUSH1 0x20 DUP3 ADD SWAP1 POP DUP2 DUP2 SUB PUSH1 0x0 DUP4 ADD MSTORE PUSH2 0x10F8 DUP2 PUSH2 0xF89 JUMP JUMPDEST SWAP1 POP SWAP2 SWAP1 POP JUMP JUMPDEST PUSH1 0x0 PUSH1 0x20 DUP3 ADD SWAP1 POP DUP2 DUP2 SUB PUSH1 0x0 DUP4 ADD MSTORE PUSH2 0x1118 DUP2 PUSH2 0xFAC JUMP JUMPDEST SWAP1 POP SWAP2 SWAP1 POP JUMP JUMPDEST PUSH1 0x0 PUSH1 0x20 DUP3 ADD SWAP1 POP DUP2 DUP2 SUB PUSH1 0x0 DUP4 ADD MSTORE PUSH2 0x1138 DUP2 PUSH2 0xFCF JUMP JUMPDEST SWAP1 POP SWAP2 SWAP1 POP JUMP JUMPDEST PUSH1 0x0 PUSH1 0x20 DUP3 ADD SWAP1 POP DUP2 DUP2 SUB PUSH1 0x0 DUP4 ADD MSTORE PUSH2 0x1158 DUP2 PUSH2 0xFF2 JUMP JUMPDEST SWAP1 POP SWAP2 SWAP1 POP JUMP JUMPDEST PUSH1 0x0 PUSH1 0x20 DUP3 ADD SWAP1 POP DUP2 DUP2 SUB PUSH1 0x0 DUP4 ADD MSTORE PUSH2 0x1178 DUP2 PUSH2 0x1015 JUMP JUMPDEST SWAP1 POP SWAP2 SWAP1 POP JUMP JUMPDEST PUSH1 0x0 PUSH1 0x20 DUP3 ADD SWAP1 POP DUP2 DUP2 SUB PUSH1 0x0 DUP4 ADD MSTORE PUSH2 0x1198 DUP2 PUSH2 0x1038 JUMP JUMPDEST SWAP1 POP SWAP2 SWAP1 POP JUMP JUMPDEST PUSH1 0x0 PUSH1 0x20 DUP3 ADD SWAP1 POP DUP2 DUP2 SUB PUSH1 0x0 DUP4 ADD MSTORE PUSH2 0x11B8 DUP2 PUSH2 0x105B JUMP JUMPDEST SWAP1 POP SWAP2 SWAP1 POP JUMP JUMPDEST PUSH1 0x0 PUSH1 0x20 DUP3 ADD SWAP1 POP PUSH2 0x11D4 PUSH1 0x0 DUP4 ADD DUP5 PUSH2 0x107E JUMP JUMPDEST SWAP3 SWAP2 POP POP JUMP JUMPDEST PUSH1 0x0 DUP3 DUP3 MSTORE PUSH1 0x20 DUP3 ADD SWAP1 POP SWAP3 SWAP2 POP POP JUMP JUMPDEST PUSH1 0x0 PUSH2 0x11F6 DUP3 PUSH2 0x127D JUMP JUMPDEST SWAP2 POP PUSH2 0x1201 DUP4 PUSH2 0x127D JUMP JUMPDEST SWAP3 POP DUP3 DUP3 LT ISZERO PUSH2 0x1214 JUMPI PUSH2 0x1213 PUSH2 0x1287 JUMP JUMPDEST JUMPDEST DUP3 DUP3 SUB SWAP1 POP SWAP3 SWAP2 POP POP JUMP JUMPDEST PUSH1 0x0 PUSH2 0x122A DUP3 PUSH2 0x125D JUMP JUMPDEST SWAP1 POP SWAP2 SWAP1 POP JUMP JUMPDEST PUSH1 0x0 PUSH32 0xFFFFFFFF00000000000000000000000000000000000000000000000000000000 DUP3 AND SWAP1 POP SWAP2 SWAP1 POP JUMP JUMPDEST PUSH1 0x0 PUSH20 0xFFFFFFFFFFFFFFFFFFFFFFFFFFFFFFFFFFFFFFFF DUP3 AND SWAP1 POP SWAP2 SWAP1 POP JUMP JUMPDEST PUSH1 0x0 DUP2 SWAP1 POP SWAP2 SWAP1 POP JUMP JUMPDEST PUSH32 0x4E487B7100000000000000000000000000000000000000000000000000000000 PUSH1 0x0 MSTORE PUSH1 0x11 PUSH1 0x4 MSTORE PUSH1 0x24 PUSH1 0x0 REVERT JUMPDEST PUSH1 0x0 DUP1 REVERT JUMPDEST PUSH1 0x0 DUP1 REVERT JUMPDEST PUSH1 0x0 DUP1 REVERT JUMPDEST PUSH1 0x0 DUP1 REVERT JUMPDEST PUSH1 0x0 DUP1 REVERT JUMPDEST PUSH32 0x596F7520617265206E6F7420746865206F776E65722E596F7520646F206E6F74 PUSH1 0x0 DUP3 ADD MSTORE PUSH32 0x2068617665207065726D697373696F6E00000000000000000000000000000000 PUSH1 0x20 DUP3 ADD MSTORE POP JUMP JUMPDEST PUSH32 0x696E73756666696369656E742070726963650000000000000000000000000000 PUSH1 0x0 DUP3 ADD MSTORE POP JUMP JUMPDEST PUSH32 0x77726F6E6720706172616D657465720000000000000000000000000000000000 PUSH1 0x0 DUP3 ADD MSTORE POP JUMP JUMPDEST PUSH32 0x77726F6E6720617267756D656E74730000000000000000000000000000000000 PUSH1 0x0 DUP3 ADD MSTORE POP JUMP JUMPDEST PUSH32 0x696E76616C696420707269636500000000000000000000000000000000000000 PUSH1 0x0 DUP3 ADD MSTORE POP JUMP JUMPDEST PUSH32 0x617070726F766520636F6E747261637420666972737400000000000000000000 PUSH1 0x0 DUP3 ADD MSTORE POP JUMP JUMPDEST PUSH32 0x796F7520646F206E6F742068617665207065726D697373696F6E000000000000 PUSH1 0x0 DUP3 ADD MSTORE POP JUMP JUMPDEST PUSH2 0x141D DUP2 PUSH2 0x121F JUMP JUMPDEST DUP2 EQ PUSH2 0x1428 JUMPI PUSH1 0x0 DUP1 REVERT JUMPDEST POP JUMP JUMPDEST PUSH2 0x1434 DUP2 PUSH2 0x127D JUMP JUMPDEST DUP2 EQ PUSH2 0x143F JUMPI PUSH1 0x0 DUP1 REVERT JUMPDEST POP JUMP INVALID LOG2 PUSH5 0x6970667358 0x22 SLT KECCAK256 0x2B 0xE0 0xCD 0xC6 INVALID GASPRICE LOG0 DUP14 DIFFICULTY 0xB5 0xE9 CHAINID 0x22 SWAP5 0x24 0xDA GT DUP6 0xDD 0xF6 0x4A DIFFICULTY 0x5D 0xC PUSH1 0x93 GAS SSTORE 0xC9 0x4A 0xCC DIFFICULTY PUSH5 0x736F6C6343 STOP ADDMOD SMOD STOP CALLER "
				},
				"gasEstimates": {
					"creation": {
						"codeDepositCost": "1048000",
						"executionCost": "1087",
						"totalCost": "1049087"
					},
					"external": {
						"": "173",
						"buy(address,uint256)": "infinite",
						"list(address,uint256,uint256)": "infinite",
						"onERC721Received(address,address,uint256,bytes)": "infinite",
						"revoke(address,uint256)": "infinite",
						"update(address,uint256,uint256)": "infinite"
					}
				},
				"methodIdentifiers": {
					"buy(address,uint256)": "cce7ec13",
					"list(address,uint256,uint256)": "dda342bb",
					"onERC721Received(address,address,uint256,bytes)": "150b7a02",
					"revoke(address,uint256)": "eac449d9",
					"update(address,uint256,uint256)": "d09b6d43"
				}
			},
			"storageLayout": {
				"storage": [
					{
						"astId": 231,
						"contract": "swap/NFTSwap.sol:NFTSwap",
						"label": "nftList",
						"offset": 0,
						"slot": "0",
						"type": "t_mapping(t_address,t_mapping(t_uint256,t_struct(Order)224_storage))"
					}
				],
				"types": {
					"t_address": {
						"encoding": "inplace",
						"label": "address",
						"numberOfBytes": "20"
					},
					"t_mapping(t_address,t_mapping(t_uint256,t_struct(Order)224_storage))": {
						"encoding": "mapping",
						"key": "t_address",
						"label": "mapping(address => mapping(uint256 => struct NFTSwap.Order))",
						"numberOfBytes": "32",
						"value": "t_mapping(t_uint256,t_struct(Order)224_storage)"
					},
					"t_mapping(t_uint256,t_struct(Order)224_storage)": {
						"encoding": "mapping",
						"key": "t_uint256",
						"label": "mapping(uint256 => struct NFTSwap.Order)",
						"numberOfBytes": "32",
						"value": "t_struct(Order)224_storage"
					},
					"t_struct(Order)224_storage": {
						"encoding": "inplace",
						"label": "struct NFTSwap.Order",
						"members": [
							{
								"astId": 221,
								"contract": "swap/NFTSwap.sol:NFTSwap",
								"label": "owner",
								"offset": 0,
								"slot": "0",
								"type": "t_address"
							},
							{
								"astId": 223,
								"contract": "swap/NFTSwap.sol:NFTSwap",
								"label": "price",
								"offset": 0,
								"slot": "1",
								"type": "t_uint256"
							}
						],
						"numberOfBytes": "64"
					},
					"t_uint256": {
						"encoding": "inplace",
						"label": "uint256",
						"numberOfBytes": "32"
					}
				}
			},
			"userdoc": {
				"kind": "user",
				"methods": {
					"list(address,uint256,uint256)": {
						"notice": "卖家挂单上架nft,将指定的NFT发送到当前合约中来"
					},
					"onERC721Received(address,address,uint256,bytes)": {
						"notice": "Handle the receipt of an NFT"
					},
					"revoke(address,uint256)": {
						"notice": "撤销挂单"
					}
				},
				"version": 1
			}
		}
	}
}