{
	"data": {
		"bytecode": {
			"linkReferences": {},
			"object": "608060405234801561001057600080fd5b50610205806100206000396000f3fe608060405234801561001057600080fd5b50600436106100415760003560e01c80636ac5db19146100465780638f940f63146100645780639f67679e14610084575b600080fd5b61004e6100a2565b60405161005b919061017e565b60405180910390f35b61006c6100ca565b60405161007b93929190610147565b60405180910390f35b61008c610124565b604051610099919061017e565b60405180910390f35b60007fffffffffffffffffffffffffffffffffffffffffffffffffffffffffffffffff905090565b60008060007f01ffc9a70000000000000000000000000000000000000000000000000000000092507f01ffc9a7a5cef8baa21ed3c5c0d7e23accb804b619e9333b597f47a0d84076e291506301ffc9a760e01b9050909192565b600090565b61013281610199565b82525050565b610141816101c5565b82525050565b600060608201905061015c6000830186610129565b6101696020830185610129565b6101766040830184610129565b949350505050565b60006020820190506101936000830184610138565b92915050565b60007fffffffff0000000000000000000000000000000000000000000000000000000082169050919050565b600081905091905056fea2646970667358221220e70a3b629227e064372830ed836cb3c81fe53e4b23e3b93e0a1fdb77513556a664736f6c63430008070033",
			"opcodes": "PUSH1 0x80 PUSH1 0x40 MSTORE CALLVALUE DUP1 ISZERO PUSH2 0x10 JUMPI PUSH1 0x0 DUP1 REVERT JUMPDEST POP PUSH2 0x205 DUP1 PUSH2 0x20 PUSH1 0x0 CODECOPY PUSH1 0x0 RETURN INVALID PUSH1 0x80 PUSH1 0x40 MSTORE CALLVALUE DUP1 ISZERO PUSH2 0x10 JUMPI PUSH1 0x0 DUP1 REVERT JUMPDEST POP PUSH1 0x4 CALLDATASIZE LT PUSH2 0x41 JUMPI PUSH1 0x0 CALLDATALOAD PUSH1 0xE0 SHR DUP1 PUSH4 0x6AC5DB19 EQ PUSH2 0x46 JUMPI DUP1 PUSH4 0x8F940F63 EQ PUSH2 0x64 JUMPI DUP1 PUSH4 0x9F67679E EQ PUSH2 0x84 JUMPI JUMPDEST PUSH1 0x0 DUP1 REVERT JUMPDEST PUSH2 0x4E PUSH2 0xA2 JUMP JUMPDEST PUSH1 0x40 MLOAD PUSH2 0x5B SWAP2 SWAP1 PUSH2 0x17E JUMP JUMPDEST PUSH1 0x40 MLOAD DUP1 SWAP2 SUB SWAP1 RETURN JUMPDEST PUSH2 0x6C PUSH2 0xCA JUMP JUMPDEST PUSH1 0x40 MLOAD PUSH2 0x7B SWAP4 SWAP3 SWAP2 SWAP1 PUSH2 0x147 JUMP JUMPDEST PUSH1 0x40 MLOAD DUP1 SWAP2 SUB SWAP1 RETURN JUMPDEST PUSH2 0x8C PUSH2 0x124 JUMP JUMPDEST PUSH1 0x40 MLOAD PUSH2 0x99 SWAP2 SWAP1 PUSH2 0x17E JUMP JUMPDEST PUSH1 0x40 MLOAD DUP1 SWAP2 SUB SWAP1 RETURN JUMPDEST PUSH1 0x0 PUSH32 0xFFFFFFFFFFFFFFFFFFFFFFFFFFFFFFFFFFFFFFFFFFFFFFFFFFFFFFFFFFFFFFFF SWAP1 POP SWAP1 JUMP JUMPDEST PUSH1 0x0 DUP1 PUSH1 0x0 PUSH32 0x1FFC9A700000000000000000000000000000000000000000000000000000000 SWAP3 POP PUSH32 0x1FFC9A7A5CEF8BAA21ED3C5C0D7E23ACCB804B619E9333B597F47A0D84076E2 SWAP2 POP PUSH4 0x1FFC9A7 PUSH1 0xE0 SHL SWAP1 POP SWAP1 SWAP2 SWAP3 JUMP JUMPDEST PUSH1 0x0 SWAP1 JUMP JUMPDEST PUSH2 0x132 DUP2 PUSH2 0x199 JUMP JUMPDEST DUP3 MSTORE POP POP JUMP JUMPDEST PUSH2 0x141 DUP2 PUSH2 0x1C5 JUMP JUMPDEST DUP3 MSTORE POP POP JUMP JUMPDEST PUSH1 0x0 PUSH1 0x60 DUP3 ADD SWAP1 POP PUSH2 0x15C PUSH1 0x0 DUP4 ADD DUP7 PUSH2 0x129 JUMP JUMPDEST PUSH2 0x169 PUSH1 0x20 DUP4 ADD DUP6 PUSH2 0x129 JUMP JUMPDEST PUSH2 0x176 PUSH1 0x40 DUP4 ADD DUP5 PUSH2 0x129 JUMP JUMPDEST SWAP5 SWAP4 POP POP POP POP JUMP JUMPDEST PUSH1 0x0 PUSH1 0x20 DUP3 ADD SWAP1 POP PUSH2 0x193 PUSH1 0x0 DUP4 ADD DUP5 PUSH2 0x138 JUMP JUMPDEST SWAP3 SWAP2 POP POP JUMP JUMPDEST PUSH1 0x0 PUSH32 0xFFFFFFFF00000000000000000000000000000000000000000000000000000000 DUP3 AND SWAP1 POP SWAP2 SWAP1 POP JUMP JUMPDEST PUSH1 0x0 DUP2 SWAP1 POP SWAP2 SWAP1 POP JUMP INVALID LOG2 PUSH5 0x6970667358 0x22 SLT KECCAK256 0xE7 EXP EXTCODESIZE PUSH3 0x9227E0 PUSH5 0x372830ED83 PUSH13 0xB3C81FE53E4B23E3B93E0A1FDB PUSH24 0x513556A664736F6C63430008070033000000000000000000 "
		},
		"gasEstimates": {
			"creation": {
				"codeDepositCost": "103400",
				"executionCost": "153",
				"totalCost": "103553"
			},
			"external": {
				"max()": "315",
				"mim()": "351",
				"typeId()": "infinite"
			}
		},
		"methodIdentifiers": {
			"max()": "6ac5db19",
			"mim()": "9f67679e",
			"typeId()": "8f940f63"
		}
	},
	"abi": [
		{
			"inputs": [],
			"name": "max",
			"outputs": [
				{
					"internalType": "uint256",
					"name": "",
					"type": "uint256"
				}
			],
			"stateMutability": "pure",
			"type": "function"
		},
		{
			"inputs": [],
			"name": "mim",
			"outputs": [
				{
					"internalType": "uint256",
					"name": "",
					"type": "uint256"
				}
			],
			"stateMutability": "pure",
			"type": "function"
		},
		{
			"inputs": [],
			"name": "typeId",
			"outputs": [
				{
					"internalType": "bytes4",
					"name": "a",
					"type": "bytes4"
				},
				{
					"internalType": "bytes4",
					"name": "b",
					"type": "bytes4"
				},
				{
					"internalType": "bytes4",
					"name": "c",
					"type": "bytes4"
				}
			],
			"stateMutability": "pure",
			"type": "function"
		}
	]
}