{
	"random/ConfirmedOwner.sol": {
		"ConfirmedOwner": {
			"abi": [
				{
					"inputs": [
						{
							"internalType": "address",
							"name": "newOwner",
							"type": "address"
						}
					],
					"stateMutability": "nonpayable",
					"type": "constructor"
				},
				{
					"anonymous": false,
					"inputs": [
						{
							"indexed": true,
							"internalType": "address",
							"name": "from",
							"type": "address"
						},
						{
							"indexed": true,
							"internalType": "address",
							"name": "to",
							"type": "address"
						}
					],
					"name": "OwnershipTransferRequested",
					"type": "event"
				},
				{
					"anonymous": false,
					"inputs": [
						{
							"indexed": true,
							"internalType": "address",
							"name": "from",
							"type": "address"
						},
						{
							"indexed": true,
							"internalType": "address",
							"name": "to",
							"type": "address"
						}
					],
					"name": "OwnershipTransferred",
					"type": "event"
				},
				{
					"inputs": [],
					"name": "acceptOwnership",
					"outputs": [],
					"stateMutability": "nonpayable",
					"type": "function"
				},
				{
					"inputs": [],
					"name": "owner",
					"outputs": [
						{
							"internalType": "address",
							"name": "",
							"type": "address"
						}
					],
					"stateMutability": "view",
					"type": "function"
				},
				{
					"inputs": [
						{
							"internalType": "address",
							"name": "to",
							"type": "address"
						}
					],
					"name": "transferOwnership",
					"outputs": [],
					"stateMutability": "nonpayable",
					"type": "function"
				}
			],
			"devdoc": {
				"kind": "dev",
				"methods": {},
				"title": "The ConfirmedOwner contract",
				"version": 1
			},
			"evm": {
				"assembly": "    /* \"random/ConfirmedOwner.sol\":212:353  contract ConfirmedOwner is ConfirmedOwnerWithProposal {... */\n  mstore(0x40, 0x80)\n    /* \"random/ConfirmedOwner.sol\":270:351  constructor(address newOwner) ConfirmedOwnerWithProposal(newOwner, address(0)) {} */\n  callvalue\n  dup1\n  iszero\n  tag_1\n  jumpi\n  0x00\n  dup1\n  revert\ntag_1:\n  pop\n  mload(0x40)\n  sub(codesize, bytecodeSize)\n  dup1\n  bytecodeSize\n  dup4\n  codecopy\n  dup2\n  dup2\n  add\n  0x40\n  mstore\n  dup2\n  add\n  swap1\n  tag_2\n  swap2\n  swap1\n  tag_3\n  jump\t// in\ntag_2:\n    /* \"random/ConfirmedOwner.sol\":327:335  newOwner */\n  dup1\n    /* \"random/ConfirmedOwner.sol\":345:346  0 */\n  0x00\n    /* \"random/ConfirmedOwnerWithProposal.sol\":561:562  0 */\n  dup1\n    /* \"random/ConfirmedOwnerWithProposal.sol\":541:563  newOwner != address(0) */\n  0xffffffffffffffffffffffffffffffffffffffff\n  and\n    /* \"random/ConfirmedOwnerWithProposal.sol\":541:549  newOwner */\n  dup3\n    /* \"random/ConfirmedOwnerWithProposal.sol\":541:563  newOwner != address(0) */\n  0xffffffffffffffffffffffffffffffffffffffff\n  and\n  eq\n  iszero\n    /* \"random/ConfirmedOwnerWithProposal.sol\":533:592  require(newOwner != address(0), \"Cannot set owner to zero\") */\n  tag_7\n  jumpi\n  mload(0x40)\n  0x08c379a000000000000000000000000000000000000000000000000000000000\n  dup2\n  mstore\n  0x04\n  add\n  tag_8\n  swap1\n  tag_9\n  jump\t// in\ntag_8:\n  mload(0x40)\n  dup1\n  swap2\n  sub\n  swap1\n  revert\ntag_7:\n    /* \"random/ConfirmedOwnerWithProposal.sol\":609:617  newOwner */\n  dup2\n    /* \"random/ConfirmedOwnerWithProposal.sol\":599:606  s_owner */\n  0x00\n  dup1\n    /* \"random/ConfirmedOwnerWithProposal.sol\":599:617  s_owner = newOwner */\n  0x0100\n  exp\n  dup2\n  sload\n  dup2\n  0xffffffffffffffffffffffffffffffffffffffff\n  mul\n  not\n  and\n  swap1\n  dup4\n  0xffffffffffffffffffffffffffffffffffffffff\n  and\n  mul\n  or\n  swap1\n  sstore\n  pop\n    /* \"random/ConfirmedOwnerWithProposal.sol\":651:652  0 */\n  0x00\n    /* \"random/ConfirmedOwnerWithProposal.sol\":627:653  pendingOwner != address(0) */\n  0xffffffffffffffffffffffffffffffffffffffff\n  and\n    /* \"random/ConfirmedOwnerWithProposal.sol\":627:639  pendingOwner */\n  dup2\n    /* \"random/ConfirmedOwnerWithProposal.sol\":627:653  pendingOwner != address(0) */\n  0xffffffffffffffffffffffffffffffffffffffff\n  and\n  eq\n    /* \"random/ConfirmedOwnerWithProposal.sol\":623:702  if (pendingOwner != address(0)) {... */\n  tag_10\n  jumpi\n    /* \"random/ConfirmedOwnerWithProposal.sol\":663:695  _transferOwnership(pendingOwner) */\n  tag_11\n    /* \"random/ConfirmedOwnerWithProposal.sol\":682:694  pendingOwner */\n  dup2\n    /* \"random/ConfirmedOwnerWithProposal.sol\":663:681  _transferOwnership */\n  shl(0x20, tag_12)\n    /* \"random/ConfirmedOwnerWithProposal.sol\":663:695  _transferOwnership(pendingOwner) */\n  0x20\n  shr\n  jump\t// in\ntag_11:\n    /* \"random/ConfirmedOwnerWithProposal.sol\":623:702  if (pendingOwner != address(0)) {... */\ntag_10:\n    /* \"random/ConfirmedOwnerWithProposal.sol\":475:706  constructor(address newOwner, address pendingOwner) {... */\n  pop\n  pop\n    /* \"random/ConfirmedOwner.sol\":270:351  constructor(address newOwner) ConfirmedOwnerWithProposal(newOwner, address(0)) {} */\n  pop\n    /* \"random/ConfirmedOwner.sol\":212:353  contract ConfirmedOwner is ConfirmedOwnerWithProposal {... */\n  jump(tag_14)\n    /* \"random/ConfirmedOwnerWithProposal.sol\":1486:1674  function _transferOwnership(address to) private {... */\ntag_12:\n    /* \"random/ConfirmedOwnerWithProposal.sol\":1554:1564  msg.sender */\n  caller\n    /* \"random/ConfirmedOwnerWithProposal.sol\":1548:1564  to != msg.sender */\n  0xffffffffffffffffffffffffffffffffffffffff\n  and\n    /* \"random/ConfirmedOwnerWithProposal.sol\":1548:1550  to */\n  dup2\n    /* \"random/ConfirmedOwnerWithProposal.sol\":1548:1564  to != msg.sender */\n  0xffffffffffffffffffffffffffffffffffffffff\n  and\n  eq\n  iszero\n    /* \"random/ConfirmedOwnerWithProposal.sol\":1540:1592  require(to != msg.sender, \"Cannot transfer to self\") */\n  tag_16\n  jumpi\n  mload(0x40)\n  0x08c379a000000000000000000000000000000000000000000000000000000000\n  dup2\n  mstore\n  0x04\n  add\n  tag_17\n  swap1\n  tag_18\n  jump\t// in\ntag_17:\n  mload(0x40)\n  dup1\n  swap2\n  sub\n  swap1\n  revert\ntag_16:\n    /* \"random/ConfirmedOwnerWithProposal.sol\":1616:1618  to */\n  dup1\n    /* \"random/ConfirmedOwnerWithProposal.sol\":1599:1613  s_pendingOwner */\n  0x01\n  0x00\n    /* \"random/ConfirmedOwnerWithProposal.sol\":1599:1618  s_pendingOwner = to */\n  0x0100\n  exp\n  dup2\n  sload\n  dup2\n  0xffffffffffffffffffffffffffffffffffffffff\n  mul\n  not\n  and\n  swap1\n  dup4\n  0xffffffffffffffffffffffffffffffffffffffff\n  and\n  mul\n  or\n  swap1\n  sstore\n  pop\n    /* \"random/ConfirmedOwnerWithProposal.sol\":1666:1668  to */\n  dup1\n    /* \"random/ConfirmedOwnerWithProposal.sol\":1630:1669  OwnershipTransferRequested(s_owner, to) */\n  0xffffffffffffffffffffffffffffffffffffffff\n  and\n    /* \"random/ConfirmedOwnerWithProposal.sol\":1657:1664  s_owner */\n  0x00\n  dup1\n  sload\n  swap1\n  0x0100\n  exp\n  swap1\n  div\n  0xffffffffffffffffffffffffffffffffffffffff\n  and\n    /* \"random/ConfirmedOwnerWithProposal.sol\":1630:1669  OwnershipTransferRequested(s_owner, to) */\n  0xffffffffffffffffffffffffffffffffffffffff\n  and\n  0xed8889f560326eb138920d842192f0eb3dd22b4f139c87a2c57538e05bae1278\n  mload(0x40)\n  mload(0x40)\n  dup1\n  swap2\n  sub\n  swap1\n  log3\n    /* \"random/ConfirmedOwnerWithProposal.sol\":1486:1674  function _transferOwnership(address to) private {... */\n  pop\n  jump\t// out\n    /* \"#utility.yul\":7:150   */\ntag_20:\n    /* \"#utility.yul\":64:69   */\n  0x00\n    /* \"#utility.yul\":95:101   */\n  dup2\n    /* \"#utility.yul\":89:102   */\n  mload\n    /* \"#utility.yul\":80:102   */\n  swap1\n  pop\n    /* \"#utility.yul\":111:144   */\n  tag_22\n    /* \"#utility.yul\":138:143   */\n  dup2\n    /* \"#utility.yul\":111:144   */\n  tag_23\n  jump\t// in\ntag_22:\n    /* \"#utility.yul\":7:150   */\n  swap3\n  swap2\n  pop\n  pop\n  jump\t// out\n    /* \"#utility.yul\":156:507   */\ntag_3:\n    /* \"#utility.yul\":226:232   */\n  0x00\n    /* \"#utility.yul\":275:277   */\n  0x20\n    /* \"#utility.yul\":263:272   */\n  dup3\n    /* \"#utility.yul\":254:261   */\n  dup5\n    /* \"#utility.yul\":250:273   */\n  sub\n    /* \"#utility.yul\":246:278   */\n  slt\n    /* \"#utility.yul\":243:362   */\n  iszero\n  tag_25\n  jumpi\n    /* \"#utility.yul\":281:360   */\n  tag_26\n  tag_27\n  jump\t// in\ntag_26:\n    /* \"#utility.yul\":243:362   */\ntag_25:\n    /* \"#utility.yul\":401:402   */\n  0x00\n    /* \"#utility.yul\":426:490   */\n  tag_28\n    /* \"#utility.yul\":482:489   */\n  dup5\n    /* \"#utility.yul\":473:479   */\n  dup3\n    /* \"#utility.yul\":462:471   */\n  dup6\n    /* \"#utility.yul\":458:480   */\n  add\n    /* \"#utility.yul\":426:490   */\n  tag_20\n  jump\t// in\ntag_28:\n    /* \"#utility.yul\":416:490   */\n  swap2\n  pop\n    /* \"#utility.yul\":372:500   */\n  pop\n    /* \"#utility.yul\":156:507   */\n  swap3\n  swap2\n  pop\n  pop\n  jump\t// out\n    /* \"#utility.yul\":513:879   */\ntag_29:\n    /* \"#utility.yul\":655:658   */\n  0x00\n    /* \"#utility.yul\":676:743   */\n  tag_31\n    /* \"#utility.yul\":740:742   */\n  0x18\n    /* \"#utility.yul\":735:738   */\n  dup4\n    /* \"#utility.yul\":676:743   */\n  tag_32\n  jump\t// in\ntag_31:\n    /* \"#utility.yul\":669:743   */\n  swap2\n  pop\n    /* \"#utility.yul\":752:845   */\n  tag_33\n    /* \"#utility.yul\":841:844   */\n  dup3\n    /* \"#utility.yul\":752:845   */\n  tag_34\n  jump\t// in\ntag_33:\n    /* \"#utility.yul\":870:872   */\n  0x20\n    /* \"#utility.yul\":865:868   */\n  dup3\n    /* \"#utility.yul\":861:873   */\n  add\n    /* \"#utility.yul\":854:873   */\n  swap1\n  pop\n    /* \"#utility.yul\":513:879   */\n  swap2\n  swap1\n  pop\n  jump\t// out\n    /* \"#utility.yul\":885:1251   */\ntag_35:\n    /* \"#utility.yul\":1027:1030   */\n  0x00\n    /* \"#utility.yul\":1048:1115   */\n  tag_37\n    /* \"#utility.yul\":1112:1114   */\n  0x17\n    /* \"#utility.yul\":1107:1110   */\n  dup4\n    /* \"#utility.yul\":1048:1115   */\n  tag_32\n  jump\t// in\ntag_37:\n    /* \"#utility.yul\":1041:1115   */\n  swap2\n  pop\n    /* \"#utility.yul\":1124:1217   */\n  tag_38\n    /* \"#utility.yul\":1213:1216   */\n  dup3\n    /* \"#utility.yul\":1124:1217   */\n  tag_39\n  jump\t// in\ntag_38:\n    /* \"#utility.yul\":1242:1244   */\n  0x20\n    /* \"#utility.yul\":1237:1240   */\n  dup3\n    /* \"#utility.yul\":1233:1245   */\n  add\n    /* \"#utility.yul\":1226:1245   */\n  swap1\n  pop\n    /* \"#utility.yul\":885:1251   */\n  swap2\n  swap1\n  pop\n  jump\t// out\n    /* \"#utility.yul\":1257:1676   */\ntag_9:\n    /* \"#utility.yul\":1423:1427   */\n  0x00\n    /* \"#utility.yul\":1461:1463   */\n  0x20\n    /* \"#utility.yul\":1450:1459   */\n  dup3\n    /* \"#utility.yul\":1446:1464   */\n  add\n    /* \"#utility.yul\":1438:1464   */\n  swap1\n  pop\n    /* \"#utility.yul\":1510:1519   */\n  dup2\n    /* \"#utility.yul\":1504:1508   */\n  dup2\n    /* \"#utility.yul\":1500:1520   */\n  sub\n    /* \"#utility.yul\":1496:1497   */\n  0x00\n    /* \"#utility.yul\":1485:1494   */\n  dup4\n    /* \"#utility.yul\":1481:1498   */\n  add\n    /* \"#utility.yul\":1474:1521   */\n  mstore\n    /* \"#utility.yul\":1538:1669   */\n  tag_41\n    /* \"#utility.yul\":1664:1668   */\n  dup2\n    /* \"#utility.yul\":1538:1669   */\n  tag_29\n  jump\t// in\ntag_41:\n    /* \"#utility.yul\":1530:1669   */\n  swap1\n  pop\n    /* \"#utility.yul\":1257:1676   */\n  swap2\n  swap1\n  pop\n  jump\t// out\n    /* \"#utility.yul\":1682:2101   */\ntag_18:\n    /* \"#utility.yul\":1848:1852   */\n  0x00\n    /* \"#utility.yul\":1886:1888   */\n  0x20\n    /* \"#utility.yul\":1875:1884   */\n  dup3\n    /* \"#utility.yul\":1871:1889   */\n  add\n    /* \"#utility.yul\":1863:1889   */\n  swap1\n  pop\n    /* \"#utility.yul\":1935:1944   */\n  dup2\n    /* \"#utility.yul\":1929:1933   */\n  dup2\n    /* \"#utility.yul\":1925:1945   */\n  sub\n    /* \"#utility.yul\":1921:1922   */\n  0x00\n    /* \"#utility.yul\":1910:1919   */\n  dup4\n    /* \"#utility.yul\":1906:1923   */\n  add\n    /* \"#utility.yul\":1899:1946   */\n  mstore\n    /* \"#utility.yul\":1963:2094   */\n  tag_43\n    /* \"#utility.yul\":2089:2093   */\n  dup2\n    /* \"#utility.yul\":1963:2094   */\n  tag_35\n  jump\t// in\ntag_43:\n    /* \"#utility.yul\":1955:2094   */\n  swap1\n  pop\n    /* \"#utility.yul\":1682:2101   */\n  swap2\n  swap1\n  pop\n  jump\t// out\n    /* \"#utility.yul\":2188:2357   */\ntag_32:\n    /* \"#utility.yul\":2272:2283   */\n  0x00\n    /* \"#utility.yul\":2306:2312   */\n  dup3\n    /* \"#utility.yul\":2301:2304   */\n  dup3\n    /* \"#utility.yul\":2294:2313   */\n  mstore\n    /* \"#utility.yul\":2346:2350   */\n  0x20\n    /* \"#utility.yul\":2341:2344   */\n  dup3\n    /* \"#utility.yul\":2337:2351   */\n  add\n    /* \"#utility.yul\":2322:2351   */\n  swap1\n  pop\n    /* \"#utility.yul\":2188:2357   */\n  swap3\n  swap2\n  pop\n  pop\n  jump\t// out\n    /* \"#utility.yul\":2363:2459   */\ntag_47:\n    /* \"#utility.yul\":2400:2407   */\n  0x00\n    /* \"#utility.yul\":2429:2453   */\n  tag_49\n    /* \"#utility.yul\":2447:2452   */\n  dup3\n    /* \"#utility.yul\":2429:2453   */\n  tag_50\n  jump\t// in\ntag_49:\n    /* \"#utility.yul\":2418:2453   */\n  swap1\n  pop\n    /* \"#utility.yul\":2363:2459   */\n  swap2\n  swap1\n  pop\n  jump\t// out\n    /* \"#utility.yul\":2465:2591   */\ntag_50:\n    /* \"#utility.yul\":2502:2509   */\n  0x00\n    /* \"#utility.yul\":2542:2584   */\n  0xffffffffffffffffffffffffffffffffffffffff\n    /* \"#utility.yul\":2535:2540   */\n  dup3\n    /* \"#utility.yul\":2531:2585   */\n  and\n    /* \"#utility.yul\":2520:2585   */\n  swap1\n  pop\n    /* \"#utility.yul\":2465:2591   */\n  swap2\n  swap1\n  pop\n  jump\t// out\n    /* \"#utility.yul\":2720:2837   */\ntag_27:\n    /* \"#utility.yul\":2829:2830   */\n  0x00\n    /* \"#utility.yul\":2826:2827   */\n  dup1\n    /* \"#utility.yul\":2819:2831   */\n  revert\n    /* \"#utility.yul\":2843:3017   */\ntag_34:\n    /* \"#utility.yul\":2983:3009   */\n  0x43616e6e6f7420736574206f776e657220746f207a65726f0000000000000000\n    /* \"#utility.yul\":2979:2980   */\n  0x00\n    /* \"#utility.yul\":2971:2977   */\n  dup3\n    /* \"#utility.yul\":2967:2981   */\n  add\n    /* \"#utility.yul\":2960:3010   */\n  mstore\n    /* \"#utility.yul\":2843:3017   */\n  pop\n  jump\t// out\n    /* \"#utility.yul\":3023:3196   */\ntag_39:\n    /* \"#utility.yul\":3163:3188   */\n  0x43616e6e6f74207472616e7366657220746f2073656c66000000000000000000\n    /* \"#utility.yul\":3159:3160   */\n  0x00\n    /* \"#utility.yul\":3151:3157   */\n  dup3\n    /* \"#utility.yul\":3147:3161   */\n  add\n    /* \"#utility.yul\":3140:3189   */\n  mstore\n    /* \"#utility.yul\":3023:3196   */\n  pop\n  jump\t// out\n    /* \"#utility.yul\":3202:3324   */\ntag_23:\n    /* \"#utility.yul\":3275:3299   */\n  tag_58\n    /* \"#utility.yul\":3293:3298   */\n  dup2\n    /* \"#utility.yul\":3275:3299   */\n  tag_47\n  jump\t// in\ntag_58:\n    /* \"#utility.yul\":3268:3273   */\n  dup2\n    /* \"#utility.yul\":3265:3300   */\n  eq\n    /* \"#utility.yul\":3255:3318   */\n  tag_59\n  jumpi\n    /* \"#utility.yul\":3314:3315   */\n  0x00\n    /* \"#utility.yul\":3311:3312   */\n  dup1\n    /* \"#utility.yul\":3304:3316   */\n  revert\n    /* \"#utility.yul\":3255:3318   */\ntag_59:\n    /* \"#utility.yul\":3202:3324   */\n  pop\n  jump\t// out\n    /* \"random/ConfirmedOwner.sol\":212:353  contract ConfirmedOwner is ConfirmedOwnerWithProposal {... */\ntag_14:\n  dataSize(sub_0)\n  dup1\n  dataOffset(sub_0)\n  0x00\n  codecopy\n  0x00\n  return\nstop\n\nsub_0: assembly {\n        /* \"random/ConfirmedOwner.sol\":212:353  contract ConfirmedOwner is ConfirmedOwnerWithProposal {... */\n      mstore(0x40, 0x80)\n      callvalue\n      dup1\n      iszero\n      tag_1\n      jumpi\n      0x00\n      dup1\n      revert\n    tag_1:\n      pop\n      jumpi(tag_2, lt(calldatasize, 0x04))\n      shr(0xe0, calldataload(0x00))\n      dup1\n      0x79ba5097\n      eq\n      tag_3\n      jumpi\n      dup1\n      0x8da5cb5b\n      eq\n      tag_4\n      jumpi\n      dup1\n      0xf2fde38b\n      eq\n      tag_5\n      jumpi\n    tag_2:\n      0x00\n      dup1\n      revert\n        /* \"random/ConfirmedOwnerWithProposal.sol\":1005:1270  function acceptOwnership() external override {... */\n    tag_3:\n      tag_6\n      tag_7\n      jump\t// in\n    tag_6:\n      stop\n        /* \"random/ConfirmedOwnerWithProposal.sol\":1321:1402  function owner() public view override returns (address) {... */\n    tag_4:\n      tag_8\n      tag_9\n      jump\t// in\n    tag_8:\n      mload(0x40)\n      tag_10\n      swap2\n      swap1\n      tag_11\n      jump\t// in\n    tag_10:\n      mload(0x40)\n      dup1\n      swap2\n      sub\n      swap1\n      return\n        /* \"random/ConfirmedOwnerWithProposal.sol\":815:913  function transferOwnership(address to) public override onlyOwner {... */\n    tag_5:\n      tag_12\n      0x04\n      dup1\n      calldatasize\n      sub\n      dup2\n      add\n      swap1\n      tag_13\n      swap2\n      swap1\n      tag_14\n      jump\t// in\n    tag_13:\n      tag_15\n      jump\t// in\n    tag_12:\n      stop\n        /* \"random/ConfirmedOwnerWithProposal.sol\":1005:1270  function acceptOwnership() external override {... */\n    tag_7:\n        /* \"random/ConfirmedOwnerWithProposal.sol\":1078:1092  s_pendingOwner */\n      0x01\n      0x00\n      swap1\n      sload\n      swap1\n      0x0100\n      exp\n      swap1\n      div\n      0xffffffffffffffffffffffffffffffffffffffff\n      and\n        /* \"random/ConfirmedOwnerWithProposal.sol\":1064:1092  msg.sender == s_pendingOwner */\n      0xffffffffffffffffffffffffffffffffffffffff\n      and\n        /* \"random/ConfirmedOwnerWithProposal.sol\":1064:1074  msg.sender */\n      caller\n        /* \"random/ConfirmedOwnerWithProposal.sol\":1064:1092  msg.sender == s_pendingOwner */\n      0xffffffffffffffffffffffffffffffffffffffff\n      and\n      eq\n        /* \"random/ConfirmedOwnerWithProposal.sol\":1056:1119  require(msg.sender == s_pendingOwner, \"Must be proposed owner\") */\n      tag_17\n      jumpi\n      mload(0x40)\n      0x08c379a000000000000000000000000000000000000000000000000000000000\n      dup2\n      mstore\n      0x04\n      add\n      tag_18\n      swap1\n      tag_19\n      jump\t// in\n    tag_18:\n      mload(0x40)\n      dup1\n      swap2\n      sub\n      swap1\n      revert\n    tag_17:\n        /* \"random/ConfirmedOwnerWithProposal.sol\":1126:1142  address oldOwner */\n      0x00\n        /* \"random/ConfirmedOwnerWithProposal.sol\":1145:1152  s_owner */\n      dup1\n      0x00\n      swap1\n      sload\n      swap1\n      0x0100\n      exp\n      swap1\n      div\n      0xffffffffffffffffffffffffffffffffffffffff\n      and\n        /* \"random/ConfirmedOwnerWithProposal.sol\":1126:1152  address oldOwner = s_owner */\n      swap1\n      pop\n        /* \"random/ConfirmedOwnerWithProposal.sol\":1168:1178  msg.sender */\n      caller\n        /* \"random/ConfirmedOwnerWithProposal.sol\":1158:1165  s_owner */\n      0x00\n      dup1\n        /* \"random/ConfirmedOwnerWithProposal.sol\":1158:1178  s_owner = msg.sender */\n      0x0100\n      exp\n      dup2\n      sload\n      dup2\n      0xffffffffffffffffffffffffffffffffffffffff\n      mul\n      not\n      and\n      swap1\n      dup4\n      0xffffffffffffffffffffffffffffffffffffffff\n      and\n      mul\n      or\n      swap1\n      sstore\n      pop\n        /* \"random/ConfirmedOwnerWithProposal.sol\":1209:1210  0 */\n      0x00\n        /* \"random/ConfirmedOwnerWithProposal.sol\":1184:1198  s_pendingOwner */\n      0x01\n      0x00\n        /* \"random/ConfirmedOwnerWithProposal.sol\":1184:1211  s_pendingOwner = address(0) */\n      0x0100\n      exp\n      dup2\n      sload\n      dup2\n      0xffffffffffffffffffffffffffffffffffffffff\n      mul\n      not\n      and\n      swap1\n      dup4\n      0xffffffffffffffffffffffffffffffffffffffff\n      and\n      mul\n      or\n      swap1\n      sstore\n      pop\n        /* \"random/ConfirmedOwnerWithProposal.sol\":1254:1264  msg.sender */\n      caller\n        /* \"random/ConfirmedOwnerWithProposal.sol\":1223:1265  OwnershipTransferred(oldOwner, msg.sender) */\n      0xffffffffffffffffffffffffffffffffffffffff\n      and\n        /* \"random/ConfirmedOwnerWithProposal.sol\":1244:1252  oldOwner */\n      dup2\n        /* \"random/ConfirmedOwnerWithProposal.sol\":1223:1265  OwnershipTransferred(oldOwner, msg.sender) */\n      0xffffffffffffffffffffffffffffffffffffffff\n      and\n      0x8be0079c531659141344cd1fd0a4f28419497f9722a3daafe3b4186f6b6457e0\n      mload(0x40)\n      mload(0x40)\n      dup1\n      swap2\n      sub\n      swap1\n      log3\n        /* \"random/ConfirmedOwnerWithProposal.sol\":1050:1270  {... */\n      pop\n        /* \"random/ConfirmedOwnerWithProposal.sol\":1005:1270  function acceptOwnership() external override {... */\n      jump\t// out\n        /* \"random/ConfirmedOwnerWithProposal.sol\":1321:1402  function owner() public view override returns (address) {... */\n    tag_9:\n        /* \"random/ConfirmedOwnerWithProposal.sol\":1368:1375  address */\n      0x00\n        /* \"random/ConfirmedOwnerWithProposal.sol\":1390:1397  s_owner */\n      dup1\n      0x00\n      swap1\n      sload\n      swap1\n      0x0100\n      exp\n      swap1\n      div\n      0xffffffffffffffffffffffffffffffffffffffff\n      and\n        /* \"random/ConfirmedOwnerWithProposal.sol\":1383:1397  return s_owner */\n      swap1\n      pop\n        /* \"random/ConfirmedOwnerWithProposal.sol\":1321:1402  function owner() public view override returns (address) {... */\n      swap1\n      jump\t// out\n        /* \"random/ConfirmedOwnerWithProposal.sol\":815:913  function transferOwnership(address to) public override onlyOwner {... */\n    tag_15:\n        /* \"random/ConfirmedOwnerWithProposal.sol\":1945:1965  _validateOwnership() */\n      tag_22\n        /* \"random/ConfirmedOwnerWithProposal.sol\":1945:1963  _validateOwnership */\n      tag_23\n        /* \"random/ConfirmedOwnerWithProposal.sol\":1945:1965  _validateOwnership() */\n      jump\t// in\n    tag_22:\n        /* \"random/ConfirmedOwnerWithProposal.sol\":886:908  _transferOwnership(to) */\n      tag_25\n        /* \"random/ConfirmedOwnerWithProposal.sol\":905:907  to */\n      dup2\n        /* \"random/ConfirmedOwnerWithProposal.sol\":886:904  _transferOwnership */\n      tag_26\n        /* \"random/ConfirmedOwnerWithProposal.sol\":886:908  _transferOwnership(to) */\n      jump\t// in\n    tag_25:\n        /* \"random/ConfirmedOwnerWithProposal.sol\":815:913  function transferOwnership(address to) public override onlyOwner {... */\n      pop\n      jump\t// out\n        /* \"random/ConfirmedOwnerWithProposal.sol\":1719:1830  function _validateOwnership() internal view {... */\n    tag_23:\n        /* \"random/ConfirmedOwnerWithProposal.sol\":1791:1798  s_owner */\n      0x00\n      dup1\n      sload\n      swap1\n      0x0100\n      exp\n      swap1\n      div\n      0xffffffffffffffffffffffffffffffffffffffff\n      and\n        /* \"random/ConfirmedOwnerWithProposal.sol\":1777:1798  msg.sender == s_owner */\n      0xffffffffffffffffffffffffffffffffffffffff\n      and\n        /* \"random/ConfirmedOwnerWithProposal.sol\":1777:1787  msg.sender */\n      caller\n        /* \"random/ConfirmedOwnerWithProposal.sol\":1777:1798  msg.sender == s_owner */\n      0xffffffffffffffffffffffffffffffffffffffff\n      and\n      eq\n        /* \"random/ConfirmedOwnerWithProposal.sol\":1769:1825  require(msg.sender == s_owner, \"Only callable by owner\") */\n      tag_28\n      jumpi\n      mload(0x40)\n      0x08c379a000000000000000000000000000000000000000000000000000000000\n      dup2\n      mstore\n      0x04\n      add\n      tag_29\n      swap1\n      tag_30\n      jump\t// in\n    tag_29:\n      mload(0x40)\n      dup1\n      swap2\n      sub\n      swap1\n      revert\n    tag_28:\n        /* \"random/ConfirmedOwnerWithProposal.sol\":1719:1830  function _validateOwnership() internal view {... */\n      jump\t// out\n        /* \"random/ConfirmedOwnerWithProposal.sol\":1486:1674  function _transferOwnership(address to) private {... */\n    tag_26:\n        /* \"random/ConfirmedOwnerWithProposal.sol\":1554:1564  msg.sender */\n      caller\n        /* \"random/ConfirmedOwnerWithProposal.sol\":1548:1564  to != msg.sender */\n      0xffffffffffffffffffffffffffffffffffffffff\n      and\n        /* \"random/ConfirmedOwnerWithProposal.sol\":1548:1550  to */\n      dup2\n        /* \"random/ConfirmedOwnerWithProposal.sol\":1548:1564  to != msg.sender */\n      0xffffffffffffffffffffffffffffffffffffffff\n      and\n      eq\n      iszero\n        /* \"random/ConfirmedOwnerWithProposal.sol\":1540:1592  require(to != msg.sender, \"Cannot transfer to self\") */\n      tag_32\n      jumpi\n      mload(0x40)\n      0x08c379a000000000000000000000000000000000000000000000000000000000\n      dup2\n      mstore\n      0x04\n      add\n      tag_33\n      swap1\n      tag_34\n      jump\t// in\n    tag_33:\n      mload(0x40)\n      dup1\n      swap2\n      sub\n      swap1\n      revert\n    tag_32:\n        /* \"random/ConfirmedOwnerWithProposal.sol\":1616:1618  to */\n      dup1\n        /* \"random/ConfirmedOwnerWithProposal.sol\":1599:1613  s_pendingOwner */\n      0x01\n      0x00\n        /* \"random/ConfirmedOwnerWithProposal.sol\":1599:1618  s_pendingOwner = to */\n      0x0100\n      exp\n      dup2\n      sload\n      dup2\n      0xffffffffffffffffffffffffffffffffffffffff\n      mul\n      not\n      and\n      swap1\n      dup4\n      0xffffffffffffffffffffffffffffffffffffffff\n      and\n      mul\n      or\n      swap1\n      sstore\n      pop\n        /* \"random/ConfirmedOwnerWithProposal.sol\":1666:1668  to */\n      dup1\n        /* \"random/ConfirmedOwnerWithProposal.sol\":1630:1669  OwnershipTransferRequested(s_owner, to) */\n      0xffffffffffffffffffffffffffffffffffffffff\n      and\n        /* \"random/ConfirmedOwnerWithProposal.sol\":1657:1664  s_owner */\n      0x00\n      dup1\n      sload\n      swap1\n      0x0100\n      exp\n      swap1\n      div\n      0xffffffffffffffffffffffffffffffffffffffff\n      and\n        /* \"random/ConfirmedOwnerWithProposal.sol\":1630:1669  OwnershipTransferRequested(s_owner, to) */\n      0xffffffffffffffffffffffffffffffffffffffff\n      and\n      0xed8889f560326eb138920d842192f0eb3dd22b4f139c87a2c57538e05bae1278\n      mload(0x40)\n      mload(0x40)\n      dup1\n      swap2\n      sub\n      swap1\n      log3\n        /* \"random/ConfirmedOwnerWithProposal.sol\":1486:1674  function _transferOwnership(address to) private {... */\n      pop\n      jump\t// out\n        /* \"#utility.yul\":7:146   */\n    tag_36:\n        /* \"#utility.yul\":53:58   */\n      0x00\n        /* \"#utility.yul\":91:97   */\n      dup2\n        /* \"#utility.yul\":78:98   */\n      calldataload\n        /* \"#utility.yul\":69:98   */\n      swap1\n      pop\n        /* \"#utility.yul\":107:140   */\n      tag_38\n        /* \"#utility.yul\":134:139   */\n      dup2\n        /* \"#utility.yul\":107:140   */\n      tag_39\n      jump\t// in\n    tag_38:\n        /* \"#utility.yul\":7:146   */\n      swap3\n      swap2\n      pop\n      pop\n      jump\t// out\n        /* \"#utility.yul\":152:481   */\n    tag_14:\n        /* \"#utility.yul\":211:217   */\n      0x00\n        /* \"#utility.yul\":260:262   */\n      0x20\n        /* \"#utility.yul\":248:257   */\n      dup3\n        /* \"#utility.yul\":239:246   */\n      dup5\n        /* \"#utility.yul\":235:258   */\n      sub\n        /* \"#utility.yul\":231:263   */\n      slt\n        /* \"#utility.yul\":228:347   */\n      iszero\n      tag_41\n      jumpi\n        /* \"#utility.yul\":266:345   */\n      tag_42\n      tag_43\n      jump\t// in\n    tag_42:\n        /* \"#utility.yul\":228:347   */\n    tag_41:\n        /* \"#utility.yul\":386:387   */\n      0x00\n        /* \"#utility.yul\":411:464   */\n      tag_44\n        /* \"#utility.yul\":456:463   */\n      dup5\n        /* \"#utility.yul\":447:453   */\n      dup3\n        /* \"#utility.yul\":436:445   */\n      dup6\n        /* \"#utility.yul\":432:454   */\n      add\n        /* \"#utility.yul\":411:464   */\n      tag_36\n      jump\t// in\n    tag_44:\n        /* \"#utility.yul\":401:464   */\n      swap2\n      pop\n        /* \"#utility.yul\":357:474   */\n      pop\n        /* \"#utility.yul\":152:481   */\n      swap3\n      swap2\n      pop\n      pop\n      jump\t// out\n        /* \"#utility.yul\":487:605   */\n    tag_45:\n        /* \"#utility.yul\":574:598   */\n      tag_47\n        /* \"#utility.yul\":592:597   */\n      dup2\n        /* \"#utility.yul\":574:598   */\n      tag_48\n      jump\t// in\n    tag_47:\n        /* \"#utility.yul\":569:572   */\n      dup3\n        /* \"#utility.yul\":562:599   */\n      mstore\n        /* \"#utility.yul\":487:605   */\n      pop\n      pop\n      jump\t// out\n        /* \"#utility.yul\":611:977   */\n    tag_49:\n        /* \"#utility.yul\":753:756   */\n      0x00\n        /* \"#utility.yul\":774:841   */\n      tag_51\n        /* \"#utility.yul\":838:840   */\n      0x16\n        /* \"#utility.yul\":833:836   */\n      dup4\n        /* \"#utility.yul\":774:841   */\n      tag_52\n      jump\t// in\n    tag_51:\n        /* \"#utility.yul\":767:841   */\n      swap2\n      pop\n        /* \"#utility.yul\":850:943   */\n      tag_53\n        /* \"#utility.yul\":939:942   */\n      dup3\n        /* \"#utility.yul\":850:943   */\n      tag_54\n      jump\t// in\n    tag_53:\n        /* \"#utility.yul\":968:970   */\n      0x20\n        /* \"#utility.yul\":963:966   */\n      dup3\n        /* \"#utility.yul\":959:971   */\n      add\n        /* \"#utility.yul\":952:971   */\n      swap1\n      pop\n        /* \"#utility.yul\":611:977   */\n      swap2\n      swap1\n      pop\n      jump\t// out\n        /* \"#utility.yul\":983:1349   */\n    tag_55:\n        /* \"#utility.yul\":1125:1128   */\n      0x00\n        /* \"#utility.yul\":1146:1213   */\n      tag_57\n        /* \"#utility.yul\":1210:1212   */\n      0x16\n        /* \"#utility.yul\":1205:1208   */\n      dup4\n        /* \"#utility.yul\":1146:1213   */\n      tag_52\n      jump\t// in\n    tag_57:\n        /* \"#utility.yul\":1139:1213   */\n      swap2\n      pop\n        /* \"#utility.yul\":1222:1315   */\n      tag_58\n        /* \"#utility.yul\":1311:1314   */\n      dup3\n        /* \"#utility.yul\":1222:1315   */\n      tag_59\n      jump\t// in\n    tag_58:\n        /* \"#utility.yul\":1340:1342   */\n      0x20\n        /* \"#utility.yul\":1335:1338   */\n      dup3\n        /* \"#utility.yul\":1331:1343   */\n      add\n        /* \"#utility.yul\":1324:1343   */\n      swap1\n      pop\n        /* \"#utility.yul\":983:1349   */\n      swap2\n      swap1\n      pop\n      jump\t// out\n        /* \"#utility.yul\":1355:1721   */\n    tag_60:\n        /* \"#utility.yul\":1497:1500   */\n      0x00\n        /* \"#utility.yul\":1518:1585   */\n      tag_62\n        /* \"#utility.yul\":1582:1584   */\n      0x17\n        /* \"#utility.yul\":1577:1580   */\n      dup4\n        /* \"#utility.yul\":1518:1585   */\n      tag_52\n      jump\t// in\n    tag_62:\n        /* \"#utility.yul\":1511:1585   */\n      swap2\n      pop\n        /* \"#utility.yul\":1594:1687   */\n      tag_63\n        /* \"#utility.yul\":1683:1686   */\n      dup3\n        /* \"#utility.yul\":1594:1687   */\n      tag_64\n      jump\t// in\n    tag_63:\n        /* \"#utility.yul\":1712:1714   */\n      0x20\n        /* \"#utility.yul\":1707:1710   */\n      dup3\n        /* \"#utility.yul\":1703:1715   */\n      add\n        /* \"#utility.yul\":1696:1715   */\n      swap1\n      pop\n        /* \"#utility.yul\":1355:1721   */\n      swap2\n      swap1\n      pop\n      jump\t// out\n        /* \"#utility.yul\":1727:1949   */\n    tag_11:\n        /* \"#utility.yul\":1820:1824   */\n      0x00\n        /* \"#utility.yul\":1858:1860   */\n      0x20\n        /* \"#utility.yul\":1847:1856   */\n      dup3\n        /* \"#utility.yul\":1843:1861   */\n      add\n        /* \"#utility.yul\":1835:1861   */\n      swap1\n      pop\n        /* \"#utility.yul\":1871:1942   */\n      tag_66\n        /* \"#utility.yul\":1939:1940   */\n      0x00\n        /* \"#utility.yul\":1928:1937   */\n      dup4\n        /* \"#utility.yul\":1924:1941   */\n      add\n        /* \"#utility.yul\":1915:1921   */\n      dup5\n        /* \"#utility.yul\":1871:1942   */\n      tag_45\n      jump\t// in\n    tag_66:\n        /* \"#utility.yul\":1727:1949   */\n      swap3\n      swap2\n      pop\n      pop\n      jump\t// out\n        /* \"#utility.yul\":1955:2374   */\n    tag_19:\n        /* \"#utility.yul\":2121:2125   */\n      0x00\n        /* \"#utility.yul\":2159:2161   */\n      0x20\n        /* \"#utility.yul\":2148:2157   */\n      dup3\n        /* \"#utility.yul\":2144:2162   */\n      add\n        /* \"#utility.yul\":2136:2162   */\n      swap1\n      pop\n        /* \"#utility.yul\":2208:2217   */\n      dup2\n        /* \"#utility.yul\":2202:2206   */\n      dup2\n        /* \"#utility.yul\":2198:2218   */\n      sub\n        /* \"#utility.yul\":2194:2195   */\n      0x00\n        /* \"#utility.yul\":2183:2192   */\n      dup4\n        /* \"#utility.yul\":2179:2196   */\n      add\n        /* \"#utility.yul\":2172:2219   */\n      mstore\n        /* \"#utility.yul\":2236:2367   */\n      tag_68\n        /* \"#utility.yul\":2362:2366   */\n      dup2\n        /* \"#utility.yul\":2236:2367   */\n      tag_49\n      jump\t// in\n    tag_68:\n        /* \"#utility.yul\":2228:2367   */\n      swap1\n      pop\n        /* \"#utility.yul\":1955:2374   */\n      swap2\n      swap1\n      pop\n      jump\t// out\n        /* \"#utility.yul\":2380:2799   */\n    tag_30:\n        /* \"#utility.yul\":2546:2550   */\n      0x00\n        /* \"#utility.yul\":2584:2586   */\n      0x20\n        /* \"#utility.yul\":2573:2582   */\n      dup3\n        /* \"#utility.yul\":2569:2587   */\n      add\n        /* \"#utility.yul\":2561:2587   */\n      swap1\n      pop\n        /* \"#utility.yul\":2633:2642   */\n      dup2\n        /* \"#utility.yul\":2627:2631   */\n      dup2\n        /* \"#utility.yul\":2623:2643   */\n      sub\n        /* \"#utility.yul\":2619:2620   */\n      0x00\n        /* \"#utility.yul\":2608:2617   */\n      dup4\n        /* \"#utility.yul\":2604:2621   */\n      add\n        /* \"#utility.yul\":2597:2644   */\n      mstore\n        /* \"#utility.yul\":2661:2792   */\n      tag_70\n        /* \"#utility.yul\":2787:2791   */\n      dup2\n        /* \"#utility.yul\":2661:2792   */\n      tag_55\n      jump\t// in\n    tag_70:\n        /* \"#utility.yul\":2653:2792   */\n      swap1\n      pop\n        /* \"#utility.yul\":2380:2799   */\n      swap2\n      swap1\n      pop\n      jump\t// out\n        /* \"#utility.yul\":2805:3224   */\n    tag_34:\n        /* \"#utility.yul\":2971:2975   */\n      0x00\n        /* \"#utility.yul\":3009:3011   */\n      0x20\n        /* \"#utility.yul\":2998:3007   */\n      dup3\n        /* \"#utility.yul\":2994:3012   */\n      add\n        /* \"#utility.yul\":2986:3012   */\n      swap1\n      pop\n        /* \"#utility.yul\":3058:3067   */\n      dup2\n        /* \"#utility.yul\":3052:3056   */\n      dup2\n        /* \"#utility.yul\":3048:3068   */\n      sub\n        /* \"#utility.yul\":3044:3045   */\n      0x00\n        /* \"#utility.yul\":3033:3042   */\n      dup4\n        /* \"#utility.yul\":3029:3046   */\n      add\n        /* \"#utility.yul\":3022:3069   */\n      mstore\n        /* \"#utility.yul\":3086:3217   */\n      tag_72\n        /* \"#utility.yul\":3212:3216   */\n      dup2\n        /* \"#utility.yul\":3086:3217   */\n      tag_60\n      jump\t// in\n    tag_72:\n        /* \"#utility.yul\":3078:3217   */\n      swap1\n      pop\n        /* \"#utility.yul\":2805:3224   */\n      swap2\n      swap1\n      pop\n      jump\t// out\n        /* \"#utility.yul\":3311:3480   */\n    tag_52:\n        /* \"#utility.yul\":3395:3406   */\n      0x00\n        /* \"#utility.yul\":3429:3435   */\n      dup3\n        /* \"#utility.yul\":3424:3427   */\n      dup3\n        /* \"#utility.yul\":3417:3436   */\n      mstore\n        /* \"#utility.yul\":3469:3473   */\n      0x20\n        /* \"#utility.yul\":3464:3467   */\n      dup3\n        /* \"#utility.yul\":3460:3474   */\n      add\n        /* \"#utility.yul\":3445:3474   */\n      swap1\n      pop\n        /* \"#utility.yul\":3311:3480   */\n      swap3\n      swap2\n      pop\n      pop\n      jump\t// out\n        /* \"#utility.yul\":3486:3582   */\n    tag_48:\n        /* \"#utility.yul\":3523:3530   */\n      0x00\n        /* \"#utility.yul\":3552:3576   */\n      tag_77\n        /* \"#utility.yul\":3570:3575   */\n      dup3\n        /* \"#utility.yul\":3552:3576   */\n      tag_78\n      jump\t// in\n    tag_77:\n        /* \"#utility.yul\":3541:3576   */\n      swap1\n      pop\n        /* \"#utility.yul\":3486:3582   */\n      swap2\n      swap1\n      pop\n      jump\t// out\n        /* \"#utility.yul\":3588:3714   */\n    tag_78:\n        /* \"#utility.yul\":3625:3632   */\n      0x00\n        /* \"#utility.yul\":3665:3707   */\n      0xffffffffffffffffffffffffffffffffffffffff\n        /* \"#utility.yul\":3658:3663   */\n      dup3\n        /* \"#utility.yul\":3654:3708   */\n      and\n        /* \"#utility.yul\":3643:3708   */\n      swap1\n      pop\n        /* \"#utility.yul\":3588:3714   */\n      swap2\n      swap1\n      pop\n      jump\t// out\n        /* \"#utility.yul\":3843:3960   */\n    tag_43:\n        /* \"#utility.yul\":3952:3953   */\n      0x00\n        /* \"#utility.yul\":3949:3950   */\n      dup1\n        /* \"#utility.yul\":3942:3954   */\n      revert\n        /* \"#utility.yul\":3966:4138   */\n    tag_54:\n        /* \"#utility.yul\":4106:4130   */\n      0x4d7573742062652070726f706f736564206f776e657200000000000000000000\n        /* \"#utility.yul\":4102:4103   */\n      0x00\n        /* \"#utility.yul\":4094:4100   */\n      dup3\n        /* \"#utility.yul\":4090:4104   */\n      add\n        /* \"#utility.yul\":4083:4131   */\n      mstore\n        /* \"#utility.yul\":3966:4138   */\n      pop\n      jump\t// out\n        /* \"#utility.yul\":4144:4316   */\n    tag_59:\n        /* \"#utility.yul\":4284:4308   */\n      0x4f6e6c792063616c6c61626c65206279206f776e657200000000000000000000\n        /* \"#utility.yul\":4280:4281   */\n      0x00\n        /* \"#utility.yul\":4272:4278   */\n      dup3\n        /* \"#utility.yul\":4268:4282   */\n      add\n        /* \"#utility.yul\":4261:4309   */\n      mstore\n        /* \"#utility.yul\":4144:4316   */\n      pop\n      jump\t// out\n        /* \"#utility.yul\":4322:4495   */\n    tag_64:\n        /* \"#utility.yul\":4462:4487   */\n      0x43616e6e6f74207472616e7366657220746f2073656c66000000000000000000\n        /* \"#utility.yul\":4458:4459   */\n      0x00\n        /* \"#utility.yul\":4450:4456   */\n      dup3\n        /* \"#utility.yul\":4446:4460   */\n      add\n        /* \"#utility.yul\":4439:4488   */\n      mstore\n        /* \"#utility.yul\":4322:4495   */\n      pop\n      jump\t// out\n        /* \"#utility.yul\":4501:4623   */\n    tag_39:\n        /* \"#utility.yul\":4574:4598   */\n      tag_87\n        /* \"#utility.yul\":4592:4597   */\n      dup2\n        /* \"#utility.yul\":4574:4598   */\n      tag_48\n      jump\t// in\n    tag_87:\n        /* \"#utility.yul\":4567:4572   */\n      dup2\n        /* \"#utility.yul\":4564:4599   */\n      eq\n        /* \"#utility.yul\":4554:4617   */\n      tag_88\n      jumpi\n        /* \"#utility.yul\":4613:4614   */\n      0x00\n        /* \"#utility.yul\":4610:4611   */\n      dup1\n        /* \"#utility.yul\":4603:4615   */\n      revert\n        /* \"#utility.yul\":4554:4617   */\n    tag_88:\n        /* \"#utility.yul\":4501:4623   */\n      pop\n      jump\t// out\n\n    auxdata: 0xa26469706673582212200bbda32c9d8439a9210f78ed42419091c08836a903598802eab7f15cb63dfaf464736f6c63430008070033\n}\n",
				"bytecode": {
					"linkReferences": {},
					"object": "608060405234801561001057600080fd5b50604051610a43380380610a4383398181016040528101906100329190610272565b8060008073ffffffffffffffffffffffffffffffffffffffff168273ffffffffffffffffffffffffffffffffffffffff1614156100a4576040517f08c379a000000000000000000000000000000000000000000000000000000000815260040161009b906102e5565b60405180910390fd5b816000806101000a81548173ffffffffffffffffffffffffffffffffffffffff021916908373ffffffffffffffffffffffffffffffffffffffff160217905550600073ffffffffffffffffffffffffffffffffffffffff168173ffffffffffffffffffffffffffffffffffffffff1614610128576101278161013060201b60201c565b5b5050506103d6565b3373ffffffffffffffffffffffffffffffffffffffff168173ffffffffffffffffffffffffffffffffffffffff16141561019f576040517f08c379a000000000000000000000000000000000000000000000000000000000815260040161019690610305565b60405180910390fd5b80600160006101000a81548173ffffffffffffffffffffffffffffffffffffffff021916908373ffffffffffffffffffffffffffffffffffffffff1602179055508073ffffffffffffffffffffffffffffffffffffffff1660008054906101000a900473ffffffffffffffffffffffffffffffffffffffff1673ffffffffffffffffffffffffffffffffffffffff167fed8889f560326eb138920d842192f0eb3dd22b4f139c87a2c57538e05bae127860405160405180910390a350565b60008151905061026c816103bf565b92915050565b60006020828403121561028857610287610368565b5b60006102968482850161025d565b91505092915050565b60006102ac601883610325565b91506102b78261036d565b602082019050919050565b60006102cf601783610325565b91506102da82610396565b602082019050919050565b600060208201905081810360008301526102fe8161029f565b9050919050565b6000602082019050818103600083015261031e816102c2565b9050919050565b600082825260208201905092915050565b600061034182610348565b9050919050565b600073ffffffffffffffffffffffffffffffffffffffff82169050919050565b600080fd5b7f43616e6e6f7420736574206f776e657220746f207a65726f0000000000000000600082015250565b7f43616e6e6f74207472616e7366657220746f2073656c66000000000000000000600082015250565b6103c881610336565b81146103d357600080fd5b50565b61065e806103e56000396000f3fe608060405234801561001057600080fd5b50600436106100415760003560e01c806379ba5097146100465780638da5cb5b14610050578063f2fde38b1461006e575b600080fd5b61004e61008a565b005b61005861021f565b60405161006591906104d3565b60405180910390f35b6100886004803603810190610083919061042e565b610248565b005b600160009054906101000a900473ffffffffffffffffffffffffffffffffffffffff1673ffffffffffffffffffffffffffffffffffffffff163373ffffffffffffffffffffffffffffffffffffffff161461011a576040517f08c379a0000000000000000000000000000000000000000000000000000000008152600401610111906104ee565b60405180910390fd5b60008060009054906101000a900473ffffffffffffffffffffffffffffffffffffffff169050336000806101000a81548173ffffffffffffffffffffffffffffffffffffffff021916908373ffffffffffffffffffffffffffffffffffffffff1602179055506000600160006101000a81548173ffffffffffffffffffffffffffffffffffffffff021916908373ffffffffffffffffffffffffffffffffffffffff1602179055503373ffffffffffffffffffffffffffffffffffffffff168173ffffffffffffffffffffffffffffffffffffffff167f8be0079c531659141344cd1fd0a4f28419497f9722a3daafe3b4186f6b6457e060405160405180910390a350565b60008060009054906101000a900473ffffffffffffffffffffffffffffffffffffffff16905090565b61025061025c565b610259816102ec565b50565b60008054906101000a900473ffffffffffffffffffffffffffffffffffffffff1673ffffffffffffffffffffffffffffffffffffffff163373ffffffffffffffffffffffffffffffffffffffff16146102ea576040517f08c379a00000000000000000000000000000000000000000000000000000000081526004016102e19061050e565b60405180910390fd5b565b3373ffffffffffffffffffffffffffffffffffffffff168173ffffffffffffffffffffffffffffffffffffffff16141561035b576040517f08c379a00000000000000000000000000000000000000000000000000000000081526004016103529061052e565b60405180910390fd5b80600160006101000a81548173ffffffffffffffffffffffffffffffffffffffff021916908373ffffffffffffffffffffffffffffffffffffffff1602179055508073ffffffffffffffffffffffffffffffffffffffff1660008054906101000a900473ffffffffffffffffffffffffffffffffffffffff1673ffffffffffffffffffffffffffffffffffffffff167fed8889f560326eb138920d842192f0eb3dd22b4f139c87a2c57538e05bae127860405160405180910390a350565b60008135905061042881610611565b92915050565b60006020828403121561044457610443610591565b5b600061045284828501610419565b91505092915050565b6104648161055f565b82525050565b600061047760168361054e565b915061048282610596565b602082019050919050565b600061049a60168361054e565b91506104a5826105bf565b602082019050919050565b60006104bd60178361054e565b91506104c8826105e8565b602082019050919050565b60006020820190506104e8600083018461045b565b92915050565b600060208201905081810360008301526105078161046a565b9050919050565b600060208201905081810360008301526105278161048d565b9050919050565b60006020820190508181036000830152610547816104b0565b9050919050565b600082825260208201905092915050565b600061056a82610571565b9050919050565b600073ffffffffffffffffffffffffffffffffffffffff82169050919050565b600080fd5b7f4d7573742062652070726f706f736564206f776e657200000000000000000000600082015250565b7f4f6e6c792063616c6c61626c65206279206f776e657200000000000000000000600082015250565b7f43616e6e6f74207472616e7366657220746f2073656c66000000000000000000600082015250565b61061a8161055f565b811461062557600080fd5b5056fea26469706673582212200bbda32c9d8439a9210f78ed42419091c08836a903598802eab7f15cb63dfaf464736f6c63430008070033",
					"opcodes": "PUSH1 0x80 PUSH1 0x40 MSTORE CALLVALUE DUP1 ISZERO PUSH2 0x10 JUMPI PUSH1 0x0 DUP1 REVERT JUMPDEST POP PUSH1 0x40 MLOAD PUSH2 0xA43 CODESIZE SUB DUP1 PUSH2 0xA43 DUP4 CODECOPY DUP2 DUP2 ADD PUSH1 0x40 MSTORE DUP2 ADD SWAP1 PUSH2 0x32 SWAP2 SWAP1 PUSH2 0x272 JUMP JUMPDEST DUP1 PUSH1 0x0 DUP1 PUSH20 0xFFFFFFFFFFFFFFFFFFFFFFFFFFFFFFFFFFFFFFFF AND DUP3 PUSH20 0xFFFFFFFFFFFFFFFFFFFFFFFFFFFFFFFFFFFFFFFF AND EQ ISZERO PUSH2 0xA4 JUMPI PUSH1 0x40 MLOAD PUSH32 0x8C379A000000000000000000000000000000000000000000000000000000000 DUP2 MSTORE PUSH1 0x4 ADD PUSH2 0x9B SWAP1 PUSH2 0x2E5 JUMP JUMPDEST PUSH1 0x40 MLOAD DUP1 SWAP2 SUB SWAP1 REVERT JUMPDEST DUP2 PUSH1 0x0 DUP1 PUSH2 0x100 EXP DUP2 SLOAD DUP2 PUSH20 0xFFFFFFFFFFFFFFFFFFFFFFFFFFFFFFFFFFFFFFFF MUL NOT AND SWAP1 DUP4 PUSH20 0xFFFFFFFFFFFFFFFFFFFFFFFFFFFFFFFFFFFFFFFF AND MUL OR SWAP1 SSTORE POP PUSH1 0x0 PUSH20 0xFFFFFFFFFFFFFFFFFFFFFFFFFFFFFFFFFFFFFFFF AND DUP2 PUSH20 0xFFFFFFFFFFFFFFFFFFFFFFFFFFFFFFFFFFFFFFFF AND EQ PUSH2 0x128 JUMPI PUSH2 0x127 DUP2 PUSH2 0x130 PUSH1 0x20 SHL PUSH1 0x20 SHR JUMP JUMPDEST JUMPDEST POP POP POP PUSH2 0x3D6 JUMP JUMPDEST CALLER PUSH20 0xFFFFFFFFFFFFFFFFFFFFFFFFFFFFFFFFFFFFFFFF AND DUP2 PUSH20 0xFFFFFFFFFFFFFFFFFFFFFFFFFFFFFFFFFFFFFFFF AND EQ ISZERO PUSH2 0x19F JUMPI PUSH1 0x40 MLOAD PUSH32 0x8C379A000000000000000000000000000000000000000000000000000000000 DUP2 MSTORE PUSH1 0x4 ADD PUSH2 0x196 SWAP1 PUSH2 0x305 JUMP JUMPDEST PUSH1 0x40 MLOAD DUP1 SWAP2 SUB SWAP1 REVERT JUMPDEST DUP1 PUSH1 0x1 PUSH1 0x0 PUSH2 0x100 EXP DUP2 SLOAD DUP2 PUSH20 0xFFFFFFFFFFFFFFFFFFFFFFFFFFFFFFFFFFFFFFFF MUL NOT AND SWAP1 DUP4 PUSH20 0xFFFFFFFFFFFFFFFFFFFFFFFFFFFFFFFFFFFFFFFF AND MUL OR SWAP1 SSTORE POP DUP1 PUSH20 0xFFFFFFFFFFFFFFFFFFFFFFFFFFFFFFFFFFFFFFFF AND PUSH1 0x0 DUP1 SLOAD SWAP1 PUSH2 0x100 EXP SWAP1 DIV PUSH20 0xFFFFFFFFFFFFFFFFFFFFFFFFFFFFFFFFFFFFFFFF AND PUSH20 0xFFFFFFFFFFFFFFFFFFFFFFFFFFFFFFFFFFFFFFFF AND PUSH32 0xED8889F560326EB138920D842192F0EB3DD22B4F139C87A2C57538E05BAE1278 PUSH1 0x40 MLOAD PUSH1 0x40 MLOAD DUP1 SWAP2 SUB SWAP1 LOG3 POP JUMP JUMPDEST PUSH1 0x0 DUP2 MLOAD SWAP1 POP PUSH2 0x26C DUP2 PUSH2 0x3BF JUMP JUMPDEST SWAP3 SWAP2 POP POP JUMP JUMPDEST PUSH1 0x0 PUSH1 0x20 DUP3 DUP5 SUB SLT ISZERO PUSH2 0x288 JUMPI PUSH2 0x287 PUSH2 0x368 JUMP JUMPDEST JUMPDEST PUSH1 0x0 PUSH2 0x296 DUP5 DUP3 DUP6 ADD PUSH2 0x25D JUMP JUMPDEST SWAP2 POP POP SWAP3 SWAP2 POP POP JUMP JUMPDEST PUSH1 0x0 PUSH2 0x2AC PUSH1 0x18 DUP4 PUSH2 0x325 JUMP JUMPDEST SWAP2 POP PUSH2 0x2B7 DUP3 PUSH2 0x36D JUMP JUMPDEST PUSH1 0x20 DUP3 ADD SWAP1 POP SWAP2 SWAP1 POP JUMP JUMPDEST PUSH1 0x0 PUSH2 0x2CF PUSH1 0x17 DUP4 PUSH2 0x325 JUMP JUMPDEST SWAP2 POP PUSH2 0x2DA DUP3 PUSH2 0x396 JUMP JUMPDEST PUSH1 0x20 DUP3 ADD SWAP1 POP SWAP2 SWAP1 POP JUMP JUMPDEST PUSH1 0x0 PUSH1 0x20 DUP3 ADD SWAP1 POP DUP2 DUP2 SUB PUSH1 0x0 DUP4 ADD MSTORE PUSH2 0x2FE DUP2 PUSH2 0x29F JUMP JUMPDEST SWAP1 POP SWAP2 SWAP1 POP JUMP JUMPDEST PUSH1 0x0 PUSH1 0x20 DUP3 ADD SWAP1 POP DUP2 DUP2 SUB PUSH1 0x0 DUP4 ADD MSTORE PUSH2 0x31E DUP2 PUSH2 0x2C2 JUMP JUMPDEST SWAP1 POP SWAP2 SWAP1 POP JUMP JUMPDEST PUSH1 0x0 DUP3 DUP3 MSTORE PUSH1 0x20 DUP3 ADD SWAP1 POP SWAP3 SWAP2 POP POP JUMP JUMPDEST PUSH1 0x0 PUSH2 0x341 DUP3 PUSH2 0x348 JUMP JUMPDEST SWAP1 POP SWAP2 SWAP1 POP JUMP JUMPDEST PUSH1 0x0 PUSH20 0xFFFFFFFFFFFFFFFFFFFFFFFFFFFFFFFFFFFFFFFF DUP3 AND SWAP1 POP SWAP2 SWAP1 POP JUMP JUMPDEST PUSH1 0x0 DUP1 REVERT JUMPDEST PUSH32 0x43616E6E6F7420736574206F776E657220746F207A65726F0000000000000000 PUSH1 0x0 DUP3 ADD MSTORE POP JUMP JUMPDEST PUSH32 0x43616E6E6F74207472616E7366657220746F2073656C66000000000000000000 PUSH1 0x0 DUP3 ADD MSTORE POP JUMP JUMPDEST PUSH2 0x3C8 DUP2 PUSH2 0x336 JUMP JUMPDEST DUP2 EQ PUSH2 0x3D3 JUMPI PUSH1 0x0 DUP1 REVERT JUMPDEST POP JUMP JUMPDEST PUSH2 0x65E DUP1 PUSH2 0x3E5 PUSH1 0x0 CODECOPY PUSH1 0x0 RETURN INVALID PUSH1 0x80 PUSH1 0x40 MSTORE CALLVALUE DUP1 ISZERO PUSH2 0x10 JUMPI PUSH1 0x0 DUP1 REVERT JUMPDEST POP PUSH1 0x4 CALLDATASIZE LT PUSH2 0x41 JUMPI PUSH1 0x0 CALLDATALOAD PUSH1 0xE0 SHR DUP1 PUSH4 0x79BA5097 EQ PUSH2 0x46 JUMPI DUP1 PUSH4 0x8DA5CB5B EQ PUSH2 0x50 JUMPI DUP1 PUSH4 0xF2FDE38B EQ PUSH2 0x6E JUMPI JUMPDEST PUSH1 0x0 DUP1 REVERT JUMPDEST PUSH2 0x4E PUSH2 0x8A JUMP JUMPDEST STOP JUMPDEST PUSH2 0x58 PUSH2 0x21F JUMP JUMPDEST PUSH1 0x40 MLOAD PUSH2 0x65 SWAP2 SWAP1 PUSH2 0x4D3 JUMP JUMPDEST PUSH1 0x40 MLOAD DUP1 SWAP2 SUB SWAP1 RETURN JUMPDEST PUSH2 0x88 PUSH1 0x4 DUP1 CALLDATASIZE SUB DUP2 ADD SWAP1 PUSH2 0x83 SWAP2 SWAP1 PUSH2 0x42E JUMP JUMPDEST PUSH2 0x248 JUMP JUMPDEST STOP JUMPDEST PUSH1 0x1 PUSH1 0x0 SWAP1 SLOAD SWAP1 PUSH2 0x100 EXP SWAP1 DIV PUSH20 0xFFFFFFFFFFFFFFFFFFFFFFFFFFFFFFFFFFFFFFFF AND PUSH20 0xFFFFFFFFFFFFFFFFFFFFFFFFFFFFFFFFFFFFFFFF AND CALLER PUSH20 0xFFFFFFFFFFFFFFFFFFFFFFFFFFFFFFFFFFFFFFFF AND EQ PUSH2 0x11A JUMPI PUSH1 0x40 MLOAD PUSH32 0x8C379A000000000000000000000000000000000000000000000000000000000 DUP2 MSTORE PUSH1 0x4 ADD PUSH2 0x111 SWAP1 PUSH2 0x4EE JUMP JUMPDEST PUSH1 0x40 MLOAD DUP1 SWAP2 SUB SWAP1 REVERT JUMPDEST PUSH1 0x0 DUP1 PUSH1 0x0 SWAP1 SLOAD SWAP1 PUSH2 0x100 EXP SWAP1 DIV PUSH20 0xFFFFFFFFFFFFFFFFFFFFFFFFFFFFFFFFFFFFFFFF AND SWAP1 POP CALLER PUSH1 0x0 DUP1 PUSH2 0x100 EXP DUP2 SLOAD DUP2 PUSH20 0xFFFFFFFFFFFFFFFFFFFFFFFFFFFFFFFFFFFFFFFF MUL NOT AND SWAP1 DUP4 PUSH20 0xFFFFFFFFFFFFFFFFFFFFFFFFFFFFFFFFFFFFFFFF AND MUL OR SWAP1 SSTORE POP PUSH1 0x0 PUSH1 0x1 PUSH1 0x0 PUSH2 0x100 EXP DUP2 SLOAD DUP2 PUSH20 0xFFFFFFFFFFFFFFFFFFFFFFFFFFFFFFFFFFFFFFFF MUL NOT AND SWAP1 DUP4 PUSH20 0xFFFFFFFFFFFFFFFFFFFFFFFFFFFFFFFFFFFFFFFF AND MUL OR SWAP1 SSTORE POP CALLER PUSH20 0xFFFFFFFFFFFFFFFFFFFFFFFFFFFFFFFFFFFFFFFF AND DUP2 PUSH20 0xFFFFFFFFFFFFFFFFFFFFFFFFFFFFFFFFFFFFFFFF AND PUSH32 0x8BE0079C531659141344CD1FD0A4F28419497F9722A3DAAFE3B4186F6B6457E0 PUSH1 0x40 MLOAD PUSH1 0x40 MLOAD DUP1 SWAP2 SUB SWAP1 LOG3 POP JUMP JUMPDEST PUSH1 0x0 DUP1 PUSH1 0x0 SWAP1 SLOAD SWAP1 PUSH2 0x100 EXP SWAP1 DIV PUSH20 0xFFFFFFFFFFFFFFFFFFFFFFFFFFFFFFFFFFFFFFFF AND SWAP1 POP SWAP1 JUMP JUMPDEST PUSH2 0x250 PUSH2 0x25C JUMP JUMPDEST PUSH2 0x259 DUP2 PUSH2 0x2EC JUMP JUMPDEST POP JUMP JUMPDEST PUSH1 0x0 DUP1 SLOAD SWAP1 PUSH2 0x100 EXP SWAP1 DIV PUSH20 0xFFFFFFFFFFFFFFFFFFFFFFFFFFFFFFFFFFFFFFFF AND PUSH20 0xFFFFFFFFFFFFFFFFFFFFFFFFFFFFFFFFFFFFFFFF AND CALLER PUSH20 0xFFFFFFFFFFFFFFFFFFFFFFFFFFFFFFFFFFFFFFFF AND EQ PUSH2 0x2EA JUMPI PUSH1 0x40 MLOAD PUSH32 0x8C379A000000000000000000000000000000000000000000000000000000000 DUP2 MSTORE PUSH1 0x4 ADD PUSH2 0x2E1 SWAP1 PUSH2 0x50E JUMP JUMPDEST PUSH1 0x40 MLOAD DUP1 SWAP2 SUB SWAP1 REVERT JUMPDEST JUMP JUMPDEST CALLER PUSH20 0xFFFFFFFFFFFFFFFFFFFFFFFFFFFFFFFFFFFFFFFF AND DUP2 PUSH20 0xFFFFFFFFFFFFFFFFFFFFFFFFFFFFFFFFFFFFFFFF AND EQ ISZERO PUSH2 0x35B JUMPI PUSH1 0x40 MLOAD PUSH32 0x8C379A000000000000000000000000000000000000000000000000000000000 DUP2 MSTORE PUSH1 0x4 ADD PUSH2 0x352 SWAP1 PUSH2 0x52E JUMP JUMPDEST PUSH1 0x40 MLOAD DUP1 SWAP2 SUB SWAP1 REVERT JUMPDEST DUP1 PUSH1 0x1 PUSH1 0x0 PUSH2 0x100 EXP DUP2 SLOAD DUP2 PUSH20 0xFFFFFFFFFFFFFFFFFFFFFFFFFFFFFFFFFFFFFFFF MUL NOT AND SWAP1 DUP4 PUSH20 0xFFFFFFFFFFFFFFFFFFFFFFFFFFFFFFFFFFFFFFFF AND MUL OR SWAP1 SSTORE POP DUP1 PUSH20 0xFFFFFFFFFFFFFFFFFFFFFFFFFFFFFFFFFFFFFFFF AND PUSH1 0x0 DUP1 SLOAD SWAP1 PUSH2 0x100 EXP SWAP1 DIV PUSH20 0xFFFFFFFFFFFFFFFFFFFFFFFFFFFFFFFFFFFFFFFF AND PUSH20 0xFFFFFFFFFFFFFFFFFFFFFFFFFFFFFFFFFFFFFFFF AND PUSH32 0xED8889F560326EB138920D842192F0EB3DD22B4F139C87A2C57538E05BAE1278 PUSH1 0x40 MLOAD PUSH1 0x40 MLOAD DUP1 SWAP2 SUB SWAP1 LOG3 POP JUMP JUMPDEST PUSH1 0x0 DUP2 CALLDATALOAD SWAP1 POP PUSH2 0x428 DUP2 PUSH2 0x611 JUMP JUMPDEST SWAP3 SWAP2 POP POP JUMP JUMPDEST PUSH1 0x0 PUSH1 0x20 DUP3 DUP5 SUB SLT ISZERO PUSH2 0x444 JUMPI PUSH2 0x443 PUSH2 0x591 JUMP JUMPDEST JUMPDEST PUSH1 0x0 PUSH2 0x452 DUP5 DUP3 DUP6 ADD PUSH2 0x419 JUMP JUMPDEST SWAP2 POP POP SWAP3 SWAP2 POP POP JUMP JUMPDEST PUSH2 0x464 DUP2 PUSH2 0x55F JUMP JUMPDEST DUP3 MSTORE POP POP JUMP JUMPDEST PUSH1 0x0 PUSH2 0x477 PUSH1 0x16 DUP4 PUSH2 0x54E JUMP JUMPDEST SWAP2 POP PUSH2 0x482 DUP3 PUSH2 0x596 JUMP JUMPDEST PUSH1 0x20 DUP3 ADD SWAP1 POP SWAP2 SWAP1 POP JUMP JUMPDEST PUSH1 0x0 PUSH2 0x49A PUSH1 0x16 DUP4 PUSH2 0x54E JUMP JUMPDEST SWAP2 POP PUSH2 0x4A5 DUP3 PUSH2 0x5BF JUMP JUMPDEST PUSH1 0x20 DUP3 ADD SWAP1 POP SWAP2 SWAP1 POP JUMP JUMPDEST PUSH1 0x0 PUSH2 0x4BD PUSH1 0x17 DUP4 PUSH2 0x54E JUMP JUMPDEST SWAP2 POP PUSH2 0x4C8 DUP3 PUSH2 0x5E8 JUMP JUMPDEST PUSH1 0x20 DUP3 ADD SWAP1 POP SWAP2 SWAP1 POP JUMP JUMPDEST PUSH1 0x0 PUSH1 0x20 DUP3 ADD SWAP1 POP PUSH2 0x4E8 PUSH1 0x0 DUP4 ADD DUP5 PUSH2 0x45B JUMP JUMPDEST SWAP3 SWAP2 POP POP JUMP JUMPDEST PUSH1 0x0 PUSH1 0x20 DUP3 ADD SWAP1 POP DUP2 DUP2 SUB PUSH1 0x0 DUP4 ADD MSTORE PUSH2 0x507 DUP2 PUSH2 0x46A JUMP JUMPDEST SWAP1 POP SWAP2 SWAP1 POP JUMP JUMPDEST PUSH1 0x0 PUSH1 0x20 DUP3 ADD SWAP1 POP DUP2 DUP2 SUB PUSH1 0x0 DUP4 ADD MSTORE PUSH2 0x527 DUP2 PUSH2 0x48D JUMP JUMPDEST SWAP1 POP SWAP2 SWAP1 POP JUMP JUMPDEST PUSH1 0x0 PUSH1 0x20 DUP3 ADD SWAP1 POP DUP2 DUP2 SUB PUSH1 0x0 DUP4 ADD MSTORE PUSH2 0x547 DUP2 PUSH2 0x4B0 JUMP JUMPDEST SWAP1 POP SWAP2 SWAP1 POP JUMP JUMPDEST PUSH1 0x0 DUP3 DUP3 MSTORE PUSH1 0x20 DUP3 ADD SWAP1 POP SWAP3 SWAP2 POP POP JUMP JUMPDEST PUSH1 0x0 PUSH2 0x56A DUP3 PUSH2 0x571 JUMP JUMPDEST SWAP1 POP SWAP2 SWAP1 POP JUMP JUMPDEST PUSH1 0x0 PUSH20 0xFFFFFFFFFFFFFFFFFFFFFFFFFFFFFFFFFFFFFFFF DUP3 AND SWAP1 POP SWAP2 SWAP1 POP JUMP JUMPDEST PUSH1 0x0 DUP1 REVERT JUMPDEST PUSH32 0x4D7573742062652070726F706F736564206F776E657200000000000000000000 PUSH1 0x0 DUP3 ADD MSTORE POP JUMP JUMPDEST PUSH32 0x4F6E6C792063616C6C61626C65206279206F776E657200000000000000000000 PUSH1 0x0 DUP3 ADD MSTORE POP JUMP JUMPDEST PUSH32 0x43616E6E6F74207472616E7366657220746F2073656C66000000000000000000 PUSH1 0x0 DUP3 ADD MSTORE POP JUMP JUMPDEST PUSH2 0x61A DUP2 PUSH2 0x55F JUMP JUMPDEST DUP2 EQ PUSH2 0x625 JUMPI PUSH1 0x0 DUP1 REVERT JUMPDEST POP JUMP INVALID LOG2 PUSH5 0x6970667358 0x22 SLT KECCAK256 SIGNEXTEND 0xBD LOG3 0x2C SWAP14 DUP5 CODECOPY 0xA9 0x21 0xF PUSH25 0xED42419091C08836A903598802EAB7F15CB63DFAF464736F6C PUSH4 0x43000807 STOP CALLER "
				},
				"gasEstimates": {
					"creation": {
						"codeDepositCost": "326000",
						"executionCost": "infinite",
						"totalCost": "infinite"
					},
					"external": {
						"acceptOwnership()": "54518",
						"owner()": "2522",
						"transferOwnership(address)": "30679"
					}
				},
				"methodIdentifiers": {
					"acceptOwnership()": "79ba5097",
					"owner()": "8da5cb5b",
					"transferOwnership(address)": "f2fde38b"
				}
			},
			"storageLayout": {
				"storage": [
					{
						"astId": 27,
						"contract": "random/ConfirmedOwner.sol:ConfirmedOwner",
						"label": "s_owner",
						"offset": 0,
						"slot": "0",
						"type": "t_address"
					},
					{
						"astId": 29,
						"contract": "random/ConfirmedOwner.sol:ConfirmedOwner",
						"label": "s_pendingOwner",
						"offset": 0,
						"slot": "1",
						"type": "t_address"
					}
				],
				"types": {
					"t_address": {
						"encoding": "inplace",
						"label": "address",
						"numberOfBytes": "20"
					}
				}
			},
			"userdoc": {
				"kind": "user",
				"methods": {
					"acceptOwnership()": {
						"notice": "Allows an ownership transfer to be completed by the recipient."
					},
					"owner()": {
						"notice": "Get the current owner"
					},
					"transferOwnership(address)": {
						"notice": "Allows an owner to begin transferring ownership to a new address, pending."
					}
				},
				"notice": "A contract with helpers for basic contract ownership.",
				"version": 1
			}
		}
	}
}