{
	"random/RandomNumber.sol": {
		"RandomNumber": {
			"abi": [
				{
					"inputs": [
						{
							"internalType": "uint256",
							"name": "",
							"type": "uint256"
						}
					],
					"name": "ids",
					"outputs": [
						{
							"internalType": "uint256",
							"name": "",
							"type": "uint256"
						}
					],
					"stateMutability": "view",
					"type": "function"
				},
				{
					"inputs": [],
					"name": "mintCount",
					"outputs": [
						{
							"internalType": "uint256",
							"name": "",
							"type": "uint256"
						}
					],
					"stateMutability": "view",
					"type": "function"
				},
				{
					"inputs": [
						{
							"internalType": "uint256",
							"name": "random",
							"type": "uint256"
						}
					],
					"name": "pickRandomUniqueId",
					"outputs": [
						{
							"internalType": "uint256",
							"name": "tokenId",
							"type": "uint256"
						}
					],
					"stateMutability": "nonpayable",
					"type": "function"
				},
				{
					"inputs": [],
					"name": "totalSupply",
					"outputs": [
						{
							"internalType": "uint256",
							"name": "",
							"type": "uint256"
						}
					],
					"stateMutability": "view",
					"type": "function"
				}
			],
			"devdoc": {
				"kind": "dev",
				"methods": {},
				"version": 1
			},
			"evm": {
				"assembly": "    /* \"random/RandomNumber.sol\":75:1007  contract RandomNumber {... */\n  mstore(0x40, 0x80)\n    /* \"random/RandomNumber.sol\":133:136  100 */\n  0x64\n    /* \"random/RandomNumber.sol\":104:136  uint256 public totalSupply = 100 */\n  0x00\n  sstore\n    /* \"random/RandomNumber.sol\":75:1007  contract RandomNumber {... */\n  callvalue\n  dup1\n  iszero\n  tag_1\n  jumpi\n  0x00\n  dup1\n  revert\ntag_1:\n  pop\n  dataSize(sub_0)\n  dup1\n  dataOffset(sub_0)\n  0x00\n  codecopy\n  0x00\n  return\nstop\n\nsub_0: assembly {\n        /* \"random/RandomNumber.sol\":75:1007  contract RandomNumber {... */\n      mstore(0x40, 0x80)\n      callvalue\n      dup1\n      iszero\n      tag_1\n      jumpi\n      0x00\n      dup1\n      revert\n    tag_1:\n      pop\n      jumpi(tag_2, lt(calldatasize, 0x04))\n      shr(0xe0, calldataload(0x00))\n      dup1\n      0x18160ddd\n      eq\n      tag_3\n      jumpi\n      dup1\n      0x64334e4c\n      eq\n      tag_4\n      jumpi\n      dup1\n      0x9659867e\n      eq\n      tag_5\n      jumpi\n      dup1\n      0xfac333ac\n      eq\n      tag_6\n      jumpi\n    tag_2:\n      0x00\n      dup1\n      revert\n        /* \"random/RandomNumber.sol\":104:136  uint256 public totalSupply = 100 */\n    tag_3:\n      tag_7\n      tag_8\n      jump\t// in\n    tag_7:\n      mload(0x40)\n      tag_9\n      swap2\n      swap1\n      tag_10\n      jump\t// in\n    tag_9:\n      mload(0x40)\n      dup1\n      swap2\n      sub\n      swap1\n      return\n        /* \"random/RandomNumber.sol\":270:1005  function pickRandomUniqueId(uint256 random) public returns (uint256 tokenId) {... */\n    tag_4:\n      tag_11\n      0x04\n      dup1\n      calldatasize\n      sub\n      dup2\n      add\n      swap1\n      tag_12\n      swap2\n      swap1\n      tag_13\n      jump\t// in\n    tag_12:\n      tag_14\n      jump\t// in\n    tag_11:\n      mload(0x40)\n      tag_15\n      swap2\n      swap1\n      tag_10\n      jump\t// in\n    tag_15:\n      mload(0x40)\n      dup1\n      swap2\n      sub\n      swap1\n      return\n        /* \"random/RandomNumber.sol\":222:246  uint256 public mintCount */\n    tag_5:\n      tag_16\n      tag_17\n      jump\t// in\n    tag_16:\n      mload(0x40)\n      tag_18\n      swap2\n      swap1\n      tag_10\n      jump\t// in\n    tag_18:\n      mload(0x40)\n      dup1\n      swap2\n      sub\n      swap1\n      return\n        /* \"random/RandomNumber.sol\":156:179  uint256[100] public ids */\n    tag_6:\n      tag_19\n      0x04\n      dup1\n      calldatasize\n      sub\n      dup2\n      add\n      swap1\n      tag_20\n      swap2\n      swap1\n      tag_13\n      jump\t// in\n    tag_20:\n      tag_21\n      jump\t// in\n    tag_19:\n      mload(0x40)\n      tag_22\n      swap2\n      swap1\n      tag_10\n      jump\t// in\n    tag_22:\n      mload(0x40)\n      dup1\n      swap2\n      sub\n      swap1\n      return\n        /* \"random/RandomNumber.sol\":104:136  uint256 public totalSupply = 100 */\n    tag_8:\n      sload(0x00)\n      dup2\n      jump\t// out\n        /* \"random/RandomNumber.sol\":270:1005  function pickRandomUniqueId(uint256 random) public returns (uint256 tokenId) {... */\n    tag_14:\n        /* \"random/RandomNumber.sol\":330:345  uint256 tokenId */\n      0x00\n        /* \"random/RandomNumber.sol\":357:368  uint256 len */\n      dup1\n        /* \"random/RandomNumber.sol\":385:394  mintCount */\n      sload(0x65)\n        /* \"random/RandomNumber.sol\":371:382  totalSupply */\n      sload(0x00)\n        /* \"random/RandomNumber.sol\":371:394  totalSupply - mintCount */\n      tag_24\n      swap2\n      swap1\n      tag_25\n      jump\t// in\n    tag_24:\n        /* \"random/RandomNumber.sol\":357:394  uint256 len = totalSupply - mintCount */\n      swap1\n      pop\n        /* \"random/RandomNumber.sol\":435:436  0 */\n      0x00\n        /* \"random/RandomNumber.sol\":429:432  len */\n      dup2\n        /* \"random/RandomNumber.sol\":429:436  len > 0 */\n      gt\n        /* \"random/RandomNumber.sol\":421:451  require(len > 0, \"mint close\") */\n      tag_26\n      jumpi\n      mload(0x40)\n      0x08c379a000000000000000000000000000000000000000000000000000000000\n      dup2\n      mstore\n      0x04\n      add\n      tag_27\n      swap1\n      tag_28\n      jump\t// in\n    tag_27:\n      mload(0x40)\n      dup1\n      swap2\n      sub\n      swap1\n      revert\n    tag_26:\n        /* \"random/RandomNumber.sol\":491:510  uint256 randomIndex */\n      0x00\n        /* \"random/RandomNumber.sol\":522:525  len */\n      dup2\n        /* \"random/RandomNumber.sol\":513:519  random */\n      dup5\n        /* \"random/RandomNumber.sol\":513:525  random % len */\n      tag_29\n      swap2\n      swap1\n      tag_30\n      jump\t// in\n    tag_29:\n        /* \"random/RandomNumber.sol\":491:525  uint256 randomIndex = random % len */\n      swap1\n      pop\n        /* \"random/RandomNumber.sol\":765:766  0 */\n      0x00\n        /* \"random/RandomNumber.sol\":745:748  ids */\n      0x01\n        /* \"random/RandomNumber.sol\":749:760  randomIndex */\n      dup3\n        /* \"random/RandomNumber.sol\":745:761  ids[randomIndex] */\n      0x64\n      dup2\n      lt\n      tag_31\n      jumpi\n      tag_32\n      tag_33\n      jump\t// in\n    tag_32:\n    tag_31:\n      add\n      sload\n        /* \"random/RandomNumber.sol\":745:766  ids[randomIndex] != 0 */\n      eq\n      iszero\n        /* \"random/RandomNumber.sol\":745:799  ids[randomIndex] != 0 ? ids[randomIndex] : randomIndex */\n      tag_35\n      jumpi\n        /* \"random/RandomNumber.sol\":788:799  randomIndex */\n      dup1\n        /* \"random/RandomNumber.sol\":745:799  ids[randomIndex] != 0 ? ids[randomIndex] : randomIndex */\n      jump(tag_36)\n    tag_35:\n        /* \"random/RandomNumber.sol\":769:772  ids */\n      0x01\n        /* \"random/RandomNumber.sol\":773:784  randomIndex */\n      dup2\n        /* \"random/RandomNumber.sol\":769:785  ids[randomIndex] */\n      0x64\n      dup2\n      lt\n      tag_37\n      jumpi\n      tag_38\n      tag_33\n      jump\t// in\n    tag_38:\n    tag_37:\n      add\n      sload\n        /* \"random/RandomNumber.sol\":745:799  ids[randomIndex] != 0 ? ids[randomIndex] : randomIndex */\n    tag_36:\n        /* \"random/RandomNumber.sol\":735:799  tokenId = ids[randomIndex] != 0 ? ids[randomIndex] : randomIndex */\n      swap3\n      pop\n        /* \"random/RandomNumber.sol\":861:862  0 */\n      0x00\n        /* \"random/RandomNumber.sol\":845:848  ids */\n      0x01\n        /* \"random/RandomNumber.sol\":855:856  1 */\n      dup1\n        /* \"random/RandomNumber.sol\":849:852  len */\n      dup5\n        /* \"random/RandomNumber.sol\":849:856  len - 1 */\n      tag_40\n      swap2\n      swap1\n      tag_25\n      jump\t// in\n    tag_40:\n        /* \"random/RandomNumber.sol\":845:857  ids[len - 1] */\n      0x64\n      dup2\n      lt\n      tag_41\n      jumpi\n      tag_42\n      tag_33\n      jump\t// in\n    tag_42:\n    tag_41:\n      add\n      sload\n        /* \"random/RandomNumber.sol\":845:862  ids[len - 1] == 0 */\n      eq\n        /* \"random/RandomNumber.sol\":845:887  ids[len - 1] == 0 ? len - 1 : ids[len - 1] */\n      tag_44\n      jumpi\n        /* \"random/RandomNumber.sol\":875:878  ids */\n      0x01\n        /* \"random/RandomNumber.sol\":885:886  1 */\n      dup1\n        /* \"random/RandomNumber.sol\":879:882  len */\n      dup4\n        /* \"random/RandomNumber.sol\":879:886  len - 1 */\n      tag_45\n      swap2\n      swap1\n      tag_25\n      jump\t// in\n    tag_45:\n        /* \"random/RandomNumber.sol\":875:887  ids[len - 1] */\n      0x64\n      dup2\n      lt\n      tag_46\n      jumpi\n      tag_47\n      tag_33\n      jump\t// in\n    tag_47:\n    tag_46:\n      add\n      sload\n        /* \"random/RandomNumber.sol\":845:887  ids[len - 1] == 0 ? len - 1 : ids[len - 1] */\n      jump(tag_49)\n    tag_44:\n        /* \"random/RandomNumber.sol\":871:872  1 */\n      0x01\n        /* \"random/RandomNumber.sol\":865:868  len */\n      dup3\n        /* \"random/RandomNumber.sol\":865:872  len - 1 */\n      tag_50\n      swap2\n      swap1\n      tag_25\n      jump\t// in\n    tag_50:\n        /* \"random/RandomNumber.sol\":845:887  ids[len - 1] == 0 ? len - 1 : ids[len - 1] */\n    tag_49:\n        /* \"random/RandomNumber.sol\":826:829  ids */\n      0x01\n        /* \"random/RandomNumber.sol\":830:841  randomIndex */\n      dup3\n        /* \"random/RandomNumber.sol\":826:842  ids[randomIndex] */\n      0x64\n      dup2\n      lt\n      tag_51\n      jumpi\n      tag_52\n      tag_33\n      jump\t// in\n    tag_52:\n    tag_51:\n      add\n        /* \"random/RandomNumber.sol\":826:887  ids[randomIndex] = ids[len - 1] == 0 ? len - 1 : ids[len - 1] */\n      dup2\n      swap1\n      sstore\n      pop\n        /* \"random/RandomNumber.sol\":932:933  0 */\n      0x00\n        /* \"random/RandomNumber.sol\":917:920  ids */\n      0x01\n        /* \"random/RandomNumber.sol\":927:928  1 */\n      dup1\n        /* \"random/RandomNumber.sol\":921:924  len */\n      dup5\n        /* \"random/RandomNumber.sol\":921:928  len - 1 */\n      tag_54\n      swap2\n      swap1\n      tag_25\n      jump\t// in\n    tag_54:\n        /* \"random/RandomNumber.sol\":917:929  ids[len - 1] */\n      0x64\n      dup2\n      lt\n      tag_55\n      jumpi\n      tag_56\n      tag_33\n      jump\t// in\n    tag_56:\n    tag_55:\n      add\n        /* \"random/RandomNumber.sol\":917:933  ids[len - 1] = 0 */\n      dup2\n      swap1\n      sstore\n      pop\n        /* \"random/RandomNumber.sol\":986:995  mintCount */\n      0x65\n      0x00\n        /* \"random/RandomNumber.sol\":986:998  mintCount ++ */\n      dup2\n      sload\n      dup1\n      swap3\n      swap2\n      swap1\n      tag_58\n      swap1\n      tag_59\n      jump\t// in\n    tag_58:\n      swap2\n      swap1\n      pop\n      sstore\n      pop\n        /* \"random/RandomNumber.sol\":347:1005  {... */\n      pop\n      pop\n        /* \"random/RandomNumber.sol\":270:1005  function pickRandomUniqueId(uint256 random) public returns (uint256 tokenId) {... */\n      swap2\n      swap1\n      pop\n      jump\t// out\n        /* \"random/RandomNumber.sol\":222:246  uint256 public mintCount */\n    tag_17:\n      sload(0x65)\n      dup2\n      jump\t// out\n        /* \"random/RandomNumber.sol\":156:179  uint256[100] public ids */\n    tag_21:\n      0x01\n      dup2\n      0x64\n      dup2\n      lt\n      tag_60\n      jumpi\n      0x00\n      dup1\n      revert\n    tag_60:\n      add\n      0x00\n      swap2\n      pop\n      swap1\n      pop\n      sload\n      dup2\n      jump\t// out\n        /* \"#utility.yul\":7:146   */\n    tag_63:\n        /* \"#utility.yul\":53:58   */\n      0x00\n        /* \"#utility.yul\":91:97   */\n      dup2\n        /* \"#utility.yul\":78:98   */\n      calldataload\n        /* \"#utility.yul\":69:98   */\n      swap1\n      pop\n        /* \"#utility.yul\":107:140   */\n      tag_65\n        /* \"#utility.yul\":134:139   */\n      dup2\n        /* \"#utility.yul\":107:140   */\n      tag_66\n      jump\t// in\n    tag_65:\n        /* \"#utility.yul\":7:146   */\n      swap3\n      swap2\n      pop\n      pop\n      jump\t// out\n        /* \"#utility.yul\":152:481   */\n    tag_13:\n        /* \"#utility.yul\":211:217   */\n      0x00\n        /* \"#utility.yul\":260:262   */\n      0x20\n        /* \"#utility.yul\":248:257   */\n      dup3\n        /* \"#utility.yul\":239:246   */\n      dup5\n        /* \"#utility.yul\":235:258   */\n      sub\n        /* \"#utility.yul\":231:263   */\n      slt\n        /* \"#utility.yul\":228:347   */\n      iszero\n      tag_68\n      jumpi\n        /* \"#utility.yul\":266:345   */\n      tag_69\n      tag_70\n      jump\t// in\n    tag_69:\n        /* \"#utility.yul\":228:347   */\n    tag_68:\n        /* \"#utility.yul\":386:387   */\n      0x00\n        /* \"#utility.yul\":411:464   */\n      tag_71\n        /* \"#utility.yul\":456:463   */\n      dup5\n        /* \"#utility.yul\":447:453   */\n      dup3\n        /* \"#utility.yul\":436:445   */\n      dup6\n        /* \"#utility.yul\":432:454   */\n      add\n        /* \"#utility.yul\":411:464   */\n      tag_63\n      jump\t// in\n    tag_71:\n        /* \"#utility.yul\":401:464   */\n      swap2\n      pop\n        /* \"#utility.yul\":357:474   */\n      pop\n        /* \"#utility.yul\":152:481   */\n      swap3\n      swap2\n      pop\n      pop\n      jump\t// out\n        /* \"#utility.yul\":487:853   */\n    tag_72:\n        /* \"#utility.yul\":629:632   */\n      0x00\n        /* \"#utility.yul\":650:717   */\n      tag_74\n        /* \"#utility.yul\":714:716   */\n      0x0a\n        /* \"#utility.yul\":709:712   */\n      dup4\n        /* \"#utility.yul\":650:717   */\n      tag_75\n      jump\t// in\n    tag_74:\n        /* \"#utility.yul\":643:717   */\n      swap2\n      pop\n        /* \"#utility.yul\":726:819   */\n      tag_76\n        /* \"#utility.yul\":815:818   */\n      dup3\n        /* \"#utility.yul\":726:819   */\n      tag_77\n      jump\t// in\n    tag_76:\n        /* \"#utility.yul\":844:846   */\n      0x20\n        /* \"#utility.yul\":839:842   */\n      dup3\n        /* \"#utility.yul\":835:847   */\n      add\n        /* \"#utility.yul\":828:847   */\n      swap1\n      pop\n        /* \"#utility.yul\":487:853   */\n      swap2\n      swap1\n      pop\n      jump\t// out\n        /* \"#utility.yul\":859:977   */\n    tag_78:\n        /* \"#utility.yul\":946:970   */\n      tag_80\n        /* \"#utility.yul\":964:969   */\n      dup2\n        /* \"#utility.yul\":946:970   */\n      tag_81\n      jump\t// in\n    tag_80:\n        /* \"#utility.yul\":941:944   */\n      dup3\n        /* \"#utility.yul\":934:971   */\n      mstore\n        /* \"#utility.yul\":859:977   */\n      pop\n      pop\n      jump\t// out\n        /* \"#utility.yul\":983:1402   */\n    tag_28:\n        /* \"#utility.yul\":1149:1153   */\n      0x00\n        /* \"#utility.yul\":1187:1189   */\n      0x20\n        /* \"#utility.yul\":1176:1185   */\n      dup3\n        /* \"#utility.yul\":1172:1190   */\n      add\n        /* \"#utility.yul\":1164:1190   */\n      swap1\n      pop\n        /* \"#utility.yul\":1236:1245   */\n      dup2\n        /* \"#utility.yul\":1230:1234   */\n      dup2\n        /* \"#utility.yul\":1226:1246   */\n      sub\n        /* \"#utility.yul\":1222:1223   */\n      0x00\n        /* \"#utility.yul\":1211:1220   */\n      dup4\n        /* \"#utility.yul\":1207:1224   */\n      add\n        /* \"#utility.yul\":1200:1247   */\n      mstore\n        /* \"#utility.yul\":1264:1395   */\n      tag_83\n        /* \"#utility.yul\":1390:1394   */\n      dup2\n        /* \"#utility.yul\":1264:1395   */\n      tag_72\n      jump\t// in\n    tag_83:\n        /* \"#utility.yul\":1256:1395   */\n      swap1\n      pop\n        /* \"#utility.yul\":983:1402   */\n      swap2\n      swap1\n      pop\n      jump\t// out\n        /* \"#utility.yul\":1408:1630   */\n    tag_10:\n        /* \"#utility.yul\":1501:1505   */\n      0x00\n        /* \"#utility.yul\":1539:1541   */\n      0x20\n        /* \"#utility.yul\":1528:1537   */\n      dup3\n        /* \"#utility.yul\":1524:1542   */\n      add\n        /* \"#utility.yul\":1516:1542   */\n      swap1\n      pop\n        /* \"#utility.yul\":1552:1623   */\n      tag_85\n        /* \"#utility.yul\":1620:1621   */\n      0x00\n        /* \"#utility.yul\":1609:1618   */\n      dup4\n        /* \"#utility.yul\":1605:1622   */\n      add\n        /* \"#utility.yul\":1596:1602   */\n      dup5\n        /* \"#utility.yul\":1552:1623   */\n      tag_78\n      jump\t// in\n    tag_85:\n        /* \"#utility.yul\":1408:1630   */\n      swap3\n      swap2\n      pop\n      pop\n      jump\t// out\n        /* \"#utility.yul\":1717:1886   */\n    tag_75:\n        /* \"#utility.yul\":1801:1812   */\n      0x00\n        /* \"#utility.yul\":1835:1841   */\n      dup3\n        /* \"#utility.yul\":1830:1833   */\n      dup3\n        /* \"#utility.yul\":1823:1842   */\n      mstore\n        /* \"#utility.yul\":1875:1879   */\n      0x20\n        /* \"#utility.yul\":1870:1873   */\n      dup3\n        /* \"#utility.yul\":1866:1880   */\n      add\n        /* \"#utility.yul\":1851:1880   */\n      swap1\n      pop\n        /* \"#utility.yul\":1717:1886   */\n      swap3\n      swap2\n      pop\n      pop\n      jump\t// out\n        /* \"#utility.yul\":1892:2083   */\n    tag_25:\n        /* \"#utility.yul\":1932:1936   */\n      0x00\n        /* \"#utility.yul\":1952:1972   */\n      tag_90\n        /* \"#utility.yul\":1970:1971   */\n      dup3\n        /* \"#utility.yul\":1952:1972   */\n      tag_81\n      jump\t// in\n    tag_90:\n        /* \"#utility.yul\":1947:1972   */\n      swap2\n      pop\n        /* \"#utility.yul\":1986:2006   */\n      tag_91\n        /* \"#utility.yul\":2004:2005   */\n      dup4\n        /* \"#utility.yul\":1986:2006   */\n      tag_81\n      jump\t// in\n    tag_91:\n        /* \"#utility.yul\":1981:2006   */\n      swap3\n      pop\n        /* \"#utility.yul\":2025:2026   */\n      dup3\n        /* \"#utility.yul\":2022:2023   */\n      dup3\n        /* \"#utility.yul\":2019:2027   */\n      lt\n        /* \"#utility.yul\":2016:2050   */\n      iszero\n      tag_92\n      jumpi\n        /* \"#utility.yul\":2030:2048   */\n      tag_93\n      tag_94\n      jump\t// in\n    tag_93:\n        /* \"#utility.yul\":2016:2050   */\n    tag_92:\n        /* \"#utility.yul\":2075:2076   */\n      dup3\n        /* \"#utility.yul\":2072:2073   */\n      dup3\n        /* \"#utility.yul\":2068:2077   */\n      sub\n        /* \"#utility.yul\":2060:2077   */\n      swap1\n      pop\n        /* \"#utility.yul\":1892:2083   */\n      swap3\n      swap2\n      pop\n      pop\n      jump\t// out\n        /* \"#utility.yul\":2089:2166   */\n    tag_81:\n        /* \"#utility.yul\":2126:2133   */\n      0x00\n        /* \"#utility.yul\":2155:2160   */\n      dup2\n        /* \"#utility.yul\":2144:2160   */\n      swap1\n      pop\n        /* \"#utility.yul\":2089:2166   */\n      swap2\n      swap1\n      pop\n      jump\t// out\n        /* \"#utility.yul\":2172:2405   */\n    tag_59:\n        /* \"#utility.yul\":2211:2214   */\n      0x00\n        /* \"#utility.yul\":2234:2258   */\n      tag_97\n        /* \"#utility.yul\":2252:2257   */\n      dup3\n        /* \"#utility.yul\":2234:2258   */\n      tag_81\n      jump\t// in\n    tag_97:\n        /* \"#utility.yul\":2225:2258   */\n      swap2\n      pop\n        /* \"#utility.yul\":2280:2346   */\n      0xffffffffffffffffffffffffffffffffffffffffffffffffffffffffffffffff\n        /* \"#utility.yul\":2273:2278   */\n      dup3\n        /* \"#utility.yul\":2270:2347   */\n      eq\n        /* \"#utility.yul\":2267:2370   */\n      iszero\n      tag_98\n      jumpi\n        /* \"#utility.yul\":2350:2368   */\n      tag_99\n      tag_94\n      jump\t// in\n    tag_99:\n        /* \"#utility.yul\":2267:2370   */\n    tag_98:\n        /* \"#utility.yul\":2397:2398   */\n      0x01\n        /* \"#utility.yul\":2390:2395   */\n      dup3\n        /* \"#utility.yul\":2386:2399   */\n      add\n        /* \"#utility.yul\":2379:2399   */\n      swap1\n      pop\n        /* \"#utility.yul\":2172:2405   */\n      swap2\n      swap1\n      pop\n      jump\t// out\n        /* \"#utility.yul\":2411:2587   */\n    tag_30:\n        /* \"#utility.yul\":2443:2444   */\n      0x00\n        /* \"#utility.yul\":2460:2480   */\n      tag_101\n        /* \"#utility.yul\":2478:2479   */\n      dup3\n        /* \"#utility.yul\":2460:2480   */\n      tag_81\n      jump\t// in\n    tag_101:\n        /* \"#utility.yul\":2455:2480   */\n      swap2\n      pop\n        /* \"#utility.yul\":2494:2514   */\n      tag_102\n        /* \"#utility.yul\":2512:2513   */\n      dup4\n        /* \"#utility.yul\":2494:2514   */\n      tag_81\n      jump\t// in\n    tag_102:\n        /* \"#utility.yul\":2489:2514   */\n      swap3\n      pop\n        /* \"#utility.yul\":2533:2534   */\n      dup3\n        /* \"#utility.yul\":2523:2558   */\n      tag_103\n      jumpi\n        /* \"#utility.yul\":2538:2556   */\n      tag_104\n      tag_105\n      jump\t// in\n    tag_104:\n        /* \"#utility.yul\":2523:2558   */\n    tag_103:\n        /* \"#utility.yul\":2579:2580   */\n      dup3\n        /* \"#utility.yul\":2576:2577   */\n      dup3\n        /* \"#utility.yul\":2572:2581   */\n      mod\n        /* \"#utility.yul\":2567:2581   */\n      swap1\n      pop\n        /* \"#utility.yul\":2411:2587   */\n      swap3\n      swap2\n      pop\n      pop\n      jump\t// out\n        /* \"#utility.yul\":2593:2773   */\n    tag_94:\n        /* \"#utility.yul\":2641:2718   */\n      0x4e487b7100000000000000000000000000000000000000000000000000000000\n        /* \"#utility.yul\":2638:2639   */\n      0x00\n        /* \"#utility.yul\":2631:2719   */\n      mstore\n        /* \"#utility.yul\":2738:2742   */\n      0x11\n        /* \"#utility.yul\":2735:2736   */\n      0x04\n        /* \"#utility.yul\":2728:2743   */\n      mstore\n        /* \"#utility.yul\":2762:2766   */\n      0x24\n        /* \"#utility.yul\":2759:2760   */\n      0x00\n        /* \"#utility.yul\":2752:2767   */\n      revert\n        /* \"#utility.yul\":2779:2959   */\n    tag_105:\n        /* \"#utility.yul\":2827:2904   */\n      0x4e487b7100000000000000000000000000000000000000000000000000000000\n        /* \"#utility.yul\":2824:2825   */\n      0x00\n        /* \"#utility.yul\":2817:2905   */\n      mstore\n        /* \"#utility.yul\":2924:2928   */\n      0x12\n        /* \"#utility.yul\":2921:2922   */\n      0x04\n        /* \"#utility.yul\":2914:2929   */\n      mstore\n        /* \"#utility.yul\":2948:2952   */\n      0x24\n        /* \"#utility.yul\":2945:2946   */\n      0x00\n        /* \"#utility.yul\":2938:2953   */\n      revert\n        /* \"#utility.yul\":2965:3145   */\n    tag_33:\n        /* \"#utility.yul\":3013:3090   */\n      0x4e487b7100000000000000000000000000000000000000000000000000000000\n        /* \"#utility.yul\":3010:3011   */\n      0x00\n        /* \"#utility.yul\":3003:3091   */\n      mstore\n        /* \"#utility.yul\":3110:3114   */\n      0x32\n        /* \"#utility.yul\":3107:3108   */\n      0x04\n        /* \"#utility.yul\":3100:3115   */\n      mstore\n        /* \"#utility.yul\":3134:3138   */\n      0x24\n        /* \"#utility.yul\":3131:3132   */\n      0x00\n        /* \"#utility.yul\":3124:3139   */\n      revert\n        /* \"#utility.yul\":3274:3391   */\n    tag_70:\n        /* \"#utility.yul\":3383:3384   */\n      0x00\n        /* \"#utility.yul\":3380:3381   */\n      dup1\n        /* \"#utility.yul\":3373:3385   */\n      revert\n        /* \"#utility.yul\":3397:3557   */\n    tag_77:\n        /* \"#utility.yul\":3537:3549   */\n      0x6d696e7420636c6f736500000000000000000000000000000000000000000000\n        /* \"#utility.yul\":3533:3534   */\n      0x00\n        /* \"#utility.yul\":3525:3531   */\n      dup3\n        /* \"#utility.yul\":3521:3535   */\n      add\n        /* \"#utility.yul\":3514:3550   */\n      mstore\n        /* \"#utility.yul\":3397:3557   */\n      pop\n      jump\t// out\n        /* \"#utility.yul\":3563:3685   */\n    tag_66:\n        /* \"#utility.yul\":3636:3660   */\n      tag_114\n        /* \"#utility.yul\":3654:3659   */\n      dup2\n        /* \"#utility.yul\":3636:3660   */\n      tag_81\n      jump\t// in\n    tag_114:\n        /* \"#utility.yul\":3629:3634   */\n      dup2\n        /* \"#utility.yul\":3626:3661   */\n      eq\n        /* \"#utility.yul\":3616:3679   */\n      tag_115\n      jumpi\n        /* \"#utility.yul\":3675:3676   */\n      0x00\n        /* \"#utility.yul\":3672:3673   */\n      dup1\n        /* \"#utility.yul\":3665:3677   */\n      revert\n        /* \"#utility.yul\":3616:3679   */\n    tag_115:\n        /* \"#utility.yul\":3563:3685   */\n      pop\n      jump\t// out\n\n    auxdata: 0xa26469706673582212200d709e9e6dd71617acd5c6d1e51a2e8dfb96a7dff6bb3804528e8beed2720ce364736f6c63430008070033\n}\n",
				"bytecode": {
					"linkReferences": {},
					"object": "6080604052606460005534801561001557600080fd5b506104f3806100256000396000f3fe608060405234801561001057600080fd5b506004361061004c5760003560e01c806318160ddd1461005157806364334e4c1461006f5780639659867e1461009f578063fac333ac146100bd575b600080fd5b6100596100ed565b6040516100669190610307565b60405180910390f35b61008960048036038101906100849190610288565b6100f3565b6040516100969190610307565b60405180910390f35b6100a7610252565b6040516100b49190610307565b60405180910390f35b6100d760048036038101906100d29190610288565b610258565b6040516100e49190610307565b60405180910390f35b60005481565b6000806065546000546101069190610333565b90506000811161014b576040517f08c379a0000000000000000000000000000000000000000000000000000000008152600401610142906102e7565b60405180910390fd5b6000818461015991906103ba565b905060006001826064811061017157610170610449565b5b0154141561017f5780610196565b6001816064811061019357610192610449565b5b01545b92506000600180846101a89190610333565b606481106101b9576101b8610449565b5b0154146101e657600180836101ce9190610333565b606481106101df576101de610449565b5b01546101f4565b6001826101f39190610333565b5b6001826064811061020857610207610449565b5b018190555060006001808461021d9190610333565b6064811061022e5761022d610449565b5b01819055506065600081548092919061024690610371565b91905055505050919050565b60655481565b6001816064811061026857600080fd5b016000915090505481565b600081359050610282816104a6565b92915050565b60006020828403121561029e5761029d610478565b5b60006102ac84828501610273565b91505092915050565b60006102c2600a83610322565b91506102cd8261047d565b602082019050919050565b6102e181610367565b82525050565b60006020820190508181036000830152610300816102b5565b9050919050565b600060208201905061031c60008301846102d8565b92915050565b600082825260208201905092915050565b600061033e82610367565b915061034983610367565b92508282101561035c5761035b6103eb565b5b828203905092915050565b6000819050919050565b600061037c82610367565b91507fffffffffffffffffffffffffffffffffffffffffffffffffffffffffffffffff8214156103af576103ae6103eb565b5b600182019050919050565b60006103c582610367565b91506103d083610367565b9250826103e0576103df61041a565b5b828206905092915050565b7f4e487b7100000000000000000000000000000000000000000000000000000000600052601160045260246000fd5b7f4e487b7100000000000000000000000000000000000000000000000000000000600052601260045260246000fd5b7f4e487b7100000000000000000000000000000000000000000000000000000000600052603260045260246000fd5b600080fd5b7f6d696e7420636c6f736500000000000000000000000000000000000000000000600082015250565b6104af81610367565b81146104ba57600080fd5b5056fea26469706673582212200d709e9e6dd71617acd5c6d1e51a2e8dfb96a7dff6bb3804528e8beed2720ce364736f6c63430008070033",
					"opcodes": "PUSH1 0x80 PUSH1 0x40 MSTORE PUSH1 0x64 PUSH1 0x0 SSTORE CALLVALUE DUP1 ISZERO PUSH2 0x15 JUMPI PUSH1 0x0 DUP1 REVERT JUMPDEST POP PUSH2 0x4F3 DUP1 PUSH2 0x25 PUSH1 0x0 CODECOPY PUSH1 0x0 RETURN INVALID PUSH1 0x80 PUSH1 0x40 MSTORE CALLVALUE DUP1 ISZERO PUSH2 0x10 JUMPI PUSH1 0x0 DUP1 REVERT JUMPDEST POP PUSH1 0x4 CALLDATASIZE LT PUSH2 0x4C JUMPI PUSH1 0x0 CALLDATALOAD PUSH1 0xE0 SHR DUP1 PUSH4 0x18160DDD EQ PUSH2 0x51 JUMPI DUP1 PUSH4 0x64334E4C EQ PUSH2 0x6F JUMPI DUP1 PUSH4 0x9659867E EQ PUSH2 0x9F JUMPI DUP1 PUSH4 0xFAC333AC EQ PUSH2 0xBD JUMPI JUMPDEST PUSH1 0x0 DUP1 REVERT JUMPDEST PUSH2 0x59 PUSH2 0xED JUMP JUMPDEST PUSH1 0x40 MLOAD PUSH2 0x66 SWAP2 SWAP1 PUSH2 0x307 JUMP JUMPDEST PUSH1 0x40 MLOAD DUP1 SWAP2 SUB SWAP1 RETURN JUMPDEST PUSH2 0x89 PUSH1 0x4 DUP1 CALLDATASIZE SUB DUP2 ADD SWAP1 PUSH2 0x84 SWAP2 SWAP1 PUSH2 0x288 JUMP JUMPDEST PUSH2 0xF3 JUMP JUMPDEST PUSH1 0x40 MLOAD PUSH2 0x96 SWAP2 SWAP1 PUSH2 0x307 JUMP JUMPDEST PUSH1 0x40 MLOAD DUP1 SWAP2 SUB SWAP1 RETURN JUMPDEST PUSH2 0xA7 PUSH2 0x252 JUMP JUMPDEST PUSH1 0x40 MLOAD PUSH2 0xB4 SWAP2 SWAP1 PUSH2 0x307 JUMP JUMPDEST PUSH1 0x40 MLOAD DUP1 SWAP2 SUB SWAP1 RETURN JUMPDEST PUSH2 0xD7 PUSH1 0x4 DUP1 CALLDATASIZE SUB DUP2 ADD SWAP1 PUSH2 0xD2 SWAP2 SWAP1 PUSH2 0x288 JUMP JUMPDEST PUSH2 0x258 JUMP JUMPDEST PUSH1 0x40 MLOAD PUSH2 0xE4 SWAP2 SWAP1 PUSH2 0x307 JUMP JUMPDEST PUSH1 0x40 MLOAD DUP1 SWAP2 SUB SWAP1 RETURN JUMPDEST PUSH1 0x0 SLOAD DUP2 JUMP JUMPDEST PUSH1 0x0 DUP1 PUSH1 0x65 SLOAD PUSH1 0x0 SLOAD PUSH2 0x106 SWAP2 SWAP1 PUSH2 0x333 JUMP JUMPDEST SWAP1 POP PUSH1 0x0 DUP2 GT PUSH2 0x14B JUMPI PUSH1 0x40 MLOAD PUSH32 0x8C379A000000000000000000000000000000000000000000000000000000000 DUP2 MSTORE PUSH1 0x4 ADD PUSH2 0x142 SWAP1 PUSH2 0x2E7 JUMP JUMPDEST PUSH1 0x40 MLOAD DUP1 SWAP2 SUB SWAP1 REVERT JUMPDEST PUSH1 0x0 DUP2 DUP5 PUSH2 0x159 SWAP2 SWAP1 PUSH2 0x3BA JUMP JUMPDEST SWAP1 POP PUSH1 0x0 PUSH1 0x1 DUP3 PUSH1 0x64 DUP2 LT PUSH2 0x171 JUMPI PUSH2 0x170 PUSH2 0x449 JUMP JUMPDEST JUMPDEST ADD SLOAD EQ ISZERO PUSH2 0x17F JUMPI DUP1 PUSH2 0x196 JUMP JUMPDEST PUSH1 0x1 DUP2 PUSH1 0x64 DUP2 LT PUSH2 0x193 JUMPI PUSH2 0x192 PUSH2 0x449 JUMP JUMPDEST JUMPDEST ADD SLOAD JUMPDEST SWAP3 POP PUSH1 0x0 PUSH1 0x1 DUP1 DUP5 PUSH2 0x1A8 SWAP2 SWAP1 PUSH2 0x333 JUMP JUMPDEST PUSH1 0x64 DUP2 LT PUSH2 0x1B9 JUMPI PUSH2 0x1B8 PUSH2 0x449 JUMP JUMPDEST JUMPDEST ADD SLOAD EQ PUSH2 0x1E6 JUMPI PUSH1 0x1 DUP1 DUP4 PUSH2 0x1CE SWAP2 SWAP1 PUSH2 0x333 JUMP JUMPDEST PUSH1 0x64 DUP2 LT PUSH2 0x1DF JUMPI PUSH2 0x1DE PUSH2 0x449 JUMP JUMPDEST JUMPDEST ADD SLOAD PUSH2 0x1F4 JUMP JUMPDEST PUSH1 0x1 DUP3 PUSH2 0x1F3 SWAP2 SWAP1 PUSH2 0x333 JUMP JUMPDEST JUMPDEST PUSH1 0x1 DUP3 PUSH1 0x64 DUP2 LT PUSH2 0x208 JUMPI PUSH2 0x207 PUSH2 0x449 JUMP JUMPDEST JUMPDEST ADD DUP2 SWAP1 SSTORE POP PUSH1 0x0 PUSH1 0x1 DUP1 DUP5 PUSH2 0x21D SWAP2 SWAP1 PUSH2 0x333 JUMP JUMPDEST PUSH1 0x64 DUP2 LT PUSH2 0x22E JUMPI PUSH2 0x22D PUSH2 0x449 JUMP JUMPDEST JUMPDEST ADD DUP2 SWAP1 SSTORE POP PUSH1 0x65 PUSH1 0x0 DUP2 SLOAD DUP1 SWAP3 SWAP2 SWAP1 PUSH2 0x246 SWAP1 PUSH2 0x371 JUMP JUMPDEST SWAP2 SWAP1 POP SSTORE POP POP POP SWAP2 SWAP1 POP JUMP JUMPDEST PUSH1 0x65 SLOAD DUP2 JUMP JUMPDEST PUSH1 0x1 DUP2 PUSH1 0x64 DUP2 LT PUSH2 0x268 JUMPI PUSH1 0x0 DUP1 REVERT JUMPDEST ADD PUSH1 0x0 SWAP2 POP SWAP1 POP SLOAD DUP2 JUMP JUMPDEST PUSH1 0x0 DUP2 CALLDATALOAD SWAP1 POP PUSH2 0x282 DUP2 PUSH2 0x4A6 JUMP JUMPDEST SWAP3 SWAP2 POP POP JUMP JUMPDEST PUSH1 0x0 PUSH1 0x20 DUP3 DUP5 SUB SLT ISZERO PUSH2 0x29E JUMPI PUSH2 0x29D PUSH2 0x478 JUMP JUMPDEST JUMPDEST PUSH1 0x0 PUSH2 0x2AC DUP5 DUP3 DUP6 ADD PUSH2 0x273 JUMP JUMPDEST SWAP2 POP POP SWAP3 SWAP2 POP POP JUMP JUMPDEST PUSH1 0x0 PUSH2 0x2C2 PUSH1 0xA DUP4 PUSH2 0x322 JUMP JUMPDEST SWAP2 POP PUSH2 0x2CD DUP3 PUSH2 0x47D JUMP JUMPDEST PUSH1 0x20 DUP3 ADD SWAP1 POP SWAP2 SWAP1 POP JUMP JUMPDEST PUSH2 0x2E1 DUP2 PUSH2 0x367 JUMP JUMPDEST DUP3 MSTORE POP POP JUMP JUMPDEST PUSH1 0x0 PUSH1 0x20 DUP3 ADD SWAP1 POP DUP2 DUP2 SUB PUSH1 0x0 DUP4 ADD MSTORE PUSH2 0x300 DUP2 PUSH2 0x2B5 JUMP JUMPDEST SWAP1 POP SWAP2 SWAP1 POP JUMP JUMPDEST PUSH1 0x0 PUSH1 0x20 DUP3 ADD SWAP1 POP PUSH2 0x31C PUSH1 0x0 DUP4 ADD DUP5 PUSH2 0x2D8 JUMP JUMPDEST SWAP3 SWAP2 POP POP JUMP JUMPDEST PUSH1 0x0 DUP3 DUP3 MSTORE PUSH1 0x20 DUP3 ADD SWAP1 POP SWAP3 SWAP2 POP POP JUMP JUMPDEST PUSH1 0x0 PUSH2 0x33E DUP3 PUSH2 0x367 JUMP JUMPDEST SWAP2 POP PUSH2 0x349 DUP4 PUSH2 0x367 JUMP JUMPDEST SWAP3 POP DUP3 DUP3 LT ISZERO PUSH2 0x35C JUMPI PUSH2 0x35B PUSH2 0x3EB JUMP JUMPDEST JUMPDEST DUP3 DUP3 SUB SWAP1 POP SWAP3 SWAP2 POP POP JUMP JUMPDEST PUSH1 0x0 DUP2 SWAP1 POP SWAP2 SWAP1 POP JUMP JUMPDEST PUSH1 0x0 PUSH2 0x37C DUP3 PUSH2 0x367 JUMP JUMPDEST SWAP2 POP PUSH32 0xFFFFFFFFFFFFFFFFFFFFFFFFFFFFFFFFFFFFFFFFFFFFFFFFFFFFFFFFFFFFFFFF DUP3 EQ ISZERO PUSH2 0x3AF JUMPI PUSH2 0x3AE PUSH2 0x3EB JUMP JUMPDEST JUMPDEST PUSH1 0x1 DUP3 ADD SWAP1 POP SWAP2 SWAP1 POP JUMP JUMPDEST PUSH1 0x0 PUSH2 0x3C5 DUP3 PUSH2 0x367 JUMP JUMPDEST SWAP2 POP PUSH2 0x3D0 DUP4 PUSH2 0x367 JUMP JUMPDEST SWAP3 POP DUP3 PUSH2 0x3E0 JUMPI PUSH2 0x3DF PUSH2 0x41A JUMP JUMPDEST JUMPDEST DUP3 DUP3 MOD SWAP1 POP SWAP3 SWAP2 POP POP JUMP JUMPDEST PUSH32 0x4E487B7100000000000000000000000000000000000000000000000000000000 PUSH1 0x0 MSTORE PUSH1 0x11 PUSH1 0x4 MSTORE PUSH1 0x24 PUSH1 0x0 REVERT JUMPDEST PUSH32 0x4E487B7100000000000000000000000000000000000000000000000000000000 PUSH1 0x0 MSTORE PUSH1 0x12 PUSH1 0x4 MSTORE PUSH1 0x24 PUSH1 0x0 REVERT JUMPDEST PUSH32 0x4E487B7100000000000000000000000000000000000000000000000000000000 PUSH1 0x0 MSTORE PUSH1 0x32 PUSH1 0x4 MSTORE PUSH1 0x24 PUSH1 0x0 REVERT JUMPDEST PUSH1 0x0 DUP1 REVERT JUMPDEST PUSH32 0x6D696E7420636C6F736500000000000000000000000000000000000000000000 PUSH1 0x0 DUP3 ADD MSTORE POP JUMP JUMPDEST PUSH2 0x4AF DUP2 PUSH2 0x367 JUMP JUMPDEST DUP2 EQ PUSH2 0x4BA JUMPI PUSH1 0x0 DUP1 REVERT JUMPDEST POP JUMP INVALID LOG2 PUSH5 0x6970667358 0x22 SLT KECCAK256 0xD PUSH17 0x9E9E6DD71617ACD5C6D1E51A2E8DFB96A7 0xDF 0xF6 0xBB CODESIZE DIV MSTORE DUP15 DUP12 0xEE 0xD2 PUSH19 0xCE364736F6C63430008070033000000000000 "
				},
				"gasEstimates": {
					"creation": {
						"codeDepositCost": "253400",
						"executionCost": "22400",
						"totalCost": "275800"
					},
					"external": {
						"ids(uint256)": "infinite",
						"mintCount()": "2451",
						"pickRandomUniqueId(uint256)": "infinite",
						"totalSupply()": "2407"
					}
				},
				"methodIdentifiers": {
					"ids(uint256)": "fac333ac",
					"mintCount()": "9659867e",
					"pickRandomUniqueId(uint256)": "64334e4c",
					"totalSupply()": "18160ddd"
				}
			},
			"storageLayout": {
				"storage": [
					{
						"astId": 4,
						"contract": "random/RandomNumber.sol:RandomNumber",
						"label": "totalSupply",
						"offset": 0,
						"slot": "0",
						"type": "t_uint256"
					},
					{
						"astId": 8,
						"contract": "random/RandomNumber.sol:RandomNumber",
						"label": "ids",
						"offset": 0,
						"slot": "1",
						"type": "t_array(t_uint256)100_storage"
					},
					{
						"astId": 10,
						"contract": "random/RandomNumber.sol:RandomNumber",
						"label": "mintCount",
						"offset": 0,
						"slot": "101",
						"type": "t_uint256"
					}
				],
				"types": {
					"t_array(t_uint256)100_storage": {
						"base": "t_uint256",
						"encoding": "inplace",
						"label": "uint256[100]",
						"numberOfBytes": "3200"
					},
					"t_uint256": {
						"encoding": "inplace",
						"label": "uint256",
						"numberOfBytes": "32"
					}
				}
			},
			"userdoc": {
				"kind": "user",
				"methods": {},
				"version": 1
			}
		}
	}
}