{
	"merkleTree/Keccak256Demo.sol": {
		"Keccak256Demo": {
			"abi": [
				{
					"inputs": [
						{
							"internalType": "bytes32",
							"name": "_b1",
							"type": "bytes32"
						},
						{
							"internalType": "bytes32",
							"name": "_b2",
							"type": "bytes32"
						}
					],
					"name": "combineHash",
					"outputs": [
						{
							"internalType": "bytes32",
							"name": "",
							"type": "bytes32"
						}
					],
					"stateMutability": "pure",
					"type": "function"
				},
				{
					"inputs": [],
					"name": "singleHash",
					"outputs": [
						{
							"internalType": "bytes32",
							"name": "",
							"type": "bytes32"
						}
					],
					"stateMutability": "view",
					"type": "function"
				}
			],
			"devdoc": {
				"kind": "dev",
				"methods": {},
				"version": 1
			},
			"evm": {
				"assembly": "    /* \"merkleTree/Keccak256Demo.sol\":75:862  contract Keccak256Demo {... */\n  mstore(0x40, 0x80)\n  callvalue\n  dup1\n  iszero\n  tag_1\n  jumpi\n  0x00\n  dup1\n  revert\ntag_1:\n  pop\n  dataSize(sub_0)\n  dup1\n  dataOffset(sub_0)\n  0x00\n  codecopy\n  0x00\n  return\nstop\n\nsub_0: assembly {\n        /* \"merkleTree/Keccak256Demo.sol\":75:862  contract Keccak256Demo {... */\n      mstore(0x40, 0x80)\n      callvalue\n      dup1\n      iszero\n      tag_1\n      jumpi\n      0x00\n      dup1\n      revert\n    tag_1:\n      pop\n      jumpi(tag_2, lt(calldatasize, 0x04))\n      shr(0xe0, calldataload(0x00))\n      dup1\n      0x209cbb94\n      eq\n      tag_3\n      jumpi\n      dup1\n      0xe3937579\n      eq\n      tag_4\n      jumpi\n    tag_2:\n      0x00\n      dup1\n      revert\n        /* \"merkleTree/Keccak256Demo.sol\":109:265  function singleHash() external view  returns (bytes32){... */\n    tag_3:\n      tag_5\n      tag_6\n      jump\t// in\n    tag_5:\n      mload(0x40)\n      tag_7\n      swap2\n      swap1\n      tag_8\n      jump\t// in\n    tag_7:\n      mload(0x40)\n      dup1\n      swap2\n      sub\n      swap1\n      return\n        /* \"merkleTree/Keccak256Demo.sol\":271:461  function combineHash(bytes32 _b1, bytes32 _b2) external pure returns (bytes32){... */\n    tag_4:\n      tag_9\n      0x04\n      dup1\n      calldatasize\n      sub\n      dup2\n      add\n      swap1\n      tag_10\n      swap2\n      swap1\n      tag_11\n      jump\t// in\n    tag_10:\n      tag_12\n      jump\t// in\n    tag_9:\n      mload(0x40)\n      tag_13\n      swap2\n      swap1\n      tag_8\n      jump\t// in\n    tag_13:\n      mload(0x40)\n      dup1\n      swap2\n      sub\n      swap1\n      return\n        /* \"merkleTree/Keccak256Demo.sol\":109:265  function singleHash() external view  returns (bytes32){... */\n    tag_6:\n        /* \"merkleTree/Keccak256Demo.sol\":155:162  bytes32 */\n      0x00\n        /* \"merkleTree/Keccak256Demo.sol\":173:194  address callerAddress */\n      dup1\n        /* \"merkleTree/Keccak256Demo.sol\":197:207  msg.sender */\n      caller\n        /* \"merkleTree/Keccak256Demo.sol\":173:207  address callerAddress = msg.sender */\n      swap1\n      pop\n        /* \"merkleTree/Keccak256Demo.sol\":234:257  _toBytes(callerAddress) */\n      tag_15\n        /* \"merkleTree/Keccak256Demo.sol\":243:256  callerAddress */\n      dup2\n        /* \"merkleTree/Keccak256Demo.sol\":234:242  _toBytes */\n      tag_16\n        /* \"merkleTree/Keccak256Demo.sol\":234:257  _toBytes(callerAddress) */\n      jump\t// in\n    tag_15:\n        /* \"merkleTree/Keccak256Demo.sol\":224:258  keccak256(_toBytes(callerAddress)) */\n      dup1\n      mload\n      swap1\n      0x20\n      add\n      keccak256\n        /* \"merkleTree/Keccak256Demo.sol\":217:258  return keccak256(_toBytes(callerAddress)) */\n      swap2\n      pop\n      pop\n        /* \"merkleTree/Keccak256Demo.sol\":109:265  function singleHash() external view  returns (bytes32){... */\n      swap1\n      jump\t// out\n        /* \"merkleTree/Keccak256Demo.sol\":271:461  function combineHash(bytes32 _b1, bytes32 _b2) external pure returns (bytes32){... */\n    tag_12:\n        /* \"merkleTree/Keccak256Demo.sol\":341:348  bytes32 */\n      0x00\n        /* \"merkleTree/Keccak256Demo.sol\":371:374  _b2 */\n      dup2\n        /* \"merkleTree/Keccak256Demo.sol\":365:368  _b1 */\n      dup4\n        /* \"merkleTree/Keccak256Demo.sol\":365:374  _b1 < _b2 */\n      lt\n        /* \"merkleTree/Keccak256Demo.sol\":365:454  _b1 < _b2 ? keccak256(abi.encodePacked(_b1, _b2)) : keccak256(abi.encodePacked(_b2, _b1)) */\n      tag_18\n      jumpi\n        /* \"merkleTree/Keccak256Demo.sol\":444:447  _b2 */\n      dup2\n        /* \"merkleTree/Keccak256Demo.sol\":449:452  _b1 */\n      dup4\n        /* \"merkleTree/Keccak256Demo.sol\":427:453  abi.encodePacked(_b2, _b1) */\n      add(0x20, mload(0x40))\n      tag_19\n      swap3\n      swap2\n      swap1\n      tag_20\n      jump\t// in\n    tag_19:\n      mload(0x40)\n      0x20\n      dup2\n      dup4\n      sub\n      sub\n      dup2\n      mstore\n      swap1\n      0x40\n      mstore\n        /* \"merkleTree/Keccak256Demo.sol\":417:454  keccak256(abi.encodePacked(_b2, _b1)) */\n      dup1\n      mload\n      swap1\n      0x20\n      add\n      keccak256\n        /* \"merkleTree/Keccak256Demo.sol\":365:454  _b1 < _b2 ? keccak256(abi.encodePacked(_b1, _b2)) : keccak256(abi.encodePacked(_b2, _b1)) */\n      jump(tag_21)\n    tag_18:\n        /* \"merkleTree/Keccak256Demo.sol\":404:407  _b1 */\n      dup3\n        /* \"merkleTree/Keccak256Demo.sol\":409:412  _b2 */\n      dup3\n        /* \"merkleTree/Keccak256Demo.sol\":387:413  abi.encodePacked(_b1, _b2) */\n      add(0x20, mload(0x40))\n      tag_22\n      swap3\n      swap2\n      swap1\n      tag_20\n      jump\t// in\n    tag_22:\n      mload(0x40)\n      0x20\n      dup2\n      dup4\n      sub\n      sub\n      dup2\n      mstore\n      swap1\n      0x40\n      mstore\n        /* \"merkleTree/Keccak256Demo.sol\":377:414  keccak256(abi.encodePacked(_b1, _b2)) */\n      dup1\n      mload\n      swap1\n      0x20\n      add\n      keccak256\n        /* \"merkleTree/Keccak256Demo.sol\":365:454  _b1 < _b2 ? keccak256(abi.encodePacked(_b1, _b2)) : keccak256(abi.encodePacked(_b2, _b1)) */\n    tag_21:\n        /* \"merkleTree/Keccak256Demo.sol\":358:454  return _b1 < _b2 ? keccak256(abi.encodePacked(_b1, _b2)) : keccak256(abi.encodePacked(_b2, _b1)) */\n      swap1\n      pop\n        /* \"merkleTree/Keccak256Demo.sol\":271:461  function combineHash(bytes32 _b1, bytes32 _b2) external pure returns (bytes32){... */\n      swap3\n      swap2\n      pop\n      pop\n      jump\t// out\n        /* \"merkleTree/Keccak256Demo.sol\":467:859  function _toBytes(address a) internal pure returns (bytes memory b) {... */\n    tag_16:\n        /* \"merkleTree/Keccak256Demo.sol\":519:533  bytes memory b */\n      0x60\n        /* \"merkleTree/Keccak256Demo.sol\":583:587  0x40 */\n      0x40\n        /* \"merkleTree/Keccak256Demo.sol\":577:588  mload(0x40) */\n      mload\n        /* \"merkleTree/Keccak256Demo.sol\":613:655  0xFFFFFFFFFFFFFFFFFFFFFFFFFFFFFFFFFFFFFFFF */\n      0xffffffffffffffffffffffffffffffffffffffff\n        /* \"merkleTree/Keccak256Demo.sol\":610:611  a */\n      dup4\n        /* \"merkleTree/Keccak256Demo.sol\":606:656  and(a, 0xFFFFFFFFFFFFFFFFFFFFFFFFFFFFFFFFFFFFFFFF) */\n      and\n        /* \"merkleTree/Keccak256Demo.sol\":601:656  a := and(a, 0xFFFFFFFFFFFFFFFFFFFFFFFFFFFFFFFFFFFFFFFF) */\n      swap3\n      pop\n        /* \"merkleTree/Keccak256Demo.sol\":771:772  a */\n      dup3\n        /* \"merkleTree/Keccak256Demo.sol\":725:769  0x140000000000000000000000000000000000000000 */\n      0x140000000000000000000000000000000000000000\n        /* \"merkleTree/Keccak256Demo.sol\":721:773  xor(0x140000000000000000000000000000000000000000, a) */\n      xor\n        /* \"merkleTree/Keccak256Demo.sol\":700:702  20 */\n      0x14\n        /* \"merkleTree/Keccak256Demo.sol\":697:698  m */\n      dup3\n        /* \"merkleTree/Keccak256Demo.sol\":693:703  add(m, 20) */\n      add\n        /* \"merkleTree/Keccak256Demo.sol\":669:787  mstore(... */\n      mstore\n        /* \"merkleTree/Keccak256Demo.sol\":820:822  52 */\n      0x34\n        /* \"merkleTree/Keccak256Demo.sol\":817:818  m */\n      dup2\n        /* \"merkleTree/Keccak256Demo.sol\":813:823  add(m, 52) */\n      add\n        /* \"merkleTree/Keccak256Demo.sol\":807:811  0x40 */\n      0x40\n        /* \"merkleTree/Keccak256Demo.sol\":800:824  mstore(0x40, add(m, 52)) */\n      mstore\n        /* \"merkleTree/Keccak256Demo.sol\":842:843  m */\n      dup1\n        /* \"merkleTree/Keccak256Demo.sol\":837:843  b := m */\n      swap2\n      pop\n        /* \"merkleTree/Keccak256Demo.sol\":554:853  {... */\n      pop\n        /* \"merkleTree/Keccak256Demo.sol\":467:859  function _toBytes(address a) internal pure returns (bytes memory b) {... */\n      swap2\n      swap1\n      pop\n      jump\t// out\n        /* \"#utility.yul\":7:146   */\n    tag_25:\n        /* \"#utility.yul\":53:58   */\n      0x00\n        /* \"#utility.yul\":91:97   */\n      dup2\n        /* \"#utility.yul\":78:98   */\n      calldataload\n        /* \"#utility.yul\":69:98   */\n      swap1\n      pop\n        /* \"#utility.yul\":107:140   */\n      tag_27\n        /* \"#utility.yul\":134:139   */\n      dup2\n        /* \"#utility.yul\":107:140   */\n      tag_28\n      jump\t// in\n    tag_27:\n        /* \"#utility.yul\":7:146   */\n      swap3\n      swap2\n      pop\n      pop\n      jump\t// out\n        /* \"#utility.yul\":152:626   */\n    tag_11:\n        /* \"#utility.yul\":220:226   */\n      0x00\n        /* \"#utility.yul\":228:234   */\n      dup1\n        /* \"#utility.yul\":277:279   */\n      0x40\n        /* \"#utility.yul\":265:274   */\n      dup4\n        /* \"#utility.yul\":256:263   */\n      dup6\n        /* \"#utility.yul\":252:275   */\n      sub\n        /* \"#utility.yul\":248:280   */\n      slt\n        /* \"#utility.yul\":245:364   */\n      iszero\n      tag_30\n      jumpi\n        /* \"#utility.yul\":283:362   */\n      tag_31\n      tag_32\n      jump\t// in\n    tag_31:\n        /* \"#utility.yul\":245:364   */\n    tag_30:\n        /* \"#utility.yul\":403:404   */\n      0x00\n        /* \"#utility.yul\":428:481   */\n      tag_33\n        /* \"#utility.yul\":473:480   */\n      dup6\n        /* \"#utility.yul\":464:470   */\n      dup3\n        /* \"#utility.yul\":453:462   */\n      dup7\n        /* \"#utility.yul\":449:471   */\n      add\n        /* \"#utility.yul\":428:481   */\n      tag_25\n      jump\t// in\n    tag_33:\n        /* \"#utility.yul\":418:481   */\n      swap3\n      pop\n        /* \"#utility.yul\":374:491   */\n      pop\n        /* \"#utility.yul\":530:532   */\n      0x20\n        /* \"#utility.yul\":556:609   */\n      tag_34\n        /* \"#utility.yul\":601:608   */\n      dup6\n        /* \"#utility.yul\":592:598   */\n      dup3\n        /* \"#utility.yul\":581:590   */\n      dup7\n        /* \"#utility.yul\":577:599   */\n      add\n        /* \"#utility.yul\":556:609   */\n      tag_25\n      jump\t// in\n    tag_34:\n        /* \"#utility.yul\":546:609   */\n      swap2\n      pop\n        /* \"#utility.yul\":501:619   */\n      pop\n        /* \"#utility.yul\":152:626   */\n      swap3\n      pop\n      swap3\n      swap1\n      pop\n      jump\t// out\n        /* \"#utility.yul\":632:750   */\n    tag_35:\n        /* \"#utility.yul\":719:743   */\n      tag_37\n        /* \"#utility.yul\":737:742   */\n      dup2\n        /* \"#utility.yul\":719:743   */\n      tag_38\n      jump\t// in\n    tag_37:\n        /* \"#utility.yul\":714:717   */\n      dup3\n        /* \"#utility.yul\":707:744   */\n      mstore\n        /* \"#utility.yul\":632:750   */\n      pop\n      pop\n      jump\t// out\n        /* \"#utility.yul\":756:913   */\n    tag_39:\n        /* \"#utility.yul\":861:906   */\n      tag_41\n        /* \"#utility.yul\":881:905   */\n      tag_42\n        /* \"#utility.yul\":899:904   */\n      dup3\n        /* \"#utility.yul\":881:905   */\n      tag_38\n      jump\t// in\n    tag_42:\n        /* \"#utility.yul\":861:906   */\n      tag_43\n      jump\t// in\n    tag_41:\n        /* \"#utility.yul\":856:859   */\n      dup3\n        /* \"#utility.yul\":849:907   */\n      mstore\n        /* \"#utility.yul\":756:913   */\n      pop\n      pop\n      jump\t// out\n        /* \"#utility.yul\":919:1316   */\n    tag_20:\n        /* \"#utility.yul\":1059:1062   */\n      0x00\n        /* \"#utility.yul\":1074:1149   */\n      tag_45\n        /* \"#utility.yul\":1145:1148   */\n      dup3\n        /* \"#utility.yul\":1136:1142   */\n      dup6\n        /* \"#utility.yul\":1074:1149   */\n      tag_39\n      jump\t// in\n    tag_45:\n        /* \"#utility.yul\":1174:1176   */\n      0x20\n        /* \"#utility.yul\":1169:1172   */\n      dup3\n        /* \"#utility.yul\":1165:1177   */\n      add\n        /* \"#utility.yul\":1158:1177   */\n      swap2\n      pop\n        /* \"#utility.yul\":1187:1262   */\n      tag_46\n        /* \"#utility.yul\":1258:1261   */\n      dup3\n        /* \"#utility.yul\":1249:1255   */\n      dup5\n        /* \"#utility.yul\":1187:1262   */\n      tag_39\n      jump\t// in\n    tag_46:\n        /* \"#utility.yul\":1287:1289   */\n      0x20\n        /* \"#utility.yul\":1282:1285   */\n      dup3\n        /* \"#utility.yul\":1278:1290   */\n      add\n        /* \"#utility.yul\":1271:1290   */\n      swap2\n      pop\n        /* \"#utility.yul\":1307:1310   */\n      dup2\n        /* \"#utility.yul\":1300:1310   */\n      swap1\n      pop\n        /* \"#utility.yul\":919:1316   */\n      swap4\n      swap3\n      pop\n      pop\n      pop\n      jump\t// out\n        /* \"#utility.yul\":1322:1544   */\n    tag_8:\n        /* \"#utility.yul\":1415:1419   */\n      0x00\n        /* \"#utility.yul\":1453:1455   */\n      0x20\n        /* \"#utility.yul\":1442:1451   */\n      dup3\n        /* \"#utility.yul\":1438:1456   */\n      add\n        /* \"#utility.yul\":1430:1456   */\n      swap1\n      pop\n        /* \"#utility.yul\":1466:1537   */\n      tag_48\n        /* \"#utility.yul\":1534:1535   */\n      0x00\n        /* \"#utility.yul\":1523:1532   */\n      dup4\n        /* \"#utility.yul\":1519:1536   */\n      add\n        /* \"#utility.yul\":1510:1516   */\n      dup5\n        /* \"#utility.yul\":1466:1537   */\n      tag_35\n      jump\t// in\n    tag_48:\n        /* \"#utility.yul\":1322:1544   */\n      swap3\n      swap2\n      pop\n      pop\n      jump\t// out\n        /* \"#utility.yul\":1631:1708   */\n    tag_38:\n        /* \"#utility.yul\":1668:1675   */\n      0x00\n        /* \"#utility.yul\":1697:1702   */\n      dup2\n        /* \"#utility.yul\":1686:1702   */\n      swap1\n      pop\n        /* \"#utility.yul\":1631:1708   */\n      swap2\n      swap1\n      pop\n      jump\t// out\n        /* \"#utility.yul\":1714:1793   */\n    tag_43:\n        /* \"#utility.yul\":1753:1760   */\n      0x00\n        /* \"#utility.yul\":1782:1787   */\n      dup2\n        /* \"#utility.yul\":1771:1787   */\n      swap1\n      pop\n        /* \"#utility.yul\":1714:1793   */\n      swap2\n      swap1\n      pop\n      jump\t// out\n        /* \"#utility.yul\":1922:2039   */\n    tag_32:\n        /* \"#utility.yul\":2031:2032   */\n      0x00\n        /* \"#utility.yul\":2028:2029   */\n      dup1\n        /* \"#utility.yul\":2021:2033   */\n      revert\n        /* \"#utility.yul\":2045:2167   */\n    tag_28:\n        /* \"#utility.yul\":2118:2142   */\n      tag_57\n        /* \"#utility.yul\":2136:2141   */\n      dup2\n        /* \"#utility.yul\":2118:2142   */\n      tag_38\n      jump\t// in\n    tag_57:\n        /* \"#utility.yul\":2111:2116   */\n      dup2\n        /* \"#utility.yul\":2108:2143   */\n      eq\n        /* \"#utility.yul\":2098:2161   */\n      tag_58\n      jumpi\n        /* \"#utility.yul\":2157:2158   */\n      0x00\n        /* \"#utility.yul\":2154:2155   */\n      dup1\n        /* \"#utility.yul\":2147:2159   */\n      revert\n        /* \"#utility.yul\":2098:2161   */\n    tag_58:\n        /* \"#utility.yul\":2045:2167   */\n      pop\n      jump\t// out\n\n    auxdata: 0xa26469706673582212205ebbded79c86f8424a2c20a290a13d73bb68ef02467a5e4b1262a9f3ade67f4864736f6c63430008070033\n}\n",
				"bytecode": {
					"linkReferences": {},
					"object": "608060405234801561001057600080fd5b50610281806100206000396000f3fe608060405234801561001057600080fd5b50600436106100365760003560e01c8063209cbb941461003b578063e393757914610059575b600080fd5b610043610089565b6040516100509190610200565b60405180910390f35b610073600480360381019061006e919061016e565b6100a5565b6040516100809190610200565b60405180910390f35b6000803390506100988161010e565b8051906020012091505090565b60008183106100dc5781836040516020016100c19291906101d4565b60405160208183030381529060405280519060200120610106565b82826040516020016100ef9291906101d4565b604051602081830303815290604052805190602001205b905092915050565b606060405173ffffffffffffffffffffffffffffffffffffffff8316925082741400000000000000000000000000000000000000001860148201526034810160405280915050919050565b60008135905061016881610234565b92915050565b600080604083850312156101855761018461022f565b5b600061019385828601610159565b92505060206101a485828601610159565b9150509250929050565b6101b78161021b565b82525050565b6101ce6101c98261021b565b610225565b82525050565b60006101e082856101bd565b6020820191506101f082846101bd565b6020820191508190509392505050565b600060208201905061021560008301846101ae565b92915050565b6000819050919050565b6000819050919050565b600080fd5b61023d8161021b565b811461024857600080fd5b5056fea26469706673582212205ebbded79c86f8424a2c20a290a13d73bb68ef02467a5e4b1262a9f3ade67f4864736f6c63430008070033",
					"opcodes": "PUSH1 0x80 PUSH1 0x40 MSTORE CALLVALUE DUP1 ISZERO PUSH2 0x10 JUMPI PUSH1 0x0 DUP1 REVERT JUMPDEST POP PUSH2 0x281 DUP1 PUSH2 0x20 PUSH1 0x0 CODECOPY PUSH1 0x0 RETURN INVALID PUSH1 0x80 PUSH1 0x40 MSTORE CALLVALUE DUP1 ISZERO PUSH2 0x10 JUMPI PUSH1 0x0 DUP1 REVERT JUMPDEST POP PUSH1 0x4 CALLDATASIZE LT PUSH2 0x36 JUMPI PUSH1 0x0 CALLDATALOAD PUSH1 0xE0 SHR DUP1 PUSH4 0x209CBB94 EQ PUSH2 0x3B JUMPI DUP1 PUSH4 0xE3937579 EQ PUSH2 0x59 JUMPI JUMPDEST PUSH1 0x0 DUP1 REVERT JUMPDEST PUSH2 0x43 PUSH2 0x89 JUMP JUMPDEST PUSH1 0x40 MLOAD PUSH2 0x50 SWAP2 SWAP1 PUSH2 0x200 JUMP JUMPDEST PUSH1 0x40 MLOAD DUP1 SWAP2 SUB SWAP1 RETURN JUMPDEST PUSH2 0x73 PUSH1 0x4 DUP1 CALLDATASIZE SUB DUP2 ADD SWAP1 PUSH2 0x6E SWAP2 SWAP1 PUSH2 0x16E JUMP JUMPDEST PUSH2 0xA5 JUMP JUMPDEST PUSH1 0x40 MLOAD PUSH2 0x80 SWAP2 SWAP1 PUSH2 0x200 JUMP JUMPDEST PUSH1 0x40 MLOAD DUP1 SWAP2 SUB SWAP1 RETURN JUMPDEST PUSH1 0x0 DUP1 CALLER SWAP1 POP PUSH2 0x98 DUP2 PUSH2 0x10E JUMP JUMPDEST DUP1 MLOAD SWAP1 PUSH1 0x20 ADD KECCAK256 SWAP2 POP POP SWAP1 JUMP JUMPDEST PUSH1 0x0 DUP2 DUP4 LT PUSH2 0xDC JUMPI DUP2 DUP4 PUSH1 0x40 MLOAD PUSH1 0x20 ADD PUSH2 0xC1 SWAP3 SWAP2 SWAP1 PUSH2 0x1D4 JUMP JUMPDEST PUSH1 0x40 MLOAD PUSH1 0x20 DUP2 DUP4 SUB SUB DUP2 MSTORE SWAP1 PUSH1 0x40 MSTORE DUP1 MLOAD SWAP1 PUSH1 0x20 ADD KECCAK256 PUSH2 0x106 JUMP JUMPDEST DUP3 DUP3 PUSH1 0x40 MLOAD PUSH1 0x20 ADD PUSH2 0xEF SWAP3 SWAP2 SWAP1 PUSH2 0x1D4 JUMP JUMPDEST PUSH1 0x40 MLOAD PUSH1 0x20 DUP2 DUP4 SUB SUB DUP2 MSTORE SWAP1 PUSH1 0x40 MSTORE DUP1 MLOAD SWAP1 PUSH1 0x20 ADD KECCAK256 JUMPDEST SWAP1 POP SWAP3 SWAP2 POP POP JUMP JUMPDEST PUSH1 0x60 PUSH1 0x40 MLOAD PUSH20 0xFFFFFFFFFFFFFFFFFFFFFFFFFFFFFFFFFFFFFFFF DUP4 AND SWAP3 POP DUP3 PUSH21 0x140000000000000000000000000000000000000000 XOR PUSH1 0x14 DUP3 ADD MSTORE PUSH1 0x34 DUP2 ADD PUSH1 0x40 MSTORE DUP1 SWAP2 POP POP SWAP2 SWAP1 POP JUMP JUMPDEST PUSH1 0x0 DUP2 CALLDATALOAD SWAP1 POP PUSH2 0x168 DUP2 PUSH2 0x234 JUMP JUMPDEST SWAP3 SWAP2 POP POP JUMP JUMPDEST PUSH1 0x0 DUP1 PUSH1 0x40 DUP4 DUP6 SUB SLT ISZERO PUSH2 0x185 JUMPI PUSH2 0x184 PUSH2 0x22F JUMP JUMPDEST JUMPDEST PUSH1 0x0 PUSH2 0x193 DUP6 DUP3 DUP7 ADD PUSH2 0x159 JUMP JUMPDEST SWAP3 POP POP PUSH1 0x20 PUSH2 0x1A4 DUP6 DUP3 DUP7 ADD PUSH2 0x159 JUMP JUMPDEST SWAP2 POP POP SWAP3 POP SWAP3 SWAP1 POP JUMP JUMPDEST PUSH2 0x1B7 DUP2 PUSH2 0x21B JUMP JUMPDEST DUP3 MSTORE POP POP JUMP JUMPDEST PUSH2 0x1CE PUSH2 0x1C9 DUP3 PUSH2 0x21B JUMP JUMPDEST PUSH2 0x225 JUMP JUMPDEST DUP3 MSTORE POP POP JUMP JUMPDEST PUSH1 0x0 PUSH2 0x1E0 DUP3 DUP6 PUSH2 0x1BD JUMP JUMPDEST PUSH1 0x20 DUP3 ADD SWAP2 POP PUSH2 0x1F0 DUP3 DUP5 PUSH2 0x1BD JUMP JUMPDEST PUSH1 0x20 DUP3 ADD SWAP2 POP DUP2 SWAP1 POP SWAP4 SWAP3 POP POP POP JUMP JUMPDEST PUSH1 0x0 PUSH1 0x20 DUP3 ADD SWAP1 POP PUSH2 0x215 PUSH1 0x0 DUP4 ADD DUP5 PUSH2 0x1AE JUMP JUMPDEST SWAP3 SWAP2 POP POP JUMP JUMPDEST PUSH1 0x0 DUP2 SWAP1 POP SWAP2 SWAP1 POP JUMP JUMPDEST PUSH1 0x0 DUP2 SWAP1 POP SWAP2 SWAP1 POP JUMP JUMPDEST PUSH1 0x0 DUP1 REVERT JUMPDEST PUSH2 0x23D DUP2 PUSH2 0x21B JUMP JUMPDEST DUP2 EQ PUSH2 0x248 JUMPI PUSH1 0x0 DUP1 REVERT JUMPDEST POP JUMP INVALID LOG2 PUSH5 0x6970667358 0x22 SLT KECCAK256 0x5E 0xBB 0xDE 0xD7 SWAP13 DUP7 0xF8 TIMESTAMP 0x4A 0x2C KECCAK256 LOG2 SWAP1 LOG1 RETURNDATASIZE PUSH20 0xBB68EF02467A5E4B1262A9F3ADE67F4864736F6C PUSH4 0x43000807 STOP CALLER "
				},
				"gasEstimates": {
					"creation": {
						"codeDepositCost": "128200",
						"executionCost": "177",
						"totalCost": "128377"
					},
					"external": {
						"combineHash(bytes32,bytes32)": "infinite",
						"singleHash()": "infinite"
					},
					"internal": {
						"_toBytes(address)": "infinite"
					}
				},
				"methodIdentifiers": {
					"combineHash(bytes32,bytes32)": "e3937579",
					"singleHash()": "209cbb94"
				}
			},
			"storageLayout": {
				"storage": [],
				"types": null
			},
			"userdoc": {
				"kind": "user",
				"methods": {},
				"version": 1
			}
		}
	}
}