{
	"LinearRelease.sol": {
		"LinearRelease": {
			"abi": [
				{
					"inputs": [
						{
							"internalType": "address[]",
							"name": "_beneficiarys",
							"type": "address[]"
						},
						{
							"internalType": "uint256[]",
							"name": "_personShares",
							"type": "uint256[]"
						},
						{
							"internalType": "uint256[]",
							"name": "_startTime",
							"type": "uint256[]"
						},
						{
							"internalType": "uint256[]",
							"name": "_durationTime",
							"type": "uint256[]"
						}
					],
					"stateMutability": "payable",
					"type": "constructor"
				},
				{
					"anonymous": false,
					"inputs": [
						{
							"indexed": true,
							"internalType": "address",
							"name": "beneficiary",
							"type": "address"
						},
						{
							"indexed": false,
							"internalType": "uint256",
							"name": "shares",
							"type": "uint256"
						}
					],
					"name": "AddBeneficiary",
					"type": "event"
				},
				{
					"anonymous": false,
					"inputs": [
						{
							"indexed": true,
							"internalType": "address",
							"name": "from",
							"type": "address"
						},
						{
							"indexed": true,
							"internalType": "uint256",
							"name": "amount",
							"type": "uint256"
						}
					],
					"name": "ReceiveShares",
					"type": "event"
				},
				{
					"anonymous": false,
					"inputs": [
						{
							"indexed": true,
							"internalType": "address",
							"name": "account",
							"type": "address"
						},
						{
							"indexed": false,
							"internalType": "uint256",
							"name": "amount",
							"type": "uint256"
						}
					],
					"name": "TokenRelease",
					"type": "event"
				},
				{
					"anonymous": false,
					"inputs": [
						{
							"indexed": true,
							"internalType": "address",
							"name": "beneficiary",
							"type": "address"
						},
						{
							"indexed": false,
							"internalType": "uint256",
							"name": "amount",
							"type": "uint256"
						}
					],
					"name": "WithdrawShares",
					"type": "event"
				},
				{
					"inputs": [
						{
							"internalType": "address",
							"name": "_account",
							"type": "address"
						}
					],
					"name": "paymentShare",
					"outputs": [
						{
							"internalType": "uint256",
							"name": "",
							"type": "uint256"
						}
					],
					"stateMutability": "view",
					"type": "function"
				},
				{
					"inputs": [
						{
							"internalType": "address",
							"name": "_account",
							"type": "address"
						}
					],
					"name": "releaseableShare",
					"outputs": [
						{
							"internalType": "uint256",
							"name": "",
							"type": "uint256"
						}
					],
					"stateMutability": "view",
					"type": "function"
				},
				{
					"inputs": [
						{
							"internalType": "address payable",
							"name": "_account",
							"type": "address"
						}
					],
					"name": "withdrawShare",
					"outputs": [],
					"stateMutability": "nonpayable",
					"type": "function"
				},
				{
					"stateMutability": "payable",
					"type": "receive"
				}
			],
			"devdoc": {
				"kind": "dev",
				"methods": {},
				"version": 1
			},
			"evm": {
				"assembly": "    /* \"LinearRelease.sol\":145:4605  contract LinearRelease {... */\n  mstore(0x40, 0x80)\n    /* \"LinearRelease.sol\":1601:2363  constructor(address[] memory _beneficiarys, uint256[] memory _personShares, uint256[] memory _startTime, uint256[] memory _durationTime) payable{... */\n  mload(0x40)\n  sub(codesize, bytecodeSize)\n  dup1\n  bytecodeSize\n  dup4\n  codecopy\n  dup2\n  dup2\n  add\n  0x40\n  mstore\n  dup2\n  add\n  swap1\n  tag_1\n  swap2\n  swap1\n  tag_2\n  jump\t// in\ntag_1:\n    /* \"LinearRelease.sol\":1786:1787  0 */\n  0x00\n    /* \"LinearRelease.sol\":1763:1776  _beneficiarys */\n  dup5\n    /* \"LinearRelease.sol\":1763:1783  _beneficiarys.length */\n  mload\n    /* \"LinearRelease.sol\":1763:1787  _beneficiarys.length > 0 */\n  gt\n    /* \"LinearRelease.sol\":1755:1788  require(_beneficiarys.length > 0) */\n  tag_5\n  jumpi\n  0x00\n  dup1\n  revert\ntag_5:\n    /* \"LinearRelease.sol\":1830:1843  _personShares */\n  dup3\n    /* \"LinearRelease.sol\":1830:1850  _personShares.length */\n  mload\n    /* \"LinearRelease.sol\":1806:1819  _beneficiarys */\n  dup5\n    /* \"LinearRelease.sol\":1806:1826  _beneficiarys.length */\n  mload\n    /* \"LinearRelease.sol\":1806:1850  _beneficiarys.length == _personShares.length */\n  eq\n    /* \"LinearRelease.sol\":1798:1885  require(_beneficiarys.length == _personShares.length, \"beneficiary and share dismatch\") */\n  tag_6\n  jumpi\n  mload(0x40)\n  0x08c379a000000000000000000000000000000000000000000000000000000000\n  dup2\n  mstore\n  0x04\n  add\n  tag_7\n  swap1\n  tag_8\n  jump\t// in\ntag_7:\n  mload(0x40)\n  dup1\n  swap2\n  sub\n  swap1\n  revert\ntag_6:\n    /* \"LinearRelease.sol\":1927:1937  _startTime */\n  dup2\n    /* \"LinearRelease.sol\":1927:1944  _startTime.length */\n  mload\n    /* \"LinearRelease.sol\":1903:1916  _beneficiarys */\n  dup5\n    /* \"LinearRelease.sol\":1903:1923  _beneficiarys.length */\n  mload\n    /* \"LinearRelease.sol\":1903:1944  _beneficiarys.length == _startTime.length */\n  eq\n    /* \"LinearRelease.sol\":1895:1966  require(_beneficiarys.length == _startTime.length, \"argument mismatch\") */\n  tag_9\n  jumpi\n  mload(0x40)\n  0x08c379a000000000000000000000000000000000000000000000000000000000\n  dup2\n  mstore\n  0x04\n  add\n  tag_10\n  swap1\n  tag_11\n  jump\t// in\ntag_10:\n  mload(0x40)\n  dup1\n  swap2\n  sub\n  swap1\n  revert\ntag_9:\n    /* \"LinearRelease.sol\":2008:2021  _durationTime */\n  dup1\n    /* \"LinearRelease.sol\":2008:2028  _durationTime.length */\n  mload\n    /* \"LinearRelease.sol\":1984:1997  _beneficiarys */\n  dup5\n    /* \"LinearRelease.sol\":1984:2004  _beneficiarys.length */\n  mload\n    /* \"LinearRelease.sol\":1984:2028  _beneficiarys.length == _durationTime.length */\n  eq\n    /* \"LinearRelease.sol\":1976:2050  require(_beneficiarys.length == _durationTime.length, \"argument mismatch\") */\n  tag_12\n  jumpi\n  mload(0x40)\n  0x08c379a000000000000000000000000000000000000000000000000000000000\n  dup2\n  mstore\n  0x04\n  add\n  tag_13\n  swap1\n  tag_11\n  jump\t// in\ntag_13:\n  mload(0x40)\n  dup1\n  swap2\n  sub\n  swap1\n  revert\ntag_12:\n    /* \"LinearRelease.sol\":2065:2071  uint i */\n  0x00\n    /* \"LinearRelease.sol\":2060:2357  for (uint i = 0; i < _beneficiarys.length; i++) {... */\ntag_14:\n    /* \"LinearRelease.sol\":2081:2094  _beneficiarys */\n  dup5\n    /* \"LinearRelease.sol\":2081:2101  _beneficiarys.length */\n  mload\n    /* \"LinearRelease.sol\":2077:2078  i */\n  dup2\n    /* \"LinearRelease.sol\":2077:2101  i < _beneficiarys.length */\n  lt\n    /* \"LinearRelease.sol\":2060:2357  for (uint i = 0; i < _beneficiarys.length; i++) {... */\n  iszero\n  tag_15\n  jumpi\n    /* \"LinearRelease.sol\":2122:2167  _allocate(_beneficiarys[i], _personShares[i]) */\n  tag_17\n    /* \"LinearRelease.sol\":2132:2145  _beneficiarys */\n  dup6\n    /* \"LinearRelease.sol\":2146:2147  i */\n  dup3\n    /* \"LinearRelease.sol\":2132:2148  _beneficiarys[i] */\n  dup2\n  mload\n  dup2\n  lt\n  tag_18\n  jumpi\n  tag_19\n  tag_20\n  jump\t// in\ntag_19:\ntag_18:\n  0x20\n  mul\n  0x20\n  add\n  add\n  mload\n    /* \"LinearRelease.sol\":2150:2163  _personShares */\n  dup6\n    /* \"LinearRelease.sol\":2164:2165  i */\n  dup4\n    /* \"LinearRelease.sol\":2150:2166  _personShares[i] */\n  dup2\n  mload\n  dup2\n  lt\n  tag_21\n  jumpi\n  tag_22\n  tag_20\n  jump\t// in\ntag_22:\ntag_21:\n  0x20\n  mul\n  0x20\n  add\n  add\n  mload\n    /* \"LinearRelease.sol\":2122:2131  _allocate */\n  shl(0x20, tag_23)\n    /* \"LinearRelease.sol\":2122:2167  _allocate(_beneficiarys[i], _personShares[i]) */\n  0x20\n  shr\n  jump\t// in\ntag_17:\n    /* \"LinearRelease.sol\":2260:2270  _startTime */\n  dup3\n    /* \"LinearRelease.sol\":2271:2272  i */\n  dup2\n    /* \"LinearRelease.sol\":2260:2273  _startTime[i] */\n  dup2\n  mload\n  dup2\n  lt\n  tag_24\n  jumpi\n  tag_25\n  tag_20\n  jump\t// in\ntag_25:\ntag_24:\n  0x20\n  mul\n  0x20\n  add\n  add\n  mload\n    /* \"LinearRelease.sol\":2220:2239  accountStartMapping */\n  0x05\n    /* \"LinearRelease.sol\":2220:2257  accountStartMapping[_beneficiarys[i]] */\n  0x00\n    /* \"LinearRelease.sol\":2240:2253  _beneficiarys */\n  dup8\n    /* \"LinearRelease.sol\":2254:2255  i */\n  dup5\n    /* \"LinearRelease.sol\":2240:2256  _beneficiarys[i] */\n  dup2\n  mload\n  dup2\n  lt\n  tag_26\n  jumpi\n  tag_27\n  tag_20\n  jump\t// in\ntag_27:\ntag_26:\n  0x20\n  mul\n  0x20\n  add\n  add\n  mload\n    /* \"LinearRelease.sol\":2220:2257  accountStartMapping[_beneficiarys[i]] */\n  0xffffffffffffffffffffffffffffffffffffffff\n  and\n  0xffffffffffffffffffffffffffffffffffffffff\n  and\n  dup2\n  mstore\n  0x20\n  add\n  swap1\n  dup2\n  mstore\n  0x20\n  add\n  0x00\n  keccak256\n    /* \"LinearRelease.sol\":2220:2273  accountStartMapping[_beneficiarys[i]] = _startTime[i] */\n  dup2\n  swap1\n  sstore\n  pop\n    /* \"LinearRelease.sol\":2330:2343  _durationTime */\n  dup2\n    /* \"LinearRelease.sol\":2344:2345  i */\n  dup2\n    /* \"LinearRelease.sol\":2330:2346  _durationTime[i] */\n  dup2\n  mload\n  dup2\n  lt\n  tag_28\n  jumpi\n  tag_29\n  tag_20\n  jump\t// in\ntag_29:\ntag_28:\n  0x20\n  mul\n  0x20\n  add\n  add\n  mload\n    /* \"LinearRelease.sol\":2287:2309  accountDurationMapping */\n  0x06\n    /* \"LinearRelease.sol\":2287:2327  accountDurationMapping[_beneficiarys[i]] */\n  0x00\n    /* \"LinearRelease.sol\":2310:2323  _beneficiarys */\n  dup8\n    /* \"LinearRelease.sol\":2324:2325  i */\n  dup5\n    /* \"LinearRelease.sol\":2310:2326  _beneficiarys[i] */\n  dup2\n  mload\n  dup2\n  lt\n  tag_30\n  jumpi\n  tag_31\n  tag_20\n  jump\t// in\ntag_31:\ntag_30:\n  0x20\n  mul\n  0x20\n  add\n  add\n  mload\n    /* \"LinearRelease.sol\":2287:2327  accountDurationMapping[_beneficiarys[i]] */\n  0xffffffffffffffffffffffffffffffffffffffff\n  and\n  0xffffffffffffffffffffffffffffffffffffffff\n  and\n  dup2\n  mstore\n  0x20\n  add\n  swap1\n  dup2\n  mstore\n  0x20\n  add\n  0x00\n  keccak256\n    /* \"LinearRelease.sol\":2287:2346  accountDurationMapping[_beneficiarys[i]] = _durationTime[i] */\n  dup2\n  swap1\n  sstore\n  pop\n    /* \"LinearRelease.sol\":2103:2106  i++ */\n  dup1\n  dup1\n  tag_32\n  swap1\n  tag_33\n  jump\t// in\ntag_32:\n  swap2\n  pop\n  pop\n    /* \"LinearRelease.sol\":2060:2357  for (uint i = 0; i < _beneficiarys.length; i++) {... */\n  jump(tag_14)\ntag_15:\n  pop\n    /* \"LinearRelease.sol\":1601:2363  constructor(address[] memory _beneficiarys, uint256[] memory _personShares, uint256[] memory _startTime, uint256[] memory _durationTime) payable{... */\n  pop\n  pop\n  pop\n  pop\n    /* \"LinearRelease.sol\":145:4605  contract LinearRelease {... */\n  jump(tag_34)\n    /* \"LinearRelease.sol\":2369:2823  function _allocate(address _account, uint _accountShare) private{... */\ntag_23:\n    /* \"LinearRelease.sol\":2471:2472  0 */\n  0x00\n    /* \"LinearRelease.sol\":2451:2473  _account != address(0) */\n  0xffffffffffffffffffffffffffffffffffffffff\n  and\n    /* \"LinearRelease.sol\":2451:2459  _account */\n  dup3\n    /* \"LinearRelease.sol\":2451:2473  _account != address(0) */\n  0xffffffffffffffffffffffffffffffffffffffff\n  and\n  eq\n  iszero\n    /* \"LinearRelease.sol\":2443:2509  require(_account != address(0), \"address can not be zero address\") */\n  tag_36\n  jumpi\n  mload(0x40)\n  0x08c379a000000000000000000000000000000000000000000000000000000000\n  dup2\n  mstore\n  0x04\n  add\n  tag_37\n  swap1\n  tag_38\n  jump\t// in\ntag_37:\n  mload(0x40)\n  dup1\n  swap2\n  sub\n  swap1\n  revert\ntag_36:\n    /* \"LinearRelease.sol\":2543:2544  0 */\n  0x00\n    /* \"LinearRelease.sol\":2527:2540  _accountShare */\n  dup2\n    /* \"LinearRelease.sol\":2527:2544  _accountShare > 0 */\n  gt\n    /* \"LinearRelease.sol\":2519:2567  require(_accountShare > 0, \"share can not be 0\") */\n  tag_39\n  jumpi\n  mload(0x40)\n  0x08c379a000000000000000000000000000000000000000000000000000000000\n  dup2\n  mstore\n  0x04\n  add\n  tag_40\n  swap1\n  tag_41\n  jump\t// in\ntag_40:\n  mload(0x40)\n  dup1\n  swap2\n  sub\n  swap1\n  revert\ntag_39:\n    /* \"LinearRelease.sol\":2611:2612  0 */\n  0x00\n    /* \"LinearRelease.sol\":2585:2597  personShares */\n  0x02\n    /* \"LinearRelease.sol\":2585:2607  personShares[_account] */\n  0x00\n    /* \"LinearRelease.sol\":2598:2606  _account */\n  dup5\n    /* \"LinearRelease.sol\":2585:2607  personShares[_account] */\n  0xffffffffffffffffffffffffffffffffffffffff\n  and\n  0xffffffffffffffffffffffffffffffffffffffff\n  and\n  dup2\n  mstore\n  0x20\n  add\n  swap1\n  dup2\n  mstore\n  0x20\n  add\n  0x00\n  keccak256\n  sload\n    /* \"LinearRelease.sol\":2585:2612  personShares[_account] == 0 */\n  eq\n    /* \"LinearRelease.sol\":2577:2639  require(personShares[_account] == 0, \"account already exists\") */\n  tag_42\n  jumpi\n  mload(0x40)\n  0x08c379a000000000000000000000000000000000000000000000000000000000\n  dup2\n  mstore\n  0x04\n  add\n  tag_43\n  swap1\n  tag_44\n  jump\t// in\ntag_43:\n  mload(0x40)\n  dup1\n  swap2\n  sub\n  swap1\n  revert\ntag_42:\n    /* \"LinearRelease.sol\":2649:2661  beneficiarys */\n  0x04\n    /* \"LinearRelease.sol\":2667:2675  _account */\n  dup3\n    /* \"LinearRelease.sol\":2649:2676  beneficiarys.push(_account) */\n  swap1\n  dup1\n  0x01\n  dup2\n  sload\n  add\n  dup1\n  dup3\n  sstore\n  dup1\n  swap2\n  pop\n  pop\n  0x01\n  swap1\n  sub\n  swap1\n  0x00\n  mstore\n  keccak256(0x00, 0x20)\n  add\n  0x00\n  swap1\n  swap2\n  swap1\n  swap2\n  swap1\n  swap2\n  0x0100\n  exp\n  dup2\n  sload\n  dup2\n  0xffffffffffffffffffffffffffffffffffffffff\n  mul\n  not\n  and\n  swap1\n  dup4\n  0xffffffffffffffffffffffffffffffffffffffff\n  and\n  mul\n  or\n  swap1\n  sstore\n  pop\n    /* \"LinearRelease.sol\":2711:2724  _accountShare */\n  dup1\n    /* \"LinearRelease.sol\":2686:2698  personShares */\n  0x02\n    /* \"LinearRelease.sol\":2686:2708  personShares[_account] */\n  0x00\n    /* \"LinearRelease.sol\":2699:2707  _account */\n  dup5\n    /* \"LinearRelease.sol\":2686:2708  personShares[_account] */\n  0xffffffffffffffffffffffffffffffffffffffff\n  and\n  0xffffffffffffffffffffffffffffffffffffffff\n  and\n  dup2\n  mstore\n  0x20\n  add\n  swap1\n  dup2\n  mstore\n  0x20\n  add\n  0x00\n  keccak256\n    /* \"LinearRelease.sol\":2686:2724  personShares[_account] = _accountShare */\n  dup2\n  swap1\n  sstore\n  pop\n    /* \"LinearRelease.sol\":2749:2762  _accountShare */\n  dup1\n    /* \"LinearRelease.sol\":2734:2745  totalShares */\n  0x00\n  dup1\n    /* \"LinearRelease.sol\":2734:2762  totalShares += _accountShare */\n  dup3\n  dup3\n  sload\n  tag_46\n  swap2\n  swap1\n  tag_47\n  jump\t// in\ntag_46:\n  swap3\n  pop\n  pop\n  dup2\n  swap1\n  sstore\n  pop\n    /* \"LinearRelease.sol\":2792:2800  _account */\n  dup2\n    /* \"LinearRelease.sol\":2777:2816  AddBeneficiary(_account, _accountShare) */\n  0xffffffffffffffffffffffffffffffffffffffff\n  and\n  0x2cff1fbd97349296439d092211657ee417f89f6189b60a2ec990d7384c3bb82c\n    /* \"LinearRelease.sol\":2802:2815  _accountShare */\n  dup3\n    /* \"LinearRelease.sol\":2777:2816  AddBeneficiary(_account, _accountShare) */\n  mload(0x40)\n  tag_48\n  swap2\n  swap1\n  tag_49\n  jump\t// in\ntag_48:\n  mload(0x40)\n  dup1\n  swap2\n  sub\n  swap1\n  log2\n    /* \"LinearRelease.sol\":2369:2823  function _allocate(address _account, uint _accountShare) private{... */\n  pop\n  pop\n  jump\t// out\n    /* \"#utility.yul\":24:768   */\ntag_51:\n    /* \"#utility.yul\":131:136   */\n  0x00\n    /* \"#utility.yul\":156:237   */\n  tag_53\n    /* \"#utility.yul\":172:236   */\n  tag_54\n    /* \"#utility.yul\":229:235   */\n  dup5\n    /* \"#utility.yul\":172:236   */\n  tag_55\n  jump\t// in\ntag_54:\n    /* \"#utility.yul\":156:237   */\n  tag_56\n  jump\t// in\ntag_53:\n    /* \"#utility.yul\":147:237   */\n  swap1\n  pop\n    /* \"#utility.yul\":257:262   */\n  dup1\n    /* \"#utility.yul\":286:292   */\n  dup4\n    /* \"#utility.yul\":279:284   */\n  dup3\n    /* \"#utility.yul\":272:293   */\n  mstore\n    /* \"#utility.yul\":320:324   */\n  0x20\n    /* \"#utility.yul\":313:318   */\n  dup3\n    /* \"#utility.yul\":309:325   */\n  add\n    /* \"#utility.yul\":302:325   */\n  swap1\n  pop\n    /* \"#utility.yul\":346:352   */\n  dup3\n    /* \"#utility.yul\":396:399   */\n  dup6\n    /* \"#utility.yul\":388:392   */\n  0x20\n    /* \"#utility.yul\":380:386   */\n  dup7\n    /* \"#utility.yul\":376:393   */\n  mul\n    /* \"#utility.yul\":371:374   */\n  dup3\n    /* \"#utility.yul\":367:394   */\n  add\n    /* \"#utility.yul\":364:400   */\n  gt\n    /* \"#utility.yul\":361:504   */\n  iszero\n  tag_57\n  jumpi\n    /* \"#utility.yul\":415:494   */\n  tag_58\n  tag_59\n  jump\t// in\ntag_58:\n    /* \"#utility.yul\":361:504   */\ntag_57:\n    /* \"#utility.yul\":528:529   */\n  0x00\n    /* \"#utility.yul\":513:762   */\ntag_60:\n    /* \"#utility.yul\":538:544   */\n  dup6\n    /* \"#utility.yul\":535:536   */\n  dup2\n    /* \"#utility.yul\":532:545   */\n  lt\n    /* \"#utility.yul\":513:762   */\n  iszero\n  tag_62\n  jumpi\n    /* \"#utility.yul\":606:609   */\n  dup2\n    /* \"#utility.yul\":635:683   */\n  tag_63\n    /* \"#utility.yul\":679:682   */\n  dup9\n    /* \"#utility.yul\":667:677   */\n  dup3\n    /* \"#utility.yul\":635:683   */\n  tag_64\n  jump\t// in\ntag_63:\n    /* \"#utility.yul\":630:633   */\n  dup5\n    /* \"#utility.yul\":623:684   */\n  mstore\n    /* \"#utility.yul\":713:717   */\n  0x20\n    /* \"#utility.yul\":708:711   */\n  dup5\n    /* \"#utility.yul\":704:718   */\n  add\n    /* \"#utility.yul\":697:718   */\n  swap4\n  pop\n    /* \"#utility.yul\":747:751   */\n  0x20\n    /* \"#utility.yul\":742:745   */\n  dup4\n    /* \"#utility.yul\":738:752   */\n  add\n    /* \"#utility.yul\":731:752   */\n  swap3\n  pop\n    /* \"#utility.yul\":573:762   */\n  pop\n    /* \"#utility.yul\":560:561   */\n  0x01\n    /* \"#utility.yul\":557:558   */\n  dup2\n    /* \"#utility.yul\":553:562   */\n  add\n    /* \"#utility.yul\":548:562   */\n  swap1\n  pop\n    /* \"#utility.yul\":513:762   */\n  jump(tag_60)\ntag_62:\n    /* \"#utility.yul\":517:531   */\n  pop\n    /* \"#utility.yul\":137:768   */\n  pop\n  pop\n    /* \"#utility.yul\":24:768   */\n  swap4\n  swap3\n  pop\n  pop\n  pop\n  jump\t// out\n    /* \"#utility.yul\":791:1535   */\ntag_65:\n    /* \"#utility.yul\":898:903   */\n  0x00\n    /* \"#utility.yul\":923:1004   */\n  tag_67\n    /* \"#utility.yul\":939:1003   */\n  tag_68\n    /* \"#utility.yul\":996:1002   */\n  dup5\n    /* \"#utility.yul\":939:1003   */\n  tag_69\n  jump\t// in\ntag_68:\n    /* \"#utility.yul\":923:1004   */\n  tag_56\n  jump\t// in\ntag_67:\n    /* \"#utility.yul\":914:1004   */\n  swap1\n  pop\n    /* \"#utility.yul\":1024:1029   */\n  dup1\n    /* \"#utility.yul\":1053:1059   */\n  dup4\n    /* \"#utility.yul\":1046:1051   */\n  dup3\n    /* \"#utility.yul\":1039:1060   */\n  mstore\n    /* \"#utility.yul\":1087:1091   */\n  0x20\n    /* \"#utility.yul\":1080:1085   */\n  dup3\n    /* \"#utility.yul\":1076:1092   */\n  add\n    /* \"#utility.yul\":1069:1092   */\n  swap1\n  pop\n    /* \"#utility.yul\":1113:1119   */\n  dup3\n    /* \"#utility.yul\":1163:1166   */\n  dup6\n    /* \"#utility.yul\":1155:1159   */\n  0x20\n    /* \"#utility.yul\":1147:1153   */\n  dup7\n    /* \"#utility.yul\":1143:1160   */\n  mul\n    /* \"#utility.yul\":1138:1141   */\n  dup3\n    /* \"#utility.yul\":1134:1161   */\n  add\n    /* \"#utility.yul\":1131:1167   */\n  gt\n    /* \"#utility.yul\":1128:1271   */\n  iszero\n  tag_70\n  jumpi\n    /* \"#utility.yul\":1182:1261   */\n  tag_71\n  tag_59\n  jump\t// in\ntag_71:\n    /* \"#utility.yul\":1128:1271   */\ntag_70:\n    /* \"#utility.yul\":1295:1296   */\n  0x00\n    /* \"#utility.yul\":1280:1529   */\ntag_72:\n    /* \"#utility.yul\":1305:1311   */\n  dup6\n    /* \"#utility.yul\":1302:1303   */\n  dup2\n    /* \"#utility.yul\":1299:1312   */\n  lt\n    /* \"#utility.yul\":1280:1529   */\n  iszero\n  tag_74\n  jumpi\n    /* \"#utility.yul\":1373:1376   */\n  dup2\n    /* \"#utility.yul\":1402:1450   */\n  tag_75\n    /* \"#utility.yul\":1446:1449   */\n  dup9\n    /* \"#utility.yul\":1434:1444   */\n  dup3\n    /* \"#utility.yul\":1402:1450   */\n  tag_76\n  jump\t// in\ntag_75:\n    /* \"#utility.yul\":1397:1400   */\n  dup5\n    /* \"#utility.yul\":1390:1451   */\n  mstore\n    /* \"#utility.yul\":1480:1484   */\n  0x20\n    /* \"#utility.yul\":1475:1478   */\n  dup5\n    /* \"#utility.yul\":1471:1485   */\n  add\n    /* \"#utility.yul\":1464:1485   */\n  swap4\n  pop\n    /* \"#utility.yul\":1514:1518   */\n  0x20\n    /* \"#utility.yul\":1509:1512   */\n  dup4\n    /* \"#utility.yul\":1505:1519   */\n  add\n    /* \"#utility.yul\":1498:1519   */\n  swap3\n  pop\n    /* \"#utility.yul\":1340:1529   */\n  pop\n    /* \"#utility.yul\":1327:1328   */\n  0x01\n    /* \"#utility.yul\":1324:1325   */\n  dup2\n    /* \"#utility.yul\":1320:1329   */\n  add\n    /* \"#utility.yul\":1315:1329   */\n  swap1\n  pop\n    /* \"#utility.yul\":1280:1529   */\n  jump(tag_72)\ntag_74:\n    /* \"#utility.yul\":1284:1298   */\n  pop\n    /* \"#utility.yul\":904:1535   */\n  pop\n  pop\n    /* \"#utility.yul\":791:1535   */\n  swap4\n  swap3\n  pop\n  pop\n  pop\n  jump\t// out\n    /* \"#utility.yul\":1541:1684   */\ntag_64:\n    /* \"#utility.yul\":1598:1603   */\n  0x00\n    /* \"#utility.yul\":1629:1635   */\n  dup2\n    /* \"#utility.yul\":1623:1636   */\n  mload\n    /* \"#utility.yul\":1614:1636   */\n  swap1\n  pop\n    /* \"#utility.yul\":1645:1678   */\n  tag_78\n    /* \"#utility.yul\":1672:1677   */\n  dup2\n    /* \"#utility.yul\":1645:1678   */\n  tag_79\n  jump\t// in\ntag_78:\n    /* \"#utility.yul\":1541:1684   */\n  swap3\n  swap2\n  pop\n  pop\n  jump\t// out\n    /* \"#utility.yul\":1707:2092   */\ntag_80:\n    /* \"#utility.yul\":1789:1794   */\n  0x00\n    /* \"#utility.yul\":1838:1841   */\n  dup3\n    /* \"#utility.yul\":1831:1835   */\n  0x1f\n    /* \"#utility.yul\":1823:1829   */\n  dup4\n    /* \"#utility.yul\":1819:1836   */\n  add\n    /* \"#utility.yul\":1815:1842   */\n  slt\n    /* \"#utility.yul\":1805:1927   */\n  tag_82\n  jumpi\n    /* \"#utility.yul\":1846:1925   */\n  tag_83\n  tag_84\n  jump\t// in\ntag_83:\n    /* \"#utility.yul\":1805:1927   */\ntag_82:\n    /* \"#utility.yul\":1956:1962   */\n  dup2\n    /* \"#utility.yul\":1950:1963   */\n  mload\n    /* \"#utility.yul\":1981:2086   */\n  tag_85\n    /* \"#utility.yul\":2082:2085   */\n  dup5\n    /* \"#utility.yul\":2074:2080   */\n  dup3\n    /* \"#utility.yul\":2067:2071   */\n  0x20\n    /* \"#utility.yul\":2059:2065   */\n  dup7\n    /* \"#utility.yul\":2055:2072   */\n  add\n    /* \"#utility.yul\":1981:2086   */\n  tag_51\n  jump\t// in\ntag_85:\n    /* \"#utility.yul\":1972:2086   */\n  swap2\n  pop\n    /* \"#utility.yul\":1795:2092   */\n  pop\n    /* \"#utility.yul\":1707:2092   */\n  swap3\n  swap2\n  pop\n  pop\n  jump\t// out\n    /* \"#utility.yul\":2115:2500   */\ntag_86:\n    /* \"#utility.yul\":2197:2202   */\n  0x00\n    /* \"#utility.yul\":2246:2249   */\n  dup3\n    /* \"#utility.yul\":2239:2243   */\n  0x1f\n    /* \"#utility.yul\":2231:2237   */\n  dup4\n    /* \"#utility.yul\":2227:2244   */\n  add\n    /* \"#utility.yul\":2223:2250   */\n  slt\n    /* \"#utility.yul\":2213:2335   */\n  tag_88\n  jumpi\n    /* \"#utility.yul\":2254:2333   */\n  tag_89\n  tag_84\n  jump\t// in\ntag_89:\n    /* \"#utility.yul\":2213:2335   */\ntag_88:\n    /* \"#utility.yul\":2364:2370   */\n  dup2\n    /* \"#utility.yul\":2358:2371   */\n  mload\n    /* \"#utility.yul\":2389:2494   */\n  tag_90\n    /* \"#utility.yul\":2490:2493   */\n  dup5\n    /* \"#utility.yul\":2482:2488   */\n  dup3\n    /* \"#utility.yul\":2475:2479   */\n  0x20\n    /* \"#utility.yul\":2467:2473   */\n  dup7\n    /* \"#utility.yul\":2463:2480   */\n  add\n    /* \"#utility.yul\":2389:2494   */\n  tag_65\n  jump\t// in\ntag_90:\n    /* \"#utility.yul\":2380:2494   */\n  swap2\n  pop\n    /* \"#utility.yul\":2203:2500   */\n  pop\n    /* \"#utility.yul\":2115:2500   */\n  swap3\n  swap2\n  pop\n  pop\n  jump\t// out\n    /* \"#utility.yul\":2506:2649   */\ntag_76:\n    /* \"#utility.yul\":2563:2568   */\n  0x00\n    /* \"#utility.yul\":2594:2600   */\n  dup2\n    /* \"#utility.yul\":2588:2601   */\n  mload\n    /* \"#utility.yul\":2579:2601   */\n  swap1\n  pop\n    /* \"#utility.yul\":2610:2643   */\n  tag_92\n    /* \"#utility.yul\":2637:2642   */\n  dup2\n    /* \"#utility.yul\":2610:2643   */\n  tag_93\n  jump\t// in\ntag_92:\n    /* \"#utility.yul\":2506:2649   */\n  swap3\n  swap2\n  pop\n  pop\n  jump\t// out\n    /* \"#utility.yul\":2655:4287   */\ntag_2:\n    /* \"#utility.yul\":2852:2858   */\n  0x00\n    /* \"#utility.yul\":2860:2866   */\n  dup1\n    /* \"#utility.yul\":2868:2874   */\n  0x00\n    /* \"#utility.yul\":2876:2882   */\n  dup1\n    /* \"#utility.yul\":2925:2928   */\n  0x80\n    /* \"#utility.yul\":2913:2922   */\n  dup6\n    /* \"#utility.yul\":2904:2911   */\n  dup8\n    /* \"#utility.yul\":2900:2923   */\n  sub\n    /* \"#utility.yul\":2896:2929   */\n  slt\n    /* \"#utility.yul\":2893:3013   */\n  iszero\n  tag_95\n  jumpi\n    /* \"#utility.yul\":2932:3011   */\n  tag_96\n  tag_97\n  jump\t// in\ntag_96:\n    /* \"#utility.yul\":2893:3013   */\ntag_95:\n    /* \"#utility.yul\":3073:3074   */\n  0x00\n    /* \"#utility.yul\":3062:3071   */\n  dup6\n    /* \"#utility.yul\":3058:3075   */\n  add\n    /* \"#utility.yul\":3052:3076   */\n  mload\n    /* \"#utility.yul\":3103:3121   */\n  0xffffffffffffffff\n    /* \"#utility.yul\":3095:3101   */\n  dup2\n    /* \"#utility.yul\":3092:3122   */\n  gt\n    /* \"#utility.yul\":3089:3206   */\n  iszero\n  tag_98\n  jumpi\n    /* \"#utility.yul\":3125:3204   */\n  tag_99\n  tag_100\n  jump\t// in\ntag_99:\n    /* \"#utility.yul\":3089:3206   */\ntag_98:\n    /* \"#utility.yul\":3230:3319   */\n  tag_101\n    /* \"#utility.yul\":3311:3318   */\n  dup8\n    /* \"#utility.yul\":3302:3308   */\n  dup3\n    /* \"#utility.yul\":3291:3300   */\n  dup9\n    /* \"#utility.yul\":3287:3309   */\n  add\n    /* \"#utility.yul\":3230:3319   */\n  tag_80\n  jump\t// in\ntag_101:\n    /* \"#utility.yul\":3220:3319   */\n  swap5\n  pop\n    /* \"#utility.yul\":3023:3329   */\n  pop\n    /* \"#utility.yul\":3389:3391   */\n  0x20\n    /* \"#utility.yul\":3378:3387   */\n  dup6\n    /* \"#utility.yul\":3374:3392   */\n  add\n    /* \"#utility.yul\":3368:3393   */\n  mload\n    /* \"#utility.yul\":3420:3438   */\n  0xffffffffffffffff\n    /* \"#utility.yul\":3412:3418   */\n  dup2\n    /* \"#utility.yul\":3409:3439   */\n  gt\n    /* \"#utility.yul\":3406:3523   */\n  iszero\n  tag_102\n  jumpi\n    /* \"#utility.yul\":3442:3521   */\n  tag_103\n  tag_100\n  jump\t// in\ntag_103:\n    /* \"#utility.yul\":3406:3523   */\ntag_102:\n    /* \"#utility.yul\":3547:3636   */\n  tag_104\n    /* \"#utility.yul\":3628:3635   */\n  dup8\n    /* \"#utility.yul\":3619:3625   */\n  dup3\n    /* \"#utility.yul\":3608:3617   */\n  dup9\n    /* \"#utility.yul\":3604:3626   */\n  add\n    /* \"#utility.yul\":3547:3636   */\n  tag_86\n  jump\t// in\ntag_104:\n    /* \"#utility.yul\":3537:3636   */\n  swap4\n  pop\n    /* \"#utility.yul\":3339:3646   */\n  pop\n    /* \"#utility.yul\":3706:3708   */\n  0x40\n    /* \"#utility.yul\":3695:3704   */\n  dup6\n    /* \"#utility.yul\":3691:3709   */\n  add\n    /* \"#utility.yul\":3685:3710   */\n  mload\n    /* \"#utility.yul\":3737:3755   */\n  0xffffffffffffffff\n    /* \"#utility.yul\":3729:3735   */\n  dup2\n    /* \"#utility.yul\":3726:3756   */\n  gt\n    /* \"#utility.yul\":3723:3840   */\n  iszero\n  tag_105\n  jumpi\n    /* \"#utility.yul\":3759:3838   */\n  tag_106\n  tag_100\n  jump\t// in\ntag_106:\n    /* \"#utility.yul\":3723:3840   */\ntag_105:\n    /* \"#utility.yul\":3864:3953   */\n  tag_107\n    /* \"#utility.yul\":3945:3952   */\n  dup8\n    /* \"#utility.yul\":3936:3942   */\n  dup3\n    /* \"#utility.yul\":3925:3934   */\n  dup9\n    /* \"#utility.yul\":3921:3943   */\n  add\n    /* \"#utility.yul\":3864:3953   */\n  tag_86\n  jump\t// in\ntag_107:\n    /* \"#utility.yul\":3854:3953   */\n  swap3\n  pop\n    /* \"#utility.yul\":3656:3963   */\n  pop\n    /* \"#utility.yul\":4023:4025   */\n  0x60\n    /* \"#utility.yul\":4012:4021   */\n  dup6\n    /* \"#utility.yul\":4008:4026   */\n  add\n    /* \"#utility.yul\":4002:4027   */\n  mload\n    /* \"#utility.yul\":4054:4072   */\n  0xffffffffffffffff\n    /* \"#utility.yul\":4046:4052   */\n  dup2\n    /* \"#utility.yul\":4043:4073   */\n  gt\n    /* \"#utility.yul\":4040:4157   */\n  iszero\n  tag_108\n  jumpi\n    /* \"#utility.yul\":4076:4155   */\n  tag_109\n  tag_100\n  jump\t// in\ntag_109:\n    /* \"#utility.yul\":4040:4157   */\ntag_108:\n    /* \"#utility.yul\":4181:4270   */\n  tag_110\n    /* \"#utility.yul\":4262:4269   */\n  dup8\n    /* \"#utility.yul\":4253:4259   */\n  dup3\n    /* \"#utility.yul\":4242:4251   */\n  dup9\n    /* \"#utility.yul\":4238:4260   */\n  add\n    /* \"#utility.yul\":4181:4270   */\n  tag_86\n  jump\t// in\ntag_110:\n    /* \"#utility.yul\":4171:4270   */\n  swap2\n  pop\n    /* \"#utility.yul\":3973:4280   */\n  pop\n    /* \"#utility.yul\":2655:4287   */\n  swap3\n  swap6\n  swap2\n  swap5\n  pop\n  swap3\n  pop\n  jump\t// out\n    /* \"#utility.yul\":4293:4659   */\ntag_111:\n    /* \"#utility.yul\":4435:4438   */\n  0x00\n    /* \"#utility.yul\":4456:4523   */\n  tag_113\n    /* \"#utility.yul\":4520:4522   */\n  0x12\n    /* \"#utility.yul\":4515:4518   */\n  dup4\n    /* \"#utility.yul\":4456:4523   */\n  tag_114\n  jump\t// in\ntag_113:\n    /* \"#utility.yul\":4449:4523   */\n  swap2\n  pop\n    /* \"#utility.yul\":4532:4625   */\n  tag_115\n    /* \"#utility.yul\":4621:4624   */\n  dup3\n    /* \"#utility.yul\":4532:4625   */\n  tag_116\n  jump\t// in\ntag_115:\n    /* \"#utility.yul\":4650:4652   */\n  0x20\n    /* \"#utility.yul\":4645:4648   */\n  dup3\n    /* \"#utility.yul\":4641:4653   */\n  add\n    /* \"#utility.yul\":4634:4653   */\n  swap1\n  pop\n    /* \"#utility.yul\":4293:4659   */\n  swap2\n  swap1\n  pop\n  jump\t// out\n    /* \"#utility.yul\":4665:5031   */\ntag_117:\n    /* \"#utility.yul\":4807:4810   */\n  0x00\n    /* \"#utility.yul\":4828:4895   */\n  tag_119\n    /* \"#utility.yul\":4892:4894   */\n  0x16\n    /* \"#utility.yul\":4887:4890   */\n  dup4\n    /* \"#utility.yul\":4828:4895   */\n  tag_114\n  jump\t// in\ntag_119:\n    /* \"#utility.yul\":4821:4895   */\n  swap2\n  pop\n    /* \"#utility.yul\":4904:4997   */\n  tag_120\n    /* \"#utility.yul\":4993:4996   */\n  dup3\n    /* \"#utility.yul\":4904:4997   */\n  tag_121\n  jump\t// in\ntag_120:\n    /* \"#utility.yul\":5022:5024   */\n  0x20\n    /* \"#utility.yul\":5017:5020   */\n  dup3\n    /* \"#utility.yul\":5013:5025   */\n  add\n    /* \"#utility.yul\":5006:5025   */\n  swap1\n  pop\n    /* \"#utility.yul\":4665:5031   */\n  swap2\n  swap1\n  pop\n  jump\t// out\n    /* \"#utility.yul\":5037:5403   */\ntag_122:\n    /* \"#utility.yul\":5179:5182   */\n  0x00\n    /* \"#utility.yul\":5200:5267   */\n  tag_124\n    /* \"#utility.yul\":5264:5266   */\n  0x1f\n    /* \"#utility.yul\":5259:5262   */\n  dup4\n    /* \"#utility.yul\":5200:5267   */\n  tag_114\n  jump\t// in\ntag_124:\n    /* \"#utility.yul\":5193:5267   */\n  swap2\n  pop\n    /* \"#utility.yul\":5276:5369   */\n  tag_125\n    /* \"#utility.yul\":5365:5368   */\n  dup3\n    /* \"#utility.yul\":5276:5369   */\n  tag_126\n  jump\t// in\ntag_125:\n    /* \"#utility.yul\":5394:5396   */\n  0x20\n    /* \"#utility.yul\":5389:5392   */\n  dup3\n    /* \"#utility.yul\":5385:5397   */\n  add\n    /* \"#utility.yul\":5378:5397   */\n  swap1\n  pop\n    /* \"#utility.yul\":5037:5403   */\n  swap2\n  swap1\n  pop\n  jump\t// out\n    /* \"#utility.yul\":5409:5775   */\ntag_127:\n    /* \"#utility.yul\":5551:5554   */\n  0x00\n    /* \"#utility.yul\":5572:5639   */\n  tag_129\n    /* \"#utility.yul\":5636:5638   */\n  0x1e\n    /* \"#utility.yul\":5631:5634   */\n  dup4\n    /* \"#utility.yul\":5572:5639   */\n  tag_114\n  jump\t// in\ntag_129:\n    /* \"#utility.yul\":5565:5639   */\n  swap2\n  pop\n    /* \"#utility.yul\":5648:5741   */\n  tag_130\n    /* \"#utility.yul\":5737:5740   */\n  dup3\n    /* \"#utility.yul\":5648:5741   */\n  tag_131\n  jump\t// in\ntag_130:\n    /* \"#utility.yul\":5766:5768   */\n  0x20\n    /* \"#utility.yul\":5761:5764   */\n  dup3\n    /* \"#utility.yul\":5757:5769   */\n  add\n    /* \"#utility.yul\":5750:5769   */\n  swap1\n  pop\n    /* \"#utility.yul\":5409:5775   */\n  swap2\n  swap1\n  pop\n  jump\t// out\n    /* \"#utility.yul\":5781:6147   */\ntag_132:\n    /* \"#utility.yul\":5923:5926   */\n  0x00\n    /* \"#utility.yul\":5944:6011   */\n  tag_134\n    /* \"#utility.yul\":6008:6010   */\n  0x11\n    /* \"#utility.yul\":6003:6006   */\n  dup4\n    /* \"#utility.yul\":5944:6011   */\n  tag_114\n  jump\t// in\ntag_134:\n    /* \"#utility.yul\":5937:6011   */\n  swap2\n  pop\n    /* \"#utility.yul\":6020:6113   */\n  tag_135\n    /* \"#utility.yul\":6109:6112   */\n  dup3\n    /* \"#utility.yul\":6020:6113   */\n  tag_136\n  jump\t// in\ntag_135:\n    /* \"#utility.yul\":6138:6140   */\n  0x20\n    /* \"#utility.yul\":6133:6136   */\n  dup3\n    /* \"#utility.yul\":6129:6141   */\n  add\n    /* \"#utility.yul\":6122:6141   */\n  swap1\n  pop\n    /* \"#utility.yul\":5781:6147   */\n  swap2\n  swap1\n  pop\n  jump\t// out\n    /* \"#utility.yul\":6153:6271   */\ntag_137:\n    /* \"#utility.yul\":6240:6264   */\n  tag_139\n    /* \"#utility.yul\":6258:6263   */\n  dup2\n    /* \"#utility.yul\":6240:6264   */\n  tag_140\n  jump\t// in\ntag_139:\n    /* \"#utility.yul\":6235:6238   */\n  dup3\n    /* \"#utility.yul\":6228:6265   */\n  mstore\n    /* \"#utility.yul\":6153:6271   */\n  pop\n  pop\n  jump\t// out\n    /* \"#utility.yul\":6277:6696   */\ntag_41:\n    /* \"#utility.yul\":6443:6447   */\n  0x00\n    /* \"#utility.yul\":6481:6483   */\n  0x20\n    /* \"#utility.yul\":6470:6479   */\n  dup3\n    /* \"#utility.yul\":6466:6484   */\n  add\n    /* \"#utility.yul\":6458:6484   */\n  swap1\n  pop\n    /* \"#utility.yul\":6530:6539   */\n  dup2\n    /* \"#utility.yul\":6524:6528   */\n  dup2\n    /* \"#utility.yul\":6520:6540   */\n  sub\n    /* \"#utility.yul\":6516:6517   */\n  0x00\n    /* \"#utility.yul\":6505:6514   */\n  dup4\n    /* \"#utility.yul\":6501:6518   */\n  add\n    /* \"#utility.yul\":6494:6541   */\n  mstore\n    /* \"#utility.yul\":6558:6689   */\n  tag_142\n    /* \"#utility.yul\":6684:6688   */\n  dup2\n    /* \"#utility.yul\":6558:6689   */\n  tag_111\n  jump\t// in\ntag_142:\n    /* \"#utility.yul\":6550:6689   */\n  swap1\n  pop\n    /* \"#utility.yul\":6277:6696   */\n  swap2\n  swap1\n  pop\n  jump\t// out\n    /* \"#utility.yul\":6702:7121   */\ntag_44:\n    /* \"#utility.yul\":6868:6872   */\n  0x00\n    /* \"#utility.yul\":6906:6908   */\n  0x20\n    /* \"#utility.yul\":6895:6904   */\n  dup3\n    /* \"#utility.yul\":6891:6909   */\n  add\n    /* \"#utility.yul\":6883:6909   */\n  swap1\n  pop\n    /* \"#utility.yul\":6955:6964   */\n  dup2\n    /* \"#utility.yul\":6949:6953   */\n  dup2\n    /* \"#utility.yul\":6945:6965   */\n  sub\n    /* \"#utility.yul\":6941:6942   */\n  0x00\n    /* \"#utility.yul\":6930:6939   */\n  dup4\n    /* \"#utility.yul\":6926:6943   */\n  add\n    /* \"#utility.yul\":6919:6966   */\n  mstore\n    /* \"#utility.yul\":6983:7114   */\n  tag_144\n    /* \"#utility.yul\":7109:7113   */\n  dup2\n    /* \"#utility.yul\":6983:7114   */\n  tag_117\n  jump\t// in\ntag_144:\n    /* \"#utility.yul\":6975:7114   */\n  swap1\n  pop\n    /* \"#utility.yul\":6702:7121   */\n  swap2\n  swap1\n  pop\n  jump\t// out\n    /* \"#utility.yul\":7127:7546   */\ntag_38:\n    /* \"#utility.yul\":7293:7297   */\n  0x00\n    /* \"#utility.yul\":7331:7333   */\n  0x20\n    /* \"#utility.yul\":7320:7329   */\n  dup3\n    /* \"#utility.yul\":7316:7334   */\n  add\n    /* \"#utility.yul\":7308:7334   */\n  swap1\n  pop\n    /* \"#utility.yul\":7380:7389   */\n  dup2\n    /* \"#utility.yul\":7374:7378   */\n  dup2\n    /* \"#utility.yul\":7370:7390   */\n  sub\n    /* \"#utility.yul\":7366:7367   */\n  0x00\n    /* \"#utility.yul\":7355:7364   */\n  dup4\n    /* \"#utility.yul\":7351:7368   */\n  add\n    /* \"#utility.yul\":7344:7391   */\n  mstore\n    /* \"#utility.yul\":7408:7539   */\n  tag_146\n    /* \"#utility.yul\":7534:7538   */\n  dup2\n    /* \"#utility.yul\":7408:7539   */\n  tag_122\n  jump\t// in\ntag_146:\n    /* \"#utility.yul\":7400:7539   */\n  swap1\n  pop\n    /* \"#utility.yul\":7127:7546   */\n  swap2\n  swap1\n  pop\n  jump\t// out\n    /* \"#utility.yul\":7552:7971   */\ntag_8:\n    /* \"#utility.yul\":7718:7722   */\n  0x00\n    /* \"#utility.yul\":7756:7758   */\n  0x20\n    /* \"#utility.yul\":7745:7754   */\n  dup3\n    /* \"#utility.yul\":7741:7759   */\n  add\n    /* \"#utility.yul\":7733:7759   */\n  swap1\n  pop\n    /* \"#utility.yul\":7805:7814   */\n  dup2\n    /* \"#utility.yul\":7799:7803   */\n  dup2\n    /* \"#utility.yul\":7795:7815   */\n  sub\n    /* \"#utility.yul\":7791:7792   */\n  0x00\n    /* \"#utility.yul\":7780:7789   */\n  dup4\n    /* \"#utility.yul\":7776:7793   */\n  add\n    /* \"#utility.yul\":7769:7816   */\n  mstore\n    /* \"#utility.yul\":7833:7964   */\n  tag_148\n    /* \"#utility.yul\":7959:7963   */\n  dup2\n    /* \"#utility.yul\":7833:7964   */\n  tag_127\n  jump\t// in\ntag_148:\n    /* \"#utility.yul\":7825:7964   */\n  swap1\n  pop\n    /* \"#utility.yul\":7552:7971   */\n  swap2\n  swap1\n  pop\n  jump\t// out\n    /* \"#utility.yul\":7977:8396   */\ntag_11:\n    /* \"#utility.yul\":8143:8147   */\n  0x00\n    /* \"#utility.yul\":8181:8183   */\n  0x20\n    /* \"#utility.yul\":8170:8179   */\n  dup3\n    /* \"#utility.yul\":8166:8184   */\n  add\n    /* \"#utility.yul\":8158:8184   */\n  swap1\n  pop\n    /* \"#utility.yul\":8230:8239   */\n  dup2\n    /* \"#utility.yul\":8224:8228   */\n  dup2\n    /* \"#utility.yul\":8220:8240   */\n  sub\n    /* \"#utility.yul\":8216:8217   */\n  0x00\n    /* \"#utility.yul\":8205:8214   */\n  dup4\n    /* \"#utility.yul\":8201:8218   */\n  add\n    /* \"#utility.yul\":8194:8241   */\n  mstore\n    /* \"#utility.yul\":8258:8389   */\n  tag_150\n    /* \"#utility.yul\":8384:8388   */\n  dup2\n    /* \"#utility.yul\":8258:8389   */\n  tag_132\n  jump\t// in\ntag_150:\n    /* \"#utility.yul\":8250:8389   */\n  swap1\n  pop\n    /* \"#utility.yul\":7977:8396   */\n  swap2\n  swap1\n  pop\n  jump\t// out\n    /* \"#utility.yul\":8402:8624   */\ntag_49:\n    /* \"#utility.yul\":8495:8499   */\n  0x00\n    /* \"#utility.yul\":8533:8535   */\n  0x20\n    /* \"#utility.yul\":8522:8531   */\n  dup3\n    /* \"#utility.yul\":8518:8536   */\n  add\n    /* \"#utility.yul\":8510:8536   */\n  swap1\n  pop\n    /* \"#utility.yul\":8546:8617   */\n  tag_152\n    /* \"#utility.yul\":8614:8615   */\n  0x00\n    /* \"#utility.yul\":8603:8612   */\n  dup4\n    /* \"#utility.yul\":8599:8616   */\n  add\n    /* \"#utility.yul\":8590:8596   */\n  dup5\n    /* \"#utility.yul\":8546:8617   */\n  tag_137\n  jump\t// in\ntag_152:\n    /* \"#utility.yul\":8402:8624   */\n  swap3\n  swap2\n  pop\n  pop\n  jump\t// out\n    /* \"#utility.yul\":8630:8759   */\ntag_56:\n    /* \"#utility.yul\":8664:8670   */\n  0x00\n    /* \"#utility.yul\":8691:8711   */\n  tag_154\n  tag_155\n  jump\t// in\ntag_154:\n    /* \"#utility.yul\":8681:8711   */\n  swap1\n  pop\n    /* \"#utility.yul\":8720:8753   */\n  tag_156\n    /* \"#utility.yul\":8748:8752   */\n  dup3\n    /* \"#utility.yul\":8740:8746   */\n  dup3\n    /* \"#utility.yul\":8720:8753   */\n  tag_157\n  jump\t// in\ntag_156:\n    /* \"#utility.yul\":8630:8759   */\n  swap2\n  swap1\n  pop\n  jump\t// out\n    /* \"#utility.yul\":8765:8840   */\ntag_155:\n    /* \"#utility.yul\":8798:8804   */\n  0x00\n    /* \"#utility.yul\":8831:8833   */\n  0x40\n    /* \"#utility.yul\":8825:8834   */\n  mload\n    /* \"#utility.yul\":8815:8834   */\n  swap1\n  pop\n    /* \"#utility.yul\":8765:8840   */\n  swap1\n  jump\t// out\n    /* \"#utility.yul\":8846:9157   */\ntag_55:\n    /* \"#utility.yul\":8923:8927   */\n  0x00\n    /* \"#utility.yul\":9013:9031   */\n  0xffffffffffffffff\n    /* \"#utility.yul\":9005:9011   */\n  dup3\n    /* \"#utility.yul\":9002:9032   */\n  gt\n    /* \"#utility.yul\":8999:9055   */\n  iszero\n  tag_160\n  jumpi\n    /* \"#utility.yul\":9035:9053   */\n  tag_161\n  tag_162\n  jump\t// in\ntag_161:\n    /* \"#utility.yul\":8999:9055   */\ntag_160:\n    /* \"#utility.yul\":9085:9089   */\n  0x20\n    /* \"#utility.yul\":9077:9083   */\n  dup3\n    /* \"#utility.yul\":9073:9090   */\n  mul\n    /* \"#utility.yul\":9065:9090   */\n  swap1\n  pop\n    /* \"#utility.yul\":9145:9149   */\n  0x20\n    /* \"#utility.yul\":9139:9143   */\n  dup2\n    /* \"#utility.yul\":9135:9150   */\n  add\n    /* \"#utility.yul\":9127:9150   */\n  swap1\n  pop\n    /* \"#utility.yul\":8846:9157   */\n  swap2\n  swap1\n  pop\n  jump\t// out\n    /* \"#utility.yul\":9163:9474   */\ntag_69:\n    /* \"#utility.yul\":9240:9244   */\n  0x00\n    /* \"#utility.yul\":9330:9348   */\n  0xffffffffffffffff\n    /* \"#utility.yul\":9322:9328   */\n  dup3\n    /* \"#utility.yul\":9319:9349   */\n  gt\n    /* \"#utility.yul\":9316:9372   */\n  iszero\n  tag_164\n  jumpi\n    /* \"#utility.yul\":9352:9370   */\n  tag_165\n  tag_162\n  jump\t// in\ntag_165:\n    /* \"#utility.yul\":9316:9372   */\ntag_164:\n    /* \"#utility.yul\":9402:9406   */\n  0x20\n    /* \"#utility.yul\":9394:9400   */\n  dup3\n    /* \"#utility.yul\":9390:9407   */\n  mul\n    /* \"#utility.yul\":9382:9407   */\n  swap1\n  pop\n    /* \"#utility.yul\":9462:9466   */\n  0x20\n    /* \"#utility.yul\":9456:9460   */\n  dup2\n    /* \"#utility.yul\":9452:9467   */\n  add\n    /* \"#utility.yul\":9444:9467   */\n  swap1\n  pop\n    /* \"#utility.yul\":9163:9474   */\n  swap2\n  swap1\n  pop\n  jump\t// out\n    /* \"#utility.yul\":9480:9649   */\ntag_114:\n    /* \"#utility.yul\":9564:9575   */\n  0x00\n    /* \"#utility.yul\":9598:9604   */\n  dup3\n    /* \"#utility.yul\":9593:9596   */\n  dup3\n    /* \"#utility.yul\":9586:9605   */\n  mstore\n    /* \"#utility.yul\":9638:9642   */\n  0x20\n    /* \"#utility.yul\":9633:9636   */\n  dup3\n    /* \"#utility.yul\":9629:9643   */\n  add\n    /* \"#utility.yul\":9614:9643   */\n  swap1\n  pop\n    /* \"#utility.yul\":9480:9649   */\n  swap3\n  swap2\n  pop\n  pop\n  jump\t// out\n    /* \"#utility.yul\":9655:9960   */\ntag_47:\n    /* \"#utility.yul\":9695:9698   */\n  0x00\n    /* \"#utility.yul\":9714:9734   */\n  tag_168\n    /* \"#utility.yul\":9732:9733   */\n  dup3\n    /* \"#utility.yul\":9714:9734   */\n  tag_140\n  jump\t// in\ntag_168:\n    /* \"#utility.yul\":9709:9734   */\n  swap2\n  pop\n    /* \"#utility.yul\":9748:9768   */\n  tag_169\n    /* \"#utility.yul\":9766:9767   */\n  dup4\n    /* \"#utility.yul\":9748:9768   */\n  tag_140\n  jump\t// in\ntag_169:\n    /* \"#utility.yul\":9743:9768   */\n  swap3\n  pop\n    /* \"#utility.yul\":9902:9903   */\n  dup3\n    /* \"#utility.yul\":9834:9900   */\n  0xffffffffffffffffffffffffffffffffffffffffffffffffffffffffffffffff\n    /* \"#utility.yul\":9830:9904   */\n  sub\n    /* \"#utility.yul\":9827:9828   */\n  dup3\n    /* \"#utility.yul\":9824:9905   */\n  gt\n    /* \"#utility.yul\":9821:9928   */\n  iszero\n  tag_170\n  jumpi\n    /* \"#utility.yul\":9908:9926   */\n  tag_171\n  tag_172\n  jump\t// in\ntag_171:\n    /* \"#utility.yul\":9821:9928   */\ntag_170:\n    /* \"#utility.yul\":9952:9953   */\n  dup3\n    /* \"#utility.yul\":9949:9950   */\n  dup3\n    /* \"#utility.yul\":9945:9954   */\n  add\n    /* \"#utility.yul\":9938:9954   */\n  swap1\n  pop\n    /* \"#utility.yul\":9655:9960   */\n  swap3\n  swap2\n  pop\n  pop\n  jump\t// out\n    /* \"#utility.yul\":9966:10062   */\ntag_173:\n    /* \"#utility.yul\":10003:10010   */\n  0x00\n    /* \"#utility.yul\":10032:10056   */\n  tag_175\n    /* \"#utility.yul\":10050:10055   */\n  dup3\n    /* \"#utility.yul\":10032:10056   */\n  tag_176\n  jump\t// in\ntag_175:\n    /* \"#utility.yul\":10021:10056   */\n  swap1\n  pop\n    /* \"#utility.yul\":9966:10062   */\n  swap2\n  swap1\n  pop\n  jump\t// out\n    /* \"#utility.yul\":10068:10194   */\ntag_176:\n    /* \"#utility.yul\":10105:10112   */\n  0x00\n    /* \"#utility.yul\":10145:10187   */\n  0xffffffffffffffffffffffffffffffffffffffff\n    /* \"#utility.yul\":10138:10143   */\n  dup3\n    /* \"#utility.yul\":10134:10188   */\n  and\n    /* \"#utility.yul\":10123:10188   */\n  swap1\n  pop\n    /* \"#utility.yul\":10068:10194   */\n  swap2\n  swap1\n  pop\n  jump\t// out\n    /* \"#utility.yul\":10200:10277   */\ntag_140:\n    /* \"#utility.yul\":10237:10244   */\n  0x00\n    /* \"#utility.yul\":10266:10271   */\n  dup2\n    /* \"#utility.yul\":10255:10271   */\n  swap1\n  pop\n    /* \"#utility.yul\":10200:10277   */\n  swap2\n  swap1\n  pop\n  jump\t// out\n    /* \"#utility.yul\":10283:10564   */\ntag_157:\n    /* \"#utility.yul\":10366:10393   */\n  tag_180\n    /* \"#utility.yul\":10388:10392   */\n  dup3\n    /* \"#utility.yul\":10366:10393   */\n  tag_181\n  jump\t// in\ntag_180:\n    /* \"#utility.yul\":10358:10364   */\n  dup2\n    /* \"#utility.yul\":10354:10394   */\n  add\n    /* \"#utility.yul\":10496:10502   */\n  dup2\n    /* \"#utility.yul\":10484:10494   */\n  dup2\n    /* \"#utility.yul\":10481:10503   */\n  lt\n    /* \"#utility.yul\":10460:10478   */\n  0xffffffffffffffff\n    /* \"#utility.yul\":10448:10458   */\n  dup3\n    /* \"#utility.yul\":10445:10479   */\n  gt\n    /* \"#utility.yul\":10442:10504   */\n  or\n    /* \"#utility.yul\":10439:10527   */\n  iszero\n  tag_182\n  jumpi\n    /* \"#utility.yul\":10507:10525   */\n  tag_183\n  tag_162\n  jump\t// in\ntag_183:\n    /* \"#utility.yul\":10439:10527   */\ntag_182:\n    /* \"#utility.yul\":10547:10557   */\n  dup1\n    /* \"#utility.yul\":10543:10545   */\n  0x40\n    /* \"#utility.yul\":10536:10558   */\n  mstore\n    /* \"#utility.yul\":10326:10564   */\n  pop\n    /* \"#utility.yul\":10283:10564   */\n  pop\n  pop\n  jump\t// out\n    /* \"#utility.yul\":10570:10803   */\ntag_33:\n    /* \"#utility.yul\":10609:10612   */\n  0x00\n    /* \"#utility.yul\":10632:10656   */\n  tag_185\n    /* \"#utility.yul\":10650:10655   */\n  dup3\n    /* \"#utility.yul\":10632:10656   */\n  tag_140\n  jump\t// in\ntag_185:\n    /* \"#utility.yul\":10623:10656   */\n  swap2\n  pop\n    /* \"#utility.yul\":10678:10744   */\n  0xffffffffffffffffffffffffffffffffffffffffffffffffffffffffffffffff\n    /* \"#utility.yul\":10671:10676   */\n  dup3\n    /* \"#utility.yul\":10668:10745   */\n  eq\n    /* \"#utility.yul\":10665:10768   */\n  iszero\n  tag_186\n  jumpi\n    /* \"#utility.yul\":10748:10766   */\n  tag_187\n  tag_172\n  jump\t// in\ntag_187:\n    /* \"#utility.yul\":10665:10768   */\ntag_186:\n    /* \"#utility.yul\":10795:10796   */\n  0x01\n    /* \"#utility.yul\":10788:10793   */\n  dup3\n    /* \"#utility.yul\":10784:10797   */\n  add\n    /* \"#utility.yul\":10777:10797   */\n  swap1\n  pop\n    /* \"#utility.yul\":10570:10803   */\n  swap2\n  swap1\n  pop\n  jump\t// out\n    /* \"#utility.yul\":10809:10989   */\ntag_172:\n    /* \"#utility.yul\":10857:10934   */\n  0x4e487b7100000000000000000000000000000000000000000000000000000000\n    /* \"#utility.yul\":10854:10855   */\n  0x00\n    /* \"#utility.yul\":10847:10935   */\n  mstore\n    /* \"#utility.yul\":10954:10958   */\n  0x11\n    /* \"#utility.yul\":10951:10952   */\n  0x04\n    /* \"#utility.yul\":10944:10959   */\n  mstore\n    /* \"#utility.yul\":10978:10982   */\n  0x24\n    /* \"#utility.yul\":10975:10976   */\n  0x00\n    /* \"#utility.yul\":10968:10983   */\n  revert\n    /* \"#utility.yul\":10995:11175   */\ntag_20:\n    /* \"#utility.yul\":11043:11120   */\n  0x4e487b7100000000000000000000000000000000000000000000000000000000\n    /* \"#utility.yul\":11040:11041   */\n  0x00\n    /* \"#utility.yul\":11033:11121   */\n  mstore\n    /* \"#utility.yul\":11140:11144   */\n  0x32\n    /* \"#utility.yul\":11137:11138   */\n  0x04\n    /* \"#utility.yul\":11130:11145   */\n  mstore\n    /* \"#utility.yul\":11164:11168   */\n  0x24\n    /* \"#utility.yul\":11161:11162   */\n  0x00\n    /* \"#utility.yul\":11154:11169   */\n  revert\n    /* \"#utility.yul\":11181:11361   */\ntag_162:\n    /* \"#utility.yul\":11229:11306   */\n  0x4e487b7100000000000000000000000000000000000000000000000000000000\n    /* \"#utility.yul\":11226:11227   */\n  0x00\n    /* \"#utility.yul\":11219:11307   */\n  mstore\n    /* \"#utility.yul\":11326:11330   */\n  0x41\n    /* \"#utility.yul\":11323:11324   */\n  0x04\n    /* \"#utility.yul\":11316:11331   */\n  mstore\n    /* \"#utility.yul\":11350:11354   */\n  0x24\n    /* \"#utility.yul\":11347:11348   */\n  0x00\n    /* \"#utility.yul\":11340:11355   */\n  revert\n    /* \"#utility.yul\":11367:11484   */\ntag_84:\n    /* \"#utility.yul\":11476:11477   */\n  0x00\n    /* \"#utility.yul\":11473:11474   */\n  dup1\n    /* \"#utility.yul\":11466:11478   */\n  revert\n    /* \"#utility.yul\":11490:11607   */\ntag_59:\n    /* \"#utility.yul\":11599:11600   */\n  0x00\n    /* \"#utility.yul\":11596:11597   */\n  dup1\n    /* \"#utility.yul\":11589:11601   */\n  revert\n    /* \"#utility.yul\":11613:11730   */\ntag_100:\n    /* \"#utility.yul\":11722:11723   */\n  0x00\n    /* \"#utility.yul\":11719:11720   */\n  dup1\n    /* \"#utility.yul\":11712:11724   */\n  revert\n    /* \"#utility.yul\":11736:11853   */\ntag_97:\n    /* \"#utility.yul\":11845:11846   */\n  0x00\n    /* \"#utility.yul\":11842:11843   */\n  dup1\n    /* \"#utility.yul\":11835:11847   */\n  revert\n    /* \"#utility.yul\":11859:11961   */\ntag_181:\n    /* \"#utility.yul\":11900:11906   */\n  0x00\n    /* \"#utility.yul\":11951:11953   */\n  0x1f\n    /* \"#utility.yul\":11947:11954   */\n  not\n    /* \"#utility.yul\":11942:11944   */\n  0x1f\n    /* \"#utility.yul\":11935:11940   */\n  dup4\n    /* \"#utility.yul\":11931:11945   */\n  add\n    /* \"#utility.yul\":11927:11955   */\n  and\n    /* \"#utility.yul\":11917:11955   */\n  swap1\n  pop\n    /* \"#utility.yul\":11859:11961   */\n  swap2\n  swap1\n  pop\n  jump\t// out\n    /* \"#utility.yul\":11967:12135   */\ntag_116:\n    /* \"#utility.yul\":12107:12127   */\n  0x73686172652063616e206e6f7420626520300000000000000000000000000000\n    /* \"#utility.yul\":12103:12104   */\n  0x00\n    /* \"#utility.yul\":12095:12101   */\n  dup3\n    /* \"#utility.yul\":12091:12105   */\n  add\n    /* \"#utility.yul\":12084:12128   */\n  mstore\n    /* \"#utility.yul\":11967:12135   */\n  pop\n  jump\t// out\n    /* \"#utility.yul\":12141:12313   */\ntag_121:\n    /* \"#utility.yul\":12281:12305   */\n  0x6163636f756e7420616c72656164792065786973747300000000000000000000\n    /* \"#utility.yul\":12277:12278   */\n  0x00\n    /* \"#utility.yul\":12269:12275   */\n  dup3\n    /* \"#utility.yul\":12265:12279   */\n  add\n    /* \"#utility.yul\":12258:12306   */\n  mstore\n    /* \"#utility.yul\":12141:12313   */\n  pop\n  jump\t// out\n    /* \"#utility.yul\":12319:12500   */\ntag_126:\n    /* \"#utility.yul\":12459:12492   */\n  0x616464726573732063616e206e6f74206265207a65726f206164647265737300\n    /* \"#utility.yul\":12455:12456   */\n  0x00\n    /* \"#utility.yul\":12447:12453   */\n  dup3\n    /* \"#utility.yul\":12443:12457   */\n  add\n    /* \"#utility.yul\":12436:12493   */\n  mstore\n    /* \"#utility.yul\":12319:12500   */\n  pop\n  jump\t// out\n    /* \"#utility.yul\":12506:12686   */\ntag_131:\n    /* \"#utility.yul\":12646:12678   */\n  0x62656e656669636961727920616e64207368617265206469736d617463680000\n    /* \"#utility.yul\":12642:12643   */\n  0x00\n    /* \"#utility.yul\":12634:12640   */\n  dup3\n    /* \"#utility.yul\":12630:12644   */\n  add\n    /* \"#utility.yul\":12623:12679   */\n  mstore\n    /* \"#utility.yul\":12506:12686   */\n  pop\n  jump\t// out\n    /* \"#utility.yul\":12692:12859   */\ntag_136:\n    /* \"#utility.yul\":12832:12851   */\n  0x617267756d656e74206d69736d61746368000000000000000000000000000000\n    /* \"#utility.yul\":12828:12829   */\n  0x00\n    /* \"#utility.yul\":12820:12826   */\n  dup3\n    /* \"#utility.yul\":12816:12830   */\n  add\n    /* \"#utility.yul\":12809:12852   */\n  mstore\n    /* \"#utility.yul\":12692:12859   */\n  pop\n  jump\t// out\n    /* \"#utility.yul\":12865:12987   */\ntag_79:\n    /* \"#utility.yul\":12938:12962   */\n  tag_202\n    /* \"#utility.yul\":12956:12961   */\n  dup2\n    /* \"#utility.yul\":12938:12962   */\n  tag_173\n  jump\t// in\ntag_202:\n    /* \"#utility.yul\":12931:12936   */\n  dup2\n    /* \"#utility.yul\":12928:12963   */\n  eq\n    /* \"#utility.yul\":12918:12981   */\n  tag_203\n  jumpi\n    /* \"#utility.yul\":12977:12978   */\n  0x00\n    /* \"#utility.yul\":12974:12975   */\n  dup1\n    /* \"#utility.yul\":12967:12979   */\n  revert\n    /* \"#utility.yul\":12918:12981   */\ntag_203:\n    /* \"#utility.yul\":12865:12987   */\n  pop\n  jump\t// out\n    /* \"#utility.yul\":12993:13115   */\ntag_93:\n    /* \"#utility.yul\":13066:13090   */\n  tag_205\n    /* \"#utility.yul\":13084:13089   */\n  dup2\n    /* \"#utility.yul\":13066:13090   */\n  tag_140\n  jump\t// in\ntag_205:\n    /* \"#utility.yul\":13059:13064   */\n  dup2\n    /* \"#utility.yul\":13056:13091   */\n  eq\n    /* \"#utility.yul\":13046:13109   */\n  tag_206\n  jumpi\n    /* \"#utility.yul\":13105:13106   */\n  0x00\n    /* \"#utility.yul\":13102:13103   */\n  dup1\n    /* \"#utility.yul\":13095:13107   */\n  revert\n    /* \"#utility.yul\":13046:13109   */\ntag_206:\n    /* \"#utility.yul\":12993:13115   */\n  pop\n  jump\t// out\n    /* \"LinearRelease.sol\":145:4605  contract LinearRelease {... */\ntag_34:\n  dataSize(sub_0)\n  dup1\n  dataOffset(sub_0)\n  0x00\n  codecopy\n  0x00\n  return\nstop\n\nsub_0: assembly {\n        /* \"LinearRelease.sol\":145:4605  contract LinearRelease {... */\n      mstore(0x40, 0x80)\n      jumpi(tag_1, lt(calldatasize, 0x04))\n      shr(0xe0, calldataload(0x00))\n      dup1\n      0x1027853f\n      eq\n      tag_3\n      jumpi\n      dup1\n      0x5dfb1d32\n      eq\n      tag_4\n      jumpi\n      dup1\n      0xd24ef437\n      eq\n      tag_5\n      jumpi\n      jump(tag_2)\n    tag_1:\n      jumpi(tag_2, calldatasize)\n        /* \"LinearRelease.sol\":1419:1428  msg.value */\n      callvalue\n        /* \"LinearRelease.sol\":1407:1417  msg.sender */\n      caller\n        /* \"LinearRelease.sol\":1393:1429  ReceiveShares(msg.sender, msg.value) */\n      0xffffffffffffffffffffffffffffffffffffffff\n      and\n      0x0665ce5a0bf7dc12efe22f9101ab1469d837a533bbf654f049c203278f36cfa2\n      mload(0x40)\n      mload(0x40)\n      dup1\n      swap2\n      sub\n      swap1\n      log3\n        /* \"LinearRelease.sol\":145:4605  contract LinearRelease {... */\n      stop\n    tag_2:\n      0x00\n      dup1\n      revert\n        /* \"LinearRelease.sol\":2829:3323  function withdrawShare(address payable _account) public{... */\n    tag_3:\n      callvalue\n      dup1\n      iszero\n      tag_8\n      jumpi\n      0x00\n      dup1\n      revert\n    tag_8:\n      pop\n      tag_9\n      0x04\n      dup1\n      calldatasize\n      sub\n      dup2\n      add\n      swap1\n      tag_10\n      swap2\n      swap1\n      tag_11\n      jump\t// in\n    tag_10:\n      tag_12\n      jump\t// in\n    tag_9:\n      stop\n        /* \"LinearRelease.sol\":3486:3770  function releaseableShare(address _account) public view returns (uint256){... */\n    tag_4:\n      callvalue\n      dup1\n      iszero\n      tag_13\n      jumpi\n      0x00\n      dup1\n      revert\n    tag_13:\n      pop\n      tag_14\n      0x04\n      dup1\n      calldatasize\n      sub\n      dup2\n      add\n      swap1\n      tag_15\n      swap2\n      swap1\n      tag_16\n      jump\t// in\n    tag_15:\n      tag_17\n      jump\t// in\n    tag_14:\n      mload(0x40)\n      tag_18\n      swap2\n      swap1\n      tag_19\n      jump\t// in\n    tag_18:\n      mload(0x40)\n      dup1\n      swap2\n      sub\n      swap1\n      return\n        /* \"LinearRelease.sol\":3329:3480  function paymentShare(address _account) public view returns (uint256){... */\n    tag_5:\n      callvalue\n      dup1\n      iszero\n      tag_20\n      jumpi\n      0x00\n      dup1\n      revert\n    tag_20:\n      pop\n      tag_21\n      0x04\n      dup1\n      calldatasize\n      sub\n      dup2\n      add\n      swap1\n      tag_22\n      swap2\n      swap1\n      tag_16\n      jump\t// in\n    tag_22:\n      tag_23\n      jump\t// in\n    tag_21:\n      mload(0x40)\n      tag_24\n      swap2\n      swap1\n      tag_19\n      jump\t// in\n    tag_24:\n      mload(0x40)\n      dup1\n      swap2\n      sub\n      swap1\n      return\n        /* \"LinearRelease.sol\":2829:3323  function withdrawShare(address payable _account) public{... */\n    tag_12:\n        /* \"LinearRelease.sol\":2927:2928  0 */\n      0x00\n        /* \"LinearRelease.sol\":2902:2914  personShares */\n      0x02\n        /* \"LinearRelease.sol\":2902:2924  personShares[_account] */\n      0x00\n        /* \"LinearRelease.sol\":2915:2923  _account */\n      dup4\n        /* \"LinearRelease.sol\":2902:2924  personShares[_account] */\n      0xffffffffffffffffffffffffffffffffffffffff\n      and\n      0xffffffffffffffffffffffffffffffffffffffff\n      and\n      dup2\n      mstore\n      0x20\n      add\n      swap1\n      dup2\n      mstore\n      0x20\n      add\n      0x00\n      keccak256\n      sload\n        /* \"LinearRelease.sol\":2902:2928  personShares[_account] > 0 */\n      gt\n        /* \"LinearRelease.sol\":2894:2953  require(personShares[_account] > 0, \"account has no share\") */\n      tag_26\n      jumpi\n      mload(0x40)\n      0x08c379a000000000000000000000000000000000000000000000000000000000\n      dup2\n      mstore\n      0x04\n      add\n      tag_27\n      swap1\n      tag_28\n      jump\t// in\n    tag_27:\n      mload(0x40)\n      dup1\n      swap2\n      sub\n      swap1\n      revert\n    tag_26:\n        /* \"LinearRelease.sol\":2963:2978  uint256 payment */\n      0x00\n        /* \"LinearRelease.sol\":2981:3004  _withdrawable(_account) */\n      tag_29\n        /* \"LinearRelease.sol\":2995:3003  _account */\n      dup3\n        /* \"LinearRelease.sol\":2981:2994  _withdrawable */\n      tag_30\n        /* \"LinearRelease.sol\":2981:3004  _withdrawable(_account) */\n      jump\t// in\n    tag_29:\n        /* \"LinearRelease.sol\":2963:3004  uint256 payment = _withdrawable(_account) */\n      swap1\n      pop\n        /* \"LinearRelease.sol\":3032:3033  0 */\n      0x00\n        /* \"LinearRelease.sol\":3022:3029  payment */\n      dup2\n        /* \"LinearRelease.sol\":3022:3033  payment > 0 */\n      gt\n        /* \"LinearRelease.sol\":3014:3059  require(payment > 0, \"account have no share\") */\n      tag_31\n      jumpi\n      mload(0x40)\n      0x08c379a000000000000000000000000000000000000000000000000000000000\n      dup2\n      mstore\n      0x04\n      add\n      tag_32\n      swap1\n      tag_33\n      jump\t// in\n    tag_32:\n      mload(0x40)\n      dup1\n      swap2\n      sub\n      swap1\n      revert\n    tag_31:\n        /* \"LinearRelease.sol\":3069:3092  uint256 releasableShare */\n      0x00\n        /* \"LinearRelease.sol\":3095:3125  _releasable(_account, payment) */\n      tag_34\n        /* \"LinearRelease.sol\":3107:3115  _account */\n      dup4\n        /* \"LinearRelease.sol\":3117:3124  payment */\n      dup4\n        /* \"LinearRelease.sol\":3095:3106  _releasable */\n      tag_35\n        /* \"LinearRelease.sol\":3095:3125  _releasable(_account, payment) */\n      jump\t// in\n    tag_34:\n        /* \"LinearRelease.sol\":3069:3125  uint256 releasableShare = _releasable(_account, payment) */\n      swap1\n      pop\n        /* \"LinearRelease.sol\":3152:3167  releasableShare */\n      dup1\n        /* \"LinearRelease.sol\":3135:3148  totalWithdraw */\n      0x01\n      0x00\n        /* \"LinearRelease.sol\":3135:3167  totalWithdraw += releasableShare */\n      dup3\n      dup3\n      sload\n      tag_36\n      swap2\n      swap1\n      tag_37\n      jump\t// in\n    tag_36:\n      swap3\n      pop\n      pop\n      dup2\n      swap1\n      sstore\n      pop\n        /* \"LinearRelease.sol\":3201:3216  releasableShare */\n      dup1\n        /* \"LinearRelease.sol\":3177:3187  withdrawed */\n      0x03\n        /* \"LinearRelease.sol\":3177:3197  withdrawed[_account] */\n      0x00\n        /* \"LinearRelease.sol\":3188:3196  _account */\n      dup6\n        /* \"LinearRelease.sol\":3177:3197  withdrawed[_account] */\n      0xffffffffffffffffffffffffffffffffffffffff\n      and\n      0xffffffffffffffffffffffffffffffffffffffff\n      and\n      dup2\n      mstore\n      0x20\n      add\n      swap1\n      dup2\n      mstore\n      0x20\n      add\n      0x00\n      keccak256\n      0x00\n        /* \"LinearRelease.sol\":3177:3216  withdrawed[_account] += releasableShare */\n      dup3\n      dup3\n      sload\n      tag_38\n      swap2\n      swap1\n      tag_37\n      jump\t// in\n    tag_38:\n      swap3\n      pop\n      pop\n      dup2\n      swap1\n      sstore\n      pop\n        /* \"LinearRelease.sol\":3226:3234  _account */\n      dup3\n        /* \"LinearRelease.sol\":3226:3243  _account.transfer */\n      0xffffffffffffffffffffffffffffffffffffffff\n      and\n        /* \"LinearRelease.sol\":3226:3260  _account.transfer(releasableShare) */\n      0x08fc\n        /* \"LinearRelease.sol\":3244:3259  releasableShare */\n      dup3\n        /* \"LinearRelease.sol\":3226:3260  _account.transfer(releasableShare) */\n      swap1\n      dup2\n      iszero\n      mul\n      swap1\n      mload(0x40)\n      0x00\n      mload(0x40)\n      dup1\n      dup4\n      sub\n      dup2\n      dup6\n      dup9\n      dup9\n      call\n      swap4\n      pop\n      pop\n      pop\n      pop\n      iszero\n      dup1\n      iszero\n      tag_40\n      jumpi\n      returndatasize\n      0x00\n      dup1\n      returndatacopy\n      revert(0x00, returndatasize)\n    tag_40:\n      pop\n        /* \"LinearRelease.sol\":3290:3298  _account */\n      dup3\n        /* \"LinearRelease.sol\":3275:3316  WithdrawShares(_account, releasableShare) */\n      0xffffffffffffffffffffffffffffffffffffffff\n      and\n      0x65acde034bd1126095b070c3dab2499d374f97ad47387adfb86ba47b0240a24f\n        /* \"LinearRelease.sol\":3300:3315  releasableShare */\n      dup3\n        /* \"LinearRelease.sol\":3275:3316  WithdrawShares(_account, releasableShare) */\n      mload(0x40)\n      tag_41\n      swap2\n      swap1\n      tag_19\n      jump\t// in\n    tag_41:\n      mload(0x40)\n      dup1\n      swap2\n      sub\n      swap1\n      log2\n        /* \"LinearRelease.sol\":2884:3323  {... */\n      pop\n      pop\n        /* \"LinearRelease.sol\":2829:3323  function withdrawShare(address payable _account) public{... */\n      pop\n      jump\t// out\n        /* \"LinearRelease.sol\":3486:3770  function releaseableShare(address _account) public view returns (uint256){... */\n    tag_17:\n        /* \"LinearRelease.sol\":3551:3558  uint256 */\n      0x00\n        /* \"LinearRelease.sol\":3569:3584  uint256 payment */\n      dup1\n        /* \"LinearRelease.sol\":3587:3610  _withdrawable(_account) */\n      tag_43\n        /* \"LinearRelease.sol\":3601:3609  _account */\n      dup4\n        /* \"LinearRelease.sol\":3587:3600  _withdrawable */\n      tag_30\n        /* \"LinearRelease.sol\":3587:3610  _withdrawable(_account) */\n      jump\t// in\n    tag_43:\n        /* \"LinearRelease.sol\":3569:3610  uint256 payment = _withdrawable(_account) */\n      swap1\n      pop\n        /* \"LinearRelease.sol\":3638:3639  0 */\n      0x00\n        /* \"LinearRelease.sol\":3628:3635  payment */\n      dup2\n        /* \"LinearRelease.sol\":3628:3639  payment > 0 */\n      gt\n        /* \"LinearRelease.sol\":3620:3665  require(payment > 0, \"account have no share\") */\n      tag_44\n      jumpi\n      mload(0x40)\n      0x08c379a000000000000000000000000000000000000000000000000000000000\n      dup2\n      mstore\n      0x04\n      add\n      tag_45\n      swap1\n      tag_33\n      jump\t// in\n    tag_45:\n      mload(0x40)\n      dup1\n      swap2\n      sub\n      swap1\n      revert\n    tag_44:\n        /* \"LinearRelease.sol\":3675:3698  uint256 releasableShare */\n      0x00\n        /* \"LinearRelease.sol\":3701:3731  _releasable(_account, payment) */\n      tag_46\n        /* \"LinearRelease.sol\":3713:3721  _account */\n      dup5\n        /* \"LinearRelease.sol\":3723:3730  payment */\n      dup4\n        /* \"LinearRelease.sol\":3701:3712  _releasable */\n      tag_35\n        /* \"LinearRelease.sol\":3701:3731  _releasable(_account, payment) */\n      jump\t// in\n    tag_46:\n        /* \"LinearRelease.sol\":3675:3731  uint256 releasableShare = _releasable(_account, payment) */\n      swap1\n      pop\n        /* \"LinearRelease.sol\":3748:3763  releasableShare */\n      dup1\n        /* \"LinearRelease.sol\":3741:3763  return releasableShare */\n      swap3\n      pop\n      pop\n      pop\n        /* \"LinearRelease.sol\":3486:3770  function releaseableShare(address _account) public view returns (uint256){... */\n      swap2\n      swap1\n      pop\n      jump\t// out\n        /* \"LinearRelease.sol\":3329:3480  function paymentShare(address _account) public view returns (uint256){... */\n    tag_23:\n        /* \"LinearRelease.sol\":3390:3397  uint256 */\n      0x00\n        /* \"LinearRelease.sol\":3408:3423  uint256 payment */\n      dup1\n        /* \"LinearRelease.sol\":3426:3449  _withdrawable(_account) */\n      tag_48\n        /* \"LinearRelease.sol\":3440:3448  _account */\n      dup4\n        /* \"LinearRelease.sol\":3426:3439  _withdrawable */\n      tag_30\n        /* \"LinearRelease.sol\":3426:3449  _withdrawable(_account) */\n      jump\t// in\n    tag_48:\n        /* \"LinearRelease.sol\":3408:3449  uint256 payment = _withdrawable(_account) */\n      swap1\n      pop\n        /* \"LinearRelease.sol\":3466:3473  payment */\n      dup1\n        /* \"LinearRelease.sol\":3459:3473  return payment */\n      swap2\n      pop\n      pop\n        /* \"LinearRelease.sol\":3329:3480  function paymentShare(address _account) public view returns (uint256){... */\n      swap2\n      swap1\n      pop\n      jump\t// out\n        /* \"LinearRelease.sol\":4322:4598  function _withdrawable(address _account) private view returns (uint256){... */\n    tag_30:\n        /* \"LinearRelease.sol\":4385:4392  uint256 */\n      0x00\n        /* \"LinearRelease.sol\":4403:4424  uint256 totalReceived */\n      dup1\n        /* \"LinearRelease.sol\":4451:4464  totalWithdraw */\n      sload(0x01)\n        /* \"LinearRelease.sol\":4427:4448  address(this).balance */\n      selfbalance\n        /* \"LinearRelease.sol\":4427:4464  address(this).balance + totalWithdraw */\n      tag_50\n      swap2\n      swap1\n      tag_37\n      jump\t// in\n    tag_50:\n        /* \"LinearRelease.sol\":4403:4464  uint256 totalReceived = address(this).balance + totalWithdraw */\n      swap1\n      pop\n        /* \"LinearRelease.sol\":4474:4489  uint256 payment */\n      0x00\n        /* \"LinearRelease.sol\":4547:4557  withdrawed */\n      0x03\n        /* \"LinearRelease.sol\":4547:4567  withdrawed[_account] */\n      0x00\n        /* \"LinearRelease.sol\":4558:4566  _account */\n      dup6\n        /* \"LinearRelease.sol\":4547:4567  withdrawed[_account] */\n      0xffffffffffffffffffffffffffffffffffffffff\n      and\n      0xffffffffffffffffffffffffffffffffffffffff\n      and\n      dup2\n      mstore\n      0x20\n      add\n      swap1\n      dup2\n      mstore\n      0x20\n      add\n      0x00\n      keccak256\n      sload\n        /* \"LinearRelease.sol\":4533:4544  totalShares */\n      sload(0x00)\n        /* \"LinearRelease.sol\":4508:4520  personShares */\n      0x02\n        /* \"LinearRelease.sol\":4508:4530  personShares[_account] */\n      0x00\n        /* \"LinearRelease.sol\":4521:4529  _account */\n      dup8\n        /* \"LinearRelease.sol\":4508:4530  personShares[_account] */\n      0xffffffffffffffffffffffffffffffffffffffff\n      and\n      0xffffffffffffffffffffffffffffffffffffffff\n      and\n      dup2\n      mstore\n      0x20\n      add\n      swap1\n      dup2\n      mstore\n      0x20\n      add\n      0x00\n      keccak256\n      sload\n        /* \"LinearRelease.sol\":4492:4505  totalReceived */\n      dup5\n        /* \"LinearRelease.sol\":4492:4530  totalReceived * personShares[_account] */\n      tag_51\n      swap2\n      swap1\n      tag_52\n      jump\t// in\n    tag_51:\n        /* \"LinearRelease.sol\":4492:4544  totalReceived * personShares[_account] / totalShares */\n      tag_53\n      swap2\n      swap1\n      tag_54\n      jump\t// in\n    tag_53:\n        /* \"LinearRelease.sol\":4492:4567  totalReceived * personShares[_account] / totalShares - withdrawed[_account] */\n      tag_55\n      swap2\n      swap1\n      tag_56\n      jump\t// in\n    tag_55:\n        /* \"LinearRelease.sol\":4474:4567  uint256 payment = totalReceived * personShares[_account] / totalShares - withdrawed[_account] */\n      swap1\n      pop\n        /* \"LinearRelease.sol\":4584:4591  payment */\n      dup1\n        /* \"LinearRelease.sol\":4577:4591  return payment */\n      swap3\n      pop\n      pop\n      pop\n        /* \"LinearRelease.sol\":4322:4598  function _withdrawable(address _account) private view returns (uint256){... */\n      swap2\n      swap1\n      pop\n      jump\t// out\n        /* \"LinearRelease.sol\":3776:4256  function _releasable(address _account, uint256 _payment) private view returns (uint256){... */\n    tag_35:\n        /* \"LinearRelease.sol\":3855:3862  uint256 */\n      0x00\n        /* \"LinearRelease.sol\":3873:3893  uint256 accountStart */\n      dup1\n        /* \"LinearRelease.sol\":3896:3915  accountStartMapping */\n      0x05\n        /* \"LinearRelease.sol\":3896:3925  accountStartMapping[_account] */\n      0x00\n        /* \"LinearRelease.sol\":3916:3924  _account */\n      dup6\n        /* \"LinearRelease.sol\":3896:3925  accountStartMapping[_account] */\n      0xffffffffffffffffffffffffffffffffffffffff\n      and\n      0xffffffffffffffffffffffffffffffffffffffff\n      and\n      dup2\n      mstore\n      0x20\n      add\n      swap1\n      dup2\n      mstore\n      0x20\n      add\n      0x00\n      keccak256\n      sload\n        /* \"LinearRelease.sol\":3873:3925  uint256 accountStart = accountStartMapping[_account] */\n      swap1\n      pop\n        /* \"LinearRelease.sol\":3956:3968  accountStart */\n      dup1\n        /* \"LinearRelease.sol\":3938:3953  block.timestamp */\n      timestamp\n        /* \"LinearRelease.sol\":3938:3968  block.timestamp < accountStart */\n      lt\n        /* \"LinearRelease.sol\":3935:4002  if(block.timestamp < accountStart){... */\n      iszero\n      tag_58\n      jumpi\n        /* \"LinearRelease.sol\":3990:3991  0 */\n      0x00\n        /* \"LinearRelease.sol\":3983:3991  return 0 */\n      swap2\n      pop\n      pop\n      jump(tag_57)\n        /* \"LinearRelease.sol\":3935:4002  if(block.timestamp < accountStart){... */\n    tag_58:\n        /* \"LinearRelease.sol\":4011:4034  uint256 accountDuration */\n      0x00\n        /* \"LinearRelease.sol\":4037:4059  accountDurationMapping */\n      0x06\n        /* \"LinearRelease.sol\":4037:4069  accountDurationMapping[_account] */\n      0x00\n        /* \"LinearRelease.sol\":4060:4068  _account */\n      dup7\n        /* \"LinearRelease.sol\":4037:4069  accountDurationMapping[_account] */\n      0xffffffffffffffffffffffffffffffffffffffff\n      and\n      0xffffffffffffffffffffffffffffffffffffffff\n      and\n      dup2\n      mstore\n      0x20\n      add\n      swap1\n      dup2\n      mstore\n      0x20\n      add\n      0x00\n      keccak256\n      sload\n        /* \"LinearRelease.sol\":4011:4069  uint256 accountDuration = accountDurationMapping[_account] */\n      swap1\n      pop\n        /* \"LinearRelease.sol\":4116:4131  accountDuration */\n      dup1\n        /* \"LinearRelease.sol\":4101:4113  accountStart */\n      dup3\n        /* \"LinearRelease.sol\":4101:4131  accountStart + accountDuration */\n      tag_59\n      swap2\n      swap1\n      tag_37\n      jump\t// in\n    tag_59:\n        /* \"LinearRelease.sol\":4082:4097  block.timestamp */\n      timestamp\n        /* \"LinearRelease.sol\":4082:4131  block.timestamp >= accountStart + accountDuration */\n      lt\n        /* \"LinearRelease.sol\":4079:4172  if(block.timestamp >= accountStart + accountDuration){... */\n      tag_60\n      jumpi\n        /* \"LinearRelease.sol\":4153:4161  _payment */\n      dup4\n        /* \"LinearRelease.sol\":4146:4161  return _payment */\n      swap3\n      pop\n      pop\n      pop\n      jump(tag_57)\n        /* \"LinearRelease.sol\":4079:4172  if(block.timestamp >= accountStart + accountDuration){... */\n    tag_60:\n        /* \"LinearRelease.sol\":4234:4249  accountDuration */\n      dup1\n        /* \"LinearRelease.sol\":4218:4230  accountStart */\n      dup3\n        /* \"LinearRelease.sol\":4200:4215  block.timestamp */\n      timestamp\n        /* \"LinearRelease.sol\":4200:4230  block.timestamp - accountStart */\n      tag_61\n      swap2\n      swap1\n      tag_56\n      jump\t// in\n    tag_61:\n        /* \"LinearRelease.sol\":4188:4196  _payment */\n      dup6\n        /* \"LinearRelease.sol\":4188:4231  _payment * (block.timestamp - accountStart) */\n      tag_62\n      swap2\n      swap1\n      tag_52\n      jump\t// in\n    tag_62:\n        /* \"LinearRelease.sol\":4188:4249  _payment * (block.timestamp - accountStart) / accountDuration */\n      tag_63\n      swap2\n      swap1\n      tag_54\n      jump\t// in\n    tag_63:\n        /* \"LinearRelease.sol\":4181:4249  return _payment * (block.timestamp - accountStart) / accountDuration */\n      swap3\n      pop\n      pop\n      pop\n        /* \"LinearRelease.sol\":3776:4256  function _releasable(address _account, uint256 _payment) private view returns (uint256){... */\n    tag_57:\n      swap3\n      swap2\n      pop\n      pop\n      jump\t// out\n        /* \"#utility.yul\":7:146   */\n    tag_65:\n        /* \"#utility.yul\":53:58   */\n      0x00\n        /* \"#utility.yul\":91:97   */\n      dup2\n        /* \"#utility.yul\":78:98   */\n      calldataload\n        /* \"#utility.yul\":69:98   */\n      swap1\n      pop\n        /* \"#utility.yul\":107:140   */\n      tag_67\n        /* \"#utility.yul\":134:139   */\n      dup2\n        /* \"#utility.yul\":107:140   */\n      tag_68\n      jump\t// in\n    tag_67:\n        /* \"#utility.yul\":7:146   */\n      swap3\n      swap2\n      pop\n      pop\n      jump\t// out\n        /* \"#utility.yul\":152:307   */\n    tag_69:\n        /* \"#utility.yul\":206:211   */\n      0x00\n        /* \"#utility.yul\":244:250   */\n      dup2\n        /* \"#utility.yul\":231:251   */\n      calldataload\n        /* \"#utility.yul\":222:251   */\n      swap1\n      pop\n        /* \"#utility.yul\":260:301   */\n      tag_71\n        /* \"#utility.yul\":295:300   */\n      dup2\n        /* \"#utility.yul\":260:301   */\n      tag_72\n      jump\t// in\n    tag_71:\n        /* \"#utility.yul\":152:307   */\n      swap3\n      swap2\n      pop\n      pop\n      jump\t// out\n        /* \"#utility.yul\":313:642   */\n    tag_16:\n        /* \"#utility.yul\":372:378   */\n      0x00\n        /* \"#utility.yul\":421:423   */\n      0x20\n        /* \"#utility.yul\":409:418   */\n      dup3\n        /* \"#utility.yul\":400:407   */\n      dup5\n        /* \"#utility.yul\":396:419   */\n      sub\n        /* \"#utility.yul\":392:424   */\n      slt\n        /* \"#utility.yul\":389:508   */\n      iszero\n      tag_74\n      jumpi\n        /* \"#utility.yul\":427:506   */\n      tag_75\n      tag_76\n      jump\t// in\n    tag_75:\n        /* \"#utility.yul\":389:508   */\n    tag_74:\n        /* \"#utility.yul\":547:548   */\n      0x00\n        /* \"#utility.yul\":572:625   */\n      tag_77\n        /* \"#utility.yul\":617:624   */\n      dup5\n        /* \"#utility.yul\":608:614   */\n      dup3\n        /* \"#utility.yul\":597:606   */\n      dup6\n        /* \"#utility.yul\":593:615   */\n      add\n        /* \"#utility.yul\":572:625   */\n      tag_65\n      jump\t// in\n    tag_77:\n        /* \"#utility.yul\":562:625   */\n      swap2\n      pop\n        /* \"#utility.yul\":518:635   */\n      pop\n        /* \"#utility.yul\":313:642   */\n      swap3\n      swap2\n      pop\n      pop\n      jump\t// out\n        /* \"#utility.yul\":648:993   */\n    tag_11:\n        /* \"#utility.yul\":715:721   */\n      0x00\n        /* \"#utility.yul\":764:766   */\n      0x20\n        /* \"#utility.yul\":752:761   */\n      dup3\n        /* \"#utility.yul\":743:750   */\n      dup5\n        /* \"#utility.yul\":739:762   */\n      sub\n        /* \"#utility.yul\":735:767   */\n      slt\n        /* \"#utility.yul\":732:851   */\n      iszero\n      tag_79\n      jumpi\n        /* \"#utility.yul\":770:849   */\n      tag_80\n      tag_76\n      jump\t// in\n    tag_80:\n        /* \"#utility.yul\":732:851   */\n    tag_79:\n        /* \"#utility.yul\":890:891   */\n      0x00\n        /* \"#utility.yul\":915:976   */\n      tag_81\n        /* \"#utility.yul\":968:975   */\n      dup5\n        /* \"#utility.yul\":959:965   */\n      dup3\n        /* \"#utility.yul\":948:957   */\n      dup6\n        /* \"#utility.yul\":944:966   */\n      add\n        /* \"#utility.yul\":915:976   */\n      tag_69\n      jump\t// in\n    tag_81:\n        /* \"#utility.yul\":905:976   */\n      swap2\n      pop\n        /* \"#utility.yul\":861:986   */\n      pop\n        /* \"#utility.yul\":648:993   */\n      swap3\n      swap2\n      pop\n      pop\n      jump\t// out\n        /* \"#utility.yul\":999:1365   */\n    tag_82:\n        /* \"#utility.yul\":1141:1144   */\n      0x00\n        /* \"#utility.yul\":1162:1229   */\n      tag_84\n        /* \"#utility.yul\":1226:1228   */\n      0x14\n        /* \"#utility.yul\":1221:1224   */\n      dup4\n        /* \"#utility.yul\":1162:1229   */\n      tag_85\n      jump\t// in\n    tag_84:\n        /* \"#utility.yul\":1155:1229   */\n      swap2\n      pop\n        /* \"#utility.yul\":1238:1331   */\n      tag_86\n        /* \"#utility.yul\":1327:1330   */\n      dup3\n        /* \"#utility.yul\":1238:1331   */\n      tag_87\n      jump\t// in\n    tag_86:\n        /* \"#utility.yul\":1356:1358   */\n      0x20\n        /* \"#utility.yul\":1351:1354   */\n      dup3\n        /* \"#utility.yul\":1347:1359   */\n      add\n        /* \"#utility.yul\":1340:1359   */\n      swap1\n      pop\n        /* \"#utility.yul\":999:1365   */\n      swap2\n      swap1\n      pop\n      jump\t// out\n        /* \"#utility.yul\":1371:1737   */\n    tag_88:\n        /* \"#utility.yul\":1513:1516   */\n      0x00\n        /* \"#utility.yul\":1534:1601   */\n      tag_90\n        /* \"#utility.yul\":1598:1600   */\n      0x15\n        /* \"#utility.yul\":1593:1596   */\n      dup4\n        /* \"#utility.yul\":1534:1601   */\n      tag_85\n      jump\t// in\n    tag_90:\n        /* \"#utility.yul\":1527:1601   */\n      swap2\n      pop\n        /* \"#utility.yul\":1610:1703   */\n      tag_91\n        /* \"#utility.yul\":1699:1702   */\n      dup3\n        /* \"#utility.yul\":1610:1703   */\n      tag_92\n      jump\t// in\n    tag_91:\n        /* \"#utility.yul\":1728:1730   */\n      0x20\n        /* \"#utility.yul\":1723:1726   */\n      dup3\n        /* \"#utility.yul\":1719:1731   */\n      add\n        /* \"#utility.yul\":1712:1731   */\n      swap1\n      pop\n        /* \"#utility.yul\":1371:1737   */\n      swap2\n      swap1\n      pop\n      jump\t// out\n        /* \"#utility.yul\":1743:1861   */\n    tag_93:\n        /* \"#utility.yul\":1830:1854   */\n      tag_95\n        /* \"#utility.yul\":1848:1853   */\n      dup2\n        /* \"#utility.yul\":1830:1854   */\n      tag_96\n      jump\t// in\n    tag_95:\n        /* \"#utility.yul\":1825:1828   */\n      dup3\n        /* \"#utility.yul\":1818:1855   */\n      mstore\n        /* \"#utility.yul\":1743:1861   */\n      pop\n      pop\n      jump\t// out\n        /* \"#utility.yul\":1867:2286   */\n    tag_28:\n        /* \"#utility.yul\":2033:2037   */\n      0x00\n        /* \"#utility.yul\":2071:2073   */\n      0x20\n        /* \"#utility.yul\":2060:2069   */\n      dup3\n        /* \"#utility.yul\":2056:2074   */\n      add\n        /* \"#utility.yul\":2048:2074   */\n      swap1\n      pop\n        /* \"#utility.yul\":2120:2129   */\n      dup2\n        /* \"#utility.yul\":2114:2118   */\n      dup2\n        /* \"#utility.yul\":2110:2130   */\n      sub\n        /* \"#utility.yul\":2106:2107   */\n      0x00\n        /* \"#utility.yul\":2095:2104   */\n      dup4\n        /* \"#utility.yul\":2091:2108   */\n      add\n        /* \"#utility.yul\":2084:2131   */\n      mstore\n        /* \"#utility.yul\":2148:2279   */\n      tag_98\n        /* \"#utility.yul\":2274:2278   */\n      dup2\n        /* \"#utility.yul\":2148:2279   */\n      tag_82\n      jump\t// in\n    tag_98:\n        /* \"#utility.yul\":2140:2279   */\n      swap1\n      pop\n        /* \"#utility.yul\":1867:2286   */\n      swap2\n      swap1\n      pop\n      jump\t// out\n        /* \"#utility.yul\":2292:2711   */\n    tag_33:\n        /* \"#utility.yul\":2458:2462   */\n      0x00\n        /* \"#utility.yul\":2496:2498   */\n      0x20\n        /* \"#utility.yul\":2485:2494   */\n      dup3\n        /* \"#utility.yul\":2481:2499   */\n      add\n        /* \"#utility.yul\":2473:2499   */\n      swap1\n      pop\n        /* \"#utility.yul\":2545:2554   */\n      dup2\n        /* \"#utility.yul\":2539:2543   */\n      dup2\n        /* \"#utility.yul\":2535:2555   */\n      sub\n        /* \"#utility.yul\":2531:2532   */\n      0x00\n        /* \"#utility.yul\":2520:2529   */\n      dup4\n        /* \"#utility.yul\":2516:2533   */\n      add\n        /* \"#utility.yul\":2509:2556   */\n      mstore\n        /* \"#utility.yul\":2573:2704   */\n      tag_100\n        /* \"#utility.yul\":2699:2703   */\n      dup2\n        /* \"#utility.yul\":2573:2704   */\n      tag_88\n      jump\t// in\n    tag_100:\n        /* \"#utility.yul\":2565:2704   */\n      swap1\n      pop\n        /* \"#utility.yul\":2292:2711   */\n      swap2\n      swap1\n      pop\n      jump\t// out\n        /* \"#utility.yul\":2717:2939   */\n    tag_19:\n        /* \"#utility.yul\":2810:2814   */\n      0x00\n        /* \"#utility.yul\":2848:2850   */\n      0x20\n        /* \"#utility.yul\":2837:2846   */\n      dup3\n        /* \"#utility.yul\":2833:2851   */\n      add\n        /* \"#utility.yul\":2825:2851   */\n      swap1\n      pop\n        /* \"#utility.yul\":2861:2932   */\n      tag_102\n        /* \"#utility.yul\":2929:2930   */\n      0x00\n        /* \"#utility.yul\":2918:2927   */\n      dup4\n        /* \"#utility.yul\":2914:2931   */\n      add\n        /* \"#utility.yul\":2905:2911   */\n      dup5\n        /* \"#utility.yul\":2861:2932   */\n      tag_93\n      jump\t// in\n    tag_102:\n        /* \"#utility.yul\":2717:2939   */\n      swap3\n      swap2\n      pop\n      pop\n      jump\t// out\n        /* \"#utility.yul\":3026:3195   */\n    tag_85:\n        /* \"#utility.yul\":3110:3121   */\n      0x00\n        /* \"#utility.yul\":3144:3150   */\n      dup3\n        /* \"#utility.yul\":3139:3142   */\n      dup3\n        /* \"#utility.yul\":3132:3151   */\n      mstore\n        /* \"#utility.yul\":3184:3188   */\n      0x20\n        /* \"#utility.yul\":3179:3182   */\n      dup3\n        /* \"#utility.yul\":3175:3189   */\n      add\n        /* \"#utility.yul\":3160:3189   */\n      swap1\n      pop\n        /* \"#utility.yul\":3026:3195   */\n      swap3\n      swap2\n      pop\n      pop\n      jump\t// out\n        /* \"#utility.yul\":3201:3506   */\n    tag_37:\n        /* \"#utility.yul\":3241:3244   */\n      0x00\n        /* \"#utility.yul\":3260:3280   */\n      tag_107\n        /* \"#utility.yul\":3278:3279   */\n      dup3\n        /* \"#utility.yul\":3260:3280   */\n      tag_96\n      jump\t// in\n    tag_107:\n        /* \"#utility.yul\":3255:3280   */\n      swap2\n      pop\n        /* \"#utility.yul\":3294:3314   */\n      tag_108\n        /* \"#utility.yul\":3312:3313   */\n      dup4\n        /* \"#utility.yul\":3294:3314   */\n      tag_96\n      jump\t// in\n    tag_108:\n        /* \"#utility.yul\":3289:3314   */\n      swap3\n      pop\n        /* \"#utility.yul\":3448:3449   */\n      dup3\n        /* \"#utility.yul\":3380:3446   */\n      0xffffffffffffffffffffffffffffffffffffffffffffffffffffffffffffffff\n        /* \"#utility.yul\":3376:3450   */\n      sub\n        /* \"#utility.yul\":3373:3374   */\n      dup3\n        /* \"#utility.yul\":3370:3451   */\n      gt\n        /* \"#utility.yul\":3367:3474   */\n      iszero\n      tag_109\n      jumpi\n        /* \"#utility.yul\":3454:3472   */\n      tag_110\n      tag_111\n      jump\t// in\n    tag_110:\n        /* \"#utility.yul\":3367:3474   */\n    tag_109:\n        /* \"#utility.yul\":3498:3499   */\n      dup3\n        /* \"#utility.yul\":3495:3496   */\n      dup3\n        /* \"#utility.yul\":3491:3500   */\n      add\n        /* \"#utility.yul\":3484:3500   */\n      swap1\n      pop\n        /* \"#utility.yul\":3201:3506   */\n      swap3\n      swap2\n      pop\n      pop\n      jump\t// out\n        /* \"#utility.yul\":3512:3697   */\n    tag_54:\n        /* \"#utility.yul\":3552:3553   */\n      0x00\n        /* \"#utility.yul\":3569:3589   */\n      tag_113\n        /* \"#utility.yul\":3587:3588   */\n      dup3\n        /* \"#utility.yul\":3569:3589   */\n      tag_96\n      jump\t// in\n    tag_113:\n        /* \"#utility.yul\":3564:3589   */\n      swap2\n      pop\n        /* \"#utility.yul\":3603:3623   */\n      tag_114\n        /* \"#utility.yul\":3621:3622   */\n      dup4\n        /* \"#utility.yul\":3603:3623   */\n      tag_96\n      jump\t// in\n    tag_114:\n        /* \"#utility.yul\":3598:3623   */\n      swap3\n      pop\n        /* \"#utility.yul\":3642:3643   */\n      dup3\n        /* \"#utility.yul\":3632:3667   */\n      tag_115\n      jumpi\n        /* \"#utility.yul\":3647:3665   */\n      tag_116\n      tag_117\n      jump\t// in\n    tag_116:\n        /* \"#utility.yul\":3632:3667   */\n    tag_115:\n        /* \"#utility.yul\":3689:3690   */\n      dup3\n        /* \"#utility.yul\":3686:3687   */\n      dup3\n        /* \"#utility.yul\":3682:3691   */\n      div\n        /* \"#utility.yul\":3677:3691   */\n      swap1\n      pop\n        /* \"#utility.yul\":3512:3697   */\n      swap3\n      swap2\n      pop\n      pop\n      jump\t// out\n        /* \"#utility.yul\":3703:4051   */\n    tag_52:\n        /* \"#utility.yul\":3743:3750   */\n      0x00\n        /* \"#utility.yul\":3766:3786   */\n      tag_119\n        /* \"#utility.yul\":3784:3785   */\n      dup3\n        /* \"#utility.yul\":3766:3786   */\n      tag_96\n      jump\t// in\n    tag_119:\n        /* \"#utility.yul\":3761:3786   */\n      swap2\n      pop\n        /* \"#utility.yul\":3800:3820   */\n      tag_120\n        /* \"#utility.yul\":3818:3819   */\n      dup4\n        /* \"#utility.yul\":3800:3820   */\n      tag_96\n      jump\t// in\n    tag_120:\n        /* \"#utility.yul\":3795:3820   */\n      swap3\n      pop\n        /* \"#utility.yul\":3988:3989   */\n      dup2\n        /* \"#utility.yul\":3920:3986   */\n      0xffffffffffffffffffffffffffffffffffffffffffffffffffffffffffffffff\n        /* \"#utility.yul\":3916:3990   */\n      div\n        /* \"#utility.yul\":3913:3914   */\n      dup4\n        /* \"#utility.yul\":3910:3991   */\n      gt\n        /* \"#utility.yul\":3905:3906   */\n      dup3\n        /* \"#utility.yul\":3898:3907   */\n      iszero\n        /* \"#utility.yul\":3891:3908   */\n      iszero\n        /* \"#utility.yul\":3887:3992   */\n      and\n        /* \"#utility.yul\":3884:4015   */\n      iszero\n      tag_121\n      jumpi\n        /* \"#utility.yul\":3995:4013   */\n      tag_122\n      tag_111\n      jump\t// in\n    tag_122:\n        /* \"#utility.yul\":3884:4015   */\n    tag_121:\n        /* \"#utility.yul\":4043:4044   */\n      dup3\n        /* \"#utility.yul\":4040:4041   */\n      dup3\n        /* \"#utility.yul\":4036:4045   */\n      mul\n        /* \"#utility.yul\":4025:4045   */\n      swap1\n      pop\n        /* \"#utility.yul\":3703:4051   */\n      swap3\n      swap2\n      pop\n      pop\n      jump\t// out\n        /* \"#utility.yul\":4057:4248   */\n    tag_56:\n        /* \"#utility.yul\":4097:4101   */\n      0x00\n        /* \"#utility.yul\":4117:4137   */\n      tag_124\n        /* \"#utility.yul\":4135:4136   */\n      dup3\n        /* \"#utility.yul\":4117:4137   */\n      tag_96\n      jump\t// in\n    tag_124:\n        /* \"#utility.yul\":4112:4137   */\n      swap2\n      pop\n        /* \"#utility.yul\":4151:4171   */\n      tag_125\n        /* \"#utility.yul\":4169:4170   */\n      dup4\n        /* \"#utility.yul\":4151:4171   */\n      tag_96\n      jump\t// in\n    tag_125:\n        /* \"#utility.yul\":4146:4171   */\n      swap3\n      pop\n        /* \"#utility.yul\":4190:4191   */\n      dup3\n        /* \"#utility.yul\":4187:4188   */\n      dup3\n        /* \"#utility.yul\":4184:4192   */\n      lt\n        /* \"#utility.yul\":4181:4215   */\n      iszero\n      tag_126\n      jumpi\n        /* \"#utility.yul\":4195:4213   */\n      tag_127\n      tag_111\n      jump\t// in\n    tag_127:\n        /* \"#utility.yul\":4181:4215   */\n    tag_126:\n        /* \"#utility.yul\":4240:4241   */\n      dup3\n        /* \"#utility.yul\":4237:4238   */\n      dup3\n        /* \"#utility.yul\":4233:4242   */\n      sub\n        /* \"#utility.yul\":4225:4242   */\n      swap1\n      pop\n        /* \"#utility.yul\":4057:4248   */\n      swap3\n      swap2\n      pop\n      pop\n      jump\t// out\n        /* \"#utility.yul\":4254:4350   */\n    tag_128:\n        /* \"#utility.yul\":4291:4298   */\n      0x00\n        /* \"#utility.yul\":4320:4344   */\n      tag_130\n        /* \"#utility.yul\":4338:4343   */\n      dup3\n        /* \"#utility.yul\":4320:4344   */\n      tag_131\n      jump\t// in\n    tag_130:\n        /* \"#utility.yul\":4309:4344   */\n      swap1\n      pop\n        /* \"#utility.yul\":4254:4350   */\n      swap2\n      swap1\n      pop\n      jump\t// out\n        /* \"#utility.yul\":4356:4460   */\n    tag_132:\n        /* \"#utility.yul\":4401:4408   */\n      0x00\n        /* \"#utility.yul\":4430:4454   */\n      tag_134\n        /* \"#utility.yul\":4448:4453   */\n      dup3\n        /* \"#utility.yul\":4430:4454   */\n      tag_131\n      jump\t// in\n    tag_134:\n        /* \"#utility.yul\":4419:4454   */\n      swap1\n      pop\n        /* \"#utility.yul\":4356:4460   */\n      swap2\n      swap1\n      pop\n      jump\t// out\n        /* \"#utility.yul\":4466:4592   */\n    tag_131:\n        /* \"#utility.yul\":4503:4510   */\n      0x00\n        /* \"#utility.yul\":4543:4585   */\n      0xffffffffffffffffffffffffffffffffffffffff\n        /* \"#utility.yul\":4536:4541   */\n      dup3\n        /* \"#utility.yul\":4532:4586   */\n      and\n        /* \"#utility.yul\":4521:4586   */\n      swap1\n      pop\n        /* \"#utility.yul\":4466:4592   */\n      swap2\n      swap1\n      pop\n      jump\t// out\n        /* \"#utility.yul\":4598:4675   */\n    tag_96:\n        /* \"#utility.yul\":4635:4642   */\n      0x00\n        /* \"#utility.yul\":4664:4669   */\n      dup2\n        /* \"#utility.yul\":4653:4669   */\n      swap1\n      pop\n        /* \"#utility.yul\":4598:4675   */\n      swap2\n      swap1\n      pop\n      jump\t// out\n        /* \"#utility.yul\":4681:4861   */\n    tag_111:\n        /* \"#utility.yul\":4729:4806   */\n      0x4e487b7100000000000000000000000000000000000000000000000000000000\n        /* \"#utility.yul\":4726:4727   */\n      0x00\n        /* \"#utility.yul\":4719:4807   */\n      mstore\n        /* \"#utility.yul\":4826:4830   */\n      0x11\n        /* \"#utility.yul\":4823:4824   */\n      0x04\n        /* \"#utility.yul\":4816:4831   */\n      mstore\n        /* \"#utility.yul\":4850:4854   */\n      0x24\n        /* \"#utility.yul\":4847:4848   */\n      0x00\n        /* \"#utility.yul\":4840:4855   */\n      revert\n        /* \"#utility.yul\":4867:5047   */\n    tag_117:\n        /* \"#utility.yul\":4915:4992   */\n      0x4e487b7100000000000000000000000000000000000000000000000000000000\n        /* \"#utility.yul\":4912:4913   */\n      0x00\n        /* \"#utility.yul\":4905:4993   */\n      mstore\n        /* \"#utility.yul\":5012:5016   */\n      0x12\n        /* \"#utility.yul\":5009:5010   */\n      0x04\n        /* \"#utility.yul\":5002:5017   */\n      mstore\n        /* \"#utility.yul\":5036:5040   */\n      0x24\n        /* \"#utility.yul\":5033:5034   */\n      0x00\n        /* \"#utility.yul\":5026:5041   */\n      revert\n        /* \"#utility.yul\":5176:5293   */\n    tag_76:\n        /* \"#utility.yul\":5285:5286   */\n      0x00\n        /* \"#utility.yul\":5282:5283   */\n      dup1\n        /* \"#utility.yul\":5275:5287   */\n      revert\n        /* \"#utility.yul\":5299:5469   */\n    tag_87:\n        /* \"#utility.yul\":5439:5461   */\n      0x6163636f756e7420686173206e6f207368617265000000000000000000000000\n        /* \"#utility.yul\":5435:5436   */\n      0x00\n        /* \"#utility.yul\":5427:5433   */\n      dup3\n        /* \"#utility.yul\":5423:5437   */\n      add\n        /* \"#utility.yul\":5416:5462   */\n      mstore\n        /* \"#utility.yul\":5299:5469   */\n      pop\n      jump\t// out\n        /* \"#utility.yul\":5475:5646   */\n    tag_92:\n        /* \"#utility.yul\":5615:5638   */\n      0x6163636f756e742068617665206e6f2073686172650000000000000000000000\n        /* \"#utility.yul\":5611:5612   */\n      0x00\n        /* \"#utility.yul\":5603:5609   */\n      dup3\n        /* \"#utility.yul\":5599:5613   */\n      add\n        /* \"#utility.yul\":5592:5639   */\n      mstore\n        /* \"#utility.yul\":5475:5646   */\n      pop\n      jump\t// out\n        /* \"#utility.yul\":5652:5774   */\n    tag_68:\n        /* \"#utility.yul\":5725:5749   */\n      tag_145\n        /* \"#utility.yul\":5743:5748   */\n      dup2\n        /* \"#utility.yul\":5725:5749   */\n      tag_128\n      jump\t// in\n    tag_145:\n        /* \"#utility.yul\":5718:5723   */\n      dup2\n        /* \"#utility.yul\":5715:5750   */\n      eq\n        /* \"#utility.yul\":5705:5768   */\n      tag_146\n      jumpi\n        /* \"#utility.yul\":5764:5765   */\n      0x00\n        /* \"#utility.yul\":5761:5762   */\n      dup1\n        /* \"#utility.yul\":5754:5766   */\n      revert\n        /* \"#utility.yul\":5705:5768   */\n    tag_146:\n        /* \"#utility.yul\":5652:5774   */\n      pop\n      jump\t// out\n        /* \"#utility.yul\":5780:5918   */\n    tag_72:\n        /* \"#utility.yul\":5861:5893   */\n      tag_148\n        /* \"#utility.yul\":5887:5892   */\n      dup2\n        /* \"#utility.yul\":5861:5893   */\n      tag_132\n      jump\t// in\n    tag_148:\n        /* \"#utility.yul\":5854:5859   */\n      dup2\n        /* \"#utility.yul\":5851:5894   */\n      eq\n        /* \"#utility.yul\":5841:5912   */\n      tag_149\n      jumpi\n        /* \"#utility.yul\":5908:5909   */\n      0x00\n        /* \"#utility.yul\":5905:5906   */\n      dup1\n        /* \"#utility.yul\":5898:5910   */\n      revert\n        /* \"#utility.yul\":5841:5912   */\n    tag_149:\n        /* \"#utility.yul\":5780:5918   */\n      pop\n      jump\t// out\n\n    auxdata: 0xa26469706673582212204e8af00c30cb3ffe9cc84358d79b3e3e4089bd9360fb1a51501d339eb53e97be64736f6c63430008070033\n}\n",
				"bytecode": {
					"linkReferences": {},
					"object": "60806040526040516200155f3803806200155f833981810160405281019062000029919062000660565b60008451116200003857600080fd5b82518451146200007f576040517f08c379a0000000000000000000000000000000000000000000000000000000008152600401620000769062000888565b60405180910390fd5b8151845114620000c6576040517f08c379a0000000000000000000000000000000000000000000000000000000008152600401620000bd90620008aa565b60405180910390fd5b80518451146200010d576040517f08c379a00000000000000000000000000000000000000000000000000000000081526004016200010490620008aa565b60405180910390fd5b60005b845181101562000278576200016685828151811062000134576200013362000acf565b5b602002602001015185838151811062000152576200015162000acf565b5b60200260200101516200028360201b60201c565b8281815181106200017c576200017b62000acf565b5b6020026020010151600560008784815181106200019e576200019d62000acf565b5b602002602001015173ffffffffffffffffffffffffffffffffffffffff1673ffffffffffffffffffffffffffffffffffffffff16815260200190815260200160002081905550818181518110620001fa57620001f962000acf565b5b6020026020010151600660008784815181106200021c576200021b62000acf565b5b602002602001015173ffffffffffffffffffffffffffffffffffffffff1673ffffffffffffffffffffffffffffffffffffffff1681526020019081526020016000208190555080806200026f9062000a52565b91505062000110565b505050505062000c53565b600073ffffffffffffffffffffffffffffffffffffffff168273ffffffffffffffffffffffffffffffffffffffff161415620002f6576040517f08c379a0000000000000000000000000000000000000000000000000000000008152600401620002ed9062000866565b60405180910390fd5b600081116200033c576040517f08c379a0000000000000000000000000000000000000000000000000000000008152600401620003339062000822565b60405180910390fd5b6000600260008473ffffffffffffffffffffffffffffffffffffffff1673ffffffffffffffffffffffffffffffffffffffff1681526020019081526020016000205414620003c1576040517f08c379a0000000000000000000000000000000000000000000000000000000008152600401620003b89062000844565b60405180910390fd5b6004829080600181540180825580915050600190039060005260206000200160009091909190916101000a81548173ffffffffffffffffffffffffffffffffffffffff021916908373ffffffffffffffffffffffffffffffffffffffff16021790555080600260008473ffffffffffffffffffffffffffffffffffffffff1673ffffffffffffffffffffffffffffffffffffffff16815260200190815260200160002081905550806000808282546200047b919062000981565b925050819055508173ffffffffffffffffffffffffffffffffffffffff167f2cff1fbd97349296439d092211657ee417f89f6189b60a2ec990d7384c3bb82c82604051620004ca9190620008cc565b60405180910390a25050565b6000620004ed620004e78462000912565b620008e9565b9050808382526020820190508285602086028201111562000513576200051262000b32565b5b60005b858110156200054757816200052c8882620005cc565b84526020840193506020830192505060018101905062000516565b5050509392505050565b600062000568620005628462000941565b620008e9565b905080838252602082019050828560208602820111156200058e576200058d62000b32565b5b60005b85811015620005c25781620005a7888262000649565b84526020840193506020830192505060018101905062000591565b5050509392505050565b600081519050620005dd8162000c1f565b92915050565b600082601f830112620005fb57620005fa62000b2d565b5b81516200060d848260208601620004d6565b91505092915050565b600082601f8301126200062e576200062d62000b2d565b5b81516200064084826020860162000551565b91505092915050565b6000815190506200065a8162000c39565b92915050565b600080600080608085870312156200067d576200067c62000b3c565b5b600085015167ffffffffffffffff8111156200069e576200069d62000b37565b5b620006ac87828801620005e3565b945050602085015167ffffffffffffffff811115620006d057620006cf62000b37565b5b620006de8782880162000616565b935050604085015167ffffffffffffffff81111562000702576200070162000b37565b5b620007108782880162000616565b925050606085015167ffffffffffffffff81111562000734576200073362000b37565b5b620007428782880162000616565b91505092959194509250565b60006200075d60128362000970565b91506200076a8262000b52565b602082019050919050565b60006200078460168362000970565b9150620007918262000b7b565b602082019050919050565b6000620007ab601f8362000970565b9150620007b88262000ba4565b602082019050919050565b6000620007d2601e8362000970565b9150620007df8262000bcd565b602082019050919050565b6000620007f960118362000970565b9150620008068262000bf6565b602082019050919050565b6200081c8162000a12565b82525050565b600060208201905081810360008301526200083d816200074e565b9050919050565b600060208201905081810360008301526200085f8162000775565b9050919050565b6000602082019050818103600083015262000881816200079c565b9050919050565b60006020820190508181036000830152620008a381620007c3565b9050919050565b60006020820190508181036000830152620008c581620007ea565b9050919050565b6000602082019050620008e3600083018462000811565b92915050565b6000620008f562000908565b905062000903828262000a1c565b919050565b6000604051905090565b600067ffffffffffffffff82111562000930576200092f62000afe565b5b602082029050602081019050919050565b600067ffffffffffffffff8211156200095f576200095e62000afe565b5b602082029050602081019050919050565b600082825260208201905092915050565b60006200098e8262000a12565b91506200099b8362000a12565b9250827fffffffffffffffffffffffffffffffffffffffffffffffffffffffffffffffff03821115620009d357620009d262000aa0565b5b828201905092915050565b6000620009eb82620009f2565b9050919050565b600073ffffffffffffffffffffffffffffffffffffffff82169050919050565b6000819050919050565b62000a278262000b41565b810181811067ffffffffffffffff8211171562000a495762000a4862000afe565b5b80604052505050565b600062000a5f8262000a12565b91507fffffffffffffffffffffffffffffffffffffffffffffffffffffffffffffffff82141562000a955762000a9462000aa0565b5b600182019050919050565b7f4e487b7100000000000000000000000000000000000000000000000000000000600052601160045260246000fd5b7f4e487b7100000000000000000000000000000000000000000000000000000000600052603260045260246000fd5b7f4e487b7100000000000000000000000000000000000000000000000000000000600052604160045260246000fd5b600080fd5b600080fd5b600080fd5b600080fd5b6000601f19601f8301169050919050565b7f73686172652063616e206e6f7420626520300000000000000000000000000000600082015250565b7f6163636f756e7420616c72656164792065786973747300000000000000000000600082015250565b7f616464726573732063616e206e6f74206265207a65726f206164647265737300600082015250565b7f62656e656669636961727920616e64207368617265206469736d617463680000600082015250565b7f617267756d656e74206d69736d61746368000000000000000000000000000000600082015250565b62000c2a81620009de565b811462000c3657600080fd5b50565b62000c448162000a12565b811462000c5057600080fd5b50565b6108fc8062000c636000396000f3fe6080604052600436106100385760003560e01c80631027853f146100885780635dfb1d32146100b1578063d24ef437146100ee57610083565b3661008357343373ffffffffffffffffffffffffffffffffffffffff167f0665ce5a0bf7dc12efe22f9101ab1469d837a533bbf654f049c203278f36cfa260405160405180910390a3005b600080fd5b34801561009457600080fd5b506100af60048036038101906100aa9190610592565b61012b565b005b3480156100bd57600080fd5b506100d860048036038101906100d39190610565565b610314565b6040516100e59190610654565b60405180910390f35b3480156100fa57600080fd5b5061011560048036038101906101109190610565565b61037d565b6040516101229190610654565b60405180910390f35b6000600260008373ffffffffffffffffffffffffffffffffffffffff1673ffffffffffffffffffffffffffffffffffffffff16815260200190815260200160002054116101ad576040517f08c379a00000000000000000000000000000000000000000000000000000000081526004016101a490610614565b60405180910390fd5b60006101b882610394565b9050600081116101fd576040517f08c379a00000000000000000000000000000000000000000000000000000000081526004016101f490610634565b60405180910390fd5b60006102098383610457565b9050806001600082825461021d9190610680565b9250508190555080600360008573ffffffffffffffffffffffffffffffffffffffff1673ffffffffffffffffffffffffffffffffffffffff16815260200190815260200160002060008282546102739190610680565b925050819055508273ffffffffffffffffffffffffffffffffffffffff166108fc829081150290604051600060405180830381858888f193505050501580156102c0573d6000803e3d6000fd5b508273ffffffffffffffffffffffffffffffffffffffff167f65acde034bd1126095b070c3dab2499d374f97ad47387adfb86ba47b0240a24f826040516103079190610654565b60405180910390a2505050565b60008061032083610394565b905060008111610365576040517f08c379a000000000000000000000000000000000000000000000000000000000815260040161035c90610634565b60405180910390fd5b60006103718483610457565b90508092505050919050565b60008061038983610394565b905080915050919050565b600080600154476103a59190610680565b90506000600360008573ffffffffffffffffffffffffffffffffffffffff1673ffffffffffffffffffffffffffffffffffffffff16815260200190815260200160002054600054600260008773ffffffffffffffffffffffffffffffffffffffff1673ffffffffffffffffffffffffffffffffffffffff16815260200190815260200160002054846104379190610707565b61044191906106d6565b61044b9190610761565b90508092505050919050565b600080600560008573ffffffffffffffffffffffffffffffffffffffff1673ffffffffffffffffffffffffffffffffffffffff168152602001908152602001600020549050804210156104ae576000915050610535565b6000600660008673ffffffffffffffffffffffffffffffffffffffff1673ffffffffffffffffffffffffffffffffffffffff16815260200190815260200160002054905080826104fe9190610680565b421061050e578392505050610535565b80824261051b9190610761565b856105269190610707565b61053091906106d6565b925050505b92915050565b60008135905061054a81610898565b92915050565b60008135905061055f816108af565b92915050565b60006020828403121561057b5761057a610841565b5b60006105898482850161053b565b91505092915050565b6000602082840312156105a8576105a7610841565b5b60006105b684828501610550565b91505092915050565b60006105cc60148361066f565b91506105d782610846565b602082019050919050565b60006105ef60158361066f565b91506105fa8261086f565b602082019050919050565b61060e816107d9565b82525050565b6000602082019050818103600083015261062d816105bf565b9050919050565b6000602082019050818103600083015261064d816105e2565b9050919050565b60006020820190506106696000830184610605565b92915050565b600082825260208201905092915050565b600061068b826107d9565b9150610696836107d9565b9250827fffffffffffffffffffffffffffffffffffffffffffffffffffffffffffffffff038211156106cb576106ca6107e3565b5b828201905092915050565b60006106e1826107d9565b91506106ec836107d9565b9250826106fc576106fb610812565b5b828204905092915050565b6000610712826107d9565b915061071d836107d9565b9250817fffffffffffffffffffffffffffffffffffffffffffffffffffffffffffffffff0483118215151615610756576107556107e3565b5b828202905092915050565b600061076c826107d9565b9150610777836107d9565b92508282101561078a576107896107e3565b5b828203905092915050565b60006107a0826107b9565b9050919050565b60006107b2826107b9565b9050919050565b600073ffffffffffffffffffffffffffffffffffffffff82169050919050565b6000819050919050565b7f4e487b7100000000000000000000000000000000000000000000000000000000600052601160045260246000fd5b7f4e487b7100000000000000000000000000000000000000000000000000000000600052601260045260246000fd5b600080fd5b7f6163636f756e7420686173206e6f207368617265000000000000000000000000600082015250565b7f6163636f756e742068617665206e6f2073686172650000000000000000000000600082015250565b6108a181610795565b81146108ac57600080fd5b50565b6108b8816107a7565b81146108c357600080fd5b5056fea26469706673582212204e8af00c30cb3ffe9cc84358d79b3e3e4089bd9360fb1a51501d339eb53e97be64736f6c63430008070033",
					"opcodes": "PUSH1 0x80 PUSH1 0x40 MSTORE PUSH1 0x40 MLOAD PUSH3 0x155F CODESIZE SUB DUP1 PUSH3 0x155F DUP4 CODECOPY DUP2 DUP2 ADD PUSH1 0x40 MSTORE DUP2 ADD SWAP1 PUSH3 0x29 SWAP2 SWAP1 PUSH3 0x660 JUMP JUMPDEST PUSH1 0x0 DUP5 MLOAD GT PUSH3 0x38 JUMPI PUSH1 0x0 DUP1 REVERT JUMPDEST DUP3 MLOAD DUP5 MLOAD EQ PUSH3 0x7F JUMPI PUSH1 0x40 MLOAD PUSH32 0x8C379A000000000000000000000000000000000000000000000000000000000 DUP2 MSTORE PUSH1 0x4 ADD PUSH3 0x76 SWAP1 PUSH3 0x888 JUMP JUMPDEST PUSH1 0x40 MLOAD DUP1 SWAP2 SUB SWAP1 REVERT JUMPDEST DUP2 MLOAD DUP5 MLOAD EQ PUSH3 0xC6 JUMPI PUSH1 0x40 MLOAD PUSH32 0x8C379A000000000000000000000000000000000000000000000000000000000 DUP2 MSTORE PUSH1 0x4 ADD PUSH3 0xBD SWAP1 PUSH3 0x8AA JUMP JUMPDEST PUSH1 0x40 MLOAD DUP1 SWAP2 SUB SWAP1 REVERT JUMPDEST DUP1 MLOAD DUP5 MLOAD EQ PUSH3 0x10D JUMPI PUSH1 0x40 MLOAD PUSH32 0x8C379A000000000000000000000000000000000000000000000000000000000 DUP2 MSTORE PUSH1 0x4 ADD PUSH3 0x104 SWAP1 PUSH3 0x8AA JUMP JUMPDEST PUSH1 0x40 MLOAD DUP1 SWAP2 SUB SWAP1 REVERT JUMPDEST PUSH1 0x0 JUMPDEST DUP5 MLOAD DUP2 LT ISZERO PUSH3 0x278 JUMPI PUSH3 0x166 DUP6 DUP3 DUP2 MLOAD DUP2 LT PUSH3 0x134 JUMPI PUSH3 0x133 PUSH3 0xACF JUMP JUMPDEST JUMPDEST PUSH1 0x20 MUL PUSH1 0x20 ADD ADD MLOAD DUP6 DUP4 DUP2 MLOAD DUP2 LT PUSH3 0x152 JUMPI PUSH3 0x151 PUSH3 0xACF JUMP JUMPDEST JUMPDEST PUSH1 0x20 MUL PUSH1 0x20 ADD ADD MLOAD PUSH3 0x283 PUSH1 0x20 SHL PUSH1 0x20 SHR JUMP JUMPDEST DUP3 DUP2 DUP2 MLOAD DUP2 LT PUSH3 0x17C JUMPI PUSH3 0x17B PUSH3 0xACF JUMP JUMPDEST JUMPDEST PUSH1 0x20 MUL PUSH1 0x20 ADD ADD MLOAD PUSH1 0x5 PUSH1 0x0 DUP8 DUP5 DUP2 MLOAD DUP2 LT PUSH3 0x19E JUMPI PUSH3 0x19D PUSH3 0xACF JUMP JUMPDEST JUMPDEST PUSH1 0x20 MUL PUSH1 0x20 ADD ADD MLOAD PUSH20 0xFFFFFFFFFFFFFFFFFFFFFFFFFFFFFFFFFFFFFFFF AND PUSH20 0xFFFFFFFFFFFFFFFFFFFFFFFFFFFFFFFFFFFFFFFF AND DUP2 MSTORE PUSH1 0x20 ADD SWAP1 DUP2 MSTORE PUSH1 0x20 ADD PUSH1 0x0 KECCAK256 DUP2 SWAP1 SSTORE POP DUP2 DUP2 DUP2 MLOAD DUP2 LT PUSH3 0x1FA JUMPI PUSH3 0x1F9 PUSH3 0xACF JUMP JUMPDEST JUMPDEST PUSH1 0x20 MUL PUSH1 0x20 ADD ADD MLOAD PUSH1 0x6 PUSH1 0x0 DUP8 DUP5 DUP2 MLOAD DUP2 LT PUSH3 0x21C JUMPI PUSH3 0x21B PUSH3 0xACF JUMP JUMPDEST JUMPDEST PUSH1 0x20 MUL PUSH1 0x20 ADD ADD MLOAD PUSH20 0xFFFFFFFFFFFFFFFFFFFFFFFFFFFFFFFFFFFFFFFF AND PUSH20 0xFFFFFFFFFFFFFFFFFFFFFFFFFFFFFFFFFFFFFFFF AND DUP2 MSTORE PUSH1 0x20 ADD SWAP1 DUP2 MSTORE PUSH1 0x20 ADD PUSH1 0x0 KECCAK256 DUP2 SWAP1 SSTORE POP DUP1 DUP1 PUSH3 0x26F SWAP1 PUSH3 0xA52 JUMP JUMPDEST SWAP2 POP POP PUSH3 0x110 JUMP JUMPDEST POP POP POP POP POP PUSH3 0xC53 JUMP JUMPDEST PUSH1 0x0 PUSH20 0xFFFFFFFFFFFFFFFFFFFFFFFFFFFFFFFFFFFFFFFF AND DUP3 PUSH20 0xFFFFFFFFFFFFFFFFFFFFFFFFFFFFFFFFFFFFFFFF AND EQ ISZERO PUSH3 0x2F6 JUMPI PUSH1 0x40 MLOAD PUSH32 0x8C379A000000000000000000000000000000000000000000000000000000000 DUP2 MSTORE PUSH1 0x4 ADD PUSH3 0x2ED SWAP1 PUSH3 0x866 JUMP JUMPDEST PUSH1 0x40 MLOAD DUP1 SWAP2 SUB SWAP1 REVERT JUMPDEST PUSH1 0x0 DUP2 GT PUSH3 0x33C JUMPI PUSH1 0x40 MLOAD PUSH32 0x8C379A000000000000000000000000000000000000000000000000000000000 DUP2 MSTORE PUSH1 0x4 ADD PUSH3 0x333 SWAP1 PUSH3 0x822 JUMP JUMPDEST PUSH1 0x40 MLOAD DUP1 SWAP2 SUB SWAP1 REVERT JUMPDEST PUSH1 0x0 PUSH1 0x2 PUSH1 0x0 DUP5 PUSH20 0xFFFFFFFFFFFFFFFFFFFFFFFFFFFFFFFFFFFFFFFF AND PUSH20 0xFFFFFFFFFFFFFFFFFFFFFFFFFFFFFFFFFFFFFFFF AND DUP2 MSTORE PUSH1 0x20 ADD SWAP1 DUP2 MSTORE PUSH1 0x20 ADD PUSH1 0x0 KECCAK256 SLOAD EQ PUSH3 0x3C1 JUMPI PUSH1 0x40 MLOAD PUSH32 0x8C379A000000000000000000000000000000000000000000000000000000000 DUP2 MSTORE PUSH1 0x4 ADD PUSH3 0x3B8 SWAP1 PUSH3 0x844 JUMP JUMPDEST PUSH1 0x40 MLOAD DUP1 SWAP2 SUB SWAP1 REVERT JUMPDEST PUSH1 0x4 DUP3 SWAP1 DUP1 PUSH1 0x1 DUP2 SLOAD ADD DUP1 DUP3 SSTORE DUP1 SWAP2 POP POP PUSH1 0x1 SWAP1 SUB SWAP1 PUSH1 0x0 MSTORE PUSH1 0x20 PUSH1 0x0 KECCAK256 ADD PUSH1 0x0 SWAP1 SWAP2 SWAP1 SWAP2 SWAP1 SWAP2 PUSH2 0x100 EXP DUP2 SLOAD DUP2 PUSH20 0xFFFFFFFFFFFFFFFFFFFFFFFFFFFFFFFFFFFFFFFF MUL NOT AND SWAP1 DUP4 PUSH20 0xFFFFFFFFFFFFFFFFFFFFFFFFFFFFFFFFFFFFFFFF AND MUL OR SWAP1 SSTORE POP DUP1 PUSH1 0x2 PUSH1 0x0 DUP5 PUSH20 0xFFFFFFFFFFFFFFFFFFFFFFFFFFFFFFFFFFFFFFFF AND PUSH20 0xFFFFFFFFFFFFFFFFFFFFFFFFFFFFFFFFFFFFFFFF AND DUP2 MSTORE PUSH1 0x20 ADD SWAP1 DUP2 MSTORE PUSH1 0x20 ADD PUSH1 0x0 KECCAK256 DUP2 SWAP1 SSTORE POP DUP1 PUSH1 0x0 DUP1 DUP3 DUP3 SLOAD PUSH3 0x47B SWAP2 SWAP1 PUSH3 0x981 JUMP JUMPDEST SWAP3 POP POP DUP2 SWAP1 SSTORE POP DUP2 PUSH20 0xFFFFFFFFFFFFFFFFFFFFFFFFFFFFFFFFFFFFFFFF AND PUSH32 0x2CFF1FBD97349296439D092211657EE417F89F6189B60A2EC990D7384C3BB82C DUP3 PUSH1 0x40 MLOAD PUSH3 0x4CA SWAP2 SWAP1 PUSH3 0x8CC JUMP JUMPDEST PUSH1 0x40 MLOAD DUP1 SWAP2 SUB SWAP1 LOG2 POP POP JUMP JUMPDEST PUSH1 0x0 PUSH3 0x4ED PUSH3 0x4E7 DUP5 PUSH3 0x912 JUMP JUMPDEST PUSH3 0x8E9 JUMP JUMPDEST SWAP1 POP DUP1 DUP4 DUP3 MSTORE PUSH1 0x20 DUP3 ADD SWAP1 POP DUP3 DUP6 PUSH1 0x20 DUP7 MUL DUP3 ADD GT ISZERO PUSH3 0x513 JUMPI PUSH3 0x512 PUSH3 0xB32 JUMP JUMPDEST JUMPDEST PUSH1 0x0 JUMPDEST DUP6 DUP2 LT ISZERO PUSH3 0x547 JUMPI DUP2 PUSH3 0x52C DUP9 DUP3 PUSH3 0x5CC JUMP JUMPDEST DUP5 MSTORE PUSH1 0x20 DUP5 ADD SWAP4 POP PUSH1 0x20 DUP4 ADD SWAP3 POP POP PUSH1 0x1 DUP2 ADD SWAP1 POP PUSH3 0x516 JUMP JUMPDEST POP POP POP SWAP4 SWAP3 POP POP POP JUMP JUMPDEST PUSH1 0x0 PUSH3 0x568 PUSH3 0x562 DUP5 PUSH3 0x941 JUMP JUMPDEST PUSH3 0x8E9 JUMP JUMPDEST SWAP1 POP DUP1 DUP4 DUP3 MSTORE PUSH1 0x20 DUP3 ADD SWAP1 POP DUP3 DUP6 PUSH1 0x20 DUP7 MUL DUP3 ADD GT ISZERO PUSH3 0x58E JUMPI PUSH3 0x58D PUSH3 0xB32 JUMP JUMPDEST JUMPDEST PUSH1 0x0 JUMPDEST DUP6 DUP2 LT ISZERO PUSH3 0x5C2 JUMPI DUP2 PUSH3 0x5A7 DUP9 DUP3 PUSH3 0x649 JUMP JUMPDEST DUP5 MSTORE PUSH1 0x20 DUP5 ADD SWAP4 POP PUSH1 0x20 DUP4 ADD SWAP3 POP POP PUSH1 0x1 DUP2 ADD SWAP1 POP PUSH3 0x591 JUMP JUMPDEST POP POP POP SWAP4 SWAP3 POP POP POP JUMP JUMPDEST PUSH1 0x0 DUP2 MLOAD SWAP1 POP PUSH3 0x5DD DUP2 PUSH3 0xC1F JUMP JUMPDEST SWAP3 SWAP2 POP POP JUMP JUMPDEST PUSH1 0x0 DUP3 PUSH1 0x1F DUP4 ADD SLT PUSH3 0x5FB JUMPI PUSH3 0x5FA PUSH3 0xB2D JUMP JUMPDEST JUMPDEST DUP2 MLOAD PUSH3 0x60D DUP5 DUP3 PUSH1 0x20 DUP7 ADD PUSH3 0x4D6 JUMP JUMPDEST SWAP2 POP POP SWAP3 SWAP2 POP POP JUMP JUMPDEST PUSH1 0x0 DUP3 PUSH1 0x1F DUP4 ADD SLT PUSH3 0x62E JUMPI PUSH3 0x62D PUSH3 0xB2D JUMP JUMPDEST JUMPDEST DUP2 MLOAD PUSH3 0x640 DUP5 DUP3 PUSH1 0x20 DUP7 ADD PUSH3 0x551 JUMP JUMPDEST SWAP2 POP POP SWAP3 SWAP2 POP POP JUMP JUMPDEST PUSH1 0x0 DUP2 MLOAD SWAP1 POP PUSH3 0x65A DUP2 PUSH3 0xC39 JUMP JUMPDEST SWAP3 SWAP2 POP POP JUMP JUMPDEST PUSH1 0x0 DUP1 PUSH1 0x0 DUP1 PUSH1 0x80 DUP6 DUP8 SUB SLT ISZERO PUSH3 0x67D JUMPI PUSH3 0x67C PUSH3 0xB3C JUMP JUMPDEST JUMPDEST PUSH1 0x0 DUP6 ADD MLOAD PUSH8 0xFFFFFFFFFFFFFFFF DUP2 GT ISZERO PUSH3 0x69E JUMPI PUSH3 0x69D PUSH3 0xB37 JUMP JUMPDEST JUMPDEST PUSH3 0x6AC DUP8 DUP3 DUP9 ADD PUSH3 0x5E3 JUMP JUMPDEST SWAP5 POP POP PUSH1 0x20 DUP6 ADD MLOAD PUSH8 0xFFFFFFFFFFFFFFFF DUP2 GT ISZERO PUSH3 0x6D0 JUMPI PUSH3 0x6CF PUSH3 0xB37 JUMP JUMPDEST JUMPDEST PUSH3 0x6DE DUP8 DUP3 DUP9 ADD PUSH3 0x616 JUMP JUMPDEST SWAP4 POP POP PUSH1 0x40 DUP6 ADD MLOAD PUSH8 0xFFFFFFFFFFFFFFFF DUP2 GT ISZERO PUSH3 0x702 JUMPI PUSH3 0x701 PUSH3 0xB37 JUMP JUMPDEST JUMPDEST PUSH3 0x710 DUP8 DUP3 DUP9 ADD PUSH3 0x616 JUMP JUMPDEST SWAP3 POP POP PUSH1 0x60 DUP6 ADD MLOAD PUSH8 0xFFFFFFFFFFFFFFFF DUP2 GT ISZERO PUSH3 0x734 JUMPI PUSH3 0x733 PUSH3 0xB37 JUMP JUMPDEST JUMPDEST PUSH3 0x742 DUP8 DUP3 DUP9 ADD PUSH3 0x616 JUMP JUMPDEST SWAP2 POP POP SWAP3 SWAP6 SWAP2 SWAP5 POP SWAP3 POP JUMP JUMPDEST PUSH1 0x0 PUSH3 0x75D PUSH1 0x12 DUP4 PUSH3 0x970 JUMP JUMPDEST SWAP2 POP PUSH3 0x76A DUP3 PUSH3 0xB52 JUMP JUMPDEST PUSH1 0x20 DUP3 ADD SWAP1 POP SWAP2 SWAP1 POP JUMP JUMPDEST PUSH1 0x0 PUSH3 0x784 PUSH1 0x16 DUP4 PUSH3 0x970 JUMP JUMPDEST SWAP2 POP PUSH3 0x791 DUP3 PUSH3 0xB7B JUMP JUMPDEST PUSH1 0x20 DUP3 ADD SWAP1 POP SWAP2 SWAP1 POP JUMP JUMPDEST PUSH1 0x0 PUSH3 0x7AB PUSH1 0x1F DUP4 PUSH3 0x970 JUMP JUMPDEST SWAP2 POP PUSH3 0x7B8 DUP3 PUSH3 0xBA4 JUMP JUMPDEST PUSH1 0x20 DUP3 ADD SWAP1 POP SWAP2 SWAP1 POP JUMP JUMPDEST PUSH1 0x0 PUSH3 0x7D2 PUSH1 0x1E DUP4 PUSH3 0x970 JUMP JUMPDEST SWAP2 POP PUSH3 0x7DF DUP3 PUSH3 0xBCD JUMP JUMPDEST PUSH1 0x20 DUP3 ADD SWAP1 POP SWAP2 SWAP1 POP JUMP JUMPDEST PUSH1 0x0 PUSH3 0x7F9 PUSH1 0x11 DUP4 PUSH3 0x970 JUMP JUMPDEST SWAP2 POP PUSH3 0x806 DUP3 PUSH3 0xBF6 JUMP JUMPDEST PUSH1 0x20 DUP3 ADD SWAP1 POP SWAP2 SWAP1 POP JUMP JUMPDEST PUSH3 0x81C DUP2 PUSH3 0xA12 JUMP JUMPDEST DUP3 MSTORE POP POP JUMP JUMPDEST PUSH1 0x0 PUSH1 0x20 DUP3 ADD SWAP1 POP DUP2 DUP2 SUB PUSH1 0x0 DUP4 ADD MSTORE PUSH3 0x83D DUP2 PUSH3 0x74E JUMP JUMPDEST SWAP1 POP SWAP2 SWAP1 POP JUMP JUMPDEST PUSH1 0x0 PUSH1 0x20 DUP3 ADD SWAP1 POP DUP2 DUP2 SUB PUSH1 0x0 DUP4 ADD MSTORE PUSH3 0x85F DUP2 PUSH3 0x775 JUMP JUMPDEST SWAP1 POP SWAP2 SWAP1 POP JUMP JUMPDEST PUSH1 0x0 PUSH1 0x20 DUP3 ADD SWAP1 POP DUP2 DUP2 SUB PUSH1 0x0 DUP4 ADD MSTORE PUSH3 0x881 DUP2 PUSH3 0x79C JUMP JUMPDEST SWAP1 POP SWAP2 SWAP1 POP JUMP JUMPDEST PUSH1 0x0 PUSH1 0x20 DUP3 ADD SWAP1 POP DUP2 DUP2 SUB PUSH1 0x0 DUP4 ADD MSTORE PUSH3 0x8A3 DUP2 PUSH3 0x7C3 JUMP JUMPDEST SWAP1 POP SWAP2 SWAP1 POP JUMP JUMPDEST PUSH1 0x0 PUSH1 0x20 DUP3 ADD SWAP1 POP DUP2 DUP2 SUB PUSH1 0x0 DUP4 ADD MSTORE PUSH3 0x8C5 DUP2 PUSH3 0x7EA JUMP JUMPDEST SWAP1 POP SWAP2 SWAP1 POP JUMP JUMPDEST PUSH1 0x0 PUSH1 0x20 DUP3 ADD SWAP1 POP PUSH3 0x8E3 PUSH1 0x0 DUP4 ADD DUP5 PUSH3 0x811 JUMP JUMPDEST SWAP3 SWAP2 POP POP JUMP JUMPDEST PUSH1 0x0 PUSH3 0x8F5 PUSH3 0x908 JUMP JUMPDEST SWAP1 POP PUSH3 0x903 DUP3 DUP3 PUSH3 0xA1C JUMP JUMPDEST SWAP2 SWAP1 POP JUMP JUMPDEST PUSH1 0x0 PUSH1 0x40 MLOAD SWAP1 POP SWAP1 JUMP JUMPDEST PUSH1 0x0 PUSH8 0xFFFFFFFFFFFFFFFF DUP3 GT ISZERO PUSH3 0x930 JUMPI PUSH3 0x92F PUSH3 0xAFE JUMP JUMPDEST JUMPDEST PUSH1 0x20 DUP3 MUL SWAP1 POP PUSH1 0x20 DUP2 ADD SWAP1 POP SWAP2 SWAP1 POP JUMP JUMPDEST PUSH1 0x0 PUSH8 0xFFFFFFFFFFFFFFFF DUP3 GT ISZERO PUSH3 0x95F JUMPI PUSH3 0x95E PUSH3 0xAFE JUMP JUMPDEST JUMPDEST PUSH1 0x20 DUP3 MUL SWAP1 POP PUSH1 0x20 DUP2 ADD SWAP1 POP SWAP2 SWAP1 POP JUMP JUMPDEST PUSH1 0x0 DUP3 DUP3 MSTORE PUSH1 0x20 DUP3 ADD SWAP1 POP SWAP3 SWAP2 POP POP JUMP JUMPDEST PUSH1 0x0 PUSH3 0x98E DUP3 PUSH3 0xA12 JUMP JUMPDEST SWAP2 POP PUSH3 0x99B DUP4 PUSH3 0xA12 JUMP JUMPDEST SWAP3 POP DUP3 PUSH32 0xFFFFFFFFFFFFFFFFFFFFFFFFFFFFFFFFFFFFFFFFFFFFFFFFFFFFFFFFFFFFFFFF SUB DUP3 GT ISZERO PUSH3 0x9D3 JUMPI PUSH3 0x9D2 PUSH3 0xAA0 JUMP JUMPDEST JUMPDEST DUP3 DUP3 ADD SWAP1 POP SWAP3 SWAP2 POP POP JUMP JUMPDEST PUSH1 0x0 PUSH3 0x9EB DUP3 PUSH3 0x9F2 JUMP JUMPDEST SWAP1 POP SWAP2 SWAP1 POP JUMP JUMPDEST PUSH1 0x0 PUSH20 0xFFFFFFFFFFFFFFFFFFFFFFFFFFFFFFFFFFFFFFFF DUP3 AND SWAP1 POP SWAP2 SWAP1 POP JUMP JUMPDEST PUSH1 0x0 DUP2 SWAP1 POP SWAP2 SWAP1 POP JUMP JUMPDEST PUSH3 0xA27 DUP3 PUSH3 0xB41 JUMP JUMPDEST DUP2 ADD DUP2 DUP2 LT PUSH8 0xFFFFFFFFFFFFFFFF DUP3 GT OR ISZERO PUSH3 0xA49 JUMPI PUSH3 0xA48 PUSH3 0xAFE JUMP JUMPDEST JUMPDEST DUP1 PUSH1 0x40 MSTORE POP POP POP JUMP JUMPDEST PUSH1 0x0 PUSH3 0xA5F DUP3 PUSH3 0xA12 JUMP JUMPDEST SWAP2 POP PUSH32 0xFFFFFFFFFFFFFFFFFFFFFFFFFFFFFFFFFFFFFFFFFFFFFFFFFFFFFFFFFFFFFFFF DUP3 EQ ISZERO PUSH3 0xA95 JUMPI PUSH3 0xA94 PUSH3 0xAA0 JUMP JUMPDEST JUMPDEST PUSH1 0x1 DUP3 ADD SWAP1 POP SWAP2 SWAP1 POP JUMP JUMPDEST PUSH32 0x4E487B7100000000000000000000000000000000000000000000000000000000 PUSH1 0x0 MSTORE PUSH1 0x11 PUSH1 0x4 MSTORE PUSH1 0x24 PUSH1 0x0 REVERT JUMPDEST PUSH32 0x4E487B7100000000000000000000000000000000000000000000000000000000 PUSH1 0x0 MSTORE PUSH1 0x32 PUSH1 0x4 MSTORE PUSH1 0x24 PUSH1 0x0 REVERT JUMPDEST PUSH32 0x4E487B7100000000000000000000000000000000000000000000000000000000 PUSH1 0x0 MSTORE PUSH1 0x41 PUSH1 0x4 MSTORE PUSH1 0x24 PUSH1 0x0 REVERT JUMPDEST PUSH1 0x0 DUP1 REVERT JUMPDEST PUSH1 0x0 DUP1 REVERT JUMPDEST PUSH1 0x0 DUP1 REVERT JUMPDEST PUSH1 0x0 DUP1 REVERT JUMPDEST PUSH1 0x0 PUSH1 0x1F NOT PUSH1 0x1F DUP4 ADD AND SWAP1 POP SWAP2 SWAP1 POP JUMP JUMPDEST PUSH32 0x73686172652063616E206E6F7420626520300000000000000000000000000000 PUSH1 0x0 DUP3 ADD MSTORE POP JUMP JUMPDEST PUSH32 0x6163636F756E7420616C72656164792065786973747300000000000000000000 PUSH1 0x0 DUP3 ADD MSTORE POP JUMP JUMPDEST PUSH32 0x616464726573732063616E206E6F74206265207A65726F206164647265737300 PUSH1 0x0 DUP3 ADD MSTORE POP JUMP JUMPDEST PUSH32 0x62656E656669636961727920616E64207368617265206469736D617463680000 PUSH1 0x0 DUP3 ADD MSTORE POP JUMP JUMPDEST PUSH32 0x617267756D656E74206D69736D61746368000000000000000000000000000000 PUSH1 0x0 DUP3 ADD MSTORE POP JUMP JUMPDEST PUSH3 0xC2A DUP2 PUSH3 0x9DE JUMP JUMPDEST DUP2 EQ PUSH3 0xC36 JUMPI PUSH1 0x0 DUP1 REVERT JUMPDEST POP JUMP JUMPDEST PUSH3 0xC44 DUP2 PUSH3 0xA12 JUMP JUMPDEST DUP2 EQ PUSH3 0xC50 JUMPI PUSH1 0x0 DUP1 REVERT JUMPDEST POP JUMP JUMPDEST PUSH2 0x8FC DUP1 PUSH3 0xC63 PUSH1 0x0 CODECOPY PUSH1 0x0 RETURN INVALID PUSH1 0x80 PUSH1 0x40 MSTORE PUSH1 0x4 CALLDATASIZE LT PUSH2 0x38 JUMPI PUSH1 0x0 CALLDATALOAD PUSH1 0xE0 SHR DUP1 PUSH4 0x1027853F EQ PUSH2 0x88 JUMPI DUP1 PUSH4 0x5DFB1D32 EQ PUSH2 0xB1 JUMPI DUP1 PUSH4 0xD24EF437 EQ PUSH2 0xEE JUMPI PUSH2 0x83 JUMP JUMPDEST CALLDATASIZE PUSH2 0x83 JUMPI CALLVALUE CALLER PUSH20 0xFFFFFFFFFFFFFFFFFFFFFFFFFFFFFFFFFFFFFFFF AND PUSH32 0x665CE5A0BF7DC12EFE22F9101AB1469D837A533BBF654F049C203278F36CFA2 PUSH1 0x40 MLOAD PUSH1 0x40 MLOAD DUP1 SWAP2 SUB SWAP1 LOG3 STOP JUMPDEST PUSH1 0x0 DUP1 REVERT JUMPDEST CALLVALUE DUP1 ISZERO PUSH2 0x94 JUMPI PUSH1 0x0 DUP1 REVERT JUMPDEST POP PUSH2 0xAF PUSH1 0x4 DUP1 CALLDATASIZE SUB DUP2 ADD SWAP1 PUSH2 0xAA SWAP2 SWAP1 PUSH2 0x592 JUMP JUMPDEST PUSH2 0x12B JUMP JUMPDEST STOP JUMPDEST CALLVALUE DUP1 ISZERO PUSH2 0xBD JUMPI PUSH1 0x0 DUP1 REVERT JUMPDEST POP PUSH2 0xD8 PUSH1 0x4 DUP1 CALLDATASIZE SUB DUP2 ADD SWAP1 PUSH2 0xD3 SWAP2 SWAP1 PUSH2 0x565 JUMP JUMPDEST PUSH2 0x314 JUMP JUMPDEST PUSH1 0x40 MLOAD PUSH2 0xE5 SWAP2 SWAP1 PUSH2 0x654 JUMP JUMPDEST PUSH1 0x40 MLOAD DUP1 SWAP2 SUB SWAP1 RETURN JUMPDEST CALLVALUE DUP1 ISZERO PUSH2 0xFA JUMPI PUSH1 0x0 DUP1 REVERT JUMPDEST POP PUSH2 0x115 PUSH1 0x4 DUP1 CALLDATASIZE SUB DUP2 ADD SWAP1 PUSH2 0x110 SWAP2 SWAP1 PUSH2 0x565 JUMP JUMPDEST PUSH2 0x37D JUMP JUMPDEST PUSH1 0x40 MLOAD PUSH2 0x122 SWAP2 SWAP1 PUSH2 0x654 JUMP JUMPDEST PUSH1 0x40 MLOAD DUP1 SWAP2 SUB SWAP1 RETURN JUMPDEST PUSH1 0x0 PUSH1 0x2 PUSH1 0x0 DUP4 PUSH20 0xFFFFFFFFFFFFFFFFFFFFFFFFFFFFFFFFFFFFFFFF AND PUSH20 0xFFFFFFFFFFFFFFFFFFFFFFFFFFFFFFFFFFFFFFFF AND DUP2 MSTORE PUSH1 0x20 ADD SWAP1 DUP2 MSTORE PUSH1 0x20 ADD PUSH1 0x0 KECCAK256 SLOAD GT PUSH2 0x1AD JUMPI PUSH1 0x40 MLOAD PUSH32 0x8C379A000000000000000000000000000000000000000000000000000000000 DUP2 MSTORE PUSH1 0x4 ADD PUSH2 0x1A4 SWAP1 PUSH2 0x614 JUMP JUMPDEST PUSH1 0x40 MLOAD DUP1 SWAP2 SUB SWAP1 REVERT JUMPDEST PUSH1 0x0 PUSH2 0x1B8 DUP3 PUSH2 0x394 JUMP JUMPDEST SWAP1 POP PUSH1 0x0 DUP2 GT PUSH2 0x1FD JUMPI PUSH1 0x40 MLOAD PUSH32 0x8C379A000000000000000000000000000000000000000000000000000000000 DUP2 MSTORE PUSH1 0x4 ADD PUSH2 0x1F4 SWAP1 PUSH2 0x634 JUMP JUMPDEST PUSH1 0x40 MLOAD DUP1 SWAP2 SUB SWAP1 REVERT JUMPDEST PUSH1 0x0 PUSH2 0x209 DUP4 DUP4 PUSH2 0x457 JUMP JUMPDEST SWAP1 POP DUP1 PUSH1 0x1 PUSH1 0x0 DUP3 DUP3 SLOAD PUSH2 0x21D SWAP2 SWAP1 PUSH2 0x680 JUMP JUMPDEST SWAP3 POP POP DUP2 SWAP1 SSTORE POP DUP1 PUSH1 0x3 PUSH1 0x0 DUP6 PUSH20 0xFFFFFFFFFFFFFFFFFFFFFFFFFFFFFFFFFFFFFFFF AND PUSH20 0xFFFFFFFFFFFFFFFFFFFFFFFFFFFFFFFFFFFFFFFF AND DUP2 MSTORE PUSH1 0x20 ADD SWAP1 DUP2 MSTORE PUSH1 0x20 ADD PUSH1 0x0 KECCAK256 PUSH1 0x0 DUP3 DUP3 SLOAD PUSH2 0x273 SWAP2 SWAP1 PUSH2 0x680 JUMP JUMPDEST SWAP3 POP POP DUP2 SWAP1 SSTORE POP DUP3 PUSH20 0xFFFFFFFFFFFFFFFFFFFFFFFFFFFFFFFFFFFFFFFF AND PUSH2 0x8FC DUP3 SWAP1 DUP2 ISZERO MUL SWAP1 PUSH1 0x40 MLOAD PUSH1 0x0 PUSH1 0x40 MLOAD DUP1 DUP4 SUB DUP2 DUP6 DUP9 DUP9 CALL SWAP4 POP POP POP POP ISZERO DUP1 ISZERO PUSH2 0x2C0 JUMPI RETURNDATASIZE PUSH1 0x0 DUP1 RETURNDATACOPY RETURNDATASIZE PUSH1 0x0 REVERT JUMPDEST POP DUP3 PUSH20 0xFFFFFFFFFFFFFFFFFFFFFFFFFFFFFFFFFFFFFFFF AND PUSH32 0x65ACDE034BD1126095B070C3DAB2499D374F97AD47387ADFB86BA47B0240A24F DUP3 PUSH1 0x40 MLOAD PUSH2 0x307 SWAP2 SWAP1 PUSH2 0x654 JUMP JUMPDEST PUSH1 0x40 MLOAD DUP1 SWAP2 SUB SWAP1 LOG2 POP POP POP JUMP JUMPDEST PUSH1 0x0 DUP1 PUSH2 0x320 DUP4 PUSH2 0x394 JUMP JUMPDEST SWAP1 POP PUSH1 0x0 DUP2 GT PUSH2 0x365 JUMPI PUSH1 0x40 MLOAD PUSH32 0x8C379A000000000000000000000000000000000000000000000000000000000 DUP2 MSTORE PUSH1 0x4 ADD PUSH2 0x35C SWAP1 PUSH2 0x634 JUMP JUMPDEST PUSH1 0x40 MLOAD DUP1 SWAP2 SUB SWAP1 REVERT JUMPDEST PUSH1 0x0 PUSH2 0x371 DUP5 DUP4 PUSH2 0x457 JUMP JUMPDEST SWAP1 POP DUP1 SWAP3 POP POP POP SWAP2 SWAP1 POP JUMP JUMPDEST PUSH1 0x0 DUP1 PUSH2 0x389 DUP4 PUSH2 0x394 JUMP JUMPDEST SWAP1 POP DUP1 SWAP2 POP POP SWAP2 SWAP1 POP JUMP JUMPDEST PUSH1 0x0 DUP1 PUSH1 0x1 SLOAD SELFBALANCE PUSH2 0x3A5 SWAP2 SWAP1 PUSH2 0x680 JUMP JUMPDEST SWAP1 POP PUSH1 0x0 PUSH1 0x3 PUSH1 0x0 DUP6 PUSH20 0xFFFFFFFFFFFFFFFFFFFFFFFFFFFFFFFFFFFFFFFF AND PUSH20 0xFFFFFFFFFFFFFFFFFFFFFFFFFFFFFFFFFFFFFFFF AND DUP2 MSTORE PUSH1 0x20 ADD SWAP1 DUP2 MSTORE PUSH1 0x20 ADD PUSH1 0x0 KECCAK256 SLOAD PUSH1 0x0 SLOAD PUSH1 0x2 PUSH1 0x0 DUP8 PUSH20 0xFFFFFFFFFFFFFFFFFFFFFFFFFFFFFFFFFFFFFFFF AND PUSH20 0xFFFFFFFFFFFFFFFFFFFFFFFFFFFFFFFFFFFFFFFF AND DUP2 MSTORE PUSH1 0x20 ADD SWAP1 DUP2 MSTORE PUSH1 0x20 ADD PUSH1 0x0 KECCAK256 SLOAD DUP5 PUSH2 0x437 SWAP2 SWAP1 PUSH2 0x707 JUMP JUMPDEST PUSH2 0x441 SWAP2 SWAP1 PUSH2 0x6D6 JUMP JUMPDEST PUSH2 0x44B SWAP2 SWAP1 PUSH2 0x761 JUMP JUMPDEST SWAP1 POP DUP1 SWAP3 POP POP POP SWAP2 SWAP1 POP JUMP JUMPDEST PUSH1 0x0 DUP1 PUSH1 0x5 PUSH1 0x0 DUP6 PUSH20 0xFFFFFFFFFFFFFFFFFFFFFFFFFFFFFFFFFFFFFFFF AND PUSH20 0xFFFFFFFFFFFFFFFFFFFFFFFFFFFFFFFFFFFFFFFF AND DUP2 MSTORE PUSH1 0x20 ADD SWAP1 DUP2 MSTORE PUSH1 0x20 ADD PUSH1 0x0 KECCAK256 SLOAD SWAP1 POP DUP1 TIMESTAMP LT ISZERO PUSH2 0x4AE JUMPI PUSH1 0x0 SWAP2 POP POP PUSH2 0x535 JUMP JUMPDEST PUSH1 0x0 PUSH1 0x6 PUSH1 0x0 DUP7 PUSH20 0xFFFFFFFFFFFFFFFFFFFFFFFFFFFFFFFFFFFFFFFF AND PUSH20 0xFFFFFFFFFFFFFFFFFFFFFFFFFFFFFFFFFFFFFFFF AND DUP2 MSTORE PUSH1 0x20 ADD SWAP1 DUP2 MSTORE PUSH1 0x20 ADD PUSH1 0x0 KECCAK256 SLOAD SWAP1 POP DUP1 DUP3 PUSH2 0x4FE SWAP2 SWAP1 PUSH2 0x680 JUMP JUMPDEST TIMESTAMP LT PUSH2 0x50E JUMPI DUP4 SWAP3 POP POP POP PUSH2 0x535 JUMP JUMPDEST DUP1 DUP3 TIMESTAMP PUSH2 0x51B SWAP2 SWAP1 PUSH2 0x761 JUMP JUMPDEST DUP6 PUSH2 0x526 SWAP2 SWAP1 PUSH2 0x707 JUMP JUMPDEST PUSH2 0x530 SWAP2 SWAP1 PUSH2 0x6D6 JUMP JUMPDEST SWAP3 POP POP POP JUMPDEST SWAP3 SWAP2 POP POP JUMP JUMPDEST PUSH1 0x0 DUP2 CALLDATALOAD SWAP1 POP PUSH2 0x54A DUP2 PUSH2 0x898 JUMP JUMPDEST SWAP3 SWAP2 POP POP JUMP JUMPDEST PUSH1 0x0 DUP2 CALLDATALOAD SWAP1 POP PUSH2 0x55F DUP2 PUSH2 0x8AF JUMP JUMPDEST SWAP3 SWAP2 POP POP JUMP JUMPDEST PUSH1 0x0 PUSH1 0x20 DUP3 DUP5 SUB SLT ISZERO PUSH2 0x57B JUMPI PUSH2 0x57A PUSH2 0x841 JUMP JUMPDEST JUMPDEST PUSH1 0x0 PUSH2 0x589 DUP5 DUP3 DUP6 ADD PUSH2 0x53B JUMP JUMPDEST SWAP2 POP POP SWAP3 SWAP2 POP POP JUMP JUMPDEST PUSH1 0x0 PUSH1 0x20 DUP3 DUP5 SUB SLT ISZERO PUSH2 0x5A8 JUMPI PUSH2 0x5A7 PUSH2 0x841 JUMP JUMPDEST JUMPDEST PUSH1 0x0 PUSH2 0x5B6 DUP5 DUP3 DUP6 ADD PUSH2 0x550 JUMP JUMPDEST SWAP2 POP POP SWAP3 SWAP2 POP POP JUMP JUMPDEST PUSH1 0x0 PUSH2 0x5CC PUSH1 0x14 DUP4 PUSH2 0x66F JUMP JUMPDEST SWAP2 POP PUSH2 0x5D7 DUP3 PUSH2 0x846 JUMP JUMPDEST PUSH1 0x20 DUP3 ADD SWAP1 POP SWAP2 SWAP1 POP JUMP JUMPDEST PUSH1 0x0 PUSH2 0x5EF PUSH1 0x15 DUP4 PUSH2 0x66F JUMP JUMPDEST SWAP2 POP PUSH2 0x5FA DUP3 PUSH2 0x86F JUMP JUMPDEST PUSH1 0x20 DUP3 ADD SWAP1 POP SWAP2 SWAP1 POP JUMP JUMPDEST PUSH2 0x60E DUP2 PUSH2 0x7D9 JUMP JUMPDEST DUP3 MSTORE POP POP JUMP JUMPDEST PUSH1 0x0 PUSH1 0x20 DUP3 ADD SWAP1 POP DUP2 DUP2 SUB PUSH1 0x0 DUP4 ADD MSTORE PUSH2 0x62D DUP2 PUSH2 0x5BF JUMP JUMPDEST SWAP1 POP SWAP2 SWAP1 POP JUMP JUMPDEST PUSH1 0x0 PUSH1 0x20 DUP3 ADD SWAP1 POP DUP2 DUP2 SUB PUSH1 0x0 DUP4 ADD MSTORE PUSH2 0x64D DUP2 PUSH2 0x5E2 JUMP JUMPDEST SWAP1 POP SWAP2 SWAP1 POP JUMP JUMPDEST PUSH1 0x0 PUSH1 0x20 DUP3 ADD SWAP1 POP PUSH2 0x669 PUSH1 0x0 DUP4 ADD DUP5 PUSH2 0x605 JUMP JUMPDEST SWAP3 SWAP2 POP POP JUMP JUMPDEST PUSH1 0x0 DUP3 DUP3 MSTORE PUSH1 0x20 DUP3 ADD SWAP1 POP SWAP3 SWAP2 POP POP JUMP JUMPDEST PUSH1 0x0 PUSH2 0x68B DUP3 PUSH2 0x7D9 JUMP JUMPDEST SWAP2 POP PUSH2 0x696 DUP4 PUSH2 0x7D9 JUMP JUMPDEST SWAP3 POP DUP3 PUSH32 0xFFFFFFFFFFFFFFFFFFFFFFFFFFFFFFFFFFFFFFFFFFFFFFFFFFFFFFFFFFFFFFFF SUB DUP3 GT ISZERO PUSH2 0x6CB JUMPI PUSH2 0x6CA PUSH2 0x7E3 JUMP JUMPDEST JUMPDEST DUP3 DUP3 ADD SWAP1 POP SWAP3 SWAP2 POP POP JUMP JUMPDEST PUSH1 0x0 PUSH2 0x6E1 DUP3 PUSH2 0x7D9 JUMP JUMPDEST SWAP2 POP PUSH2 0x6EC DUP4 PUSH2 0x7D9 JUMP JUMPDEST SWAP3 POP DUP3 PUSH2 0x6FC JUMPI PUSH2 0x6FB PUSH2 0x812 JUMP JUMPDEST JUMPDEST DUP3 DUP3 DIV SWAP1 POP SWAP3 SWAP2 POP POP JUMP JUMPDEST PUSH1 0x0 PUSH2 0x712 DUP3 PUSH2 0x7D9 JUMP JUMPDEST SWAP2 POP PUSH2 0x71D DUP4 PUSH2 0x7D9 JUMP JUMPDEST SWAP3 POP DUP2 PUSH32 0xFFFFFFFFFFFFFFFFFFFFFFFFFFFFFFFFFFFFFFFFFFFFFFFFFFFFFFFFFFFFFFFF DIV DUP4 GT DUP3 ISZERO ISZERO AND ISZERO PUSH2 0x756 JUMPI PUSH2 0x755 PUSH2 0x7E3 JUMP JUMPDEST JUMPDEST DUP3 DUP3 MUL SWAP1 POP SWAP3 SWAP2 POP POP JUMP JUMPDEST PUSH1 0x0 PUSH2 0x76C DUP3 PUSH2 0x7D9 JUMP JUMPDEST SWAP2 POP PUSH2 0x777 DUP4 PUSH2 0x7D9 JUMP JUMPDEST SWAP3 POP DUP3 DUP3 LT ISZERO PUSH2 0x78A JUMPI PUSH2 0x789 PUSH2 0x7E3 JUMP JUMPDEST JUMPDEST DUP3 DUP3 SUB SWAP1 POP SWAP3 SWAP2 POP POP JUMP JUMPDEST PUSH1 0x0 PUSH2 0x7A0 DUP3 PUSH2 0x7B9 JUMP JUMPDEST SWAP1 POP SWAP2 SWAP1 POP JUMP JUMPDEST PUSH1 0x0 PUSH2 0x7B2 DUP3 PUSH2 0x7B9 JUMP JUMPDEST SWAP1 POP SWAP2 SWAP1 POP JUMP JUMPDEST PUSH1 0x0 PUSH20 0xFFFFFFFFFFFFFFFFFFFFFFFFFFFFFFFFFFFFFFFF DUP3 AND SWAP1 POP SWAP2 SWAP1 POP JUMP JUMPDEST PUSH1 0x0 DUP2 SWAP1 POP SWAP2 SWAP1 POP JUMP JUMPDEST PUSH32 0x4E487B7100000000000000000000000000000000000000000000000000000000 PUSH1 0x0 MSTORE PUSH1 0x11 PUSH1 0x4 MSTORE PUSH1 0x24 PUSH1 0x0 REVERT JUMPDEST PUSH32 0x4E487B7100000000000000000000000000000000000000000000000000000000 PUSH1 0x0 MSTORE PUSH1 0x12 PUSH1 0x4 MSTORE PUSH1 0x24 PUSH1 0x0 REVERT JUMPDEST PUSH1 0x0 DUP1 REVERT JUMPDEST PUSH32 0x6163636F756E7420686173206E6F207368617265000000000000000000000000 PUSH1 0x0 DUP3 ADD MSTORE POP JUMP JUMPDEST PUSH32 0x6163636F756E742068617665206E6F2073686172650000000000000000000000 PUSH1 0x0 DUP3 ADD MSTORE POP JUMP JUMPDEST PUSH2 0x8A1 DUP2 PUSH2 0x795 JUMP JUMPDEST DUP2 EQ PUSH2 0x8AC JUMPI PUSH1 0x0 DUP1 REVERT JUMPDEST POP JUMP JUMPDEST PUSH2 0x8B8 DUP2 PUSH2 0x7A7 JUMP JUMPDEST DUP2 EQ PUSH2 0x8C3 JUMPI PUSH1 0x0 DUP1 REVERT JUMPDEST POP JUMP INVALID LOG2 PUSH5 0x6970667358 0x22 SLT KECCAK256 0x4E DUP11 CREATE 0xC ADDRESS 0xCB EXTCODEHASH INVALID SWAP13 0xC8 NUMBER PC 0xD7 SWAP12 RETURNDATACOPY RETURNDATACOPY BLOCKHASH DUP10 0xBD SWAP4 PUSH1 0xFB BYTE MLOAD POP SAR CALLER SWAP15 0xB5 RETURNDATACOPY SWAP8 0xBE PUSH5 0x736F6C6343 STOP ADDMOD SMOD STOP CALLER "
				},
				"gasEstimates": {
					"creation": {
						"codeDepositCost": "460000",
						"executionCost": "infinite",
						"totalCost": "infinite"
					},
					"external": {
						"paymentShare(address)": "infinite",
						"releaseableShare(address)": "infinite",
						"withdrawShare(address)": "infinite"
					},
					"internal": {
						"_allocate(address,uint256)": "infinite",
						"_releasable(address,uint256)": "infinite",
						"_withdrawable(address)": "infinite"
					}
				},
				"methodIdentifiers": {
					"paymentShare(address)": "d24ef437",
					"releaseableShare(address)": "5dfb1d32",
					"withdrawShare(address)": "1027853f"
				}
			},
			"storageLayout": {
				"storage": [
					{
						"astId": 32,
						"contract": "LinearRelease.sol:LinearRelease",
						"label": "totalShares",
						"offset": 0,
						"slot": "0",
						"type": "t_uint256"
					},
					{
						"astId": 35,
						"contract": "LinearRelease.sol:LinearRelease",
						"label": "totalWithdraw",
						"offset": 0,
						"slot": "1",
						"type": "t_uint256"
					},
					{
						"astId": 40,
						"contract": "LinearRelease.sol:LinearRelease",
						"label": "personShares",
						"offset": 0,
						"slot": "2",
						"type": "t_mapping(t_address,t_uint256)"
					},
					{
						"astId": 45,
						"contract": "LinearRelease.sol:LinearRelease",
						"label": "withdrawed",
						"offset": 0,
						"slot": "3",
						"type": "t_mapping(t_address,t_uint256)"
					},
					{
						"astId": 48,
						"contract": "LinearRelease.sol:LinearRelease",
						"label": "beneficiarys",
						"offset": 0,
						"slot": "4",
						"type": "t_array(t_address)dyn_storage"
					},
					{
						"astId": 53,
						"contract": "LinearRelease.sol:LinearRelease",
						"label": "accountStartMapping",
						"offset": 0,
						"slot": "5",
						"type": "t_mapping(t_address,t_uint256)"
					},
					{
						"astId": 57,
						"contract": "LinearRelease.sol:LinearRelease",
						"label": "accountDurationMapping",
						"offset": 0,
						"slot": "6",
						"type": "t_mapping(t_address,t_uint256)"
					}
				],
				"types": {
					"t_address": {
						"encoding": "inplace",
						"label": "address",
						"numberOfBytes": "20"
					},
					"t_array(t_address)dyn_storage": {
						"base": "t_address",
						"encoding": "dynamic_array",
						"label": "address[]",
						"numberOfBytes": "32"
					},
					"t_mapping(t_address,t_uint256)": {
						"encoding": "mapping",
						"key": "t_address",
						"label": "mapping(address => uint256)",
						"numberOfBytes": "32",
						"value": "t_uint256"
					},
					"t_uint256": {
						"encoding": "inplace",
						"label": "uint256",
						"numberOfBytes": "32"
					}
				}
			},
			"userdoc": {
				"events": {
					"AddBeneficiary(address,uint256)": {
						"notice": "增加受益人"
					},
					"ReceiveShares(address,uint256)": {
						"notice": "合约收款"
					},
					"WithdrawShares(address,uint256)": {
						"notice": "受益人取款"
					}
				},
				"kind": "user",
				"methods": {
					"constructor": {
						"notice": "初始化两个数组；一个是受益人数组：有哪些受益人；一个是受益人分别占有多少份额；顺序保持一致"
					}
				},
				"notice": "线性释放，比如参加ICO，代币半年线性释放",
				"version": 1
			}
		}
	}
}