{
	"data": {
		"bytecode": {
			"linkReferences": {},
			"object": "60806040526040516200155f3803806200155f833981810160405281019062000029919062000660565b60008451116200003857600080fd5b82518451146200007f576040517f08c379a0000000000000000000000000000000000000000000000000000000008152600401620000769062000888565b60405180910390fd5b8151845114620000c6576040517f08c379a0000000000000000000000000000000000000000000000000000000008152600401620000bd90620008aa565b60405180910390fd5b80518451146200010d576040517f08c379a00000000000000000000000000000000000000000000000000000000081526004016200010490620008aa565b60405180910390fd5b60005b845181101562000278576200016685828151811062000134576200013362000acf565b5b602002602001015185838151811062000152576200015162000acf565b5b60200260200101516200028360201b60201c565b8281815181106200017c576200017b62000acf565b5b6020026020010151600560008784815181106200019e576200019d62000acf565b5b602002602001015173ffffffffffffffffffffffffffffffffffffffff1673ffffffffffffffffffffffffffffffffffffffff16815260200190815260200160002081905550818181518110620001fa57620001f962000acf565b5b6020026020010151600660008784815181106200021c576200021b62000acf565b5b602002602001015173ffffffffffffffffffffffffffffffffffffffff1673ffffffffffffffffffffffffffffffffffffffff1681526020019081526020016000208190555080806200026f9062000a52565b91505062000110565b505050505062000c53565b600073ffffffffffffffffffffffffffffffffffffffff168273ffffffffffffffffffffffffffffffffffffffff161415620002f6576040517f08c379a0000000000000000000000000000000000000000000000000000000008152600401620002ed9062000866565b60405180910390fd5b600081116200033c576040517f08c379a0000000000000000000000000000000000000000000000000000000008152600401620003339062000822565b60405180910390fd5b6000600260008473ffffffffffffffffffffffffffffffffffffffff1673ffffffffffffffffffffffffffffffffffffffff1681526020019081526020016000205414620003c1576040517f08c379a0000000000000000000000000000000000000000000000000000000008152600401620003b89062000844565b60405180910390fd5b6004829080600181540180825580915050600190039060005260206000200160009091909190916101000a81548173ffffffffffffffffffffffffffffffffffffffff021916908373ffffffffffffffffffffffffffffffffffffffff16021790555080600260008473ffffffffffffffffffffffffffffffffffffffff1673ffffffffffffffffffffffffffffffffffffffff16815260200190815260200160002081905550806000808282546200047b919062000981565b925050819055508173ffffffffffffffffffffffffffffffffffffffff167f2cff1fbd97349296439d092211657ee417f89f6189b60a2ec990d7384c3bb82c82604051620004ca9190620008cc565b60405180910390a25050565b6000620004ed620004e78462000912565b620008e9565b9050808382526020820190508285602086028201111562000513576200051262000b32565b5b60005b858110156200054757816200052c8882620005cc565b84526020840193506020830192505060018101905062000516565b5050509392505050565b600062000568620005628462000941565b620008e9565b905080838252602082019050828560208602820111156200058e576200058d62000b32565b5b60005b85811015620005c25781620005a7888262000649565b84526020840193506020830192505060018101905062000591565b5050509392505050565b600081519050620005dd8162000c1f565b92915050565b600082601f830112620005fb57620005fa62000b2d565b5b81516200060d848260208601620004d6565b91505092915050565b600082601f8301126200062e576200062d62000b2d565b5b81516200064084826020860162000551565b91505092915050565b6000815190506200065a8162000c39565b92915050565b600080600080608085870312156200067d576200067c62000b3c565b5b600085015167ffffffffffffffff8111156200069e576200069d62000b37565b5b620006ac87828801620005e3565b945050602085015167ffffffffffffffff811115620006d057620006cf62000b37565b5b620006de8782880162000616565b935050604085015167ffffffffffffffff81111562000702576200070162000b37565b5b620007108782880162000616565b925050606085015167ffffffffffffffff81111562000734576200073362000b37565b5b620007428782880162000616565b91505092959194509250565b60006200075d60128362000970565b91506200076a8262000b52565b602082019050919050565b60006200078460168362000970565b9150620007918262000b7b565b602082019050919050565b6000620007ab601f8362000970565b9150620007b88262000ba4565b602082019050919050565b6000620007d2601e8362000970565b9150620007df8262000bcd565b602082019050919050565b6000620007f960118362000970565b9150620008068262000bf6565b602082019050919050565b6200081c8162000a12565b82525050565b600060208201905081810360008301526200083d816200074e565b9050919050565b600060208201905081810360008301526200085f8162000775565b9050919050565b6000602082019050818103600083015262000881816200079c565b9050919050565b60006020820190508181036000830152620008a381620007c3565b9050919050565b60006020820190508181036000830152620008c581620007ea565b9050919050565b6000602082019050620008e3600083018462000811565b92915050565b6000620008f562000908565b905062000903828262000a1c565b919050565b6000604051905090565b600067ffffffffffffffff82111562000930576200092f62000afe565b5b602082029050602081019050919050565b600067ffffffffffffffff8211156200095f576200095e62000afe565b5b602082029050602081019050919050565b600082825260208201905092915050565b60006200098e8262000a12565b91506200099b8362000a12565b9250827fffffffffffffffffffffffffffffffffffffffffffffffffffffffffffffffff03821115620009d357620009d262000aa0565b5b828201905092915050565b6000620009eb82620009f2565b9050919050565b600073ffffffffffffffffffffffffffffffffffffffff82169050919050565b6000819050919050565b62000a278262000b41565b810181811067ffffffffffffffff8211171562000a495762000a4862000afe565b5b80604052505050565b600062000a5f8262000a12565b91507fffffffffffffffffffffffffffffffffffffffffffffffffffffffffffffffff82141562000a955762000a9462000aa0565b5b600182019050919050565b7f4e487b7100000000000000000000000000000000000000000000000000000000600052601160045260246000fd5b7f4e487b7100000000000000000000000000000000000000000000000000000000600052603260045260246000fd5b7f4e487b7100000000000000000000000000000000000000000000000000000000600052604160045260246000fd5b600080fd5b600080fd5b600080fd5b600080fd5b6000601f19601f8301169050919050565b7f73686172652063616e206e6f7420626520300000000000000000000000000000600082015250565b7f6163636f756e7420616c72656164792065786973747300000000000000000000600082015250565b7f616464726573732063616e206e6f74206265207a65726f206164647265737300600082015250565b7f62656e656669636961727920616e64207368617265206469736d617463680000600082015250565b7f617267756d656e74206d69736d61746368000000000000000000000000000000600082015250565b62000c2a81620009de565b811462000c3657600080fd5b50565b62000c448162000a12565b811462000c5057600080fd5b50565b6108fc8062000c636000396000f3fe6080604052600436106100385760003560e01c80631027853f146100885780635dfb1d32146100b1578063d24ef437146100ee57610083565b3661008357343373ffffffffffffffffffffffffffffffffffffffff167f0665ce5a0bf7dc12efe22f9101ab1469d837a533bbf654f049c203278f36cfa260405160405180910390a3005b600080fd5b34801561009457600080fd5b506100af60048036038101906100aa9190610592565b61012b565b005b3480156100bd57600080fd5b506100d860048036038101906100d39190610565565b610314565b6040516100e59190610654565b60405180910390f35b3480156100fa57600080fd5b5061011560048036038101906101109190610565565b61037d565b6040516101229190610654565b60405180910390f35b6000600260008373ffffffffffffffffffffffffffffffffffffffff1673ffffffffffffffffffffffffffffffffffffffff16815260200190815260200160002054116101ad576040517f08c379a00000000000000000000000000000000000000000000000000000000081526004016101a490610614565b60405180910390fd5b60006101b882610394565b9050600081116101fd576040517f08c379a00000000000000000000000000000000000000000000000000000000081526004016101f490610634565b60405180910390fd5b60006102098383610457565b9050806001600082825461021d9190610680565b9250508190555080600360008573ffffffffffffffffffffffffffffffffffffffff1673ffffffffffffffffffffffffffffffffffffffff16815260200190815260200160002060008282546102739190610680565b925050819055508273ffffffffffffffffffffffffffffffffffffffff166108fc829081150290604051600060405180830381858888f193505050501580156102c0573d6000803e3d6000fd5b508273ffffffffffffffffffffffffffffffffffffffff167f65acde034bd1126095b070c3dab2499d374f97ad47387adfb86ba47b0240a24f826040516103079190610654565b60405180910390a2505050565b60008061032083610394565b905060008111610365576040517f08c379a000000000000000000000000000000000000000000000000000000000815260040161035c90610634565b60405180910390fd5b60006103718483610457565b90508092505050919050565b60008061038983610394565b905080915050919050565b600080600154476103a59190610680565b90506000600360008573ffffffffffffffffffffffffffffffffffffffff1673ffffffffffffffffffffffffffffffffffffffff16815260200190815260200160002054600054600260008773ffffffffffffffffffffffffffffffffffffffff1673ffffffffffffffffffffffffffffffffffffffff16815260200190815260200160002054846104379190610707565b61044191906106d6565b61044b9190610761565b90508092505050919050565b600080600560008573ffffffffffffffffffffffffffffffffffffffff1673ffffffffffffffffffffffffffffffffffffffff168152602001908152602001600020549050804210156104ae576000915050610535565b6000600660008673ffffffffffffffffffffffffffffffffffffffff1673ffffffffffffffffffffffffffffffffffffffff16815260200190815260200160002054905080826104fe9190610680565b421061050e578392505050610535565b80824261051b9190610761565b856105269190610707565b61053091906106d6565b925050505b92915050565b60008135905061054a81610898565b92915050565b60008135905061055f816108af565b92915050565b60006020828403121561057b5761057a610841565b5b60006105898482850161053b565b91505092915050565b6000602082840312156105a8576105a7610841565b5b60006105b684828501610550565b91505092915050565b60006105cc60148361066f565b91506105d782610846565b602082019050919050565b60006105ef60158361066f565b91506105fa8261086f565b602082019050919050565b61060e816107d9565b82525050565b6000602082019050818103600083015261062d816105bf565b9050919050565b6000602082019050818103600083015261064d816105e2565b9050919050565b60006020820190506106696000830184610605565b92915050565b600082825260208201905092915050565b600061068b826107d9565b9150610696836107d9565b9250827fffffffffffffffffffffffffffffffffffffffffffffffffffffffffffffffff038211156106cb576106ca6107e3565b5b828201905092915050565b60006106e1826107d9565b91506106ec836107d9565b9250826106fc576106fb610812565b5b828204905092915050565b6000610712826107d9565b915061071d836107d9565b9250817fffffffffffffffffffffffffffffffffffffffffffffffffffffffffffffffff0483118215151615610756576107556107e3565b5b828202905092915050565b600061076c826107d9565b9150610777836107d9565b92508282101561078a576107896107e3565b5b828203905092915050565b60006107a0826107b9565b9050919050565b60006107b2826107b9565b9050919050565b600073ffffffffffffffffffffffffffffffffffffffff82169050919050565b6000819050919050565b7f4e487b7100000000000000000000000000000000000000000000000000000000600052601160045260246000fd5b7f4e487b7100000000000000000000000000000000000000000000000000000000600052601260045260246000fd5b600080fd5b7f6163636f756e7420686173206e6f207368617265000000000000000000000000600082015250565b7f6163636f756e742068617665206e6f2073686172650000000000000000000000600082015250565b6108a181610795565b81146108ac57600080fd5b50565b6108b8816107a7565b81146108c357600080fd5b5056fea26469706673582212204e8af00c30cb3ffe9cc84358d79b3e3e4089bd9360fb1a51501d339eb53e97be64736f6c63430008070033",
			"opcodes": "PUSH1 0x80 PUSH1 0x40 MSTORE PUSH1 0x40 MLOAD PUSH3 0x155F CODESIZE SUB DUP1 PUSH3 0x155F DUP4 CODECOPY DUP2 DUP2 ADD PUSH1 0x40 MSTORE DUP2 ADD SWAP1 PUSH3 0x29 SWAP2 SWAP1 PUSH3 0x660 JUMP JUMPDEST PUSH1 0x0 DUP5 MLOAD GT PUSH3 0x38 JUMPI PUSH1 0x0 DUP1 REVERT JUMPDEST DUP3 MLOAD DUP5 MLOAD EQ PUSH3 0x7F JUMPI PUSH1 0x40 MLOAD PUSH32 0x8C379A000000000000000000000000000000000000000000000000000000000 DUP2 MSTORE PUSH1 0x4 ADD PUSH3 0x76 SWAP1 PUSH3 0x888 JUMP JUMPDEST PUSH1 0x40 MLOAD DUP1 SWAP2 SUB SWAP1 REVERT JUMPDEST DUP2 MLOAD DUP5 MLOAD EQ PUSH3 0xC6 JUMPI PUSH1 0x40 MLOAD PUSH32 0x8C379A000000000000000000000000000000000000000000000000000000000 DUP2 MSTORE PUSH1 0x4 ADD PUSH3 0xBD SWAP1 PUSH3 0x8AA JUMP JUMPDEST PUSH1 0x40 MLOAD DUP1 SWAP2 SUB SWAP1 REVERT JUMPDEST DUP1 MLOAD DUP5 MLOAD EQ PUSH3 0x10D JUMPI PUSH1 0x40 MLOAD PUSH32 0x8C379A000000000000000000000000000000000000000000000000000000000 DUP2 MSTORE PUSH1 0x4 ADD PUSH3 0x104 SWAP1 PUSH3 0x8AA JUMP JUMPDEST PUSH1 0x40 MLOAD DUP1 SWAP2 SUB SWAP1 REVERT JUMPDEST PUSH1 0x0 JUMPDEST DUP5 MLOAD DUP2 LT ISZERO PUSH3 0x278 JUMPI PUSH3 0x166 DUP6 DUP3 DUP2 MLOAD DUP2 LT PUSH3 0x134 JUMPI PUSH3 0x133 PUSH3 0xACF JUMP JUMPDEST JUMPDEST PUSH1 0x20 MUL PUSH1 0x20 ADD ADD MLOAD DUP6 DUP4 DUP2 MLOAD DUP2 LT PUSH3 0x152 JUMPI PUSH3 0x151 PUSH3 0xACF JUMP JUMPDEST JUMPDEST PUSH1 0x20 MUL PUSH1 0x20 ADD ADD MLOAD PUSH3 0x283 PUSH1 0x20 SHL PUSH1 0x20 SHR JUMP JUMPDEST DUP3 DUP2 DUP2 MLOAD DUP2 LT PUSH3 0x17C JUMPI PUSH3 0x17B PUSH3 0xACF JUMP JUMPDEST JUMPDEST PUSH1 0x20 MUL PUSH1 0x20 ADD ADD MLOAD PUSH1 0x5 PUSH1 0x0 DUP8 DUP5 DUP2 MLOAD DUP2 LT PUSH3 0x19E JUMPI PUSH3 0x19D PUSH3 0xACF JUMP JUMPDEST JUMPDEST PUSH1 0x20 MUL PUSH1 0x20 ADD ADD MLOAD PUSH20 0xFFFFFFFFFFFFFFFFFFFFFFFFFFFFFFFFFFFFFFFF AND PUSH20 0xFFFFFFFFFFFFFFFFFFFFFFFFFFFFFFFFFFFFFFFF AND DUP2 MSTORE PUSH1 0x20 ADD SWAP1 DUP2 MSTORE PUSH1 0x20 ADD PUSH1 0x0 KECCAK256 DUP2 SWAP1 SSTORE POP DUP2 DUP2 DUP2 MLOAD DUP2 LT PUSH3 0x1FA JUMPI PUSH3 0x1F9 PUSH3 0xACF JUMP JUMPDEST JUMPDEST PUSH1 0x20 MUL PUSH1 0x20 ADD ADD MLOAD PUSH1 0x6 PUSH1 0x0 DUP8 DUP5 DUP2 MLOAD DUP2 LT PUSH3 0x21C JUMPI PUSH3 0x21B PUSH3 0xACF JUMP JUMPDEST JUMPDEST PUSH1 0x20 MUL PUSH1 0x20 ADD ADD MLOAD PUSH20 0xFFFFFFFFFFFFFFFFFFFFFFFFFFFFFFFFFFFFFFFF AND PUSH20 0xFFFFFFFFFFFFFFFFFFFFFFFFFFFFFFFFFFFFFFFF AND DUP2 MSTORE PUSH1 0x20 ADD SWAP1 DUP2 MSTORE PUSH1 0x20 ADD PUSH1 0x0 KECCAK256 DUP2 SWAP1 SSTORE POP DUP1 DUP1 PUSH3 0x26F SWAP1 PUSH3 0xA52 JUMP JUMPDEST SWAP2 POP POP PUSH3 0x110 JUMP JUMPDEST POP POP POP POP POP PUSH3 0xC53 JUMP JUMPDEST PUSH1 0x0 PUSH20 0xFFFFFFFFFFFFFFFFFFFFFFFFFFFFFFFFFFFFFFFF AND DUP3 PUSH20 0xFFFFFFFFFFFFFFFFFFFFFFFFFFFFFFFFFFFFFFFF AND EQ ISZERO PUSH3 0x2F6 JUMPI PUSH1 0x40 MLOAD PUSH32 0x8C379A000000000000000000000000000000000000000000000000000000000 DUP2 MSTORE PUSH1 0x4 ADD PUSH3 0x2ED SWAP1 PUSH3 0x866 JUMP JUMPDEST PUSH1 0x40 MLOAD DUP1 SWAP2 SUB SWAP1 REVERT JUMPDEST PUSH1 0x0 DUP2 GT PUSH3 0x33C JUMPI PUSH1 0x40 MLOAD PUSH32 0x8C379A000000000000000000000000000000000000000000000000000000000 DUP2 MSTORE PUSH1 0x4 ADD PUSH3 0x333 SWAP1 PUSH3 0x822 JUMP JUMPDEST PUSH1 0x40 MLOAD DUP1 SWAP2 SUB SWAP1 REVERT JUMPDEST PUSH1 0x0 PUSH1 0x2 PUSH1 0x0 DUP5 PUSH20 0xFFFFFFFFFFFFFFFFFFFFFFFFFFFFFFFFFFFFFFFF AND PUSH20 0xFFFFFFFFFFFFFFFFFFFFFFFFFFFFFFFFFFFFFFFF AND DUP2 MSTORE PUSH1 0x20 ADD SWAP1 DUP2 MSTORE PUSH1 0x20 ADD PUSH1 0x0 KECCAK256 SLOAD EQ PUSH3 0x3C1 JUMPI PUSH1 0x40 MLOAD PUSH32 0x8C379A000000000000000000000000000000000000000000000000000000000 DUP2 MSTORE PUSH1 0x4 ADD PUSH3 0x3B8 SWAP1 PUSH3 0x844 JUMP JUMPDEST PUSH1 0x40 MLOAD DUP1 SWAP2 SUB SWAP1 REVERT JUMPDEST PUSH1 0x4 DUP3 SWAP1 DUP1 PUSH1 0x1 DUP2 SLOAD ADD DUP1 DUP3 SSTORE DUP1 SWAP2 POP POP PUSH1 0x1 SWAP1 SUB SWAP1 PUSH1 0x0 MSTORE PUSH1 0x20 PUSH1 0x0 KECCAK256 ADD PUSH1 0x0 SWAP1 SWAP2 SWAP1 SWAP2 SWAP1 SWAP2 PUSH2 0x100 EXP DUP2 SLOAD DUP2 PUSH20 0xFFFFFFFFFFFFFFFFFFFFFFFFFFFFFFFFFFFFFFFF MUL NOT AND SWAP1 DUP4 PUSH20 0xFFFFFFFFFFFFFFFFFFFFFFFFFFFFFFFFFFFFFFFF AND MUL OR SWAP1 SSTORE POP DUP1 PUSH1 0x2 PUSH1 0x0 DUP5 PUSH20 0xFFFFFFFFFFFFFFFFFFFFFFFFFFFFFFFFFFFFFFFF AND PUSH20 0xFFFFFFFFFFFFFFFFFFFFFFFFFFFFFFFFFFFFFFFF AND DUP2 MSTORE PUSH1 0x20 ADD SWAP1 DUP2 MSTORE PUSH1 0x20 ADD PUSH1 0x0 KECCAK256 DUP2 SWAP1 SSTORE POP DUP1 PUSH1 0x0 DUP1 DUP3 DUP3 SLOAD PUSH3 0x47B SWAP2 SWAP1 PUSH3 0x981 JUMP JUMPDEST SWAP3 POP POP DUP2 SWAP1 SSTORE POP DUP2 PUSH20 0xFFFFFFFFFFFFFFFFFFFFFFFFFFFFFFFFFFFFFFFF AND PUSH32 0x2CFF1FBD97349296439D092211657EE417F89F6189B60A2EC990D7384C3BB82C DUP3 PUSH1 0x40 MLOAD PUSH3 0x4CA SWAP2 SWAP1 PUSH3 0x8CC JUMP JUMPDEST PUSH1 0x40 MLOAD DUP1 SWAP2 SUB SWAP1 LOG2 POP POP JUMP JUMPDEST PUSH1 0x0 PUSH3 0x4ED PUSH3 0x4E7 DUP5 PUSH3 0x912 JUMP JUMPDEST PUSH3 0x8E9 JUMP JUMPDEST SWAP1 POP DUP1 DUP4 DUP3 MSTORE PUSH1 0x20 DUP3 ADD SWAP1 POP DUP3 DUP6 PUSH1 0x20 DUP7 MUL DUP3 ADD GT ISZERO PUSH3 0x513 JUMPI PUSH3 0x512 PUSH3 0xB32 JUMP JUMPDEST JUMPDEST PUSH1 0x0 JUMPDEST DUP6 DUP2 LT ISZERO PUSH3 0x547 JUMPI DUP2 PUSH3 0x52C DUP9 DUP3 PUSH3 0x5CC JUMP JUMPDEST DUP5 MSTORE PUSH1 0x20 DUP5 ADD SWAP4 POP PUSH1 0x20 DUP4 ADD SWAP3 POP POP PUSH1 0x1 DUP2 ADD SWAP1 POP PUSH3 0x516 JUMP JUMPDEST POP POP POP SWAP4 SWAP3 POP POP POP JUMP JUMPDEST PUSH1 0x0 PUSH3 0x568 PUSH3 0x562 DUP5 PUSH3 0x941 JUMP JUMPDEST PUSH3 0x8E9 JUMP JUMPDEST SWAP1 POP DUP1 DUP4 DUP3 MSTORE PUSH1 0x20 DUP3 ADD SWAP1 POP DUP3 DUP6 PUSH1 0x20 DUP7 MUL DUP3 ADD GT ISZERO PUSH3 0x58E JUMPI PUSH3 0x58D PUSH3 0xB32 JUMP JUMPDEST JUMPDEST PUSH1 0x0 JUMPDEST DUP6 DUP2 LT ISZERO PUSH3 0x5C2 JUMPI DUP2 PUSH3 0x5A7 DUP9 DUP3 PUSH3 0x649 JUMP JUMPDEST DUP5 MSTORE PUSH1 0x20 DUP5 ADD SWAP4 POP PUSH1 0x20 DUP4 ADD SWAP3 POP POP PUSH1 0x1 DUP2 ADD SWAP1 POP PUSH3 0x591 JUMP JUMPDEST POP POP POP SWAP4 SWAP3 POP POP POP JUMP JUMPDEST PUSH1 0x0 DUP2 MLOAD SWAP1 POP PUSH3 0x5DD DUP2 PUSH3 0xC1F JUMP JUMPDEST SWAP3 SWAP2 POP POP JUMP JUMPDEST PUSH1 0x0 DUP3 PUSH1 0x1F DUP4 ADD SLT PUSH3 0x5FB JUMPI PUSH3 0x5FA PUSH3 0xB2D JUMP JUMPDEST JUMPDEST DUP2 MLOAD PUSH3 0x60D DUP5 DUP3 PUSH1 0x20 DUP7 ADD PUSH3 0x4D6 JUMP JUMPDEST SWAP2 POP POP SWAP3 SWAP2 POP POP JUMP JUMPDEST PUSH1 0x0 DUP3 PUSH1 0x1F DUP4 ADD SLT PUSH3 0x62E JUMPI PUSH3 0x62D PUSH3 0xB2D JUMP JUMPDEST JUMPDEST DUP2 MLOAD PUSH3 0x640 DUP5 DUP3 PUSH1 0x20 DUP7 ADD PUSH3 0x551 JUMP JUMPDEST SWAP2 POP POP SWAP3 SWAP2 POP POP JUMP JUMPDEST PUSH1 0x0 DUP2 MLOAD SWAP1 POP PUSH3 0x65A DUP2 PUSH3 0xC39 JUMP JUMPDEST SWAP3 SWAP2 POP POP JUMP JUMPDEST PUSH1 0x0 DUP1 PUSH1 0x0 DUP1 PUSH1 0x80 DUP6 DUP8 SUB SLT ISZERO PUSH3 0x67D JUMPI PUSH3 0x67C PUSH3 0xB3C JUMP JUMPDEST JUMPDEST PUSH1 0x0 DUP6 ADD MLOAD PUSH8 0xFFFFFFFFFFFFFFFF DUP2 GT ISZERO PUSH3 0x69E JUMPI PUSH3 0x69D PUSH3 0xB37 JUMP JUMPDEST JUMPDEST PUSH3 0x6AC DUP8 DUP3 DUP9 ADD PUSH3 0x5E3 JUMP JUMPDEST SWAP5 POP POP PUSH1 0x20 DUP6 ADD MLOAD PUSH8 0xFFFFFFFFFFFFFFFF DUP2 GT ISZERO PUSH3 0x6D0 JUMPI PUSH3 0x6CF PUSH3 0xB37 JUMP JUMPDEST JUMPDEST PUSH3 0x6DE DUP8 DUP3 DUP9 ADD PUSH3 0x616 JUMP JUMPDEST SWAP4 POP POP PUSH1 0x40 DUP6 ADD MLOAD PUSH8 0xFFFFFFFFFFFFFFFF DUP2 GT ISZERO PUSH3 0x702 JUMPI PUSH3 0x701 PUSH3 0xB37 JUMP JUMPDEST JUMPDEST PUSH3 0x710 DUP8 DUP3 DUP9 ADD PUSH3 0x616 JUMP JUMPDEST SWAP3 POP POP PUSH1 0x60 DUP6 ADD MLOAD PUSH8 0xFFFFFFFFFFFFFFFF DUP2 GT ISZERO PUSH3 0x734 JUMPI PUSH3 0x733 PUSH3 0xB37 JUMP JUMPDEST JUMPDEST PUSH3 0x742 DUP8 DUP3 DUP9 ADD PUSH3 0x616 JUMP JUMPDEST SWAP2 POP POP SWAP3 SWAP6 SWAP2 SWAP5 POP SWAP3 POP JUMP JUMPDEST PUSH1 0x0 PUSH3 0x75D PUSH1 0x12 DUP4 PUSH3 0x970 JUMP JUMPDEST SWAP2 POP PUSH3 0x76A DUP3 PUSH3 0xB52 JUMP JUMPDEST PUSH1 0x20 DUP3 ADD SWAP1 POP SWAP2 SWAP1 POP JUMP JUMPDEST PUSH1 0x0 PUSH3 0x784 PUSH1 0x16 DUP4 PUSH3 0x970 JUMP JUMPDEST SWAP2 POP PUSH3 0x791 DUP3 PUSH3 0xB7B JUMP JUMPDEST PUSH1 0x20 DUP3 ADD SWAP1 POP SWAP2 SWAP1 POP JUMP JUMPDEST PUSH1 0x0 PUSH3 0x7AB PUSH1 0x1F DUP4 PUSH3 0x970 JUMP JUMPDEST SWAP2 POP PUSH3 0x7B8 DUP3 PUSH3 0xBA4 JUMP JUMPDEST PUSH1 0x20 DUP3 ADD SWAP1 POP SWAP2 SWAP1 POP JUMP JUMPDEST PUSH1 0x0 PUSH3 0x7D2 PUSH1 0x1E DUP4 PUSH3 0x970 JUMP JUMPDEST SWAP2 POP PUSH3 0x7DF DUP3 PUSH3 0xBCD JUMP JUMPDEST PUSH1 0x20 DUP3 ADD SWAP1 POP SWAP2 SWAP1 POP JUMP JUMPDEST PUSH1 0x0 PUSH3 0x7F9 PUSH1 0x11 DUP4 PUSH3 0x970 JUMP JUMPDEST SWAP2 POP PUSH3 0x806 DUP3 PUSH3 0xBF6 JUMP JUMPDEST PUSH1 0x20 DUP3 ADD SWAP1 POP SWAP2 SWAP1 POP JUMP JUMPDEST PUSH3 0x81C DUP2 PUSH3 0xA12 JUMP JUMPDEST DUP3 MSTORE POP POP JUMP JUMPDEST PUSH1 0x0 PUSH1 0x20 DUP3 ADD SWAP1 POP DUP2 DUP2 SUB PUSH1 0x0 DUP4 ADD MSTORE PUSH3 0x83D DUP2 PUSH3 0x74E JUMP JUMPDEST SWAP1 POP SWAP2 SWAP1 POP JUMP JUMPDEST PUSH1 0x0 PUSH1 0x20 DUP3 ADD SWAP1 POP DUP2 DUP2 SUB PUSH1 0x0 DUP4 ADD MSTORE PUSH3 0x85F DUP2 PUSH3 0x775 JUMP JUMPDEST SWAP1 POP SWAP2 SWAP1 POP JUMP JUMPDEST PUSH1 0x0 PUSH1 0x20 DUP3 ADD SWAP1 POP DUP2 DUP2 SUB PUSH1 0x0 DUP4 ADD MSTORE PUSH3 0x881 DUP2 PUSH3 0x79C JUMP JUMPDEST SWAP1 POP SWAP2 SWAP1 POP JUMP JUMPDEST PUSH1 0x0 PUSH1 0x20 DUP3 ADD SWAP1 POP DUP2 DUP2 SUB PUSH1 0x0 DUP4 ADD MSTORE PUSH3 0x8A3 DUP2 PUSH3 0x7C3 JUMP JUMPDEST SWAP1 POP SWAP2 SWAP1 POP JUMP JUMPDEST PUSH1 0x0 PUSH1 0x20 DUP3 ADD SWAP1 POP DUP2 DUP2 SUB PUSH1 0x0 DUP4 ADD MSTORE PUSH3 0x8C5 DUP2 PUSH3 0x7EA JUMP JUMPDEST SWAP1 POP SWAP2 SWAP1 POP JUMP JUMPDEST PUSH1 0x0 PUSH1 0x20 DUP3 ADD SWAP1 POP PUSH3 0x8E3 PUSH1 0x0 DUP4 ADD DUP5 PUSH3 0x811 JUMP JUMPDEST SWAP3 SWAP2 POP POP JUMP JUMPDEST PUSH1 0x0 PUSH3 0x8F5 PUSH3 0x908 JUMP JUMPDEST SWAP1 POP PUSH3 0x903 DUP3 DUP3 PUSH3 0xA1C JUMP JUMPDEST SWAP2 SWAP1 POP JUMP JUMPDEST PUSH1 0x0 PUSH1 0x40 MLOAD SWAP1 POP SWAP1 JUMP JUMPDEST PUSH1 0x0 PUSH8 0xFFFFFFFFFFFFFFFF DUP3 GT ISZERO PUSH3 0x930 JUMPI PUSH3 0x92F PUSH3 0xAFE JUMP JUMPDEST JUMPDEST PUSH1 0x20 DUP3 MUL SWAP1 POP PUSH1 0x20 DUP2 ADD SWAP1 POP SWAP2 SWAP1 POP JUMP JUMPDEST PUSH1 0x0 PUSH8 0xFFFFFFFFFFFFFFFF DUP3 GT ISZERO PUSH3 0x95F JUMPI PUSH3 0x95E PUSH3 0xAFE JUMP JUMPDEST JUMPDEST PUSH1 0x20 DUP3 MUL SWAP1 POP PUSH1 0x20 DUP2 ADD SWAP1 POP SWAP2 SWAP1 POP JUMP JUMPDEST PUSH1 0x0 DUP3 DUP3 MSTORE PUSH1 0x20 DUP3 ADD SWAP1 POP SWAP3 SWAP2 POP POP JUMP JUMPDEST PUSH1 0x0 PUSH3 0x98E DUP3 PUSH3 0xA12 JUMP JUMPDEST SWAP2 POP PUSH3 0x99B DUP4 PUSH3 0xA12 JUMP JUMPDEST SWAP3 POP DUP3 PUSH32 0xFFFFFFFFFFFFFFFFFFFFFFFFFFFFFFFFFFFFFFFFFFFFFFFFFFFFFFFFFFFFFFFF SUB DUP3 GT ISZERO PUSH3 0x9D3 JUMPI PUSH3 0x9D2 PUSH3 0xAA0 JUMP JUMPDEST JUMPDEST DUP3 DUP3 ADD SWAP1 POP SWAP3 SWAP2 POP POP JUMP JUMPDEST PUSH1 0x0 PUSH3 0x9EB DUP3 PUSH3 0x9F2 JUMP JUMPDEST SWAP1 POP SWAP2 SWAP1 POP JUMP JUMPDEST PUSH1 0x0 PUSH20 0xFFFFFFFFFFFFFFFFFFFFFFFFFFFFFFFFFFFFFFFF DUP3 AND SWAP1 POP SWAP2 SWAP1 POP JUMP JUMPDEST PUSH1 0x0 DUP2 SWAP1 POP SWAP2 SWAP1 POP JUMP JUMPDEST PUSH3 0xA27 DUP3 PUSH3 0xB41 JUMP JUMPDEST DUP2 ADD DUP2 DUP2 LT PUSH8 0xFFFFFFFFFFFFFFFF DUP3 GT OR ISZERO PUSH3 0xA49 JUMPI PUSH3 0xA48 PUSH3 0xAFE JUMP JUMPDEST JUMPDEST DUP1 PUSH1 0x40 MSTORE POP POP POP JUMP JUMPDEST PUSH1 0x0 PUSH3 0xA5F DUP3 PUSH3 0xA12 JUMP JUMPDEST SWAP2 POP PUSH32 0xFFFFFFFFFFFFFFFFFFFFFFFFFFFFFFFFFFFFFFFFFFFFFFFFFFFFFFFFFFFFFFFF DUP3 EQ ISZERO PUSH3 0xA95 JUMPI PUSH3 0xA94 PUSH3 0xAA0 JUMP JUMPDEST JUMPDEST PUSH1 0x1 DUP3 ADD SWAP1 POP SWAP2 SWAP1 POP JUMP JUMPDEST PUSH32 0x4E487B7100000000000000000000000000000000000000000000000000000000 PUSH1 0x0 MSTORE PUSH1 0x11 PUSH1 0x4 MSTORE PUSH1 0x24 PUSH1 0x0 REVERT JUMPDEST PUSH32 0x4E487B7100000000000000000000000000000000000000000000000000000000 PUSH1 0x0 MSTORE PUSH1 0x32 PUSH1 0x4 MSTORE PUSH1 0x24 PUSH1 0x0 REVERT JUMPDEST PUSH32 0x4E487B7100000000000000000000000000000000000000000000000000000000 PUSH1 0x0 MSTORE PUSH1 0x41 PUSH1 0x4 MSTORE PUSH1 0x24 PUSH1 0x0 REVERT JUMPDEST PUSH1 0x0 DUP1 REVERT JUMPDEST PUSH1 0x0 DUP1 REVERT JUMPDEST PUSH1 0x0 DUP1 REVERT JUMPDEST PUSH1 0x0 DUP1 REVERT JUMPDEST PUSH1 0x0 PUSH1 0x1F NOT PUSH1 0x1F DUP4 ADD AND SWAP1 POP SWAP2 SWAP1 POP JUMP JUMPDEST PUSH32 0x73686172652063616E206E6F7420626520300000000000000000000000000000 PUSH1 0x0 DUP3 ADD MSTORE POP JUMP JUMPDEST PUSH32 0x6163636F756E7420616C72656164792065786973747300000000000000000000 PUSH1 0x0 DUP3 ADD MSTORE POP JUMP JUMPDEST PUSH32 0x616464726573732063616E206E6F74206265207A65726F206164647265737300 PUSH1 0x0 DUP3 ADD MSTORE POP JUMP JUMPDEST PUSH32 0x62656E656669636961727920616E64207368617265206469736D617463680000 PUSH1 0x0 DUP3 ADD MSTORE POP JUMP JUMPDEST PUSH32 0x617267756D656E74206D69736D61746368000000000000000000000000000000 PUSH1 0x0 DUP3 ADD MSTORE POP JUMP JUMPDEST PUSH3 0xC2A DUP2 PUSH3 0x9DE JUMP JUMPDEST DUP2 EQ PUSH3 0xC36 JUMPI PUSH1 0x0 DUP1 REVERT JUMPDEST POP JUMP JUMPDEST PUSH3 0xC44 DUP2 PUSH3 0xA12 JUMP JUMPDEST DUP2 EQ PUSH3 0xC50 JUMPI PUSH1 0x0 DUP1 REVERT JUMPDEST POP JUMP JUMPDEST PUSH2 0x8FC DUP1 PUSH3 0xC63 PUSH1 0x0 CODECOPY PUSH1 0x0 RETURN INVALID PUSH1 0x80 PUSH1 0x40 MSTORE PUSH1 0x4 CALLDATASIZE LT PUSH2 0x38 JUMPI PUSH1 0x0 CALLDATALOAD PUSH1 0xE0 SHR DUP1 PUSH4 0x1027853F EQ PUSH2 0x88 JUMPI DUP1 PUSH4 0x5DFB1D32 EQ PUSH2 0xB1 JUMPI DUP1 PUSH4 0xD24EF437 EQ PUSH2 0xEE JUMPI PUSH2 0x83 JUMP JUMPDEST CALLDATASIZE PUSH2 0x83 JUMPI CALLVALUE CALLER PUSH20 0xFFFFFFFFFFFFFFFFFFFFFFFFFFFFFFFFFFFFFFFF AND PUSH32 0x665CE5A0BF7DC12EFE22F9101AB1469D837A533BBF654F049C203278F36CFA2 PUSH1 0x40 MLOAD PUSH1 0x40 MLOAD DUP1 SWAP2 SUB SWAP1 LOG3 STOP JUMPDEST PUSH1 0x0 DUP1 REVERT JUMPDEST CALLVALUE DUP1 ISZERO PUSH2 0x94 JUMPI PUSH1 0x0 DUP1 REVERT JUMPDEST POP PUSH2 0xAF PUSH1 0x4 DUP1 CALLDATASIZE SUB DUP2 ADD SWAP1 PUSH2 0xAA SWAP2 SWAP1 PUSH2 0x592 JUMP JUMPDEST PUSH2 0x12B JUMP JUMPDEST STOP JUMPDEST CALLVALUE DUP1 ISZERO PUSH2 0xBD JUMPI PUSH1 0x0 DUP1 REVERT JUMPDEST POP PUSH2 0xD8 PUSH1 0x4 DUP1 CALLDATASIZE SUB DUP2 ADD SWAP1 PUSH2 0xD3 SWAP2 SWAP1 PUSH2 0x565 JUMP JUMPDEST PUSH2 0x314 JUMP JUMPDEST PUSH1 0x40 MLOAD PUSH2 0xE5 SWAP2 SWAP1 PUSH2 0x654 JUMP JUMPDEST PUSH1 0x40 MLOAD DUP1 SWAP2 SUB SWAP1 RETURN JUMPDEST CALLVALUE DUP1 ISZERO PUSH2 0xFA JUMPI PUSH1 0x0 DUP1 REVERT JUMPDEST POP PUSH2 0x115 PUSH1 0x4 DUP1 CALLDATASIZE SUB DUP2 ADD SWAP1 PUSH2 0x110 SWAP2 SWAP1 PUSH2 0x565 JUMP JUMPDEST PUSH2 0x37D JUMP JUMPDEST PUSH1 0x40 MLOAD PUSH2 0x122 SWAP2 SWAP1 PUSH2 0x654 JUMP JUMPDEST PUSH1 0x40 MLOAD DUP1 SWAP2 SUB SWAP1 RETURN JUMPDEST PUSH1 0x0 PUSH1 0x2 PUSH1 0x0 DUP4 PUSH20 0xFFFFFFFFFFFFFFFFFFFFFFFFFFFFFFFFFFFFFFFF AND PUSH20 0xFFFFFFFFFFFFFFFFFFFFFFFFFFFFFFFFFFFFFFFF AND DUP2 MSTORE PUSH1 0x20 ADD SWAP1 DUP2 MSTORE PUSH1 0x20 ADD PUSH1 0x0 KECCAK256 SLOAD GT PUSH2 0x1AD JUMPI PUSH1 0x40 MLOAD PUSH32 0x8C379A000000000000000000000000000000000000000000000000000000000 DUP2 MSTORE PUSH1 0x4 ADD PUSH2 0x1A4 SWAP1 PUSH2 0x614 JUMP JUMPDEST PUSH1 0x40 MLOAD DUP1 SWAP2 SUB SWAP1 REVERT JUMPDEST PUSH1 0x0 PUSH2 0x1B8 DUP3 PUSH2 0x394 JUMP JUMPDEST SWAP1 POP PUSH1 0x0 DUP2 GT PUSH2 0x1FD JUMPI PUSH1 0x40 MLOAD PUSH32 0x8C379A000000000000000000000000000000000000000000000000000000000 DUP2 MSTORE PUSH1 0x4 ADD PUSH2 0x1F4 SWAP1 PUSH2 0x634 JUMP JUMPDEST PUSH1 0x40 MLOAD DUP1 SWAP2 SUB SWAP1 REVERT JUMPDEST PUSH1 0x0 PUSH2 0x209 DUP4 DUP4 PUSH2 0x457 JUMP JUMPDEST SWAP1 POP DUP1 PUSH1 0x1 PUSH1 0x0 DUP3 DUP3 SLOAD PUSH2 0x21D SWAP2 SWAP1 PUSH2 0x680 JUMP JUMPDEST SWAP3 POP POP DUP2 SWAP1 SSTORE POP DUP1 PUSH1 0x3 PUSH1 0x0 DUP6 PUSH20 0xFFFFFFFFFFFFFFFFFFFFFFFFFFFFFFFFFFFFFFFF AND PUSH20 0xFFFFFFFFFFFFFFFFFFFFFFFFFFFFFFFFFFFFFFFF AND DUP2 MSTORE PUSH1 0x20 ADD SWAP1 DUP2 MSTORE PUSH1 0x20 ADD PUSH1 0x0 KECCAK256 PUSH1 0x0 DUP3 DUP3 SLOAD PUSH2 0x273 SWAP2 SWAP1 PUSH2 0x680 JUMP JUMPDEST SWAP3 POP POP DUP2 SWAP1 SSTORE POP DUP3 PUSH20 0xFFFFFFFFFFFFFFFFFFFFFFFFFFFFFFFFFFFFFFFF AND PUSH2 0x8FC DUP3 SWAP1 DUP2 ISZERO MUL SWAP1 PUSH1 0x40 MLOAD PUSH1 0x0 PUSH1 0x40 MLOAD DUP1 DUP4 SUB DUP2 DUP6 DUP9 DUP9 CALL SWAP4 POP POP POP POP ISZERO DUP1 ISZERO PUSH2 0x2C0 JUMPI RETURNDATASIZE PUSH1 0x0 DUP1 RETURNDATACOPY RETURNDATASIZE PUSH1 0x0 REVERT JUMPDEST POP DUP3 PUSH20 0xFFFFFFFFFFFFFFFFFFFFFFFFFFFFFFFFFFFFFFFF AND PUSH32 0x65ACDE034BD1126095B070C3DAB2499D374F97AD47387ADFB86BA47B0240A24F DUP3 PUSH1 0x40 MLOAD PUSH2 0x307 SWAP2 SWAP1 PUSH2 0x654 JUMP JUMPDEST PUSH1 0x40 MLOAD DUP1 SWAP2 SUB SWAP1 LOG2 POP POP POP JUMP JUMPDEST PUSH1 0x0 DUP1 PUSH2 0x320 DUP4 PUSH2 0x394 JUMP JUMPDEST SWAP1 POP PUSH1 0x0 DUP2 GT PUSH2 0x365 JUMPI PUSH1 0x40 MLOAD PUSH32 0x8C379A000000000000000000000000000000000000000000000000000000000 DUP2 MSTORE PUSH1 0x4 ADD PUSH2 0x35C SWAP1 PUSH2 0x634 JUMP JUMPDEST PUSH1 0x40 MLOAD DUP1 SWAP2 SUB SWAP1 REVERT JUMPDEST PUSH1 0x0 PUSH2 0x371 DUP5 DUP4 PUSH2 0x457 JUMP JUMPDEST SWAP1 POP DUP1 SWAP3 POP POP POP SWAP2 SWAP1 POP JUMP JUMPDEST PUSH1 0x0 DUP1 PUSH2 0x389 DUP4 PUSH2 0x394 JUMP JUMPDEST SWAP1 POP DUP1 SWAP2 POP POP SWAP2 SWAP1 POP JUMP JUMPDEST PUSH1 0x0 DUP1 PUSH1 0x1 SLOAD SELFBALANCE PUSH2 0x3A5 SWAP2 SWAP1 PUSH2 0x680 JUMP JUMPDEST SWAP1 POP PUSH1 0x0 PUSH1 0x3 PUSH1 0x0 DUP6 PUSH20 0xFFFFFFFFFFFFFFFFFFFFFFFFFFFFFFFFFFFFFFFF AND PUSH20 0xFFFFFFFFFFFFFFFFFFFFFFFFFFFFFFFFFFFFFFFF AND DUP2 MSTORE PUSH1 0x20 ADD SWAP1 DUP2 MSTORE PUSH1 0x20 ADD PUSH1 0x0 KECCAK256 SLOAD PUSH1 0x0 SLOAD PUSH1 0x2 PUSH1 0x0 DUP8 PUSH20 0xFFFFFFFFFFFFFFFFFFFFFFFFFFFFFFFFFFFFFFFF AND PUSH20 0xFFFFFFFFFFFFFFFFFFFFFFFFFFFFFFFFFFFFFFFF AND DUP2 MSTORE PUSH1 0x20 ADD SWAP1 DUP2 MSTORE PUSH1 0x20 ADD PUSH1 0x0 KECCAK256 SLOAD DUP5 PUSH2 0x437 SWAP2 SWAP1 PUSH2 0x707 JUMP JUMPDEST PUSH2 0x441 SWAP2 SWAP1 PUSH2 0x6D6 JUMP JUMPDEST PUSH2 0x44B SWAP2 SWAP1 PUSH2 0x761 JUMP JUMPDEST SWAP1 POP DUP1 SWAP3 POP POP POP SWAP2 SWAP1 POP JUMP JUMPDEST PUSH1 0x0 DUP1 PUSH1 0x5 PUSH1 0x0 DUP6 PUSH20 0xFFFFFFFFFFFFFFFFFFFFFFFFFFFFFFFFFFFFFFFF AND PUSH20 0xFFFFFFFFFFFFFFFFFFFFFFFFFFFFFFFFFFFFFFFF AND DUP2 MSTORE PUSH1 0x20 ADD SWAP1 DUP2 MSTORE PUSH1 0x20 ADD PUSH1 0x0 KECCAK256 SLOAD SWAP1 POP DUP1 TIMESTAMP LT ISZERO PUSH2 0x4AE JUMPI PUSH1 0x0 SWAP2 POP POP PUSH2 0x535 JUMP JUMPDEST PUSH1 0x0 PUSH1 0x6 PUSH1 0x0 DUP7 PUSH20 0xFFFFFFFFFFFFFFFFFFFFFFFFFFFFFFFFFFFFFFFF AND PUSH20 0xFFFFFFFFFFFFFFFFFFFFFFFFFFFFFFFFFFFFFFFF AND DUP2 MSTORE PUSH1 0x20 ADD SWAP1 DUP2 MSTORE PUSH1 0x20 ADD PUSH1 0x0 KECCAK256 SLOAD SWAP1 POP DUP1 DUP3 PUSH2 0x4FE SWAP2 SWAP1 PUSH2 0x680 JUMP JUMPDEST TIMESTAMP LT PUSH2 0x50E JUMPI DUP4 SWAP3 POP POP POP PUSH2 0x535 JUMP JUMPDEST DUP1 DUP3 TIMESTAMP PUSH2 0x51B SWAP2 SWAP1 PUSH2 0x761 JUMP JUMPDEST DUP6 PUSH2 0x526 SWAP2 SWAP1 PUSH2 0x707 JUMP JUMPDEST PUSH2 0x530 SWAP2 SWAP1 PUSH2 0x6D6 JUMP JUMPDEST SWAP3 POP POP POP JUMPDEST SWAP3 SWAP2 POP POP JUMP JUMPDEST PUSH1 0x0 DUP2 CALLDATALOAD SWAP1 POP PUSH2 0x54A DUP2 PUSH2 0x898 JUMP JUMPDEST SWAP3 SWAP2 POP POP JUMP JUMPDEST PUSH1 0x0 DUP2 CALLDATALOAD SWAP1 POP PUSH2 0x55F DUP2 PUSH2 0x8AF JUMP JUMPDEST SWAP3 SWAP2 POP POP JUMP JUMPDEST PUSH1 0x0 PUSH1 0x20 DUP3 DUP5 SUB SLT ISZERO PUSH2 0x57B JUMPI PUSH2 0x57A PUSH2 0x841 JUMP JUMPDEST JUMPDEST PUSH1 0x0 PUSH2 0x589 DUP5 DUP3 DUP6 ADD PUSH2 0x53B JUMP JUMPDEST SWAP2 POP POP SWAP3 SWAP2 POP POP JUMP JUMPDEST PUSH1 0x0 PUSH1 0x20 DUP3 DUP5 SUB SLT ISZERO PUSH2 0x5A8 JUMPI PUSH2 0x5A7 PUSH2 0x841 JUMP JUMPDEST JUMPDEST PUSH1 0x0 PUSH2 0x5B6 DUP5 DUP3 DUP6 ADD PUSH2 0x550 JUMP JUMPDEST SWAP2 POP POP SWAP3 SWAP2 POP POP JUMP JUMPDEST PUSH1 0x0 PUSH2 0x5CC PUSH1 0x14 DUP4 PUSH2 0x66F JUMP JUMPDEST SWAP2 POP PUSH2 0x5D7 DUP3 PUSH2 0x846 JUMP JUMPDEST PUSH1 0x20 DUP3 ADD SWAP1 POP SWAP2 SWAP1 POP JUMP JUMPDEST PUSH1 0x0 PUSH2 0x5EF PUSH1 0x15 DUP4 PUSH2 0x66F JUMP JUMPDEST SWAP2 POP PUSH2 0x5FA DUP3 PUSH2 0x86F JUMP JUMPDEST PUSH1 0x20 DUP3 ADD SWAP1 POP SWAP2 SWAP1 POP JUMP JUMPDEST PUSH2 0x60E DUP2 PUSH2 0x7D9 JUMP JUMPDEST DUP3 MSTORE POP POP JUMP JUMPDEST PUSH1 0x0 PUSH1 0x20 DUP3 ADD SWAP1 POP DUP2 DUP2 SUB PUSH1 0x0 DUP4 ADD MSTORE PUSH2 0x62D DUP2 PUSH2 0x5BF JUMP JUMPDEST SWAP1 POP SWAP2 SWAP1 POP JUMP JUMPDEST PUSH1 0x0 PUSH1 0x20 DUP3 ADD SWAP1 POP DUP2 DUP2 SUB PUSH1 0x0 DUP4 ADD MSTORE PUSH2 0x64D DUP2 PUSH2 0x5E2 JUMP JUMPDEST SWAP1 POP SWAP2 SWAP1 POP JUMP JUMPDEST PUSH1 0x0 PUSH1 0x20 DUP3 ADD SWAP1 POP PUSH2 0x669 PUSH1 0x0 DUP4 ADD DUP5 PUSH2 0x605 JUMP JUMPDEST SWAP3 SWAP2 POP POP JUMP JUMPDEST PUSH1 0x0 DUP3 DUP3 MSTORE PUSH1 0x20 DUP3 ADD SWAP1 POP SWAP3 SWAP2 POP POP JUMP JUMPDEST PUSH1 0x0 PUSH2 0x68B DUP3 PUSH2 0x7D9 JUMP JUMPDEST SWAP2 POP PUSH2 0x696 DUP4 PUSH2 0x7D9 JUMP JUMPDEST SWAP3 POP DUP3 PUSH32 0xFFFFFFFFFFFFFFFFFFFFFFFFFFFFFFFFFFFFFFFFFFFFFFFFFFFFFFFFFFFFFFFF SUB DUP3 GT ISZERO PUSH2 0x6CB JUMPI PUSH2 0x6CA PUSH2 0x7E3 JUMP JUMPDEST JUMPDEST DUP3 DUP3 ADD SWAP1 POP SWAP3 SWAP2 POP POP JUMP JUMPDEST PUSH1 0x0 PUSH2 0x6E1 DUP3 PUSH2 0x7D9 JUMP JUMPDEST SWAP2 POP PUSH2 0x6EC DUP4 PUSH2 0x7D9 JUMP JUMPDEST SWAP3 POP DUP3 PUSH2 0x6FC JUMPI PUSH2 0x6FB PUSH2 0x812 JUMP JUMPDEST JUMPDEST DUP3 DUP3 DIV SWAP1 POP SWAP3 SWAP2 POP POP JUMP JUMPDEST PUSH1 0x0 PUSH2 0x712 DUP3 PUSH2 0x7D9 JUMP JUMPDEST SWAP2 POP PUSH2 0x71D DUP4 PUSH2 0x7D9 JUMP JUMPDEST SWAP3 POP DUP2 PUSH32 0xFFFFFFFFFFFFFFFFFFFFFFFFFFFFFFFFFFFFFFFFFFFFFFFFFFFFFFFFFFFFFFFF DIV DUP4 GT DUP3 ISZERO ISZERO AND ISZERO PUSH2 0x756 JUMPI PUSH2 0x755 PUSH2 0x7E3 JUMP JUMPDEST JUMPDEST DUP3 DUP3 MUL SWAP1 POP SWAP3 SWAP2 POP POP JUMP JUMPDEST PUSH1 0x0 PUSH2 0x76C DUP3 PUSH2 0x7D9 JUMP JUMPDEST SWAP2 POP PUSH2 0x777 DUP4 PUSH2 0x7D9 JUMP JUMPDEST SWAP3 POP DUP3 DUP3 LT ISZERO PUSH2 0x78A JUMPI PUSH2 0x789 PUSH2 0x7E3 JUMP JUMPDEST JUMPDEST DUP3 DUP3 SUB SWAP1 POP SWAP3 SWAP2 POP POP JUMP JUMPDEST PUSH1 0x0 PUSH2 0x7A0 DUP3 PUSH2 0x7B9 JUMP JUMPDEST SWAP1 POP SWAP2 SWAP1 POP JUMP JUMPDEST PUSH1 0x0 PUSH2 0x7B2 DUP3 PUSH2 0x7B9 JUMP JUMPDEST SWAP1 POP SWAP2 SWAP1 POP JUMP JUMPDEST PUSH1 0x0 PUSH20 0xFFFFFFFFFFFFFFFFFFFFFFFFFFFFFFFFFFFFFFFF DUP3 AND SWAP1 POP SWAP2 SWAP1 POP JUMP JUMPDEST PUSH1 0x0 DUP2 SWAP1 POP SWAP2 SWAP1 POP JUMP JUMPDEST PUSH32 0x4E487B7100000000000000000000000000000000000000000000000000000000 PUSH1 0x0 MSTORE PUSH1 0x11 PUSH1 0x4 MSTORE PUSH1 0x24 PUSH1 0x0 REVERT JUMPDEST PUSH32 0x4E487B7100000000000000000000000000000000000000000000000000000000 PUSH1 0x0 MSTORE PUSH1 0x12 PUSH1 0x4 MSTORE PUSH1 0x24 PUSH1 0x0 REVERT JUMPDEST PUSH1 0x0 DUP1 REVERT JUMPDEST PUSH32 0x6163636F756E7420686173206E6F207368617265000000000000000000000000 PUSH1 0x0 DUP3 ADD MSTORE POP JUMP JUMPDEST PUSH32 0x6163636F756E742068617665206E6F2073686172650000000000000000000000 PUSH1 0x0 DUP3 ADD MSTORE POP JUMP JUMPDEST PUSH2 0x8A1 DUP2 PUSH2 0x795 JUMP JUMPDEST DUP2 EQ PUSH2 0x8AC JUMPI PUSH1 0x0 DUP1 REVERT JUMPDEST POP JUMP JUMPDEST PUSH2 0x8B8 DUP2 PUSH2 0x7A7 JUMP JUMPDEST DUP2 EQ PUSH2 0x8C3 JUMPI PUSH1 0x0 DUP1 REVERT JUMPDEST POP JUMP INVALID LOG2 PUSH5 0x6970667358 0x22 SLT KECCAK256 0x4E DUP11 CREATE 0xC ADDRESS 0xCB EXTCODEHASH INVALID SWAP13 0xC8 NUMBER PC 0xD7 SWAP12 RETURNDATACOPY RETURNDATACOPY BLOCKHASH DUP10 0xBD SWAP4 PUSH1 0xFB BYTE MLOAD POP SAR CALLER SWAP15 0xB5 RETURNDATACOPY SWAP8 0xBE PUSH5 0x736F6C6343 STOP ADDMOD SMOD STOP CALLER "
		},
		"gasEstimates": {
			"creation": {
				"codeDepositCost": "460000",
				"executionCost": "infinite",
				"totalCost": "infinite"
			},
			"external": {
				"paymentShare(address)": "infinite",
				"releaseableShare(address)": "infinite",
				"withdrawShare(address)": "infinite"
			},
			"internal": {
				"_allocate(address,uint256)": "infinite",
				"_releasable(address,uint256)": "infinite",
				"_withdrawable(address)": "infinite"
			}
		},
		"methodIdentifiers": {
			"paymentShare(address)": "d24ef437",
			"releaseableShare(address)": "5dfb1d32",
			"withdrawShare(address)": "1027853f"
		}
	},
	"abi": [
		{
			"inputs": [
				{
					"internalType": "address[]",
					"name": "_beneficiarys",
					"type": "address[]"
				},
				{
					"internalType": "uint256[]",
					"name": "_personShares",
					"type": "uint256[]"
				},
				{
					"internalType": "uint256[]",
					"name": "_startTime",
					"type": "uint256[]"
				},
				{
					"internalType": "uint256[]",
					"name": "_durationTime",
					"type": "uint256[]"
				}
			],
			"stateMutability": "payable",
			"type": "constructor"
		},
		{
			"anonymous": false,
			"inputs": [
				{
					"indexed": true,
					"internalType": "address",
					"name": "beneficiary",
					"type": "address"
				},
				{
					"indexed": false,
					"internalType": "uint256",
					"name": "shares",
					"type": "uint256"
				}
			],
			"name": "AddBeneficiary",
			"type": "event"
		},
		{
			"anonymous": false,
			"inputs": [
				{
					"indexed": true,
					"internalType": "address",
					"name": "from",
					"type": "address"
				},
				{
					"indexed": true,
					"internalType": "uint256",
					"name": "amount",
					"type": "uint256"
				}
			],
			"name": "ReceiveShares",
			"type": "event"
		},
		{
			"anonymous": false,
			"inputs": [
				{
					"indexed": true,
					"internalType": "address",
					"name": "account",
					"type": "address"
				},
				{
					"indexed": false,
					"internalType": "uint256",
					"name": "amount",
					"type": "uint256"
				}
			],
			"name": "TokenRelease",
			"type": "event"
		},
		{
			"anonymous": false,
			"inputs": [
				{
					"indexed": true,
					"internalType": "address",
					"name": "beneficiary",
					"type": "address"
				},
				{
					"indexed": false,
					"internalType": "uint256",
					"name": "amount",
					"type": "uint256"
				}
			],
			"name": "WithdrawShares",
			"type": "event"
		},
		{
			"inputs": [
				{
					"internalType": "address",
					"name": "_account",
					"type": "address"
				}
			],
			"name": "paymentShare",
			"outputs": [
				{
					"internalType": "uint256",
					"name": "",
					"type": "uint256"
				}
			],
			"stateMutability": "view",
			"type": "function"
		},
		{
			"inputs": [
				{
					"internalType": "address",
					"name": "_account",
					"type": "address"
				}
			],
			"name": "releaseableShare",
			"outputs": [
				{
					"internalType": "uint256",
					"name": "",
					"type": "uint256"
				}
			],
			"stateMutability": "view",
			"type": "function"
		},
		{
			"inputs": [
				{
					"internalType": "address payable",
					"name": "_account",
					"type": "address"
				}
			],
			"name": "withdrawShare",
			"outputs": [],
			"stateMutability": "nonpayable",
			"type": "function"
		},
		{
			"stateMutability": "payable",
			"type": "receive"
		}
	]
}