{
	"data": {
		"bytecode": {
			"linkReferences": {},
			"object": "608060405234801561001057600080fd5b50610675806100206000396000f3fe608060405234801561001057600080fd5b506004361061002b5760003560e01c80634022b75e14610030575b600080fd5b61004a600480360381019061004591906102f9565b61004c565b005b818190508484905014610094576040517f08c379a000000000000000000000000000000000000000000000000000000000815260040161008b90610433565b60405180910390fd5b600085905060006100a584846101a2565b905060005b86869050811015610198578273ffffffffffffffffffffffffffffffffffffffff166323b872dd338989858181106100e5576100e461057a565b5b90506020020160208101906100fa91906102cc565b88888681811061010d5761010c61057a565b5b905060200201356040518463ffffffff1660e01b8152600401610132939291906103fc565b602060405180830381600087803b15801561014c57600080fd5b505af1158015610160573d6000803e3d6000fd5b505050506040513d601f19601f82011682018060405250810190610184919061038e565b50808061019090610502565b9150506100aa565b5050505050505050565b600080600090505b838390508110156101ef578383828181106101c8576101c761057a565b5b90506020020135826101da9190610464565b915080806101e790610502565b9150506101aa565b5092915050565b60008135905061020581610611565b92915050565b60008083601f840112610221576102206105ae565b5b8235905067ffffffffffffffff81111561023e5761023d6105a9565b5b60208301915083602082028301111561025a576102596105b3565b5b9250929050565b60008083601f840112610277576102766105ae565b5b8235905067ffffffffffffffff811115610294576102936105a9565b5b6020830191508360208202830111156102b0576102af6105b3565b5b9250929050565b6000815190506102c681610628565b92915050565b6000602082840312156102e2576102e16105bd565b5b60006102f0848285016101f6565b91505092915050565b600080600080600060608688031215610315576103146105bd565b5b6000610323888289016101f6565b955050602086013567ffffffffffffffff811115610344576103436105b8565b5b6103508882890161020b565b9450945050604086013567ffffffffffffffff811115610373576103726105b8565b5b61037f88828901610261565b92509250509295509295909350565b6000602082840312156103a4576103a36105bd565b5b60006103b2848285016102b7565b91505092915050565b6103c4816104ba565b82525050565b60006103d7602b83610453565b91506103e2826105c2565b604082019050919050565b6103f6816104f8565b82525050565b600060608201905061041160008301866103bb565b61041e60208301856103bb565b61042b60408301846103ed565b949350505050565b6000602082019050818103600083015261044c816103ca565b9050919050565b600082825260208201905092915050565b600061046f826104f8565b915061047a836104f8565b9250827fffffffffffffffffffffffffffffffffffffffffffffffffffffffffffffffff038211156104af576104ae61054b565b5b828201905092915050565b60006104c5826104d8565b9050919050565b60008115159050919050565b600073ffffffffffffffffffffffffffffffffffffffff82169050919050565b6000819050919050565b600061050d826104f8565b91507fffffffffffffffffffffffffffffffffffffffffffffffffffffffffffffffff8214156105405761053f61054b565b5b600182019050919050565b7f4e487b7100000000000000000000000000000000000000000000000000000000600052601160045260246000fd5b7f4e487b7100000000000000000000000000000000000000000000000000000000600052603260045260246000fd5b600080fd5b600080fd5b600080fd5b600080fd5b600080fd5b7f6c656e677468206f66206164647265737320646f206e6f7420657175616c207760008201527f69746820616d6f756e7473000000000000000000000000000000000000000000602082015250565b61061a816104ba565b811461062557600080fd5b50565b610631816104cc565b811461063c57600080fd5b5056fea2646970667358221220dd30375a2d90f26a986614b1c7a5d9f5263b26f4b09416aba23558a3c3a963ea64736f6c63430008070033",
			"opcodes": "PUSH1 0x80 PUSH1 0x40 MSTORE CALLVALUE DUP1 ISZERO PUSH2 0x10 JUMPI PUSH1 0x0 DUP1 REVERT JUMPDEST POP PUSH2 0x675 DUP1 PUSH2 0x20 PUSH1 0x0 CODECOPY PUSH1 0x0 RETURN INVALID PUSH1 0x80 PUSH1 0x40 MSTORE CALLVALUE DUP1 ISZERO PUSH2 0x10 JUMPI PUSH1 0x0 DUP1 REVERT JUMPDEST POP PUSH1 0x4 CALLDATASIZE LT PUSH2 0x2B JUMPI PUSH1 0x0 CALLDATALOAD PUSH1 0xE0 SHR DUP1 PUSH4 0x4022B75E EQ PUSH2 0x30 JUMPI JUMPDEST PUSH1 0x0 DUP1 REVERT JUMPDEST PUSH2 0x4A PUSH1 0x4 DUP1 CALLDATASIZE SUB DUP2 ADD SWAP1 PUSH2 0x45 SWAP2 SWAP1 PUSH2 0x2F9 JUMP JUMPDEST PUSH2 0x4C JUMP JUMPDEST STOP JUMPDEST DUP2 DUP2 SWAP1 POP DUP5 DUP5 SWAP1 POP EQ PUSH2 0x94 JUMPI PUSH1 0x40 MLOAD PUSH32 0x8C379A000000000000000000000000000000000000000000000000000000000 DUP2 MSTORE PUSH1 0x4 ADD PUSH2 0x8B SWAP1 PUSH2 0x433 JUMP JUMPDEST PUSH1 0x40 MLOAD DUP1 SWAP2 SUB SWAP1 REVERT JUMPDEST PUSH1 0x0 DUP6 SWAP1 POP PUSH1 0x0 PUSH2 0xA5 DUP5 DUP5 PUSH2 0x1A2 JUMP JUMPDEST SWAP1 POP PUSH1 0x0 JUMPDEST DUP7 DUP7 SWAP1 POP DUP2 LT ISZERO PUSH2 0x198 JUMPI DUP3 PUSH20 0xFFFFFFFFFFFFFFFFFFFFFFFFFFFFFFFFFFFFFFFF AND PUSH4 0x23B872DD CALLER DUP10 DUP10 DUP6 DUP2 DUP2 LT PUSH2 0xE5 JUMPI PUSH2 0xE4 PUSH2 0x57A JUMP JUMPDEST JUMPDEST SWAP1 POP PUSH1 0x20 MUL ADD PUSH1 0x20 DUP2 ADD SWAP1 PUSH2 0xFA SWAP2 SWAP1 PUSH2 0x2CC JUMP JUMPDEST DUP9 DUP9 DUP7 DUP2 DUP2 LT PUSH2 0x10D JUMPI PUSH2 0x10C PUSH2 0x57A JUMP JUMPDEST JUMPDEST SWAP1 POP PUSH1 0x20 MUL ADD CALLDATALOAD PUSH1 0x40 MLOAD DUP5 PUSH4 0xFFFFFFFF AND PUSH1 0xE0 SHL DUP2 MSTORE PUSH1 0x4 ADD PUSH2 0x132 SWAP4 SWAP3 SWAP2 SWAP1 PUSH2 0x3FC JUMP JUMPDEST PUSH1 0x20 PUSH1 0x40 MLOAD DUP1 DUP4 SUB DUP2 PUSH1 0x0 DUP8 DUP1 EXTCODESIZE ISZERO DUP1 ISZERO PUSH2 0x14C JUMPI PUSH1 0x0 DUP1 REVERT JUMPDEST POP GAS CALL ISZERO DUP1 ISZERO PUSH2 0x160 JUMPI RETURNDATASIZE PUSH1 0x0 DUP1 RETURNDATACOPY RETURNDATASIZE PUSH1 0x0 REVERT JUMPDEST POP POP POP POP PUSH1 0x40 MLOAD RETURNDATASIZE PUSH1 0x1F NOT PUSH1 0x1F DUP3 ADD AND DUP3 ADD DUP1 PUSH1 0x40 MSTORE POP DUP2 ADD SWAP1 PUSH2 0x184 SWAP2 SWAP1 PUSH2 0x38E JUMP JUMPDEST POP DUP1 DUP1 PUSH2 0x190 SWAP1 PUSH2 0x502 JUMP JUMPDEST SWAP2 POP POP PUSH2 0xAA JUMP JUMPDEST POP POP POP POP POP POP POP POP JUMP JUMPDEST PUSH1 0x0 DUP1 PUSH1 0x0 SWAP1 POP JUMPDEST DUP4 DUP4 SWAP1 POP DUP2 LT ISZERO PUSH2 0x1EF JUMPI DUP4 DUP4 DUP3 DUP2 DUP2 LT PUSH2 0x1C8 JUMPI PUSH2 0x1C7 PUSH2 0x57A JUMP JUMPDEST JUMPDEST SWAP1 POP PUSH1 0x20 MUL ADD CALLDATALOAD DUP3 PUSH2 0x1DA SWAP2 SWAP1 PUSH2 0x464 JUMP JUMPDEST SWAP2 POP DUP1 DUP1 PUSH2 0x1E7 SWAP1 PUSH2 0x502 JUMP JUMPDEST SWAP2 POP POP PUSH2 0x1AA JUMP JUMPDEST POP SWAP3 SWAP2 POP POP JUMP JUMPDEST PUSH1 0x0 DUP2 CALLDATALOAD SWAP1 POP PUSH2 0x205 DUP2 PUSH2 0x611 JUMP JUMPDEST SWAP3 SWAP2 POP POP JUMP JUMPDEST PUSH1 0x0 DUP1 DUP4 PUSH1 0x1F DUP5 ADD SLT PUSH2 0x221 JUMPI PUSH2 0x220 PUSH2 0x5AE JUMP JUMPDEST JUMPDEST DUP3 CALLDATALOAD SWAP1 POP PUSH8 0xFFFFFFFFFFFFFFFF DUP2 GT ISZERO PUSH2 0x23E JUMPI PUSH2 0x23D PUSH2 0x5A9 JUMP JUMPDEST JUMPDEST PUSH1 0x20 DUP4 ADD SWAP2 POP DUP4 PUSH1 0x20 DUP3 MUL DUP4 ADD GT ISZERO PUSH2 0x25A JUMPI PUSH2 0x259 PUSH2 0x5B3 JUMP JUMPDEST JUMPDEST SWAP3 POP SWAP3 SWAP1 POP JUMP JUMPDEST PUSH1 0x0 DUP1 DUP4 PUSH1 0x1F DUP5 ADD SLT PUSH2 0x277 JUMPI PUSH2 0x276 PUSH2 0x5AE JUMP JUMPDEST JUMPDEST DUP3 CALLDATALOAD SWAP1 POP PUSH8 0xFFFFFFFFFFFFFFFF DUP2 GT ISZERO PUSH2 0x294 JUMPI PUSH2 0x293 PUSH2 0x5A9 JUMP JUMPDEST JUMPDEST PUSH1 0x20 DUP4 ADD SWAP2 POP DUP4 PUSH1 0x20 DUP3 MUL DUP4 ADD GT ISZERO PUSH2 0x2B0 JUMPI PUSH2 0x2AF PUSH2 0x5B3 JUMP JUMPDEST JUMPDEST SWAP3 POP SWAP3 SWAP1 POP JUMP JUMPDEST PUSH1 0x0 DUP2 MLOAD SWAP1 POP PUSH2 0x2C6 DUP2 PUSH2 0x628 JUMP JUMPDEST SWAP3 SWAP2 POP POP JUMP JUMPDEST PUSH1 0x0 PUSH1 0x20 DUP3 DUP5 SUB SLT ISZERO PUSH2 0x2E2 JUMPI PUSH2 0x2E1 PUSH2 0x5BD JUMP JUMPDEST JUMPDEST PUSH1 0x0 PUSH2 0x2F0 DUP5 DUP3 DUP6 ADD PUSH2 0x1F6 JUMP JUMPDEST SWAP2 POP POP SWAP3 SWAP2 POP POP JUMP JUMPDEST PUSH1 0x0 DUP1 PUSH1 0x0 DUP1 PUSH1 0x0 PUSH1 0x60 DUP7 DUP9 SUB SLT ISZERO PUSH2 0x315 JUMPI PUSH2 0x314 PUSH2 0x5BD JUMP JUMPDEST JUMPDEST PUSH1 0x0 PUSH2 0x323 DUP9 DUP3 DUP10 ADD PUSH2 0x1F6 JUMP JUMPDEST SWAP6 POP POP PUSH1 0x20 DUP7 ADD CALLDATALOAD PUSH8 0xFFFFFFFFFFFFFFFF DUP2 GT ISZERO PUSH2 0x344 JUMPI PUSH2 0x343 PUSH2 0x5B8 JUMP JUMPDEST JUMPDEST PUSH2 0x350 DUP9 DUP3 DUP10 ADD PUSH2 0x20B JUMP JUMPDEST SWAP5 POP SWAP5 POP POP PUSH1 0x40 DUP7 ADD CALLDATALOAD PUSH8 0xFFFFFFFFFFFFFFFF DUP2 GT ISZERO PUSH2 0x373 JUMPI PUSH2 0x372 PUSH2 0x5B8 JUMP JUMPDEST JUMPDEST PUSH2 0x37F DUP9 DUP3 DUP10 ADD PUSH2 0x261 JUMP JUMPDEST SWAP3 POP SWAP3 POP POP SWAP3 SWAP6 POP SWAP3 SWAP6 SWAP1 SWAP4 POP JUMP JUMPDEST PUSH1 0x0 PUSH1 0x20 DUP3 DUP5 SUB SLT ISZERO PUSH2 0x3A4 JUMPI PUSH2 0x3A3 PUSH2 0x5BD JUMP JUMPDEST JUMPDEST PUSH1 0x0 PUSH2 0x3B2 DUP5 DUP3 DUP6 ADD PUSH2 0x2B7 JUMP JUMPDEST SWAP2 POP POP SWAP3 SWAP2 POP POP JUMP JUMPDEST PUSH2 0x3C4 DUP2 PUSH2 0x4BA JUMP JUMPDEST DUP3 MSTORE POP POP JUMP JUMPDEST PUSH1 0x0 PUSH2 0x3D7 PUSH1 0x2B DUP4 PUSH2 0x453 JUMP JUMPDEST SWAP2 POP PUSH2 0x3E2 DUP3 PUSH2 0x5C2 JUMP JUMPDEST PUSH1 0x40 DUP3 ADD SWAP1 POP SWAP2 SWAP1 POP JUMP JUMPDEST PUSH2 0x3F6 DUP2 PUSH2 0x4F8 JUMP JUMPDEST DUP3 MSTORE POP POP JUMP JUMPDEST PUSH1 0x0 PUSH1 0x60 DUP3 ADD SWAP1 POP PUSH2 0x411 PUSH1 0x0 DUP4 ADD DUP7 PUSH2 0x3BB JUMP JUMPDEST PUSH2 0x41E PUSH1 0x20 DUP4 ADD DUP6 PUSH2 0x3BB JUMP JUMPDEST PUSH2 0x42B PUSH1 0x40 DUP4 ADD DUP5 PUSH2 0x3ED JUMP JUMPDEST SWAP5 SWAP4 POP POP POP POP JUMP JUMPDEST PUSH1 0x0 PUSH1 0x20 DUP3 ADD SWAP1 POP DUP2 DUP2 SUB PUSH1 0x0 DUP4 ADD MSTORE PUSH2 0x44C DUP2 PUSH2 0x3CA JUMP JUMPDEST SWAP1 POP SWAP2 SWAP1 POP JUMP JUMPDEST PUSH1 0x0 DUP3 DUP3 MSTORE PUSH1 0x20 DUP3 ADD SWAP1 POP SWAP3 SWAP2 POP POP JUMP JUMPDEST PUSH1 0x0 PUSH2 0x46F DUP3 PUSH2 0x4F8 JUMP JUMPDEST SWAP2 POP PUSH2 0x47A DUP4 PUSH2 0x4F8 JUMP JUMPDEST SWAP3 POP DUP3 PUSH32 0xFFFFFFFFFFFFFFFFFFFFFFFFFFFFFFFFFFFFFFFFFFFFFFFFFFFFFFFFFFFFFFFF SUB DUP3 GT ISZERO PUSH2 0x4AF JUMPI PUSH2 0x4AE PUSH2 0x54B JUMP JUMPDEST JUMPDEST DUP3 DUP3 ADD SWAP1 POP SWAP3 SWAP2 POP POP JUMP JUMPDEST PUSH1 0x0 PUSH2 0x4C5 DUP3 PUSH2 0x4D8 JUMP JUMPDEST SWAP1 POP SWAP2 SWAP1 POP JUMP JUMPDEST PUSH1 0x0 DUP2 ISZERO ISZERO SWAP1 POP SWAP2 SWAP1 POP JUMP JUMPDEST PUSH1 0x0 PUSH20 0xFFFFFFFFFFFFFFFFFFFFFFFFFFFFFFFFFFFFFFFF DUP3 AND SWAP1 POP SWAP2 SWAP1 POP JUMP JUMPDEST PUSH1 0x0 DUP2 SWAP1 POP SWAP2 SWAP1 POP JUMP JUMPDEST PUSH1 0x0 PUSH2 0x50D DUP3 PUSH2 0x4F8 JUMP JUMPDEST SWAP2 POP PUSH32 0xFFFFFFFFFFFFFFFFFFFFFFFFFFFFFFFFFFFFFFFFFFFFFFFFFFFFFFFFFFFFFFFF DUP3 EQ ISZERO PUSH2 0x540 JUMPI PUSH2 0x53F PUSH2 0x54B JUMP JUMPDEST JUMPDEST PUSH1 0x1 DUP3 ADD SWAP1 POP SWAP2 SWAP1 POP JUMP JUMPDEST PUSH32 0x4E487B7100000000000000000000000000000000000000000000000000000000 PUSH1 0x0 MSTORE PUSH1 0x11 PUSH1 0x4 MSTORE PUSH1 0x24 PUSH1 0x0 REVERT JUMPDEST PUSH32 0x4E487B7100000000000000000000000000000000000000000000000000000000 PUSH1 0x0 MSTORE PUSH1 0x32 PUSH1 0x4 MSTORE PUSH1 0x24 PUSH1 0x0 REVERT JUMPDEST PUSH1 0x0 DUP1 REVERT JUMPDEST PUSH1 0x0 DUP1 REVERT JUMPDEST PUSH1 0x0 DUP1 REVERT JUMPDEST PUSH1 0x0 DUP1 REVERT JUMPDEST PUSH1 0x0 DUP1 REVERT JUMPDEST PUSH32 0x6C656E677468206F66206164647265737320646F206E6F7420657175616C2077 PUSH1 0x0 DUP3 ADD MSTORE PUSH32 0x69746820616D6F756E7473000000000000000000000000000000000000000000 PUSH1 0x20 DUP3 ADD MSTORE POP JUMP JUMPDEST PUSH2 0x61A DUP2 PUSH2 0x4BA JUMP JUMPDEST DUP2 EQ PUSH2 0x625 JUMPI PUSH1 0x0 DUP1 REVERT JUMPDEST POP JUMP JUMPDEST PUSH2 0x631 DUP2 PUSH2 0x4CC JUMP JUMPDEST DUP2 EQ PUSH2 0x63C JUMPI PUSH1 0x0 DUP1 REVERT JUMPDEST POP JUMP INVALID LOG2 PUSH5 0x6970667358 0x22 SLT KECCAK256 0xDD ADDRESS CALLDATACOPY GAS 0x2D SWAP1 CALLCODE PUSH11 0x986614B1C7A5D9F5263B26 DELEGATECALL 0xB0 SWAP5 AND 0xAB LOG2 CALLDATALOAD PC LOG3 0xC3 0xA9 PUSH4 0xEA64736F PUSH13 0x63430008070033000000000000 "
		},
		"gasEstimates": {
			"creation": {
				"codeDepositCost": "330600",
				"executionCost": "368",
				"totalCost": "330968"
			},
			"external": {
				"airdropTokens(address,address[],uint256[])": "infinite"
			},
			"internal": {
				"checkSum(uint256[] calldata)": "infinite"
			}
		},
		"methodIdentifiers": {
			"airdropTokens(address,address[],uint256[])": "4022b75e"
		}
	},
	"abi": [
		{
			"inputs": [
				{
					"internalType": "address",
					"name": "_token",
					"type": "address"
				},
				{
					"internalType": "address[]",
					"name": "_airdropList",
					"type": "address[]"
				},
				{
					"internalType": "uint256[]",
					"name": "_amounts",
					"type": "uint256[]"
				}
			],
			"name": "airdropTokens",
			"outputs": [],
			"stateMutability": "nonpayable",
			"type": "function"
		}
	]
}